{
	"SmartContract-Auction/Auction.sol": {
		"Auction": {
			"abi": [
				{
					"inputs": [],
					"stateMutability": "nonpayable",
					"type": "constructor"
				},
				{
					"inputs": [],
					"name": "MinimumBidValue",
					"outputs": [
						{
							"internalType": "uint256",
							"name": "",
							"type": "uint256"
						}
					],
					"stateMutability": "view",
					"type": "function"
				},
				{
					"inputs": [],
					"name": "auctionState",
					"outputs": [
						{
							"internalType": "enum Auction.State",
							"name": "",
							"type": "uint8"
						}
					],
					"stateMutability": "view",
					"type": "function"
				},
				{
					"inputs": [
						{
							"internalType": "address",
							"name": "",
							"type": "address"
						}
					],
					"name": "bids",
					"outputs": [
						{
							"internalType": "uint256",
							"name": "",
							"type": "uint256"
						}
					],
					"stateMutability": "view",
					"type": "function"
				},
				{
					"inputs": [],
					"name": "cancelAuction",
					"outputs": [],
					"stateMutability": "nonpayable",
					"type": "function"
				},
				{
					"inputs": [],
					"name": "endBlock",
					"outputs": [
						{
							"internalType": "uint256",
							"name": "",
							"type": "uint256"
						}
					],
					"stateMutability": "view",
					"type": "function"
				},
				{
					"inputs": [],
					"name": "finalizeAuction",
					"outputs": [],
					"stateMutability": "nonpayable",
					"type": "function"
				},
				{
					"inputs": [],
					"name": "highestBidder",
					"outputs": [
						{
							"internalType": "address payable",
							"name": "",
							"type": "address"
						}
					],
					"stateMutability": "view",
					"type": "function"
				},
				{
					"inputs": [],
					"name": "highestBindingBid",
					"outputs": [
						{
							"internalType": "uint256",
							"name": "",
							"type": "uint256"
						}
					],
					"stateMutability": "view",
					"type": "function"
				},
				{
					"inputs": [],
					"name": "ipfsHash",
					"outputs": [
						{
							"internalType": "string",
							"name": "",
							"type": "string"
						}
					],
					"stateMutability": "view",
					"type": "function"
				},
				{
					"inputs": [],
					"name": "owner",
					"outputs": [
						{
							"internalType": "address",
							"name": "",
							"type": "address"
						}
					],
					"stateMutability": "view",
					"type": "function"
				},
				{
					"inputs": [],
					"name": "placeBid",
					"outputs": [],
					"stateMutability": "payable",
					"type": "function"
				},
				{
					"inputs": [],
					"name": "startBlock",
					"outputs": [
						{
							"internalType": "uint256",
							"name": "",
							"type": "uint256"
						}
					],
					"stateMutability": "view",
					"type": "function"
				},
				{
					"inputs": [
						{
							"internalType": "uint256",
							"name": "blocksGenerated",
							"type": "uint256"
						},
						{
							"internalType": "uint256",
							"name": "BidIncrementWei",
							"type": "uint256"
						},
						{
							"internalType": "uint256",
							"name": "_MinimumBidValue",
							"type": "uint256"
						}
					],
					"name": "startNewBid",
					"outputs": [],
					"stateMutability": "nonpayable",
					"type": "function"
				}
			],
			"devdoc": {
				"kind": "dev",
				"methods": {},
				"version": 1
			},
			"evm": {
				"assembly": "    /* \"SmartContract-Auction/Auction.sol\":68:4037  contract Auction {... */\n  mstore(0x40, 0x80)\n    /* \"SmartContract-Auction/Auction.sol\":655:741  constructor(){... */\n  callvalue\n  dup1\n  iszero\n  tag_1\n  jumpi\n  0x00\n  dup1\n  revert\ntag_1:\n  pop\n    /* \"SmartContract-Auction/Auction.sol\":686:696  msg.sender */\n  caller\n    /* \"SmartContract-Auction/Auction.sol\":678:683  owner */\n  0x00\n  dup1\n    /* \"SmartContract-Auction/Auction.sol\":678:696  owner = msg.sender */\n  0x0100\n  exp\n  dup2\n  sload\n  dup2\n  0xffffffffffffffffffffffffffffffffffffffff\n  mul\n  not\n  and\n  swap1\n  dup4\n  0xffffffffffffffffffffffffffffffffffffffff\n  and\n  mul\n  or\n  swap1\n  sstore\n  pop\n    /* \"SmartContract-Auction/Auction.sol\":721:734  State.Started */\n  0x00\n    /* \"SmartContract-Auction/Auction.sol\":706:718  auctionState */\n  0x05\n  0x00\n    /* \"SmartContract-Auction/Auction.sol\":706:734  auctionState = State.Started */\n  0x0100\n  exp\n  dup2\n  sload\n  dup2\n  0xff\n  mul\n  not\n  and\n  swap1\n  dup4\n  0x03\n  dup2\n  gt\n  iszero\n  tag_4\n  jumpi\n  tag_5\n  tag_6\n  jump\t// in\ntag_5:\ntag_4:\n  mul\n  or\n  swap1\n  sstore\n  pop\n    /* \"SmartContract-Auction/Auction.sol\":68:4037  contract Auction {... */\n  jump(tag_7)\n    /* \"#utility.yul\":7:187   */\ntag_6:\n    /* \"#utility.yul\":55:132   */\n  0x4e487b7100000000000000000000000000000000000000000000000000000000\n    /* \"#utility.yul\":52:53   */\n  0x00\n    /* \"#utility.yul\":45:133   */\n  mstore\n    /* \"#utility.yul\":152:156   */\n  0x21\n    /* \"#utility.yul\":149:150   */\n  0x04\n    /* \"#utility.yul\":142:157   */\n  mstore\n    /* \"#utility.yul\":176:180   */\n  0x24\n    /* \"#utility.yul\":173:174   */\n  0x00\n    /* \"#utility.yul\":166:181   */\n  revert\n    /* \"SmartContract-Auction/Auction.sol\":68:4037  contract Auction {... */\ntag_7:\n  dataSize(sub_0)\n  dup1\n  dataOffset(sub_0)\n  0x00\n  codecopy\n  0x00\n  return\nstop\n\nsub_0: assembly {\n        /* \"SmartContract-Auction/Auction.sol\":68:4037  contract Auction {... */\n      mstore(0x40, 0x80)\n      jumpi(tag_1, lt(calldatasize, 0x04))\n      shr(0xe0, calldataload(0x00))\n      dup1\n      0x8fa8b790\n      gt\n      tag_15\n      jumpi\n      dup1\n      0xd5f84189\n      gt\n      tag_16\n      jumpi\n      dup1\n      0xd5f84189\n      eq\n      tag_11\n      jumpi\n      dup1\n      0xecfc7ecc\n      eq\n      tag_12\n      jumpi\n      dup1\n      0xf5b56c56\n      eq\n      tag_13\n      jumpi\n      dup1\n      0xf77282ab\n      eq\n      tag_14\n      jumpi\n      jump(tag_1)\n    tag_16:\n      dup1\n      0x8fa8b790\n      eq\n      tag_8\n      jumpi\n      dup1\n      0x91f90157\n      eq\n      tag_9\n      jumpi\n      dup1\n      0xc623674f\n      eq\n      tag_10\n      jumpi\n      jump(tag_1)\n    tag_15:\n      dup1\n      0x083c6323\n      eq\n      tag_2\n      jumpi\n      dup1\n      0x341175d5\n      eq\n      tag_3\n      jumpi\n      dup1\n      0x48cd4cb1\n      eq\n      tag_4\n      jumpi\n      dup1\n      0x62ea82db\n      eq\n      tag_5\n      jumpi\n      dup1\n      0x7fb45099\n      eq\n      tag_6\n      jumpi\n      dup1\n      0x8da5cb5b\n      eq\n      tag_7\n      jumpi\n    tag_1:\n      0x00\n      dup1\n      revert\n        /* \"SmartContract-Auction/Auction.sol\":244:264  uint public endBlock */\n    tag_2:\n      callvalue\n      dup1\n      iszero\n      tag_17\n      jumpi\n      0x00\n      dup1\n      revert\n    tag_17:\n      pop\n      tag_18\n      tag_19\n      jump\t// in\n    tag_18:\n      mload(0x40)\n      tag_20\n      swap2\n      swap1\n      tag_21\n      jump\t// in\n    tag_20:\n      mload(0x40)\n      dup1\n      swap2\n      sub\n      swap1\n      return\n        /* \"SmartContract-Auction/Auction.sol\":1080:1430  function startNewBid(uint blocksGenerated, uint BidIncrementWei, uint _MinimumBidValue) public onlyOwner isStarted{... */\n    tag_3:\n      callvalue\n      dup1\n      iszero\n      tag_22\n      jumpi\n      0x00\n      dup1\n      revert\n    tag_22:\n      pop\n      tag_23\n      0x04\n      dup1\n      calldatasize\n      sub\n      dup2\n      add\n      swap1\n      tag_24\n      swap2\n      swap1\n      tag_25\n      jump\t// in\n    tag_24:\n      tag_26\n      jump\t// in\n    tag_23:\n      stop\n        /* \"SmartContract-Auction/Auction.sol\":216:238  uint public startBlock */\n    tag_4:\n      callvalue\n      dup1\n      iszero\n      tag_27\n      jumpi\n      0x00\n      dup1\n      revert\n    tag_27:\n      pop\n      tag_28\n      tag_29\n      jump\t// in\n    tag_28:\n      mload(0x40)\n      tag_30\n      swap2\n      swap1\n      tag_21\n      jump\t// in\n    tag_30:\n      mload(0x40)\n      dup1\n      swap2\n      sub\n      swap1\n      return\n        /* \"SmartContract-Auction/Auction.sol\":531:567  mapping(address => uint) public bids */\n    tag_5:\n      callvalue\n      dup1\n      iszero\n      tag_31\n      jumpi\n      0x00\n      dup1\n      revert\n    tag_31:\n      pop\n      tag_32\n      0x04\n      dup1\n      calldatasize\n      sub\n      dup2\n      add\n      swap1\n      tag_33\n      swap2\n      swap1\n      tag_34\n      jump\t// in\n    tag_33:\n      tag_35\n      jump\t// in\n    tag_32:\n      mload(0x40)\n      tag_36\n      swap2\n      swap1\n      tag_21\n      jump\t// in\n    tag_36:\n      mload(0x40)\n      dup1\n      swap2\n      sub\n      swap1\n      return\n        /* \"SmartContract-Auction/Auction.sol\":421:446  State public auctionState */\n    tag_6:\n      callvalue\n      dup1\n      iszero\n      tag_37\n      jumpi\n      0x00\n      dup1\n      revert\n    tag_37:\n      pop\n      tag_38\n      tag_39\n      jump\t// in\n    tag_38:\n      mload(0x40)\n      tag_40\n      swap2\n      swap1\n      tag_41\n      jump\t// in\n    tag_40:\n      mload(0x40)\n      dup1\n      swap2\n      sub\n      swap1\n      return\n        /* \"SmartContract-Auction/Auction.sol\":91:111  address public owner */\n    tag_7:\n      callvalue\n      dup1\n      iszero\n      tag_42\n      jumpi\n      0x00\n      dup1\n      revert\n    tag_42:\n      pop\n      tag_43\n      tag_44\n      jump\t// in\n    tag_43:\n      mload(0x40)\n      tag_45\n      swap2\n      swap1\n      tag_46\n      jump\t// in\n    tag_45:\n      mload(0x40)\n      dup1\n      swap2\n      sub\n      swap1\n      return\n        /* \"SmartContract-Auction/Auction.sol\":1593:1682  function cancelAuction() public onlyOwner {... */\n    tag_8:\n      callvalue\n      dup1\n      iszero\n      tag_47\n      jumpi\n      0x00\n      dup1\n      revert\n    tag_47:\n      pop\n      tag_48\n      tag_49\n      jump\t// in\n    tag_48:\n      stop\n        /* \"SmartContract-Auction/Auction.sol\":488:524  address payable public highestBidder */\n    tag_9:\n      callvalue\n      dup1\n      iszero\n      tag_50\n      jumpi\n      0x00\n      dup1\n      revert\n    tag_50:\n      pop\n      tag_51\n      tag_52\n      jump\t// in\n    tag_51:\n      mload(0x40)\n      tag_53\n      swap2\n      swap1\n      tag_54\n      jump\t// in\n    tag_53:\n      mload(0x40)\n      dup1\n      swap2\n      sub\n      swap1\n      return\n        /* \"SmartContract-Auction/Auction.sol\":303:325  string public ipfsHash */\n    tag_10:\n      callvalue\n      dup1\n      iszero\n      tag_55\n      jumpi\n      0x00\n      dup1\n      revert\n    tag_55:\n      pop\n      tag_56\n      tag_57\n      jump\t// in\n    tag_56:\n      mload(0x40)\n      tag_58\n      swap2\n      swap1\n      tag_59\n      jump\t// in\n    tag_58:\n      mload(0x40)\n      dup1\n      swap2\n      sub\n      swap1\n      return\n        /* \"SmartContract-Auction/Auction.sol\":270:297  uint public MinimumBidValue */\n    tag_11:\n      callvalue\n      dup1\n      iszero\n      tag_60\n      jumpi\n      0x00\n      dup1\n      revert\n    tag_60:\n      pop\n      tag_61\n      tag_62\n      jump\t// in\n    tag_61:\n      mload(0x40)\n      tag_63\n      swap2\n      swap1\n      tag_21\n      jump\t// in\n    tag_63:\n      mload(0x40)\n      dup1\n      swap2\n      sub\n      swap1\n      return\n        /* \"SmartContract-Auction/Auction.sol\":1750:2408  function placeBid() public payable notOwnerOrBeneficiary afterStart beforeEnd{... */\n    tag_12:\n      tag_64\n      tag_65\n      jump\t// in\n    tag_64:\n      stop\n        /* \"SmartContract-Auction/Auction.sol\":453:482  uint public highestBindingBid */\n    tag_13:\n      callvalue\n      dup1\n      iszero\n      tag_66\n      jumpi\n      0x00\n      dup1\n      revert\n    tag_66:\n      pop\n      tag_67\n      tag_68\n      jump\t// in\n    tag_67:\n      mload(0x40)\n      tag_69\n      swap2\n      swap1\n      tag_21\n      jump\t// in\n    tag_69:\n      mload(0x40)\n      dup1\n      swap2\n      sub\n      swap1\n      return\n        /* \"SmartContract-Auction/Auction.sol\":2414:3444  function finalizeAuction() public{... */\n    tag_14:\n      callvalue\n      dup1\n      iszero\n      tag_70\n      jumpi\n      0x00\n      dup1\n      revert\n    tag_70:\n      pop\n      tag_71\n      tag_72\n      jump\t// in\n    tag_71:\n      stop\n        /* \"SmartContract-Auction/Auction.sol\":244:264  uint public endBlock */\n    tag_19:\n      sload(0x02)\n      dup2\n      jump\t// out\n        /* \"SmartContract-Auction/Auction.sol\":1080:1430  function startNewBid(uint blocksGenerated, uint BidIncrementWei, uint _MinimumBidValue) public onlyOwner isStarted{... */\n    tag_26:\n        /* \"SmartContract-Auction/Auction.sol\":3918:3923  owner */\n      0x00\n      dup1\n      sload\n      swap1\n      0x0100\n      exp\n      swap1\n      div\n      0xffffffffffffffffffffffffffffffffffffffff\n      and\n        /* \"SmartContract-Auction/Auction.sol\":3904:3923  msg.sender == owner */\n      0xffffffffffffffffffffffffffffffffffffffff\n      and\n        /* \"SmartContract-Auction/Auction.sol\":3904:3914  msg.sender */\n      caller\n        /* \"SmartContract-Auction/Auction.sol\":3904:3923  msg.sender == owner */\n      0xffffffffffffffffffffffffffffffffffffffff\n      and\n      eq\n        /* \"SmartContract-Auction/Auction.sol\":3896:3924  require(msg.sender == owner) */\n      tag_74\n      jumpi\n      0x00\n      dup1\n      revert\n    tag_74:\n        /* \"SmartContract-Auction/Auction.sol\":3828:3841  State.Started */\n      0x00\n        /* \"SmartContract-Auction/Auction.sol\":3812:3841  auctionState == State.Started */\n      0x03\n      dup2\n      gt\n      iszero\n      tag_76\n      jumpi\n      tag_77\n      tag_78\n      jump\t// in\n    tag_77:\n    tag_76:\n        /* \"SmartContract-Auction/Auction.sol\":3812:3824  auctionState */\n      0x05\n      0x00\n      swap1\n      sload\n      swap1\n      0x0100\n      exp\n      swap1\n      div\n      0xff\n      and\n        /* \"SmartContract-Auction/Auction.sol\":3812:3841  auctionState == State.Started */\n      0x03\n      dup2\n      gt\n      iszero\n      tag_79\n      jumpi\n      tag_80\n      tag_78\n      jump\t// in\n    tag_80:\n    tag_79:\n      eq\n        /* \"SmartContract-Auction/Auction.sol\":3803:3842  require (auctionState == State.Started) */\n      tag_81\n      jumpi\n      0x00\n      dup1\n      revert\n    tag_81:\n        /* \"SmartContract-Auction/Auction.sol\":1217:1229  block.number */\n      number\n        /* \"SmartContract-Auction/Auction.sol\":1204:1214  startBlock */\n      0x01\n        /* \"SmartContract-Auction/Auction.sol\":1204:1229  startBlock = block.number */\n      dup2\n      swap1\n      sstore\n      pop\n        /* \"SmartContract-Auction/Auction.sol\":1263:1278  blocksGenerated */\n      dup3\n        /* \"SmartContract-Auction/Auction.sol\":1250:1260  startBlock */\n      sload(0x01)\n        /* \"SmartContract-Auction/Auction.sol\":1250:1278  startBlock + blocksGenerated */\n      tag_83\n      swap2\n      swap1\n      tag_84\n      jump\t// in\n    tag_83:\n        /* \"SmartContract-Auction/Auction.sol\":1239:1247  endBlock */\n      0x02\n        /* \"SmartContract-Auction/Auction.sol\":1239:1278  endBlock = startBlock + blocksGenerated */\n      dup2\n      swap1\n      sstore\n      pop\n        /* \"SmartContract-Auction/Auction.sol\":1303:1316  State.Running */\n      0x01\n        /* \"SmartContract-Auction/Auction.sol\":1288:1300  auctionState */\n      0x05\n      0x00\n        /* \"SmartContract-Auction/Auction.sol\":1288:1316  auctionState = State.Running */\n      0x0100\n      exp\n      dup2\n      sload\n      dup2\n      0xff\n      mul\n      not\n      and\n      swap1\n      dup4\n      0x03\n      dup2\n      gt\n      iszero\n      tag_85\n      jumpi\n      tag_86\n      tag_78\n      jump\t// in\n    tag_86:\n    tag_85:\n      mul\n      or\n      swap1\n      sstore\n      pop\n        /* \"SmartContract-Auction/Auction.sol\":1326:1339  ipfsHash = \"\" */\n      mload(0x40)\n      dup1\n      0x20\n      add\n      0x40\n      mstore\n      dup1\n      0x00\n      dup2\n      mstore\n      pop\n        /* \"SmartContract-Auction/Auction.sol\":1326:1334  ipfsHash */\n      0x04\n        /* \"SmartContract-Auction/Auction.sol\":1326:1339  ipfsHash = \"\" */\n      swap1\n      dup1\n      mload\n      swap1\n      0x20\n      add\n      swap1\n      tag_87\n      swap3\n      swap2\n      swap1\n      tag_88\n      jump\t// in\n    tag_87:\n      pop\n        /* \"SmartContract-Auction/Auction.sol\":1364:1379  BidIncrementWei */\n      dup2\n        /* \"SmartContract-Auction/Auction.sol\":1349:1361  bidIncrement */\n      0x09\n        /* \"SmartContract-Auction/Auction.sol\":1349:1379  bidIncrement = BidIncrementWei */\n      dup2\n      swap1\n      sstore\n      pop\n        /* \"SmartContract-Auction/Auction.sol\":1407:1423  _MinimumBidValue */\n      dup1\n        /* \"SmartContract-Auction/Auction.sol\":1389:1404  MinimumBidValue */\n      0x03\n        /* \"SmartContract-Auction/Auction.sol\":1389:1423  MinimumBidValue = _MinimumBidValue */\n      dup2\n      swap1\n      sstore\n      pop\n        /* \"SmartContract-Auction/Auction.sol\":1080:1430  function startNewBid(uint blocksGenerated, uint BidIncrementWei, uint _MinimumBidValue) public onlyOwner isStarted{... */\n      pop\n      pop\n      pop\n      jump\t// out\n        /* \"SmartContract-Auction/Auction.sol\":216:238  uint public startBlock */\n    tag_29:\n      sload(0x01)\n      dup2\n      jump\t// out\n        /* \"SmartContract-Auction/Auction.sol\":531:567  mapping(address => uint) public bids */\n    tag_35:\n      mstore(0x20, 0x08)\n      dup1\n      0x00\n      mstore\n      keccak256(0x00, 0x40)\n      0x00\n      swap2\n      pop\n      swap1\n      pop\n      sload\n      dup2\n      jump\t// out\n        /* \"SmartContract-Auction/Auction.sol\":421:446  State public auctionState */\n    tag_39:\n      0x05\n      0x00\n      swap1\n      sload\n      swap1\n      0x0100\n      exp\n      swap1\n      div\n      0xff\n      and\n      dup2\n      jump\t// out\n        /* \"SmartContract-Auction/Auction.sol\":91:111  address public owner */\n    tag_44:\n      0x00\n      dup1\n      sload\n      swap1\n      0x0100\n      exp\n      swap1\n      div\n      0xffffffffffffffffffffffffffffffffffffffff\n      and\n      dup2\n      jump\t// out\n        /* \"SmartContract-Auction/Auction.sol\":1593:1682  function cancelAuction() public onlyOwner {... */\n    tag_49:\n        /* \"SmartContract-Auction/Auction.sol\":3918:3923  owner */\n      0x00\n      dup1\n      sload\n      swap1\n      0x0100\n      exp\n      swap1\n      div\n      0xffffffffffffffffffffffffffffffffffffffff\n      and\n        /* \"SmartContract-Auction/Auction.sol\":3904:3923  msg.sender == owner */\n      0xffffffffffffffffffffffffffffffffffffffff\n      and\n        /* \"SmartContract-Auction/Auction.sol\":3904:3914  msg.sender */\n      caller\n        /* \"SmartContract-Auction/Auction.sol\":3904:3923  msg.sender == owner */\n      0xffffffffffffffffffffffffffffffffffffffff\n      and\n      eq\n        /* \"SmartContract-Auction/Auction.sol\":3896:3924  require(msg.sender == owner) */\n      tag_90\n      jumpi\n      0x00\n      dup1\n      revert\n    tag_90:\n        /* \"SmartContract-Auction/Auction.sol\":1660:1674  State.Canceled */\n      0x03\n        /* \"SmartContract-Auction/Auction.sol\":1645:1657  auctionState */\n      0x05\n      0x00\n        /* \"SmartContract-Auction/Auction.sol\":1645:1674  auctionState = State.Canceled */\n      0x0100\n      exp\n      dup2\n      sload\n      dup2\n      0xff\n      mul\n      not\n      and\n      swap1\n      dup4\n      0x03\n      dup2\n      gt\n      iszero\n      tag_92\n      jumpi\n      tag_93\n      tag_78\n      jump\t// in\n    tag_93:\n    tag_92:\n      mul\n      or\n      swap1\n      sstore\n      pop\n        /* \"SmartContract-Auction/Auction.sol\":1593:1682  function cancelAuction() public onlyOwner {... */\n      jump\t// out\n        /* \"SmartContract-Auction/Auction.sol\":488:524  address payable public highestBidder */\n    tag_52:\n      0x07\n      0x00\n      swap1\n      sload\n      swap1\n      0x0100\n      exp\n      swap1\n      div\n      0xffffffffffffffffffffffffffffffffffffffff\n      and\n      dup2\n      jump\t// out\n        /* \"SmartContract-Auction/Auction.sol\":303:325  string public ipfsHash */\n    tag_57:\n      0x04\n      dup1\n      sload\n      tag_94\n      swap1\n      tag_95\n      jump\t// in\n    tag_94:\n      dup1\n      0x1f\n      add\n      0x20\n      dup1\n      swap2\n      div\n      mul\n      0x20\n      add\n      mload(0x40)\n      swap1\n      dup2\n      add\n      0x40\n      mstore\n      dup1\n      swap3\n      swap2\n      swap1\n      dup2\n      dup2\n      mstore\n      0x20\n      add\n      dup3\n      dup1\n      sload\n      tag_96\n      swap1\n      tag_95\n      jump\t// in\n    tag_96:\n      dup1\n      iszero\n      tag_97\n      jumpi\n      dup1\n      0x1f\n      lt\n      tag_98\n      jumpi\n      0x0100\n      dup1\n      dup4\n      sload\n      div\n      mul\n      dup4\n      mstore\n      swap2\n      0x20\n      add\n      swap2\n      jump(tag_97)\n    tag_98:\n      dup3\n      add\n      swap2\n      swap1\n      0x00\n      mstore\n      keccak256(0x00, 0x20)\n      swap1\n    tag_99:\n      dup2\n      sload\n      dup2\n      mstore\n      swap1\n      0x01\n      add\n      swap1\n      0x20\n      add\n      dup1\n      dup4\n      gt\n      tag_99\n      jumpi\n      dup3\n      swap1\n      sub\n      0x1f\n      and\n      dup3\n      add\n      swap2\n    tag_97:\n      pop\n      pop\n      pop\n      pop\n      pop\n      dup2\n      jump\t// out\n        /* \"SmartContract-Auction/Auction.sol\":270:297  uint public MinimumBidValue */\n    tag_62:\n      sload(0x03)\n      dup2\n      jump\t// out\n        /* \"SmartContract-Auction/Auction.sol\":1750:2408  function placeBid() public payable notOwnerOrBeneficiary afterStart beforeEnd{... */\n    tag_65:\n        /* \"SmartContract-Auction/Auction.sol\":3743:3748  owner */\n      0x00\n      dup1\n      sload\n      swap1\n      0x0100\n      exp\n      swap1\n      div\n      0xffffffffffffffffffffffffffffffffffffffff\n      and\n        /* \"SmartContract-Auction/Auction.sol\":3729:3748  msg.sender != owner */\n      0xffffffffffffffffffffffffffffffffffffffff\n      and\n        /* \"SmartContract-Auction/Auction.sol\":3729:3739  msg.sender */\n      caller\n        /* \"SmartContract-Auction/Auction.sol\":3729:3748  msg.sender != owner */\n      0xffffffffffffffffffffffffffffffffffffffff\n      and\n      eq\n      iszero\n        /* \"SmartContract-Auction/Auction.sol\":3721:3749  require(msg.sender != owner) */\n      tag_101\n      jumpi\n      0x00\n      dup1\n      revert\n    tag_101:\n        /* \"SmartContract-Auction/Auction.sol\":3505:3515  startBlock */\n      sload(0x01)\n        /* \"SmartContract-Auction/Auction.sol\":3489:3501  block.number */\n      number\n        /* \"SmartContract-Auction/Auction.sol\":3489:3515  block.number >= startBlock */\n      lt\n      iszero\n        /* \"SmartContract-Auction/Auction.sol\":3481:3516  require(block.number >= startBlock) */\n      tag_103\n      jumpi\n      0x00\n      dup1\n      revert\n    tag_103:\n        /* \"SmartContract-Auction/Auction.sol\":3594:3602  endBlock */\n      sload(0x02)\n        /* \"SmartContract-Auction/Auction.sol\":3578:3590  block.number */\n      number\n        /* \"SmartContract-Auction/Auction.sol\":3578:3602  block.number <= endBlock */\n      gt\n      iszero\n        /* \"SmartContract-Auction/Auction.sol\":3570:3603  require(block.number <= endBlock) */\n      tag_105\n      jumpi\n      0x00\n      dup1\n      revert\n    tag_105:\n        /* \"SmartContract-Auction/Auction.sol\":1861:1874  State.Running */\n      0x01\n        /* \"SmartContract-Auction/Auction.sol\":1845:1874  auctionState == State.Running */\n      0x03\n      dup2\n      gt\n      iszero\n      tag_107\n      jumpi\n      tag_108\n      tag_78\n      jump\t// in\n    tag_108:\n    tag_107:\n        /* \"SmartContract-Auction/Auction.sol\":1845:1857  auctionState */\n      0x05\n      0x00\n      swap1\n      sload\n      swap1\n      0x0100\n      exp\n      swap1\n      div\n      0xff\n      and\n        /* \"SmartContract-Auction/Auction.sol\":1845:1874  auctionState == State.Running */\n      0x03\n      dup2\n      gt\n      iszero\n      tag_109\n      jumpi\n      tag_110\n      tag_78\n      jump\t// in\n    tag_110:\n    tag_109:\n      eq\n        /* \"SmartContract-Auction/Auction.sol\":1837:1914  require(auctionState == State.Running, \"Please wait until the auction start\") */\n      tag_111\n      jumpi\n      mload(0x40)\n      0x08c379a000000000000000000000000000000000000000000000000000000000\n      dup2\n      mstore\n      0x04\n      add\n      tag_112\n      swap1\n      tag_113\n      jump\t// in\n    tag_112:\n      mload(0x40)\n      dup1\n      swap2\n      sub\n      swap1\n      revert\n    tag_111:\n        /* \"SmartContract-Auction/Auction.sol\":1945:1960  MinimumBidValue */\n      sload(0x03)\n        /* \"SmartContract-Auction/Auction.sol\":1932:1941  msg.value */\n      callvalue\n        /* \"SmartContract-Auction/Auction.sol\":1932:1960  msg.value >= MinimumBidValue */\n      lt\n      iszero\n        /* \"SmartContract-Auction/Auction.sol\":1924:1961  require(msg.value >= MinimumBidValue) */\n      tag_114\n      jumpi\n      0x00\n      dup1\n      revert\n    tag_114:\n        /* \"SmartContract-Auction/Auction.sol\":1972:1987  uint currentBid */\n      0x00\n        /* \"SmartContract-Auction/Auction.sol\":2009:2018  msg.value */\n      callvalue\n        /* \"SmartContract-Auction/Auction.sol\":1990:1994  bids */\n      0x08\n        /* \"SmartContract-Auction/Auction.sol\":1990:2006  bids[msg.sender] */\n      0x00\n        /* \"SmartContract-Auction/Auction.sol\":1995:2005  msg.sender */\n      caller\n        /* \"SmartContract-Auction/Auction.sol\":1990:2006  bids[msg.sender] */\n      0xffffffffffffffffffffffffffffffffffffffff\n      and\n      0xffffffffffffffffffffffffffffffffffffffff\n      and\n      dup2\n      mstore\n      0x20\n      add\n      swap1\n      dup2\n      mstore\n      0x20\n      add\n      0x00\n      keccak256\n      sload\n        /* \"SmartContract-Auction/Auction.sol\":1990:2018  bids[msg.sender] + msg.value */\n      tag_115\n      swap2\n      swap1\n      tag_84\n      jump\t// in\n    tag_115:\n        /* \"SmartContract-Auction/Auction.sol\":1972:2018  uint currentBid = bids[msg.sender] + msg.value */\n      swap1\n      pop\n        /* \"SmartContract-Auction/Auction.sol\":2051:2068  highestBindingBid */\n      sload(0x06)\n        /* \"SmartContract-Auction/Auction.sol\":2037:2047  currentBid */\n      dup2\n        /* \"SmartContract-Auction/Auction.sol\":2037:2068  currentBid >= highestBindingBid */\n      lt\n      iszero\n        /* \"SmartContract-Auction/Auction.sol\":2029:2069  require(currentBid >= highestBindingBid) */\n      tag_116\n      jumpi\n      0x00\n      dup1\n      revert\n    tag_116:\n        /* \"SmartContract-Auction/Auction.sol\":2099:2109  currentBid */\n      dup1\n        /* \"SmartContract-Auction/Auction.sol\":2080:2084  bids */\n      0x08\n        /* \"SmartContract-Auction/Auction.sol\":2080:2096  bids[msg.sender] */\n      0x00\n        /* \"SmartContract-Auction/Auction.sol\":2085:2095  msg.sender */\n      caller\n        /* \"SmartContract-Auction/Auction.sol\":2080:2096  bids[msg.sender] */\n      0xffffffffffffffffffffffffffffffffffffffff\n      and\n      0xffffffffffffffffffffffffffffffffffffffff\n      and\n      dup2\n      mstore\n      0x20\n      add\n      swap1\n      dup2\n      mstore\n      0x20\n      add\n      0x00\n      keccak256\n        /* \"SmartContract-Auction/Auction.sol\":2080:2109  bids[msg.sender] = currentBid */\n      dup2\n      swap1\n      sstore\n      pop\n        /* \"SmartContract-Auction/Auction.sol\":2137:2141  bids */\n      0x08\n        /* \"SmartContract-Auction/Auction.sol\":2137:2156  bids[highestBidder] */\n      0x00\n        /* \"SmartContract-Auction/Auction.sol\":2142:2155  highestBidder */\n      0x07\n      0x00\n      swap1\n      sload\n      swap1\n      0x0100\n      exp\n      swap1\n      div\n      0xffffffffffffffffffffffffffffffffffffffff\n      and\n        /* \"SmartContract-Auction/Auction.sol\":2137:2156  bids[highestBidder] */\n      0xffffffffffffffffffffffffffffffffffffffff\n      and\n      0xffffffffffffffffffffffffffffffffffffffff\n      and\n      dup2\n      mstore\n      0x20\n      add\n      swap1\n      dup2\n      mstore\n      0x20\n      add\n      0x00\n      keccak256\n      sload\n        /* \"SmartContract-Auction/Auction.sol\":2123:2133  currentBid */\n      dup2\n        /* \"SmartContract-Auction/Auction.sol\":2123:2156  currentBid <= bids[highestBidder] */\n      gt\n        /* \"SmartContract-Auction/Auction.sol\":2120:2402  if(currentBid <= bids[highestBidder]){... */\n      tag_117\n      jumpi\n        /* \"SmartContract-Auction/Auction.sol\":2191:2242  min(currentBid + bidIncrement, bids[highestBidder]) */\n      tag_118\n        /* \"SmartContract-Auction/Auction.sol\":2208:2220  bidIncrement */\n      sload(0x09)\n        /* \"SmartContract-Auction/Auction.sol\":2195:2205  currentBid */\n      dup3\n        /* \"SmartContract-Auction/Auction.sol\":2195:2220  currentBid + bidIncrement */\n      tag_119\n      swap2\n      swap1\n      tag_84\n      jump\t// in\n    tag_119:\n        /* \"SmartContract-Auction/Auction.sol\":2222:2226  bids */\n      0x08\n        /* \"SmartContract-Auction/Auction.sol\":2222:2241  bids[highestBidder] */\n      0x00\n        /* \"SmartContract-Auction/Auction.sol\":2227:2240  highestBidder */\n      0x07\n      0x00\n      swap1\n      sload\n      swap1\n      0x0100\n      exp\n      swap1\n      div\n      0xffffffffffffffffffffffffffffffffffffffff\n      and\n        /* \"SmartContract-Auction/Auction.sol\":2222:2241  bids[highestBidder] */\n      0xffffffffffffffffffffffffffffffffffffffff\n      and\n      0xffffffffffffffffffffffffffffffffffffffff\n      and\n      dup2\n      mstore\n      0x20\n      add\n      swap1\n      dup2\n      mstore\n      0x20\n      add\n      0x00\n      keccak256\n      sload\n        /* \"SmartContract-Auction/Auction.sol\":2191:2194  min */\n      tag_120\n        /* \"SmartContract-Auction/Auction.sol\":2191:2242  min(currentBid + bidIncrement, bids[highestBidder]) */\n      jump\t// in\n    tag_118:\n        /* \"SmartContract-Auction/Auction.sol\":2171:2188  highestBindingBid */\n      0x06\n        /* \"SmartContract-Auction/Auction.sol\":2171:2242  highestBindingBid = min(currentBid + bidIncrement, bids[highestBidder]) */\n      dup2\n      swap1\n      sstore\n      pop\n        /* \"SmartContract-Auction/Auction.sol\":2120:2402  if(currentBid <= bids[highestBidder]){... */\n      jump(tag_121)\n    tag_117:\n        /* \"SmartContract-Auction/Auction.sol\":2291:2342  min(currentBid, bids[highestBidder] + bidIncrement) */\n      tag_122\n        /* \"SmartContract-Auction/Auction.sol\":2295:2305  currentBid */\n      dup2\n        /* \"SmartContract-Auction/Auction.sol\":2329:2341  bidIncrement */\n      sload(0x09)\n        /* \"SmartContract-Auction/Auction.sol\":2307:2311  bids */\n      0x08\n        /* \"SmartContract-Auction/Auction.sol\":2307:2326  bids[highestBidder] */\n      0x00\n        /* \"SmartContract-Auction/Auction.sol\":2312:2325  highestBidder */\n      0x07\n      0x00\n      swap1\n      sload\n      swap1\n      0x0100\n      exp\n      swap1\n      div\n      0xffffffffffffffffffffffffffffffffffffffff\n      and\n        /* \"SmartContract-Auction/Auction.sol\":2307:2326  bids[highestBidder] */\n      0xffffffffffffffffffffffffffffffffffffffff\n      and\n      0xffffffffffffffffffffffffffffffffffffffff\n      and\n      dup2\n      mstore\n      0x20\n      add\n      swap1\n      dup2\n      mstore\n      0x20\n      add\n      0x00\n      keccak256\n      sload\n        /* \"SmartContract-Auction/Auction.sol\":2307:2341  bids[highestBidder] + bidIncrement */\n      tag_123\n      swap2\n      swap1\n      tag_84\n      jump\t// in\n    tag_123:\n        /* \"SmartContract-Auction/Auction.sol\":2291:2294  min */\n      tag_120\n        /* \"SmartContract-Auction/Auction.sol\":2291:2342  min(currentBid, bids[highestBidder] + bidIncrement) */\n      jump\t// in\n    tag_122:\n        /* \"SmartContract-Auction/Auction.sol\":2271:2288  highestBindingBid */\n      0x06\n        /* \"SmartContract-Auction/Auction.sol\":2271:2342  highestBindingBid = min(currentBid, bids[highestBidder] + bidIncrement) */\n      dup2\n      swap1\n      sstore\n      pop\n        /* \"SmartContract-Auction/Auction.sol\":2380:2390  msg.sender */\n      caller\n        /* \"SmartContract-Auction/Auction.sol\":2356:2369  highestBidder */\n      0x07\n      0x00\n        /* \"SmartContract-Auction/Auction.sol\":2356:2391  highestBidder = payable(msg.sender) */\n      0x0100\n      exp\n      dup2\n      sload\n      dup2\n      0xffffffffffffffffffffffffffffffffffffffff\n      mul\n      not\n      and\n      swap1\n      dup4\n      0xffffffffffffffffffffffffffffffffffffffff\n      and\n      mul\n      or\n      swap1\n      sstore\n      pop\n        /* \"SmartContract-Auction/Auction.sol\":2120:2402  if(currentBid <= bids[highestBidder]){... */\n    tag_121:\n        /* \"SmartContract-Auction/Auction.sol\":1827:2408  {... */\n      pop\n        /* \"SmartContract-Auction/Auction.sol\":1750:2408  function placeBid() public payable notOwnerOrBeneficiary afterStart beforeEnd{... */\n      jump\t// out\n        /* \"SmartContract-Auction/Auction.sol\":453:482  uint public highestBindingBid */\n    tag_68:\n      sload(0x06)\n      dup2\n      jump\t// out\n        /* \"SmartContract-Auction/Auction.sol\":2414:3444  function finalizeAuction() public{... */\n    tag_72:\n        /* \"SmartContract-Auction/Auction.sol\":2481:2495  State.Canceled */\n      0x03\n        /* \"SmartContract-Auction/Auction.sol\":2465:2495  auctionState == State.Canceled */\n      dup1\n      dup2\n      gt\n      iszero\n      tag_125\n      jumpi\n      tag_126\n      tag_78\n      jump\t// in\n    tag_126:\n    tag_125:\n        /* \"SmartContract-Auction/Auction.sol\":2465:2477  auctionState */\n      0x05\n      0x00\n      swap1\n      sload\n      swap1\n      0x0100\n      exp\n      swap1\n      div\n      0xff\n      and\n        /* \"SmartContract-Auction/Auction.sol\":2465:2495  auctionState == State.Canceled */\n      0x03\n      dup2\n      gt\n      iszero\n      tag_127\n      jumpi\n      tag_128\n      tag_78\n      jump\t// in\n    tag_128:\n    tag_127:\n      eq\n        /* \"SmartContract-Auction/Auction.sol\":2465:2523  auctionState == State.Canceled || block.number >= endBlock */\n      dup1\n      tag_129\n      jumpi\n      pop\n        /* \"SmartContract-Auction/Auction.sol\":2515:2523  endBlock */\n      sload(0x02)\n        /* \"SmartContract-Auction/Auction.sol\":2499:2511  block.number */\n      number\n        /* \"SmartContract-Auction/Auction.sol\":2499:2523  block.number >= endBlock */\n      lt\n      iszero\n        /* \"SmartContract-Auction/Auction.sol\":2465:2523  auctionState == State.Canceled || block.number >= endBlock */\n    tag_129:\n        /* \"SmartContract-Auction/Auction.sol\":2457:2524  require(auctionState == State.Canceled || block.number >= endBlock) */\n      tag_130\n      jumpi\n      0x00\n      dup1\n      revert\n    tag_130:\n        /* \"SmartContract-Auction/Auction.sol\":2542:2561  isOwner(msg.sender) */\n      tag_131\n        /* \"SmartContract-Auction/Auction.sol\":2550:2560  msg.sender */\n      caller\n        /* \"SmartContract-Auction/Auction.sol\":2542:2549  isOwner */\n      tag_132\n        /* \"SmartContract-Auction/Auction.sol\":2542:2561  isOwner(msg.sender) */\n      jump\t// in\n    tag_131:\n        /* \"SmartContract-Auction/Auction.sol\":2542:2585  isOwner(msg.sender) || bids[msg.sender] > 0 */\n      dup1\n      tag_133\n      jumpi\n      pop\n        /* \"SmartContract-Auction/Auction.sol\":2584:2585  0 */\n      0x00\n        /* \"SmartContract-Auction/Auction.sol\":2565:2569  bids */\n      0x08\n        /* \"SmartContract-Auction/Auction.sol\":2565:2581  bids[msg.sender] */\n      0x00\n        /* \"SmartContract-Auction/Auction.sol\":2570:2580  msg.sender */\n      caller\n        /* \"SmartContract-Auction/Auction.sol\":2565:2581  bids[msg.sender] */\n      0xffffffffffffffffffffffffffffffffffffffff\n      and\n      0xffffffffffffffffffffffffffffffffffffffff\n      and\n      dup2\n      mstore\n      0x20\n      add\n      swap1\n      dup2\n      mstore\n      0x20\n      add\n      0x00\n      keccak256\n      sload\n        /* \"SmartContract-Auction/Auction.sol\":2565:2585  bids[msg.sender] > 0 */\n      gt\n        /* \"SmartContract-Auction/Auction.sol\":2542:2585  isOwner(msg.sender) || bids[msg.sender] > 0 */\n    tag_133:\n        /* \"SmartContract-Auction/Auction.sol\":2534:2586  require(isOwner(msg.sender) || bids[msg.sender] > 0) */\n      tag_134\n      jumpi\n      0x00\n      dup1\n      revert\n    tag_134:\n        /* \"SmartContract-Auction/Auction.sol\":2597:2622  address payable recipient */\n      0x00\n        /* \"SmartContract-Auction/Auction.sol\":2632:2642  uint value */\n      dup1\n        /* \"SmartContract-Auction/Auction.sol\":2672:2686  State.Canceled */\n      0x03\n        /* \"SmartContract-Auction/Auction.sol\":2656:2686  auctionState == State.Canceled */\n      dup1\n      dup2\n      gt\n      iszero\n      tag_135\n      jumpi\n      tag_136\n      tag_78\n      jump\t// in\n    tag_136:\n    tag_135:\n        /* \"SmartContract-Auction/Auction.sol\":2656:2668  auctionState */\n      0x05\n      0x00\n      swap1\n      sload\n      swap1\n      0x0100\n      exp\n      swap1\n      div\n      0xff\n      and\n        /* \"SmartContract-Auction/Auction.sol\":2656:2686  auctionState == State.Canceled */\n      0x03\n      dup2\n      gt\n      iszero\n      tag_137\n      jumpi\n      tag_138\n      tag_78\n      jump\t// in\n    tag_138:\n    tag_137:\n      eq\n        /* \"SmartContract-Auction/Auction.sol\":2653:3373  if(auctionState == State.Canceled){ //auction canceled... */\n      iszero\n      tag_139\n      jumpi\n        /* \"SmartContract-Auction/Auction.sol\":2740:2750  msg.sender */\n      caller\n        /* \"SmartContract-Auction/Auction.sol\":2720:2751  recipient = payable(msg.sender) */\n      swap2\n      pop\n        /* \"SmartContract-Auction/Auction.sol\":2773:2777  bids */\n      0x08\n        /* \"SmartContract-Auction/Auction.sol\":2773:2789  bids[msg.sender] */\n      0x00\n        /* \"SmartContract-Auction/Auction.sol\":2778:2788  msg.sender */\n      caller\n        /* \"SmartContract-Auction/Auction.sol\":2773:2789  bids[msg.sender] */\n      0xffffffffffffffffffffffffffffffffffffffff\n      and\n      0xffffffffffffffffffffffffffffffffffffffff\n      and\n      dup2\n      mstore\n      0x20\n      add\n      swap1\n      dup2\n      mstore\n      0x20\n      add\n      0x00\n      keccak256\n      sload\n        /* \"SmartContract-Auction/Auction.sol\":2765:2789  value = bids[msg.sender] */\n      swap1\n      pop\n        /* \"SmartContract-Auction/Auction.sol\":2653:3373  if(auctionState == State.Canceled){ //auction canceled... */\n      jump(tag_140)\n    tag_139:\n        /* \"SmartContract-Auction/Auction.sol\":2851:2870  isOwner(msg.sender) */\n      tag_141\n        /* \"SmartContract-Auction/Auction.sol\":2859:2869  msg.sender */\n      caller\n        /* \"SmartContract-Auction/Auction.sol\":2851:2858  isOwner */\n      tag_132\n        /* \"SmartContract-Auction/Auction.sol\":2851:2870  isOwner(msg.sender) */\n      jump\t// in\n    tag_141:\n        /* \"SmartContract-Auction/Auction.sol\":2848:3363  if(isOwner(msg.sender)){... */\n      iszero\n      tag_142\n      jumpi\n        /* \"SmartContract-Auction/Auction.sol\":2909:2914  owner */\n      0x00\n      dup1\n      sload\n      swap1\n      0x0100\n      exp\n      swap1\n      div\n      0xffffffffffffffffffffffffffffffffffffffff\n      and\n        /* \"SmartContract-Auction/Auction.sol\":2889:2915  recipient = payable(owner) */\n      swap2\n      pop\n        /* \"SmartContract-Auction/Auction.sol\":2941:2958  highestBindingBid */\n      sload(0x06)\n        /* \"SmartContract-Auction/Auction.sol\":2933:2958  value = highestBindingBid */\n      swap1\n      pop\n        /* \"SmartContract-Auction/Auction.sol\":2848:3363  if(isOwner(msg.sender)){... */\n      jump(tag_143)\n    tag_142:\n        /* \"SmartContract-Auction/Auction.sol\":3023:3036  highestBidder */\n      0x07\n      0x00\n      swap1\n      sload\n      swap1\n      0x0100\n      exp\n      swap1\n      div\n      0xffffffffffffffffffffffffffffffffffffffff\n      and\n        /* \"SmartContract-Auction/Auction.sol\":3009:3036  msg.sender == highestBidder */\n      0xffffffffffffffffffffffffffffffffffffffff\n      and\n        /* \"SmartContract-Auction/Auction.sol\":3009:3019  msg.sender */\n      caller\n        /* \"SmartContract-Auction/Auction.sol\":3009:3036  msg.sender == highestBidder */\n      0xffffffffffffffffffffffffffffffffffffffff\n      and\n      eq\n        /* \"SmartContract-Auction/Auction.sol\":3006:3349  if(msg.sender == highestBidder){ //when highest bidder ... */\n      iszero\n      tag_144\n      jumpi\n        /* \"SmartContract-Auction/Auction.sol\":3102:3115  highestBidder */\n      0x07\n      0x00\n      swap1\n      sload\n      swap1\n      0x0100\n      exp\n      swap1\n      div\n      0xffffffffffffffffffffffffffffffffffffffff\n      and\n        /* \"SmartContract-Auction/Auction.sol\":3082:3116  recipient = payable(highestBidder) */\n      swap2\n      pop\n        /* \"SmartContract-Auction/Auction.sol\":3165:3182  highestBindingBid */\n      sload(0x06)\n        /* \"SmartContract-Auction/Auction.sol\":3146:3150  bids */\n      0x08\n        /* \"SmartContract-Auction/Auction.sol\":3146:3162  bids[msg.sender] */\n      0x00\n        /* \"SmartContract-Auction/Auction.sol\":3151:3161  msg.sender */\n      caller\n        /* \"SmartContract-Auction/Auction.sol\":3146:3162  bids[msg.sender] */\n      0xffffffffffffffffffffffffffffffffffffffff\n      and\n      0xffffffffffffffffffffffffffffffffffffffff\n      and\n      dup2\n      mstore\n      0x20\n      add\n      swap1\n      dup2\n      mstore\n      0x20\n      add\n      0x00\n      keccak256\n      sload\n        /* \"SmartContract-Auction/Auction.sol\":3146:3182  bids[msg.sender] - highestBindingBid */\n      tag_145\n      swap2\n      swap1\n      tag_146\n      jump\t// in\n    tag_145:\n        /* \"SmartContract-Auction/Auction.sol\":3138:3182  value = bids[msg.sender] - highestBindingBid */\n      swap1\n      pop\n        /* \"SmartContract-Auction/Auction.sol\":3006:3349  if(msg.sender == highestBidder){ //when highest bidder ... */\n      jump(tag_147)\n    tag_144:\n        /* \"SmartContract-Auction/Auction.sol\":3273:3283  msg.sender */\n      caller\n        /* \"SmartContract-Auction/Auction.sol\":3253:3284  recipient = payable(msg.sender) */\n      swap2\n      pop\n        /* \"SmartContract-Auction/Auction.sol\":3314:3318  bids */\n      0x08\n        /* \"SmartContract-Auction/Auction.sol\":3314:3330  bids[msg.sender] */\n      0x00\n        /* \"SmartContract-Auction/Auction.sol\":3319:3329  msg.sender */\n      caller\n        /* \"SmartContract-Auction/Auction.sol\":3314:3330  bids[msg.sender] */\n      0xffffffffffffffffffffffffffffffffffffffff\n      and\n      0xffffffffffffffffffffffffffffffffffffffff\n      and\n      dup2\n      mstore\n      0x20\n      add\n      swap1\n      dup2\n      mstore\n      0x20\n      add\n      0x00\n      keccak256\n      sload\n        /* \"SmartContract-Auction/Auction.sol\":3306:3330  value = bids[msg.sender] */\n      swap1\n      pop\n        /* \"SmartContract-Auction/Auction.sol\":3006:3349  if(msg.sender == highestBidder){ //when highest bidder ... */\n    tag_147:\n        /* \"SmartContract-Auction/Auction.sol\":2848:3363  if(isOwner(msg.sender)){... */\n    tag_143:\n        /* \"SmartContract-Auction/Auction.sol\":2653:3373  if(auctionState == State.Canceled){ //auction canceled... */\n    tag_140:\n        /* \"SmartContract-Auction/Auction.sol\":3401:3402  0 */\n      0x00\n        /* \"SmartContract-Auction/Auction.sol\":3383:3387  bids */\n      0x08\n        /* \"SmartContract-Auction/Auction.sol\":3383:3398  bids[recipient] */\n      0x00\n        /* \"SmartContract-Auction/Auction.sol\":3388:3397  recipient */\n      dup5\n        /* \"SmartContract-Auction/Auction.sol\":3383:3398  bids[recipient] */\n      0xffffffffffffffffffffffffffffffffffffffff\n      and\n      0xffffffffffffffffffffffffffffffffffffffff\n      and\n      dup2\n      mstore\n      0x20\n      add\n      swap1\n      dup2\n      mstore\n      0x20\n      add\n      0x00\n      keccak256\n        /* \"SmartContract-Auction/Auction.sol\":3383:3402  bids[recipient] = 0 */\n      dup2\n      swap1\n      sstore\n      pop\n        /* \"SmartContract-Auction/Auction.sol\":3412:3421  recipient */\n      dup2\n        /* \"SmartContract-Auction/Auction.sol\":3412:3430  recipient.transfer */\n      0xffffffffffffffffffffffffffffffffffffffff\n      and\n        /* \"SmartContract-Auction/Auction.sol\":3412:3437  recipient.transfer(value) */\n      0x08fc\n        /* \"SmartContract-Auction/Auction.sol\":3431:3436  value */\n      dup3\n        /* \"SmartContract-Auction/Auction.sol\":3412:3437  recipient.transfer(value) */\n      swap1\n      dup2\n      iszero\n      mul\n      swap1\n      mload(0x40)\n      0x00\n      mload(0x40)\n      dup1\n      dup4\n      sub\n      dup2\n      dup6\n      dup9\n      dup9\n      call\n      swap4\n      pop\n      pop\n      pop\n      pop\n      iszero\n      dup1\n      iszero\n      tag_149\n      jumpi\n      returndatasize\n      0x00\n      dup1\n      returndatacopy\n      revert(0x00, returndatasize)\n    tag_149:\n      pop\n        /* \"SmartContract-Auction/Auction.sol\":2447:3444  {... */\n      pop\n      pop\n        /* \"SmartContract-Auction/Auction.sol\":2414:3444  function finalizeAuction() public{... */\n      jump\t// out\n        /* \"SmartContract-Auction/Auction.sol\":1436:1587  function min(uint a, uint b) internal pure returns(uint){... */\n    tag_120:\n        /* \"SmartContract-Auction/Auction.sol\":1487:1491  uint */\n      0x00\n        /* \"SmartContract-Auction/Auction.sol\":1508:1509  b */\n      dup2\n        /* \"SmartContract-Auction/Auction.sol\":1505:1506  a */\n      dup4\n        /* \"SmartContract-Auction/Auction.sol\":1505:1509  a<=b */\n      gt\n        /* \"SmartContract-Auction/Auction.sol\":1502:1581  if(a<=b){... */\n      tag_151\n      jumpi\n        /* \"SmartContract-Auction/Auction.sol\":1531:1532  a */\n      dup3\n        /* \"SmartContract-Auction/Auction.sol\":1524:1532  return a */\n      swap1\n      pop\n      jump(tag_150)\n        /* \"SmartContract-Auction/Auction.sol\":1502:1581  if(a<=b){... */\n    tag_151:\n        /* \"SmartContract-Auction/Auction.sol\":1569:1570  b */\n      dup2\n        /* \"SmartContract-Auction/Auction.sol\":1562:1570  return b */\n      swap1\n      pop\n        /* \"SmartContract-Auction/Auction.sol\":1436:1587  function min(uint a, uint b) internal pure returns(uint){... */\n    tag_150:\n      swap3\n      swap2\n      pop\n      pop\n      jump\t// out\n        /* \"SmartContract-Auction/Auction.sol\":747:850  function isOwner(address _address) internal view returns(bool){... */\n    tag_132:\n        /* \"SmartContract-Auction/Auction.sol\":804:808  bool */\n      0x00\n        /* \"SmartContract-Auction/Auction.sol\":838:843  owner */\n      dup1\n      0x00\n      swap1\n      sload\n      swap1\n      0x0100\n      exp\n      swap1\n      div\n      0xffffffffffffffffffffffffffffffffffffffff\n      and\n        /* \"SmartContract-Auction/Auction.sol\":826:843  _address == owner */\n      0xffffffffffffffffffffffffffffffffffffffff\n      and\n        /* \"SmartContract-Auction/Auction.sol\":826:834  _address */\n      dup3\n        /* \"SmartContract-Auction/Auction.sol\":826:843  _address == owner */\n      0xffffffffffffffffffffffffffffffffffffffff\n      and\n      eq\n        /* \"SmartContract-Auction/Auction.sol\":819:843  return _address == owner */\n      swap1\n      pop\n        /* \"SmartContract-Auction/Auction.sol\":747:850  function isOwner(address _address) internal view returns(bool){... */\n      swap2\n      swap1\n      pop\n      jump\t// out\n    tag_88:\n      dup3\n      dup1\n      sload\n      tag_154\n      swap1\n      tag_95\n      jump\t// in\n    tag_154:\n      swap1\n      0x00\n      mstore\n      keccak256(0x00, 0x20)\n      swap1\n      0x1f\n      add\n      0x20\n      swap1\n      div\n      dup2\n      add\n      swap3\n      dup3\n      tag_156\n      jumpi\n      0x00\n      dup6\n      sstore\n      jump(tag_155)\n    tag_156:\n      dup3\n      0x1f\n      lt\n      tag_157\n      jumpi\n      dup1\n      mload\n      not(0xff)\n      and\n      dup4\n      dup1\n      add\n      or\n      dup6\n      sstore\n      jump(tag_155)\n    tag_157:\n      dup3\n      dup1\n      add\n      0x01\n      add\n      dup6\n      sstore\n      dup3\n      iszero\n      tag_155\n      jumpi\n      swap2\n      dup3\n      add\n    tag_158:\n      dup3\n      dup2\n      gt\n      iszero\n      tag_159\n      jumpi\n      dup3\n      mload\n      dup3\n      sstore\n      swap2\n      0x20\n      add\n      swap2\n      swap1\n      0x01\n      add\n      swap1\n      jump(tag_158)\n    tag_159:\n    tag_155:\n      pop\n      swap1\n      pop\n      tag_160\n      swap2\n      swap1\n      tag_161\n      jump\t// in\n    tag_160:\n      pop\n      swap1\n      jump\t// out\n    tag_161:\n    tag_162:\n      dup1\n      dup3\n      gt\n      iszero\n      tag_163\n      jumpi\n      0x00\n      dup2\n      0x00\n      swap1\n      sstore\n      pop\n      0x01\n      add\n      jump(tag_162)\n    tag_163:\n      pop\n      swap1\n      jump\t// out\n        /* \"#utility.yul\":7:146   */\n    tag_165:\n        /* \"#utility.yul\":53:58   */\n      0x00\n        /* \"#utility.yul\":91:97   */\n      dup2\n        /* \"#utility.yul\":78:98   */\n      calldataload\n        /* \"#utility.yul\":69:98   */\n      swap1\n      pop\n        /* \"#utility.yul\":107:140   */\n      tag_167\n        /* \"#utility.yul\":134:139   */\n      dup2\n        /* \"#utility.yul\":107:140   */\n      tag_168\n      jump\t// in\n    tag_167:\n        /* \"#utility.yul\":7:146   */\n      swap3\n      swap2\n      pop\n      pop\n      jump\t// out\n        /* \"#utility.yul\":152:291   */\n    tag_169:\n        /* \"#utility.yul\":198:203   */\n      0x00\n        /* \"#utility.yul\":236:242   */\n      dup2\n        /* \"#utility.yul\":223:243   */\n      calldataload\n        /* \"#utility.yul\":214:243   */\n      swap1\n      pop\n        /* \"#utility.yul\":252:285   */\n      tag_171\n        /* \"#utility.yul\":279:284   */\n      dup2\n        /* \"#utility.yul\":252:285   */\n      tag_172\n      jump\t// in\n    tag_171:\n        /* \"#utility.yul\":152:291   */\n      swap3\n      swap2\n      pop\n      pop\n      jump\t// out\n        /* \"#utility.yul\":297:626   */\n    tag_34:\n        /* \"#utility.yul\":356:362   */\n      0x00\n        /* \"#utility.yul\":405:407   */\n      0x20\n        /* \"#utility.yul\":393:402   */\n      dup3\n        /* \"#utility.yul\":384:391   */\n      dup5\n        /* \"#utility.yul\":380:403   */\n      sub\n        /* \"#utility.yul\":376:408   */\n      slt\n        /* \"#utility.yul\":373:492   */\n      iszero\n      tag_174\n      jumpi\n        /* \"#utility.yul\":411:490   */\n      tag_175\n      tag_176\n      jump\t// in\n    tag_175:\n        /* \"#utility.yul\":373:492   */\n    tag_174:\n        /* \"#utility.yul\":531:532   */\n      0x00\n        /* \"#utility.yul\":556:609   */\n      tag_177\n        /* \"#utility.yul\":601:608   */\n      dup5\n        /* \"#utility.yul\":592:598   */\n      dup3\n        /* \"#utility.yul\":581:590   */\n      dup6\n        /* \"#utility.yul\":577:599   */\n      add\n        /* \"#utility.yul\":556:609   */\n      tag_165\n      jump\t// in\n    tag_177:\n        /* \"#utility.yul\":546:609   */\n      swap2\n      pop\n        /* \"#utility.yul\":502:619   */\n      pop\n        /* \"#utility.yul\":297:626   */\n      swap3\n      swap2\n      pop\n      pop\n      jump\t// out\n        /* \"#utility.yul\":632:1251   */\n    tag_25:\n        /* \"#utility.yul\":709:715   */\n      0x00\n        /* \"#utility.yul\":717:723   */\n      dup1\n        /* \"#utility.yul\":725:731   */\n      0x00\n        /* \"#utility.yul\":774:776   */\n      0x60\n        /* \"#utility.yul\":762:771   */\n      dup5\n        /* \"#utility.yul\":753:760   */\n      dup7\n        /* \"#utility.yul\":749:772   */\n      sub\n        /* \"#utility.yul\":745:777   */\n      slt\n        /* \"#utility.yul\":742:861   */\n      iszero\n      tag_179\n      jumpi\n        /* \"#utility.yul\":780:859   */\n      tag_180\n      tag_176\n      jump\t// in\n    tag_180:\n        /* \"#utility.yul\":742:861   */\n    tag_179:\n        /* \"#utility.yul\":900:901   */\n      0x00\n        /* \"#utility.yul\":925:978   */\n      tag_181\n        /* \"#utility.yul\":970:977   */\n      dup7\n        /* \"#utility.yul\":961:967   */\n      dup3\n        /* \"#utility.yul\":950:959   */\n      dup8\n        /* \"#utility.yul\":946:968   */\n      add\n        /* \"#utility.yul\":925:978   */\n      tag_169\n      jump\t// in\n    tag_181:\n        /* \"#utility.yul\":915:978   */\n      swap4\n      pop\n        /* \"#utility.yul\":871:988   */\n      pop\n        /* \"#utility.yul\":1027:1029   */\n      0x20\n        /* \"#utility.yul\":1053:1106   */\n      tag_182\n        /* \"#utility.yul\":1098:1105   */\n      dup7\n        /* \"#utility.yul\":1089:1095   */\n      dup3\n        /* \"#utility.yul\":1078:1087   */\n      dup8\n        /* \"#utility.yul\":1074:1096   */\n      add\n        /* \"#utility.yul\":1053:1106   */\n      tag_169\n      jump\t// in\n    tag_182:\n        /* \"#utility.yul\":1043:1106   */\n      swap3\n      pop\n        /* \"#utility.yul\":998:1116   */\n      pop\n        /* \"#utility.yul\":1155:1157   */\n      0x40\n        /* \"#utility.yul\":1181:1234   */\n      tag_183\n        /* \"#utility.yul\":1226:1233   */\n      dup7\n        /* \"#utility.yul\":1217:1223   */\n      dup3\n        /* \"#utility.yul\":1206:1215   */\n      dup8\n        /* \"#utility.yul\":1202:1224   */\n      add\n        /* \"#utility.yul\":1181:1234   */\n      tag_169\n      jump\t// in\n    tag_183:\n        /* \"#utility.yul\":1171:1234   */\n      swap2\n      pop\n        /* \"#utility.yul\":1126:1244   */\n      pop\n        /* \"#utility.yul\":632:1251   */\n      swap3\n      pop\n      swap3\n      pop\n      swap3\n      jump\t// out\n        /* \"#utility.yul\":1257:1399   */\n    tag_184:\n        /* \"#utility.yul\":1360:1392   */\n      tag_186\n        /* \"#utility.yul\":1386:1391   */\n      dup2\n        /* \"#utility.yul\":1360:1392   */\n      tag_187\n      jump\t// in\n    tag_186:\n        /* \"#utility.yul\":1355:1358   */\n      dup3\n        /* \"#utility.yul\":1348:1393   */\n      mstore\n        /* \"#utility.yul\":1257:1399   */\n      pop\n      pop\n      jump\t// out\n        /* \"#utility.yul\":1405:1523   */\n    tag_188:\n        /* \"#utility.yul\":1492:1516   */\n      tag_190\n        /* \"#utility.yul\":1510:1515   */\n      dup2\n        /* \"#utility.yul\":1492:1516   */\n      tag_191\n      jump\t// in\n    tag_190:\n        /* \"#utility.yul\":1487:1490   */\n      dup3\n        /* \"#utility.yul\":1480:1517   */\n      mstore\n        /* \"#utility.yul\":1405:1523   */\n      pop\n      pop\n      jump\t// out\n        /* \"#utility.yul\":1529:1672   */\n    tag_192:\n        /* \"#utility.yul\":1622:1665   */\n      tag_194\n        /* \"#utility.yul\":1659:1664   */\n      dup2\n        /* \"#utility.yul\":1622:1665   */\n      tag_195\n      jump\t// in\n    tag_194:\n        /* \"#utility.yul\":1617:1620   */\n      dup3\n        /* \"#utility.yul\":1610:1666   */\n      mstore\n        /* \"#utility.yul\":1529:1672   */\n      pop\n      pop\n      jump\t// out\n        /* \"#utility.yul\":1678:2042   */\n    tag_196:\n        /* \"#utility.yul\":1766:1769   */\n      0x00\n        /* \"#utility.yul\":1794:1833   */\n      tag_198\n        /* \"#utility.yul\":1827:1832   */\n      dup3\n        /* \"#utility.yul\":1794:1833   */\n      tag_199\n      jump\t// in\n    tag_198:\n        /* \"#utility.yul\":1849:1920   */\n      tag_200\n        /* \"#utility.yul\":1913:1919   */\n      dup2\n        /* \"#utility.yul\":1908:1911   */\n      dup6\n        /* \"#utility.yul\":1849:1920   */\n      tag_201\n      jump\t// in\n    tag_200:\n        /* \"#utility.yul\":1842:1920   */\n      swap4\n      pop\n        /* \"#utility.yul\":1929:1981   */\n      tag_202\n        /* \"#utility.yul\":1974:1980   */\n      dup2\n        /* \"#utility.yul\":1969:1972   */\n      dup6\n        /* \"#utility.yul\":1962:1966   */\n      0x20\n        /* \"#utility.yul\":1955:1960   */\n      dup7\n        /* \"#utility.yul\":1951:1967   */\n      add\n        /* \"#utility.yul\":1929:1981   */\n      tag_203\n      jump\t// in\n    tag_202:\n        /* \"#utility.yul\":2006:2035   */\n      tag_204\n        /* \"#utility.yul\":2028:2034   */\n      dup2\n        /* \"#utility.yul\":2006:2035   */\n      tag_205\n      jump\t// in\n    tag_204:\n        /* \"#utility.yul\":2001:2004   */\n      dup5\n        /* \"#utility.yul\":1997:2036   */\n      add\n        /* \"#utility.yul\":1990:2036   */\n      swap2\n      pop\n        /* \"#utility.yul\":1770:2042   */\n      pop\n        /* \"#utility.yul\":1678:2042   */\n      swap3\n      swap2\n      pop\n      pop\n      jump\t// out\n        /* \"#utility.yul\":2048:2414   */\n    tag_206:\n        /* \"#utility.yul\":2190:2193   */\n      0x00\n        /* \"#utility.yul\":2211:2278   */\n      tag_208\n        /* \"#utility.yul\":2275:2277   */\n      0x23\n        /* \"#utility.yul\":2270:2273   */\n      dup4\n        /* \"#utility.yul\":2211:2278   */\n      tag_201\n      jump\t// in\n    tag_208:\n        /* \"#utility.yul\":2204:2278   */\n      swap2\n      pop\n        /* \"#utility.yul\":2287:2380   */\n      tag_209\n        /* \"#utility.yul\":2376:2379   */\n      dup3\n        /* \"#utility.yul\":2287:2380   */\n      tag_210\n      jump\t// in\n    tag_209:\n        /* \"#utility.yul\":2405:2407   */\n      0x40\n        /* \"#utility.yul\":2400:2403   */\n      dup3\n        /* \"#utility.yul\":2396:2408   */\n      add\n        /* \"#utility.yul\":2389:2408   */\n      swap1\n      pop\n        /* \"#utility.yul\":2048:2414   */\n      swap2\n      swap1\n      pop\n      jump\t// out\n        /* \"#utility.yul\":2420:2538   */\n    tag_211:\n        /* \"#utility.yul\":2507:2531   */\n      tag_213\n        /* \"#utility.yul\":2525:2530   */\n      dup2\n        /* \"#utility.yul\":2507:2531   */\n      tag_214\n      jump\t// in\n    tag_213:\n        /* \"#utility.yul\":2502:2505   */\n      dup3\n        /* \"#utility.yul\":2495:2532   */\n      mstore\n        /* \"#utility.yul\":2420:2538   */\n      pop\n      pop\n      jump\t// out\n        /* \"#utility.yul\":2544:2766   */\n    tag_46:\n        /* \"#utility.yul\":2637:2641   */\n      0x00\n        /* \"#utility.yul\":2675:2677   */\n      0x20\n        /* \"#utility.yul\":2664:2673   */\n      dup3\n        /* \"#utility.yul\":2660:2678   */\n      add\n        /* \"#utility.yul\":2652:2678   */\n      swap1\n      pop\n        /* \"#utility.yul\":2688:2759   */\n      tag_216\n        /* \"#utility.yul\":2756:2757   */\n      0x00\n        /* \"#utility.yul\":2745:2754   */\n      dup4\n        /* \"#utility.yul\":2741:2758   */\n      add\n        /* \"#utility.yul\":2732:2738   */\n      dup5\n        /* \"#utility.yul\":2688:2759   */\n      tag_188\n      jump\t// in\n    tag_216:\n        /* \"#utility.yul\":2544:2766   */\n      swap3\n      swap2\n      pop\n      pop\n      jump\t// out\n        /* \"#utility.yul\":2772:3026   */\n    tag_54:\n        /* \"#utility.yul\":2881:2885   */\n      0x00\n        /* \"#utility.yul\":2919:2921   */\n      0x20\n        /* \"#utility.yul\":2908:2917   */\n      dup3\n        /* \"#utility.yul\":2904:2922   */\n      add\n        /* \"#utility.yul\":2896:2922   */\n      swap1\n      pop\n        /* \"#utility.yul\":2932:3019   */\n      tag_218\n        /* \"#utility.yul\":3016:3017   */\n      0x00\n        /* \"#utility.yul\":3005:3014   */\n      dup4\n        /* \"#utility.yul\":3001:3018   */\n      add\n        /* \"#utility.yul\":2992:2998   */\n      dup5\n        /* \"#utility.yul\":2932:3019   */\n      tag_184\n      jump\t// in\n    tag_218:\n        /* \"#utility.yul\":2772:3026   */\n      swap3\n      swap2\n      pop\n      pop\n      jump\t// out\n        /* \"#utility.yul\":3032:3266   */\n    tag_41:\n        /* \"#utility.yul\":3131:3135   */\n      0x00\n        /* \"#utility.yul\":3169:3171   */\n      0x20\n        /* \"#utility.yul\":3158:3167   */\n      dup3\n        /* \"#utility.yul\":3154:3172   */\n      add\n        /* \"#utility.yul\":3146:3172   */\n      swap1\n      pop\n        /* \"#utility.yul\":3182:3259   */\n      tag_220\n        /* \"#utility.yul\":3256:3257   */\n      0x00\n        /* \"#utility.yul\":3245:3254   */\n      dup4\n        /* \"#utility.yul\":3241:3258   */\n      add\n        /* \"#utility.yul\":3232:3238   */\n      dup5\n        /* \"#utility.yul\":3182:3259   */\n      tag_192\n      jump\t// in\n    tag_220:\n        /* \"#utility.yul\":3032:3266   */\n      swap3\n      swap2\n      pop\n      pop\n      jump\t// out\n        /* \"#utility.yul\":3272:3585   */\n    tag_59:\n        /* \"#utility.yul\":3385:3389   */\n      0x00\n        /* \"#utility.yul\":3423:3425   */\n      0x20\n        /* \"#utility.yul\":3412:3421   */\n      dup3\n        /* \"#utility.yul\":3408:3426   */\n      add\n        /* \"#utility.yul\":3400:3426   */\n      swap1\n      pop\n        /* \"#utility.yul\":3472:3481   */\n      dup2\n        /* \"#utility.yul\":3466:3470   */\n      dup2\n        /* \"#utility.yul\":3462:3482   */\n      sub\n        /* \"#utility.yul\":3458:3459   */\n      0x00\n        /* \"#utility.yul\":3447:3456   */\n      dup4\n        /* \"#utility.yul\":3443:3460   */\n      add\n        /* \"#utility.yul\":3436:3483   */\n      mstore\n        /* \"#utility.yul\":3500:3578   */\n      tag_222\n        /* \"#utility.yul\":3573:3577   */\n      dup2\n        /* \"#utility.yul\":3564:3570   */\n      dup5\n        /* \"#utility.yul\":3500:3578   */\n      tag_196\n      jump\t// in\n    tag_222:\n        /* \"#utility.yul\":3492:3578   */\n      swap1\n      pop\n        /* \"#utility.yul\":3272:3585   */\n      swap3\n      swap2\n      pop\n      pop\n      jump\t// out\n        /* \"#utility.yul\":3591:4010   */\n    tag_113:\n        /* \"#utility.yul\":3757:3761   */\n      0x00\n        /* \"#utility.yul\":3795:3797   */\n      0x20\n        /* \"#utility.yul\":3784:3793   */\n      dup3\n        /* \"#utility.yul\":3780:3798   */\n      add\n        /* \"#utility.yul\":3772:3798   */\n      swap1\n      pop\n        /* \"#utility.yul\":3844:3853   */\n      dup2\n        /* \"#utility.yul\":3838:3842   */\n      dup2\n        /* \"#utility.yul\":3834:3854   */\n      sub\n        /* \"#utility.yul\":3830:3831   */\n      0x00\n        /* \"#utility.yul\":3819:3828   */\n      dup4\n        /* \"#utility.yul\":3815:3832   */\n      add\n        /* \"#utility.yul\":3808:3855   */\n      mstore\n        /* \"#utility.yul\":3872:4003   */\n      tag_224\n        /* \"#utility.yul\":3998:4002   */\n      dup2\n        /* \"#utility.yul\":3872:4003   */\n      tag_206\n      jump\t// in\n    tag_224:\n        /* \"#utility.yul\":3864:4003   */\n      swap1\n      pop\n        /* \"#utility.yul\":3591:4010   */\n      swap2\n      swap1\n      pop\n      jump\t// out\n        /* \"#utility.yul\":4016:4238   */\n    tag_21:\n        /* \"#utility.yul\":4109:4113   */\n      0x00\n        /* \"#utility.yul\":4147:4149   */\n      0x20\n        /* \"#utility.yul\":4136:4145   */\n      dup3\n        /* \"#utility.yul\":4132:4150   */\n      add\n        /* \"#utility.yul\":4124:4150   */\n      swap1\n      pop\n        /* \"#utility.yul\":4160:4231   */\n      tag_226\n        /* \"#utility.yul\":4228:4229   */\n      0x00\n        /* \"#utility.yul\":4217:4226   */\n      dup4\n        /* \"#utility.yul\":4213:4230   */\n      add\n        /* \"#utility.yul\":4204:4210   */\n      dup5\n        /* \"#utility.yul\":4160:4231   */\n      tag_211\n      jump\t// in\n    tag_226:\n        /* \"#utility.yul\":4016:4238   */\n      swap3\n      swap2\n      pop\n      pop\n      jump\t// out\n        /* \"#utility.yul\":4325:4424   */\n    tag_199:\n        /* \"#utility.yul\":4377:4383   */\n      0x00\n        /* \"#utility.yul\":4411:4416   */\n      dup2\n        /* \"#utility.yul\":4405:4417   */\n      mload\n        /* \"#utility.yul\":4395:4417   */\n      swap1\n      pop\n        /* \"#utility.yul\":4325:4424   */\n      swap2\n      swap1\n      pop\n      jump\t// out\n        /* \"#utility.yul\":4430:4599   */\n    tag_201:\n        /* \"#utility.yul\":4514:4525   */\n      0x00\n        /* \"#utility.yul\":4548:4554   */\n      dup3\n        /* \"#utility.yul\":4543:4546   */\n      dup3\n        /* \"#utility.yul\":4536:4555   */\n      mstore\n        /* \"#utility.yul\":4588:4592   */\n      0x20\n        /* \"#utility.yul\":4583:4586   */\n      dup3\n        /* \"#utility.yul\":4579:4593   */\n      add\n        /* \"#utility.yul\":4564:4593   */\n      swap1\n      pop\n        /* \"#utility.yul\":4430:4599   */\n      swap3\n      swap2\n      pop\n      pop\n      jump\t// out\n        /* \"#utility.yul\":4605:4910   */\n    tag_84:\n        /* \"#utility.yul\":4645:4648   */\n      0x00\n        /* \"#utility.yul\":4664:4684   */\n      tag_232\n        /* \"#utility.yul\":4682:4683   */\n      dup3\n        /* \"#utility.yul\":4664:4684   */\n      tag_214\n      jump\t// in\n    tag_232:\n        /* \"#utility.yul\":4659:4684   */\n      swap2\n      pop\n        /* \"#utility.yul\":4698:4718   */\n      tag_233\n        /* \"#utility.yul\":4716:4717   */\n      dup4\n        /* \"#utility.yul\":4698:4718   */\n      tag_214\n      jump\t// in\n    tag_233:\n        /* \"#utility.yul\":4693:4718   */\n      swap3\n      pop\n        /* \"#utility.yul\":4852:4853   */\n      dup3\n        /* \"#utility.yul\":4784:4850   */\n      0xffffffffffffffffffffffffffffffffffffffffffffffffffffffffffffffff\n        /* \"#utility.yul\":4780:4854   */\n      sub\n        /* \"#utility.yul\":4777:4778   */\n      dup3\n        /* \"#utility.yul\":4774:4855   */\n      gt\n        /* \"#utility.yul\":4771:4878   */\n      iszero\n      tag_234\n      jumpi\n        /* \"#utility.yul\":4858:4876   */\n      tag_235\n      tag_236\n      jump\t// in\n    tag_235:\n        /* \"#utility.yul\":4771:4878   */\n    tag_234:\n        /* \"#utility.yul\":4902:4903   */\n      dup3\n        /* \"#utility.yul\":4899:4900   */\n      dup3\n        /* \"#utility.yul\":4895:4904   */\n      add\n        /* \"#utility.yul\":4888:4904   */\n      swap1\n      pop\n        /* \"#utility.yul\":4605:4910   */\n      swap3\n      swap2\n      pop\n      pop\n      jump\t// out\n        /* \"#utility.yul\":4916:5107   */\n    tag_146:\n        /* \"#utility.yul\":4956:4960   */\n      0x00\n        /* \"#utility.yul\":4976:4996   */\n      tag_238\n        /* \"#utility.yul\":4994:4995   */\n      dup3\n        /* \"#utility.yul\":4976:4996   */\n      tag_214\n      jump\t// in\n    tag_238:\n        /* \"#utility.yul\":4971:4996   */\n      swap2\n      pop\n        /* \"#utility.yul\":5010:5030   */\n      tag_239\n        /* \"#utility.yul\":5028:5029   */\n      dup4\n        /* \"#utility.yul\":5010:5030   */\n      tag_214\n      jump\t// in\n    tag_239:\n        /* \"#utility.yul\":5005:5030   */\n      swap3\n      pop\n        /* \"#utility.yul\":5049:5050   */\n      dup3\n        /* \"#utility.yul\":5046:5047   */\n      dup3\n        /* \"#utility.yul\":5043:5051   */\n      lt\n        /* \"#utility.yul\":5040:5074   */\n      iszero\n      tag_240\n      jumpi\n        /* \"#utility.yul\":5054:5072   */\n      tag_241\n      tag_236\n      jump\t// in\n    tag_241:\n        /* \"#utility.yul\":5040:5074   */\n    tag_240:\n        /* \"#utility.yul\":5099:5100   */\n      dup3\n        /* \"#utility.yul\":5096:5097   */\n      dup3\n        /* \"#utility.yul\":5092:5101   */\n      sub\n        /* \"#utility.yul\":5084:5101   */\n      swap1\n      pop\n        /* \"#utility.yul\":4916:5107   */\n      swap3\n      swap2\n      pop\n      pop\n      jump\t// out\n        /* \"#utility.yul\":5113:5209   */\n    tag_191:\n        /* \"#utility.yul\":5150:5157   */\n      0x00\n        /* \"#utility.yul\":5179:5203   */\n      tag_243\n        /* \"#utility.yul\":5197:5202   */\n      dup3\n        /* \"#utility.yul\":5179:5203   */\n      tag_244\n      jump\t// in\n    tag_243:\n        /* \"#utility.yul\":5168:5203   */\n      swap1\n      pop\n        /* \"#utility.yul\":5113:5209   */\n      swap2\n      swap1\n      pop\n      jump\t// out\n        /* \"#utility.yul\":5215:5319   */\n    tag_187:\n        /* \"#utility.yul\":5260:5267   */\n      0x00\n        /* \"#utility.yul\":5289:5313   */\n      tag_246\n        /* \"#utility.yul\":5307:5312   */\n      dup3\n        /* \"#utility.yul\":5289:5313   */\n      tag_244\n      jump\t// in\n    tag_246:\n        /* \"#utility.yul\":5278:5313   */\n      swap1\n      pop\n        /* \"#utility.yul\":5215:5319   */\n      swap2\n      swap1\n      pop\n      jump\t// out\n        /* \"#utility.yul\":5325:5452   */\n    tag_247:\n        /* \"#utility.yul\":5370:5377   */\n      0x00\n        /* \"#utility.yul\":5399:5404   */\n      dup2\n        /* \"#utility.yul\":5388:5404   */\n      swap1\n      pop\n        /* \"#utility.yul\":5405:5446   */\n      tag_249\n        /* \"#utility.yul\":5440:5445   */\n      dup3\n        /* \"#utility.yul\":5405:5446   */\n      tag_250\n      jump\t// in\n    tag_249:\n        /* \"#utility.yul\":5325:5452   */\n      swap2\n      swap1\n      pop\n      jump\t// out\n        /* \"#utility.yul\":5458:5584   */\n    tag_244:\n        /* \"#utility.yul\":5495:5502   */\n      0x00\n        /* \"#utility.yul\":5535:5577   */\n      0xffffffffffffffffffffffffffffffffffffffff\n        /* \"#utility.yul\":5528:5533   */\n      dup3\n        /* \"#utility.yul\":5524:5578   */\n      and\n        /* \"#utility.yul\":5513:5578   */\n      swap1\n      pop\n        /* \"#utility.yul\":5458:5584   */\n      swap2\n      swap1\n      pop\n      jump\t// out\n        /* \"#utility.yul\":5590:5667   */\n    tag_214:\n        /* \"#utility.yul\":5627:5634   */\n      0x00\n        /* \"#utility.yul\":5656:5661   */\n      dup2\n        /* \"#utility.yul\":5645:5661   */\n      swap1\n      pop\n        /* \"#utility.yul\":5590:5667   */\n      swap2\n      swap1\n      pop\n      jump\t// out\n        /* \"#utility.yul\":5673:5800   */\n    tag_195:\n        /* \"#utility.yul\":5729:5738   */\n      0x00\n        /* \"#utility.yul\":5762:5794   */\n      tag_254\n        /* \"#utility.yul\":5788:5793   */\n      dup3\n        /* \"#utility.yul\":5762:5794   */\n      tag_247\n      jump\t// in\n    tag_254:\n        /* \"#utility.yul\":5749:5794   */\n      swap1\n      pop\n        /* \"#utility.yul\":5673:5800   */\n      swap2\n      swap1\n      pop\n      jump\t// out\n        /* \"#utility.yul\":5806:6113   */\n    tag_203:\n        /* \"#utility.yul\":5874:5875   */\n      0x00\n        /* \"#utility.yul\":5884:5997   */\n    tag_256:\n        /* \"#utility.yul\":5898:5904   */\n      dup4\n        /* \"#utility.yul\":5895:5896   */\n      dup2\n        /* \"#utility.yul\":5892:5905   */\n      lt\n        /* \"#utility.yul\":5884:5997   */\n      iszero\n      tag_258\n      jumpi\n        /* \"#utility.yul\":5983:5984   */\n      dup1\n        /* \"#utility.yul\":5978:5981   */\n      dup3\n        /* \"#utility.yul\":5974:5985   */\n      add\n        /* \"#utility.yul\":5968:5986   */\n      mload\n        /* \"#utility.yul\":5964:5965   */\n      dup2\n        /* \"#utility.yul\":5959:5962   */\n      dup5\n        /* \"#utility.yul\":5955:5966   */\n      add\n        /* \"#utility.yul\":5948:5987   */\n      mstore\n        /* \"#utility.yul\":5920:5922   */\n      0x20\n        /* \"#utility.yul\":5917:5918   */\n      dup2\n        /* \"#utility.yul\":5913:5923   */\n      add\n        /* \"#utility.yul\":5908:5923   */\n      swap1\n      pop\n        /* \"#utility.yul\":5884:5997   */\n      jump(tag_256)\n    tag_258:\n        /* \"#utility.yul\":6015:6021   */\n      dup4\n        /* \"#utility.yul\":6012:6013   */\n      dup2\n        /* \"#utility.yul\":6009:6022   */\n      gt\n        /* \"#utility.yul\":6006:6107   */\n      iszero\n      tag_259\n      jumpi\n        /* \"#utility.yul\":6095:6096   */\n      0x00\n        /* \"#utility.yul\":6086:6092   */\n      dup5\n        /* \"#utility.yul\":6081:6084   */\n      dup5\n        /* \"#utility.yul\":6077:6093   */\n      add\n        /* \"#utility.yul\":6070:6097   */\n      mstore\n        /* \"#utility.yul\":6006:6107   */\n    tag_259:\n        /* \"#utility.yul\":5855:6113   */\n      pop\n        /* \"#utility.yul\":5806:6113   */\n      pop\n      pop\n      pop\n      jump\t// out\n        /* \"#utility.yul\":6119:6439   */\n    tag_95:\n        /* \"#utility.yul\":6163:6169   */\n      0x00\n        /* \"#utility.yul\":6200:6201   */\n      0x02\n        /* \"#utility.yul\":6194:6198   */\n      dup3\n        /* \"#utility.yul\":6190:6202   */\n      div\n        /* \"#utility.yul\":6180:6202   */\n      swap1\n      pop\n        /* \"#utility.yul\":6247:6248   */\n      0x01\n        /* \"#utility.yul\":6241:6245   */\n      dup3\n        /* \"#utility.yul\":6237:6249   */\n      and\n        /* \"#utility.yul\":6268:6286   */\n      dup1\n        /* \"#utility.yul\":6258:6339   */\n      tag_261\n      jumpi\n        /* \"#utility.yul\":6324:6328   */\n      0x7f\n        /* \"#utility.yul\":6316:6322   */\n      dup3\n        /* \"#utility.yul\":6312:6329   */\n      and\n        /* \"#utility.yul\":6302:6329   */\n      swap2\n      pop\n        /* \"#utility.yul\":6258:6339   */\n    tag_261:\n        /* \"#utility.yul\":6386:6388   */\n      0x20\n        /* \"#utility.yul\":6378:6384   */\n      dup3\n        /* \"#utility.yul\":6375:6389   */\n      lt\n        /* \"#utility.yul\":6355:6373   */\n      dup2\n        /* \"#utility.yul\":6352:6390   */\n      eq\n        /* \"#utility.yul\":6349:6433   */\n      iszero\n      tag_262\n      jumpi\n        /* \"#utility.yul\":6405:6423   */\n      tag_263\n      tag_264\n      jump\t// in\n    tag_263:\n        /* \"#utility.yul\":6349:6433   */\n    tag_262:\n        /* \"#utility.yul\":6170:6439   */\n      pop\n        /* \"#utility.yul\":6119:6439   */\n      swap2\n      swap1\n      pop\n      jump\t// out\n        /* \"#utility.yul\":6445:6625   */\n    tag_236:\n        /* \"#utility.yul\":6493:6570   */\n      0x4e487b7100000000000000000000000000000000000000000000000000000000\n        /* \"#utility.yul\":6490:6491   */\n      0x00\n        /* \"#utility.yul\":6483:6571   */\n      mstore\n        /* \"#utility.yul\":6590:6594   */\n      0x11\n        /* \"#utility.yul\":6587:6588   */\n      0x04\n        /* \"#utility.yul\":6580:6595   */\n      mstore\n        /* \"#utility.yul\":6614:6618   */\n      0x24\n        /* \"#utility.yul\":6611:6612   */\n      0x00\n        /* \"#utility.yul\":6604:6619   */\n      revert\n        /* \"#utility.yul\":6631:6811   */\n    tag_78:\n        /* \"#utility.yul\":6679:6756   */\n      0x4e487b7100000000000000000000000000000000000000000000000000000000\n        /* \"#utility.yul\":6676:6677   */\n      0x00\n        /* \"#utility.yul\":6669:6757   */\n      mstore\n        /* \"#utility.yul\":6776:6780   */\n      0x21\n        /* \"#utility.yul\":6773:6774   */\n      0x04\n        /* \"#utility.yul\":6766:6781   */\n      mstore\n        /* \"#utility.yul\":6800:6804   */\n      0x24\n        /* \"#utility.yul\":6797:6798   */\n      0x00\n        /* \"#utility.yul\":6790:6805   */\n      revert\n        /* \"#utility.yul\":6817:6997   */\n    tag_264:\n        /* \"#utility.yul\":6865:6942   */\n      0x4e487b7100000000000000000000000000000000000000000000000000000000\n        /* \"#utility.yul\":6862:6863   */\n      0x00\n        /* \"#utility.yul\":6855:6943   */\n      mstore\n        /* \"#utility.yul\":6962:6966   */\n      0x22\n        /* \"#utility.yul\":6959:6960   */\n      0x04\n        /* \"#utility.yul\":6952:6967   */\n      mstore\n        /* \"#utility.yul\":6986:6990   */\n      0x24\n        /* \"#utility.yul\":6983:6984   */\n      0x00\n        /* \"#utility.yul\":6976:6991   */\n      revert\n        /* \"#utility.yul\":7126:7243   */\n    tag_176:\n        /* \"#utility.yul\":7235:7236   */\n      0x00\n        /* \"#utility.yul\":7232:7233   */\n      dup1\n        /* \"#utility.yul\":7225:7237   */\n      revert\n        /* \"#utility.yul\":7249:7351   */\n    tag_205:\n        /* \"#utility.yul\":7290:7296   */\n      0x00\n        /* \"#utility.yul\":7341:7343   */\n      0x1f\n        /* \"#utility.yul\":7337:7344   */\n      not\n        /* \"#utility.yul\":7332:7334   */\n      0x1f\n        /* \"#utility.yul\":7325:7330   */\n      dup4\n        /* \"#utility.yul\":7321:7335   */\n      add\n        /* \"#utility.yul\":7317:7345   */\n      and\n        /* \"#utility.yul\":7307:7345   */\n      swap1\n      pop\n        /* \"#utility.yul\":7249:7351   */\n      swap2\n      swap1\n      pop\n      jump\t// out\n        /* \"#utility.yul\":7357:7579   */\n    tag_210:\n        /* \"#utility.yul\":7497:7531   */\n      0x506c65617365207761697420756e74696c207468652061756374696f6e207374\n        /* \"#utility.yul\":7493:7494   */\n      0x00\n        /* \"#utility.yul\":7485:7491   */\n      dup3\n        /* \"#utility.yul\":7481:7495   */\n      add\n        /* \"#utility.yul\":7474:7532   */\n      mstore\n        /* \"#utility.yul\":7566:7571   */\n      0x6172740000000000000000000000000000000000000000000000000000000000\n        /* \"#utility.yul\":7561:7563   */\n      0x20\n        /* \"#utility.yul\":7553:7559   */\n      dup3\n        /* \"#utility.yul\":7549:7564   */\n      add\n        /* \"#utility.yul\":7542:7572   */\n      mstore\n        /* \"#utility.yul\":7357:7579   */\n      pop\n      jump\t// out\n        /* \"#utility.yul\":7585:7698   */\n    tag_250:\n        /* \"#utility.yul\":7666:7667   */\n      0x04\n        /* \"#utility.yul\":7659:7664   */\n      dup2\n        /* \"#utility.yul\":7656:7668   */\n      lt\n        /* \"#utility.yul\":7646:7692   */\n      tag_274\n      jumpi\n        /* \"#utility.yul\":7672:7690   */\n      tag_275\n      tag_78\n      jump\t// in\n    tag_275:\n        /* \"#utility.yul\":7646:7692   */\n    tag_274:\n        /* \"#utility.yul\":7585:7698   */\n      pop\n      jump\t// out\n        /* \"#utility.yul\":7704:7826   */\n    tag_168:\n        /* \"#utility.yul\":7777:7801   */\n      tag_277\n        /* \"#utility.yul\":7795:7800   */\n      dup2\n        /* \"#utility.yul\":7777:7801   */\n      tag_191\n      jump\t// in\n    tag_277:\n        /* \"#utility.yul\":7770:7775   */\n      dup2\n        /* \"#utility.yul\":7767:7802   */\n      eq\n        /* \"#utility.yul\":7757:7820   */\n      tag_278\n      jumpi\n        /* \"#utility.yul\":7816:7817   */\n      0x00\n        /* \"#utility.yul\":7813:7814   */\n      dup1\n        /* \"#utility.yul\":7806:7818   */\n      revert\n        /* \"#utility.yul\":7757:7820   */\n    tag_278:\n        /* \"#utility.yul\":7704:7826   */\n      pop\n      jump\t// out\n        /* \"#utility.yul\":7832:7954   */\n    tag_172:\n        /* \"#utility.yul\":7905:7929   */\n      tag_280\n        /* \"#utility.yul\":7923:7928   */\n      dup2\n        /* \"#utility.yul\":7905:7929   */\n      tag_214\n      jump\t// in\n    tag_280:\n        /* \"#utility.yul\":7898:7903   */\n      dup2\n        /* \"#utility.yul\":7895:7930   */\n      eq\n        /* \"#utility.yul\":7885:7948   */\n      tag_281\n      jumpi\n        /* \"#utility.yul\":7944:7945   */\n      0x00\n        /* \"#utility.yul\":7941:7942   */\n      dup1\n        /* \"#utility.yul\":7934:7946   */\n      revert\n        /* \"#utility.yul\":7885:7948   */\n    tag_281:\n        /* \"#utility.yul\":7832:7954   */\n      pop\n      jump\t// out\n\n    auxdata: 0xa2646970667358221220b283f10560d1d2ab00585f73faa1247214a995669ca7e07bf6f02345663bc56d64736f6c63430008070033\n}\n",
				"bytecode": {
					"linkReferences": {},
					"object": "608060405234801561001057600080fd5b50336000806101000a81548173ffffffffffffffffffffffffffffffffffffffff021916908373ffffffffffffffffffffffffffffffffffffffff1602179055506000600560006101000a81548160ff0219169083600381111561007757610076610081565b5b02179055506100b0565b7f4e487b7100000000000000000000000000000000000000000000000000000000600052602160045260246000fd5b6111c1806100bf6000396000f3fe6080604052600436106100c25760003560e01c80638fa8b7901161007f578063d5f8418911610059578063d5f8418914610246578063ecfc7ecc14610271578063f5b56c561461027b578063f77282ab146102a6576100c2565b80638fa8b790146101d957806391f90157146101f0578063c623674f1461021b576100c2565b8063083c6323146100c7578063341175d5146100f257806348cd4cb11461011b57806362ea82db146101465780637fb45099146101835780638da5cb5b146101ae575b600080fd5b3480156100d357600080fd5b506100dc6102bd565b6040516100e99190610ebe565b60405180910390f35b3480156100fe57600080fd5b5061011960048036038101906101149190610d40565b6102c3565b005b34801561012757600080fd5b506101306103da565b60405161013d9190610ebe565b60405180910390f35b34801561015257600080fd5b5061016d60048036038101906101689190610d13565b6103e0565b60405161017a9190610ebe565b60405180910390f35b34801561018f57600080fd5b506101986103f8565b6040516101a59190610e61565b60405180910390f35b3480156101ba57600080fd5b506101c361040b565b6040516101d09190610e2b565b60405180910390f35b3480156101e557600080fd5b506101ee61042f565b005b3480156101fc57600080fd5b506102056104b4565b6040516102129190610e46565b60405180910390f35b34801561022757600080fd5b506102306104da565b60405161023d9190610e7c565b60405180910390f35b34801561025257600080fd5b5061025b610568565b6040516102689190610ebe565b60405180910390f35b61027961056e565b005b34801561028757600080fd5b506102906108ba565b60405161029d9190610ebe565b60405180910390f35b3480156102b257600080fd5b506102bb6108c0565b005b60025481565b60008054906101000a900473ffffffffffffffffffffffffffffffffffffffff1673ffffffffffffffffffffffffffffffffffffffff163373ffffffffffffffffffffffffffffffffffffffff161461031b57600080fd5b6000600381111561032f5761032e611086565b5b600560009054906101000a900460ff16600381111561035157610350611086565b5b1461035b57600080fd5b43600181905550826001546103709190610ef5565b6002819055506001600560006101000a81548160ff0219169083600381111561039c5761039b611086565b5b021790555060405180602001604052806000815250600490805190602001906103c6929190610c46565b508160098190555080600381905550505050565b60015481565b60086020528060005260406000206000915090505481565b600560009054906101000a900460ff1681565b60008054906101000a900473ffffffffffffffffffffffffffffffffffffffff1681565b60008054906101000a900473ffffffffffffffffffffffffffffffffffffffff1673ffffffffffffffffffffffffffffffffffffffff163373ffffffffffffffffffffffffffffffffffffffff161461048757600080fd5b6003600560006101000a81548160ff021916908360038111156104ad576104ac611086565b5b0217905550565b600760009054906101000a900473ffffffffffffffffffffffffffffffffffffffff1681565b600480546104e790611025565b80601f016020809104026020016040519081016040528092919081815260200182805461051390611025565b80156105605780601f1061053557610100808354040283529160200191610560565b820191906000526020600020905b81548152906001019060200180831161054357829003601f168201915b505050505081565b60035481565b60008054906101000a900473ffffffffffffffffffffffffffffffffffffffff1673ffffffffffffffffffffffffffffffffffffffff163373ffffffffffffffffffffffffffffffffffffffff1614156105c757600080fd5b6001544310156105d657600080fd5b6002544311156105e557600080fd5b600160038111156105f9576105f8611086565b5b600560009054906101000a900460ff16600381111561061b5761061a611086565b5b1461065b576040517f08c379a000000000000000000000000000000000000000000000000000000000815260040161065290610e9e565b60405180910390fd5b60035434101561066a57600080fd5b600034600860003373ffffffffffffffffffffffffffffffffffffffff1673ffffffffffffffffffffffffffffffffffffffff168152602001908152602001600020546106b79190610ef5565b90506006548110156106c857600080fd5b80600860003373ffffffffffffffffffffffffffffffffffffffff1673ffffffffffffffffffffffffffffffffffffffff1681526020019081526020016000208190555060086000600760009054906101000a900473ffffffffffffffffffffffffffffffffffffffff1673ffffffffffffffffffffffffffffffffffffffff1673ffffffffffffffffffffffffffffffffffffffff1681526020019081526020016000205481116107f7576107ec600954826107859190610ef5565b60086000600760009054906101000a900473ffffffffffffffffffffffffffffffffffffffff1673ffffffffffffffffffffffffffffffffffffffff1673ffffffffffffffffffffffffffffffffffffffff16815260200190815260200160002054610bd2565b6006819055506108b7565b61086f8160095460086000600760009054906101000a900473ffffffffffffffffffffffffffffffffffffffff1673ffffffffffffffffffffffffffffffffffffffff1673ffffffffffffffffffffffffffffffffffffffff1681526020019081526020016000205461086a9190610ef5565b610bd2565b60068190555033600760006101000a81548173ffffffffffffffffffffffffffffffffffffffff021916908373ffffffffffffffffffffffffffffffffffffffff1602179055505b50565b60065481565b6003808111156108d3576108d2611086565b5b600560009054906101000a900460ff1660038111156108f5576108f4611086565b5b148061090357506002544310155b61090c57600080fd5b61091533610bed565b8061095f57506000600860003373ffffffffffffffffffffffffffffffffffffffff1673ffffffffffffffffffffffffffffffffffffffff16815260200190815260200160002054115b61096857600080fd5b60008060038081111561097e5761097d611086565b5b600560009054906101000a900460ff1660038111156109a05761099f611086565b5b14156109f057339150600860003373ffffffffffffffffffffffffffffffffffffffff1673ffffffffffffffffffffffffffffffffffffffff168152602001908152602001600020549050610b42565b6109f933610bed565b15610a2b5760008054906101000a900473ffffffffffffffffffffffffffffffffffffffff1691506006549050610b41565b600760009054906101000a900473ffffffffffffffffffffffffffffffffffffffff1673ffffffffffffffffffffffffffffffffffffffff163373ffffffffffffffffffffffffffffffffffffffff161415610afa57600760009054906101000a900473ffffffffffffffffffffffffffffffffffffffff169150600654600860003373ffffffffffffffffffffffffffffffffffffffff1673ffffffffffffffffffffffffffffffffffffffff16815260200190815260200160002054610af39190610f4b565b9050610b40565b339150600860003373ffffffffffffffffffffffffffffffffffffffff1673ffffffffffffffffffffffffffffffffffffffff1681526020019081526020016000205490505b5b5b6000600860008473ffffffffffffffffffffffffffffffffffffffff1673ffffffffffffffffffffffffffffffffffffffff168152602001908152602001600020819055508173ffffffffffffffffffffffffffffffffffffffff166108fc829081150290604051600060405180830381858888f19350505050158015610bcd573d6000803e3d6000fd5b505050565b6000818311610be357829050610be7565b8190505b92915050565b60008060009054906101000a900473ffffffffffffffffffffffffffffffffffffffff1673ffffffffffffffffffffffffffffffffffffffff168273ffffffffffffffffffffffffffffffffffffffff16149050919050565b828054610c5290611025565b90600052602060002090601f016020900481019282610c745760008555610cbb565b82601f10610c8d57805160ff1916838001178555610cbb565b82800160010185558215610cbb579182015b82811115610cba578251825591602001919060010190610c9f565b5b509050610cc89190610ccc565b5090565b5b80821115610ce5576000816000905550600101610ccd565b5090565b600081359050610cf88161115d565b92915050565b600081359050610d0d81611174565b92915050565b600060208284031215610d2957610d286110e4565b5b6000610d3784828501610ce9565b91505092915050565b600080600060608486031215610d5957610d586110e4565b5b6000610d6786828701610cfe565b9350506020610d7886828701610cfe565b9250506040610d8986828701610cfe565b9150509250925092565b610d9c81610f91565b82525050565b610dab81610f7f565b82525050565b610dba81610fe0565b82525050565b6000610dcb82610ed9565b610dd58185610ee4565b9350610de5818560208601610ff2565b610dee816110e9565b840191505092915050565b6000610e06602383610ee4565b9150610e11826110fa565b604082019050919050565b610e2581610fd6565b82525050565b6000602082019050610e406000830184610da2565b92915050565b6000602082019050610e5b6000830184610d93565b92915050565b6000602082019050610e766000830184610db1565b92915050565b60006020820190508181036000830152610e968184610dc0565b905092915050565b60006020820190508181036000830152610eb781610df9565b9050919050565b6000602082019050610ed36000830184610e1c565b92915050565b600081519050919050565b600082825260208201905092915050565b6000610f0082610fd6565b9150610f0b83610fd6565b9250827fffffffffffffffffffffffffffffffffffffffffffffffffffffffffffffffff03821115610f4057610f3f611057565b5b828201905092915050565b6000610f5682610fd6565b9150610f6183610fd6565b925082821015610f7457610f73611057565b5b828203905092915050565b6000610f8a82610fb6565b9050919050565b6000610f9c82610fb6565b9050919050565b6000819050610fb182611149565b919050565b600073ffffffffffffffffffffffffffffffffffffffff82169050919050565b6000819050919050565b6000610feb82610fa3565b9050919050565b60005b83811015611010578082015181840152602081019050610ff5565b8381111561101f576000848401525b50505050565b6000600282049050600182168061103d57607f821691505b60208210811415611051576110506110b5565b5b50919050565b7f4e487b7100000000000000000000000000000000000000000000000000000000600052601160045260246000fd5b7f4e487b7100000000000000000000000000000000000000000000000000000000600052602160045260246000fd5b7f4e487b7100000000000000000000000000000000000000000000000000000000600052602260045260246000fd5b600080fd5b6000601f19601f8301169050919050565b7f506c65617365207761697420756e74696c207468652061756374696f6e20737460008201527f6172740000000000000000000000000000000000000000000000000000000000602082015250565b6004811061115a57611159611086565b5b50565b61116681610f7f565b811461117157600080fd5b50565b61117d81610fd6565b811461118857600080fd5b5056fea2646970667358221220b283f10560d1d2ab00585f73faa1247214a995669ca7e07bf6f02345663bc56d64736f6c63430008070033",
					"opcodes": "PUSH1 0x80 PUSH1 0x40 MSTORE CALLVALUE DUP1 ISZERO PUSH2 0x10 JUMPI PUSH1 0x0 DUP1 REVERT JUMPDEST POP CALLER PUSH1 0x0 DUP1 PUSH2 0x100 EXP DUP2 SLOAD DUP2 PUSH20 0xFFFFFFFFFFFFFFFFFFFFFFFFFFFFFFFFFFFFFFFF MUL NOT AND SWAP1 DUP4 PUSH20 0xFFFFFFFFFFFFFFFFFFFFFFFFFFFFFFFFFFFFFFFF AND MUL OR SWAP1 SSTORE POP PUSH1 0x0 PUSH1 0x5 PUSH1 0x0 PUSH2 0x100 EXP DUP2 SLOAD DUP2 PUSH1 0xFF MUL NOT AND SWAP1 DUP4 PUSH1 0x3 DUP2 GT ISZERO PUSH2 0x77 JUMPI PUSH2 0x76 PUSH2 0x81 JUMP JUMPDEST JUMPDEST MUL OR SWAP1 SSTORE POP PUSH2 0xB0 JUMP JUMPDEST PUSH32 0x4E487B7100000000000000000000000000000000000000000000000000000000 PUSH1 0x0 MSTORE PUSH1 0x21 PUSH1 0x4 MSTORE PUSH1 0x24 PUSH1 0x0 REVERT JUMPDEST PUSH2 0x11C1 DUP1 PUSH2 0xBF PUSH1 0x0 CODECOPY PUSH1 0x0 RETURN INVALID PUSH1 0x80 PUSH1 0x40 MSTORE PUSH1 0x4 CALLDATASIZE LT PUSH2 0xC2 JUMPI PUSH1 0x0 CALLDATALOAD PUSH1 0xE0 SHR DUP1 PUSH4 0x8FA8B790 GT PUSH2 0x7F JUMPI DUP1 PUSH4 0xD5F84189 GT PUSH2 0x59 JUMPI DUP1 PUSH4 0xD5F84189 EQ PUSH2 0x246 JUMPI DUP1 PUSH4 0xECFC7ECC EQ PUSH2 0x271 JUMPI DUP1 PUSH4 0xF5B56C56 EQ PUSH2 0x27B JUMPI DUP1 PUSH4 0xF77282AB EQ PUSH2 0x2A6 JUMPI PUSH2 0xC2 JUMP JUMPDEST DUP1 PUSH4 0x8FA8B790 EQ PUSH2 0x1D9 JUMPI DUP1 PUSH4 0x91F90157 EQ PUSH2 0x1F0 JUMPI DUP1 PUSH4 0xC623674F EQ PUSH2 0x21B JUMPI PUSH2 0xC2 JUMP JUMPDEST DUP1 PUSH4 0x83C6323 EQ PUSH2 0xC7 JUMPI DUP1 PUSH4 0x341175D5 EQ PUSH2 0xF2 JUMPI DUP1 PUSH4 0x48CD4CB1 EQ PUSH2 0x11B JUMPI DUP1 PUSH4 0x62EA82DB EQ PUSH2 0x146 JUMPI DUP1 PUSH4 0x7FB45099 EQ PUSH2 0x183 JUMPI DUP1 PUSH4 0x8DA5CB5B EQ PUSH2 0x1AE JUMPI JUMPDEST PUSH1 0x0 DUP1 REVERT JUMPDEST CALLVALUE DUP1 ISZERO PUSH2 0xD3 JUMPI PUSH1 0x0 DUP1 REVERT JUMPDEST POP PUSH2 0xDC PUSH2 0x2BD JUMP JUMPDEST PUSH1 0x40 MLOAD PUSH2 0xE9 SWAP2 SWAP1 PUSH2 0xEBE JUMP JUMPDEST PUSH1 0x40 MLOAD DUP1 SWAP2 SUB SWAP1 RETURN JUMPDEST CALLVALUE DUP1 ISZERO PUSH2 0xFE JUMPI PUSH1 0x0 DUP1 REVERT JUMPDEST POP PUSH2 0x119 PUSH1 0x4 DUP1 CALLDATASIZE SUB DUP2 ADD SWAP1 PUSH2 0x114 SWAP2 SWAP1 PUSH2 0xD40 JUMP JUMPDEST PUSH2 0x2C3 JUMP JUMPDEST STOP JUMPDEST CALLVALUE DUP1 ISZERO PUSH2 0x127 JUMPI PUSH1 0x0 DUP1 REVERT JUMPDEST POP PUSH2 0x130 PUSH2 0x3DA JUMP JUMPDEST PUSH1 0x40 MLOAD PUSH2 0x13D SWAP2 SWAP1 PUSH2 0xEBE JUMP JUMPDEST PUSH1 0x40 MLOAD DUP1 SWAP2 SUB SWAP1 RETURN JUMPDEST CALLVALUE DUP1 ISZERO PUSH2 0x152 JUMPI PUSH1 0x0 DUP1 REVERT JUMPDEST POP PUSH2 0x16D PUSH1 0x4 DUP1 CALLDATASIZE SUB DUP2 ADD SWAP1 PUSH2 0x168 SWAP2 SWAP1 PUSH2 0xD13 JUMP JUMPDEST PUSH2 0x3E0 JUMP JUMPDEST PUSH1 0x40 MLOAD PUSH2 0x17A SWAP2 SWAP1 PUSH2 0xEBE JUMP JUMPDEST PUSH1 0x40 MLOAD DUP1 SWAP2 SUB SWAP1 RETURN JUMPDEST CALLVALUE DUP1 ISZERO PUSH2 0x18F JUMPI PUSH1 0x0 DUP1 REVERT JUMPDEST POP PUSH2 0x198 PUSH2 0x3F8 JUMP JUMPDEST PUSH1 0x40 MLOAD PUSH2 0x1A5 SWAP2 SWAP1 PUSH2 0xE61 JUMP JUMPDEST PUSH1 0x40 MLOAD DUP1 SWAP2 SUB SWAP1 RETURN JUMPDEST CALLVALUE DUP1 ISZERO PUSH2 0x1BA JUMPI PUSH1 0x0 DUP1 REVERT JUMPDEST POP PUSH2 0x1C3 PUSH2 0x40B JUMP JUMPDEST PUSH1 0x40 MLOAD PUSH2 0x1D0 SWAP2 SWAP1 PUSH2 0xE2B JUMP JUMPDEST PUSH1 0x40 MLOAD DUP1 SWAP2 SUB SWAP1 RETURN JUMPDEST CALLVALUE DUP1 ISZERO PUSH2 0x1E5 JUMPI PUSH1 0x0 DUP1 REVERT JUMPDEST POP PUSH2 0x1EE PUSH2 0x42F JUMP JUMPDEST STOP JUMPDEST CALLVALUE DUP1 ISZERO PUSH2 0x1FC JUMPI PUSH1 0x0 DUP1 REVERT JUMPDEST POP PUSH2 0x205 PUSH2 0x4B4 JUMP JUMPDEST PUSH1 0x40 MLOAD PUSH2 0x212 SWAP2 SWAP1 PUSH2 0xE46 JUMP JUMPDEST PUSH1 0x40 MLOAD DUP1 SWAP2 SUB SWAP1 RETURN JUMPDEST CALLVALUE DUP1 ISZERO PUSH2 0x227 JUMPI PUSH1 0x0 DUP1 REVERT JUMPDEST POP PUSH2 0x230 PUSH2 0x4DA JUMP JUMPDEST PUSH1 0x40 MLOAD PUSH2 0x23D SWAP2 SWAP1 PUSH2 0xE7C JUMP JUMPDEST PUSH1 0x40 MLOAD DUP1 SWAP2 SUB SWAP1 RETURN JUMPDEST CALLVALUE DUP1 ISZERO PUSH2 0x252 JUMPI PUSH1 0x0 DUP1 REVERT JUMPDEST POP PUSH2 0x25B PUSH2 0x568 JUMP JUMPDEST PUSH1 0x40 MLOAD PUSH2 0x268 SWAP2 SWAP1 PUSH2 0xEBE JUMP JUMPDEST PUSH1 0x40 MLOAD DUP1 SWAP2 SUB SWAP1 RETURN JUMPDEST PUSH2 0x279 PUSH2 0x56E JUMP JUMPDEST STOP JUMPDEST CALLVALUE DUP1 ISZERO PUSH2 0x287 JUMPI PUSH1 0x0 DUP1 REVERT JUMPDEST POP PUSH2 0x290 PUSH2 0x8BA JUMP JUMPDEST PUSH1 0x40 MLOAD PUSH2 0x29D SWAP2 SWAP1 PUSH2 0xEBE JUMP JUMPDEST PUSH1 0x40 MLOAD DUP1 SWAP2 SUB SWAP1 RETURN JUMPDEST CALLVALUE DUP1 ISZERO PUSH2 0x2B2 JUMPI PUSH1 0x0 DUP1 REVERT JUMPDEST POP PUSH2 0x2BB PUSH2 0x8C0 JUMP JUMPDEST STOP JUMPDEST PUSH1 0x2 SLOAD DUP2 JUMP JUMPDEST PUSH1 0x0 DUP1 SLOAD SWAP1 PUSH2 0x100 EXP SWAP1 DIV PUSH20 0xFFFFFFFFFFFFFFFFFFFFFFFFFFFFFFFFFFFFFFFF AND PUSH20 0xFFFFFFFFFFFFFFFFFFFFFFFFFFFFFFFFFFFFFFFF AND CALLER PUSH20 0xFFFFFFFFFFFFFFFFFFFFFFFFFFFFFFFFFFFFFFFF AND EQ PUSH2 0x31B JUMPI PUSH1 0x0 DUP1 REVERT JUMPDEST PUSH1 0x0 PUSH1 0x3 DUP2 GT ISZERO PUSH2 0x32F JUMPI PUSH2 0x32E PUSH2 0x1086 JUMP JUMPDEST JUMPDEST PUSH1 0x5 PUSH1 0x0 SWAP1 SLOAD SWAP1 PUSH2 0x100 EXP SWAP1 DIV PUSH1 0xFF AND PUSH1 0x3 DUP2 GT ISZERO PUSH2 0x351 JUMPI PUSH2 0x350 PUSH2 0x1086 JUMP JUMPDEST JUMPDEST EQ PUSH2 0x35B JUMPI PUSH1 0x0 DUP1 REVERT JUMPDEST NUMBER PUSH1 0x1 DUP2 SWAP1 SSTORE POP DUP3 PUSH1 0x1 SLOAD PUSH2 0x370 SWAP2 SWAP1 PUSH2 0xEF5 JUMP JUMPDEST PUSH1 0x2 DUP2 SWAP1 SSTORE POP PUSH1 0x1 PUSH1 0x5 PUSH1 0x0 PUSH2 0x100 EXP DUP2 SLOAD DUP2 PUSH1 0xFF MUL NOT AND SWAP1 DUP4 PUSH1 0x3 DUP2 GT ISZERO PUSH2 0x39C JUMPI PUSH2 0x39B PUSH2 0x1086 JUMP JUMPDEST JUMPDEST MUL OR SWAP1 SSTORE POP PUSH1 0x40 MLOAD DUP1 PUSH1 0x20 ADD PUSH1 0x40 MSTORE DUP1 PUSH1 0x0 DUP2 MSTORE POP PUSH1 0x4 SWAP1 DUP1 MLOAD SWAP1 PUSH1 0x20 ADD SWAP1 PUSH2 0x3C6 SWAP3 SWAP2 SWAP1 PUSH2 0xC46 JUMP JUMPDEST POP DUP2 PUSH1 0x9 DUP2 SWAP1 SSTORE POP DUP1 PUSH1 0x3 DUP2 SWAP1 SSTORE POP POP POP POP JUMP JUMPDEST PUSH1 0x1 SLOAD DUP2 JUMP JUMPDEST PUSH1 0x8 PUSH1 0x20 MSTORE DUP1 PUSH1 0x0 MSTORE PUSH1 0x40 PUSH1 0x0 KECCAK256 PUSH1 0x0 SWAP2 POP SWAP1 POP SLOAD DUP2 JUMP JUMPDEST PUSH1 0x5 PUSH1 0x0 SWAP1 SLOAD SWAP1 PUSH2 0x100 EXP SWAP1 DIV PUSH1 0xFF AND DUP2 JUMP JUMPDEST PUSH1 0x0 DUP1 SLOAD SWAP1 PUSH2 0x100 EXP SWAP1 DIV PUSH20 0xFFFFFFFFFFFFFFFFFFFFFFFFFFFFFFFFFFFFFFFF AND DUP2 JUMP JUMPDEST PUSH1 0x0 DUP1 SLOAD SWAP1 PUSH2 0x100 EXP SWAP1 DIV PUSH20 0xFFFFFFFFFFFFFFFFFFFFFFFFFFFFFFFFFFFFFFFF AND PUSH20 0xFFFFFFFFFFFFFFFFFFFFFFFFFFFFFFFFFFFFFFFF AND CALLER PUSH20 0xFFFFFFFFFFFFFFFFFFFFFFFFFFFFFFFFFFFFFFFF AND EQ PUSH2 0x487 JUMPI PUSH1 0x0 DUP1 REVERT JUMPDEST PUSH1 0x3 PUSH1 0x5 PUSH1 0x0 PUSH2 0x100 EXP DUP2 SLOAD DUP2 PUSH1 0xFF MUL NOT AND SWAP1 DUP4 PUSH1 0x3 DUP2 GT ISZERO PUSH2 0x4AD JUMPI PUSH2 0x4AC PUSH2 0x1086 JUMP JUMPDEST JUMPDEST MUL OR SWAP1 SSTORE POP JUMP JUMPDEST PUSH1 0x7 PUSH1 0x0 SWAP1 SLOAD SWAP1 PUSH2 0x100 EXP SWAP1 DIV PUSH20 0xFFFFFFFFFFFFFFFFFFFFFFFFFFFFFFFFFFFFFFFF AND DUP2 JUMP JUMPDEST PUSH1 0x4 DUP1 SLOAD PUSH2 0x4E7 SWAP1 PUSH2 0x1025 JUMP JUMPDEST DUP1 PUSH1 0x1F ADD PUSH1 0x20 DUP1 SWAP2 DIV MUL PUSH1 0x20 ADD PUSH1 0x40 MLOAD SWAP1 DUP2 ADD PUSH1 0x40 MSTORE DUP1 SWAP3 SWAP2 SWAP1 DUP2 DUP2 MSTORE PUSH1 0x20 ADD DUP3 DUP1 SLOAD PUSH2 0x513 SWAP1 PUSH2 0x1025 JUMP JUMPDEST DUP1 ISZERO PUSH2 0x560 JUMPI DUP1 PUSH1 0x1F LT PUSH2 0x535 JUMPI PUSH2 0x100 DUP1 DUP4 SLOAD DIV MUL DUP4 MSTORE SWAP2 PUSH1 0x20 ADD SWAP2 PUSH2 0x560 JUMP JUMPDEST DUP3 ADD SWAP2 SWAP1 PUSH1 0x0 MSTORE PUSH1 0x20 PUSH1 0x0 KECCAK256 SWAP1 JUMPDEST DUP2 SLOAD DUP2 MSTORE SWAP1 PUSH1 0x1 ADD SWAP1 PUSH1 0x20 ADD DUP1 DUP4 GT PUSH2 0x543 JUMPI DUP3 SWAP1 SUB PUSH1 0x1F AND DUP3 ADD SWAP2 JUMPDEST POP POP POP POP POP DUP2 JUMP JUMPDEST PUSH1 0x3 SLOAD DUP2 JUMP JUMPDEST PUSH1 0x0 DUP1 SLOAD SWAP1 PUSH2 0x100 EXP SWAP1 DIV PUSH20 0xFFFFFFFFFFFFFFFFFFFFFFFFFFFFFFFFFFFFFFFF AND PUSH20 0xFFFFFFFFFFFFFFFFFFFFFFFFFFFFFFFFFFFFFFFF AND CALLER PUSH20 0xFFFFFFFFFFFFFFFFFFFFFFFFFFFFFFFFFFFFFFFF AND EQ ISZERO PUSH2 0x5C7 JUMPI PUSH1 0x0 DUP1 REVERT JUMPDEST PUSH1 0x1 SLOAD NUMBER LT ISZERO PUSH2 0x5D6 JUMPI PUSH1 0x0 DUP1 REVERT JUMPDEST PUSH1 0x2 SLOAD NUMBER GT ISZERO PUSH2 0x5E5 JUMPI PUSH1 0x0 DUP1 REVERT JUMPDEST PUSH1 0x1 PUSH1 0x3 DUP2 GT ISZERO PUSH2 0x5F9 JUMPI PUSH2 0x5F8 PUSH2 0x1086 JUMP JUMPDEST JUMPDEST PUSH1 0x5 PUSH1 0x0 SWAP1 SLOAD SWAP1 PUSH2 0x100 EXP SWAP1 DIV PUSH1 0xFF AND PUSH1 0x3 DUP2 GT ISZERO PUSH2 0x61B JUMPI PUSH2 0x61A PUSH2 0x1086 JUMP JUMPDEST JUMPDEST EQ PUSH2 0x65B JUMPI PUSH1 0x40 MLOAD PUSH32 0x8C379A000000000000000000000000000000000000000000000000000000000 DUP2 MSTORE PUSH1 0x4 ADD PUSH2 0x652 SWAP1 PUSH2 0xE9E JUMP JUMPDEST PUSH1 0x40 MLOAD DUP1 SWAP2 SUB SWAP1 REVERT JUMPDEST PUSH1 0x3 SLOAD CALLVALUE LT ISZERO PUSH2 0x66A JUMPI PUSH1 0x0 DUP1 REVERT JUMPDEST PUSH1 0x0 CALLVALUE PUSH1 0x8 PUSH1 0x0 CALLER PUSH20 0xFFFFFFFFFFFFFFFFFFFFFFFFFFFFFFFFFFFFFFFF AND PUSH20 0xFFFFFFFFFFFFFFFFFFFFFFFFFFFFFFFFFFFFFFFF AND DUP2 MSTORE PUSH1 0x20 ADD SWAP1 DUP2 MSTORE PUSH1 0x20 ADD PUSH1 0x0 KECCAK256 SLOAD PUSH2 0x6B7 SWAP2 SWAP1 PUSH2 0xEF5 JUMP JUMPDEST SWAP1 POP PUSH1 0x6 SLOAD DUP2 LT ISZERO PUSH2 0x6C8 JUMPI PUSH1 0x0 DUP1 REVERT JUMPDEST DUP1 PUSH1 0x8 PUSH1 0x0 CALLER PUSH20 0xFFFFFFFFFFFFFFFFFFFFFFFFFFFFFFFFFFFFFFFF AND PUSH20 0xFFFFFFFFFFFFFFFFFFFFFFFFFFFFFFFFFFFFFFFF AND DUP2 MSTORE PUSH1 0x20 ADD SWAP1 DUP2 MSTORE PUSH1 0x20 ADD PUSH1 0x0 KECCAK256 DUP2 SWAP1 SSTORE POP PUSH1 0x8 PUSH1 0x0 PUSH1 0x7 PUSH1 0x0 SWAP1 SLOAD SWAP1 PUSH2 0x100 EXP SWAP1 DIV PUSH20 0xFFFFFFFFFFFFFFFFFFFFFFFFFFFFFFFFFFFFFFFF AND PUSH20 0xFFFFFFFFFFFFFFFFFFFFFFFFFFFFFFFFFFFFFFFF AND PUSH20 0xFFFFFFFFFFFFFFFFFFFFFFFFFFFFFFFFFFFFFFFF AND DUP2 MSTORE PUSH1 0x20 ADD SWAP1 DUP2 MSTORE PUSH1 0x20 ADD PUSH1 0x0 KECCAK256 SLOAD DUP2 GT PUSH2 0x7F7 JUMPI PUSH2 0x7EC PUSH1 0x9 SLOAD DUP3 PUSH2 0x785 SWAP2 SWAP1 PUSH2 0xEF5 JUMP JUMPDEST PUSH1 0x8 PUSH1 0x0 PUSH1 0x7 PUSH1 0x0 SWAP1 SLOAD SWAP1 PUSH2 0x100 EXP SWAP1 DIV PUSH20 0xFFFFFFFFFFFFFFFFFFFFFFFFFFFFFFFFFFFFFFFF AND PUSH20 0xFFFFFFFFFFFFFFFFFFFFFFFFFFFFFFFFFFFFFFFF AND PUSH20 0xFFFFFFFFFFFFFFFFFFFFFFFFFFFFFFFFFFFFFFFF AND DUP2 MSTORE PUSH1 0x20 ADD SWAP1 DUP2 MSTORE PUSH1 0x20 ADD PUSH1 0x0 KECCAK256 SLOAD PUSH2 0xBD2 JUMP JUMPDEST PUSH1 0x6 DUP2 SWAP1 SSTORE POP PUSH2 0x8B7 JUMP JUMPDEST PUSH2 0x86F DUP2 PUSH1 0x9 SLOAD PUSH1 0x8 PUSH1 0x0 PUSH1 0x7 PUSH1 0x0 SWAP1 SLOAD SWAP1 PUSH2 0x100 EXP SWAP1 DIV PUSH20 0xFFFFFFFFFFFFFFFFFFFFFFFFFFFFFFFFFFFFFFFF AND PUSH20 0xFFFFFFFFFFFFFFFFFFFFFFFFFFFFFFFFFFFFFFFF AND PUSH20 0xFFFFFFFFFFFFFFFFFFFFFFFFFFFFFFFFFFFFFFFF AND DUP2 MSTORE PUSH1 0x20 ADD SWAP1 DUP2 MSTORE PUSH1 0x20 ADD PUSH1 0x0 KECCAK256 SLOAD PUSH2 0x86A SWAP2 SWAP1 PUSH2 0xEF5 JUMP JUMPDEST PUSH2 0xBD2 JUMP JUMPDEST PUSH1 0x6 DUP2 SWAP1 SSTORE POP CALLER PUSH1 0x7 PUSH1 0x0 PUSH2 0x100 EXP DUP2 SLOAD DUP2 PUSH20 0xFFFFFFFFFFFFFFFFFFFFFFFFFFFFFFFFFFFFFFFF MUL NOT AND SWAP1 DUP4 PUSH20 0xFFFFFFFFFFFFFFFFFFFFFFFFFFFFFFFFFFFFFFFF AND MUL OR SWAP1 SSTORE POP JUMPDEST POP JUMP JUMPDEST PUSH1 0x6 SLOAD DUP2 JUMP JUMPDEST PUSH1 0x3 DUP1 DUP2 GT ISZERO PUSH2 0x8D3 JUMPI PUSH2 0x8D2 PUSH2 0x1086 JUMP JUMPDEST JUMPDEST PUSH1 0x5 PUSH1 0x0 SWAP1 SLOAD SWAP1 PUSH2 0x100 EXP SWAP1 DIV PUSH1 0xFF AND PUSH1 0x3 DUP2 GT ISZERO PUSH2 0x8F5 JUMPI PUSH2 0x8F4 PUSH2 0x1086 JUMP JUMPDEST JUMPDEST EQ DUP1 PUSH2 0x903 JUMPI POP PUSH1 0x2 SLOAD NUMBER LT ISZERO JUMPDEST PUSH2 0x90C JUMPI PUSH1 0x0 DUP1 REVERT JUMPDEST PUSH2 0x915 CALLER PUSH2 0xBED JUMP JUMPDEST DUP1 PUSH2 0x95F JUMPI POP PUSH1 0x0 PUSH1 0x8 PUSH1 0x0 CALLER PUSH20 0xFFFFFFFFFFFFFFFFFFFFFFFFFFFFFFFFFFFFFFFF AND PUSH20 0xFFFFFFFFFFFFFFFFFFFFFFFFFFFFFFFFFFFFFFFF AND DUP2 MSTORE PUSH1 0x20 ADD SWAP1 DUP2 MSTORE PUSH1 0x20 ADD PUSH1 0x0 KECCAK256 SLOAD GT JUMPDEST PUSH2 0x968 JUMPI PUSH1 0x0 DUP1 REVERT JUMPDEST PUSH1 0x0 DUP1 PUSH1 0x3 DUP1 DUP2 GT ISZERO PUSH2 0x97E JUMPI PUSH2 0x97D PUSH2 0x1086 JUMP JUMPDEST JUMPDEST PUSH1 0x5 PUSH1 0x0 SWAP1 SLOAD SWAP1 PUSH2 0x100 EXP SWAP1 DIV PUSH1 0xFF AND PUSH1 0x3 DUP2 GT ISZERO PUSH2 0x9A0 JUMPI PUSH2 0x99F PUSH2 0x1086 JUMP JUMPDEST JUMPDEST EQ ISZERO PUSH2 0x9F0 JUMPI CALLER SWAP2 POP PUSH1 0x8 PUSH1 0x0 CALLER PUSH20 0xFFFFFFFFFFFFFFFFFFFFFFFFFFFFFFFFFFFFFFFF AND PUSH20 0xFFFFFFFFFFFFFFFFFFFFFFFFFFFFFFFFFFFFFFFF AND DUP2 MSTORE PUSH1 0x20 ADD SWAP1 DUP2 MSTORE PUSH1 0x20 ADD PUSH1 0x0 KECCAK256 SLOAD SWAP1 POP PUSH2 0xB42 JUMP JUMPDEST PUSH2 0x9F9 CALLER PUSH2 0xBED JUMP JUMPDEST ISZERO PUSH2 0xA2B JUMPI PUSH1 0x0 DUP1 SLOAD SWAP1 PUSH2 0x100 EXP SWAP1 DIV PUSH20 0xFFFFFFFFFFFFFFFFFFFFFFFFFFFFFFFFFFFFFFFF AND SWAP2 POP PUSH1 0x6 SLOAD SWAP1 POP PUSH2 0xB41 JUMP JUMPDEST PUSH1 0x7 PUSH1 0x0 SWAP1 SLOAD SWAP1 PUSH2 0x100 EXP SWAP1 DIV PUSH20 0xFFFFFFFFFFFFFFFFFFFFFFFFFFFFFFFFFFFFFFFF AND PUSH20 0xFFFFFFFFFFFFFFFFFFFFFFFFFFFFFFFFFFFFFFFF AND CALLER PUSH20 0xFFFFFFFFFFFFFFFFFFFFFFFFFFFFFFFFFFFFFFFF AND EQ ISZERO PUSH2 0xAFA JUMPI PUSH1 0x7 PUSH1 0x0 SWAP1 SLOAD SWAP1 PUSH2 0x100 EXP SWAP1 DIV PUSH20 0xFFFFFFFFFFFFFFFFFFFFFFFFFFFFFFFFFFFFFFFF AND SWAP2 POP PUSH1 0x6 SLOAD PUSH1 0x8 PUSH1 0x0 CALLER PUSH20 0xFFFFFFFFFFFFFFFFFFFFFFFFFFFFFFFFFFFFFFFF AND PUSH20 0xFFFFFFFFFFFFFFFFFFFFFFFFFFFFFFFFFFFFFFFF AND DUP2 MSTORE PUSH1 0x20 ADD SWAP1 DUP2 MSTORE PUSH1 0x20 ADD PUSH1 0x0 KECCAK256 SLOAD PUSH2 0xAF3 SWAP2 SWAP1 PUSH2 0xF4B JUMP JUMPDEST SWAP1 POP PUSH2 0xB40 JUMP JUMPDEST CALLER SWAP2 POP PUSH1 0x8 PUSH1 0x0 CALLER PUSH20 0xFFFFFFFFFFFFFFFFFFFFFFFFFFFFFFFFFFFFFFFF AND PUSH20 0xFFFFFFFFFFFFFFFFFFFFFFFFFFFFFFFFFFFFFFFF AND DUP2 MSTORE PUSH1 0x20 ADD SWAP1 DUP2 MSTORE PUSH1 0x20 ADD PUSH1 0x0 KECCAK256 SLOAD SWAP1 POP JUMPDEST JUMPDEST JUMPDEST PUSH1 0x0 PUSH1 0x8 PUSH1 0x0 DUP5 PUSH20 0xFFFFFFFFFFFFFFFFFFFFFFFFFFFFFFFFFFFFFFFF AND PUSH20 0xFFFFFFFFFFFFFFFFFFFFFFFFFFFFFFFFFFFFFFFF AND DUP2 MSTORE PUSH1 0x20 ADD SWAP1 DUP2 MSTORE PUSH1 0x20 ADD PUSH1 0x0 KECCAK256 DUP2 SWAP1 SSTORE POP DUP2 PUSH20 0xFFFFFFFFFFFFFFFFFFFFFFFFFFFFFFFFFFFFFFFF AND PUSH2 0x8FC DUP3 SWAP1 DUP2 ISZERO MUL SWAP1 PUSH1 0x40 MLOAD PUSH1 0x0 PUSH1 0x40 MLOAD DUP1 DUP4 SUB DUP2 DUP6 DUP9 DUP9 CALL SWAP4 POP POP POP POP ISZERO DUP1 ISZERO PUSH2 0xBCD JUMPI RETURNDATASIZE PUSH1 0x0 DUP1 RETURNDATACOPY RETURNDATASIZE PUSH1 0x0 REVERT JUMPDEST POP POP POP JUMP JUMPDEST PUSH1 0x0 DUP2 DUP4 GT PUSH2 0xBE3 JUMPI DUP3 SWAP1 POP PUSH2 0xBE7 JUMP JUMPDEST DUP2 SWAP1 POP JUMPDEST SWAP3 SWAP2 POP POP JUMP JUMPDEST PUSH1 0x0 DUP1 PUSH1 0x0 SWAP1 SLOAD SWAP1 PUSH2 0x100 EXP SWAP1 DIV PUSH20 0xFFFFFFFFFFFFFFFFFFFFFFFFFFFFFFFFFFFFFFFF AND PUSH20 0xFFFFFFFFFFFFFFFFFFFFFFFFFFFFFFFFFFFFFFFF AND DUP3 PUSH20 0xFFFFFFFFFFFFFFFFFFFFFFFFFFFFFFFFFFFFFFFF AND EQ SWAP1 POP SWAP2 SWAP1 POP JUMP JUMPDEST DUP3 DUP1 SLOAD PUSH2 0xC52 SWAP1 PUSH2 0x1025 JUMP JUMPDEST SWAP1 PUSH1 0x0 MSTORE PUSH1 0x20 PUSH1 0x0 KECCAK256 SWAP1 PUSH1 0x1F ADD PUSH1 0x20 SWAP1 DIV DUP2 ADD SWAP3 DUP3 PUSH2 0xC74 JUMPI PUSH1 0x0 DUP6 SSTORE PUSH2 0xCBB JUMP JUMPDEST DUP3 PUSH1 0x1F LT PUSH2 0xC8D JUMPI DUP1 MLOAD PUSH1 0xFF NOT AND DUP4 DUP1 ADD OR DUP6 SSTORE PUSH2 0xCBB JUMP JUMPDEST DUP3 DUP1 ADD PUSH1 0x1 ADD DUP6 SSTORE DUP3 ISZERO PUSH2 0xCBB JUMPI SWAP2 DUP3 ADD JUMPDEST DUP3 DUP2 GT ISZERO PUSH2 0xCBA JUMPI DUP3 MLOAD DUP3 SSTORE SWAP2 PUSH1 0x20 ADD SWAP2 SWAP1 PUSH1 0x1 ADD SWAP1 PUSH2 0xC9F JUMP JUMPDEST JUMPDEST POP SWAP1 POP PUSH2 0xCC8 SWAP2 SWAP1 PUSH2 0xCCC JUMP JUMPDEST POP SWAP1 JUMP JUMPDEST JUMPDEST DUP1 DUP3 GT ISZERO PUSH2 0xCE5 JUMPI PUSH1 0x0 DUP2 PUSH1 0x0 SWAP1 SSTORE POP PUSH1 0x1 ADD PUSH2 0xCCD JUMP JUMPDEST POP SWAP1 JUMP JUMPDEST PUSH1 0x0 DUP2 CALLDATALOAD SWAP1 POP PUSH2 0xCF8 DUP2 PUSH2 0x115D JUMP JUMPDEST SWAP3 SWAP2 POP POP JUMP JUMPDEST PUSH1 0x0 DUP2 CALLDATALOAD SWAP1 POP PUSH2 0xD0D DUP2 PUSH2 0x1174 JUMP JUMPDEST SWAP3 SWAP2 POP POP JUMP JUMPDEST PUSH1 0x0 PUSH1 0x20 DUP3 DUP5 SUB SLT ISZERO PUSH2 0xD29 JUMPI PUSH2 0xD28 PUSH2 0x10E4 JUMP JUMPDEST JUMPDEST PUSH1 0x0 PUSH2 0xD37 DUP5 DUP3 DUP6 ADD PUSH2 0xCE9 JUMP JUMPDEST SWAP2 POP POP SWAP3 SWAP2 POP POP JUMP JUMPDEST PUSH1 0x0 DUP1 PUSH1 0x0 PUSH1 0x60 DUP5 DUP7 SUB SLT ISZERO PUSH2 0xD59 JUMPI PUSH2 0xD58 PUSH2 0x10E4 JUMP JUMPDEST JUMPDEST PUSH1 0x0 PUSH2 0xD67 DUP7 DUP3 DUP8 ADD PUSH2 0xCFE JUMP JUMPDEST SWAP4 POP POP PUSH1 0x20 PUSH2 0xD78 DUP7 DUP3 DUP8 ADD PUSH2 0xCFE JUMP JUMPDEST SWAP3 POP POP PUSH1 0x40 PUSH2 0xD89 DUP7 DUP3 DUP8 ADD PUSH2 0xCFE JUMP JUMPDEST SWAP2 POP POP SWAP3 POP SWAP3 POP SWAP3 JUMP JUMPDEST PUSH2 0xD9C DUP2 PUSH2 0xF91 JUMP JUMPDEST DUP3 MSTORE POP POP JUMP JUMPDEST PUSH2 0xDAB DUP2 PUSH2 0xF7F JUMP JUMPDEST DUP3 MSTORE POP POP JUMP JUMPDEST PUSH2 0xDBA DUP2 PUSH2 0xFE0 JUMP JUMPDEST DUP3 MSTORE POP POP JUMP JUMPDEST PUSH1 0x0 PUSH2 0xDCB DUP3 PUSH2 0xED9 JUMP JUMPDEST PUSH2 0xDD5 DUP2 DUP6 PUSH2 0xEE4 JUMP JUMPDEST SWAP4 POP PUSH2 0xDE5 DUP2 DUP6 PUSH1 0x20 DUP7 ADD PUSH2 0xFF2 JUMP JUMPDEST PUSH2 0xDEE DUP2 PUSH2 0x10E9 JUMP JUMPDEST DUP5 ADD SWAP2 POP POP SWAP3 SWAP2 POP POP JUMP JUMPDEST PUSH1 0x0 PUSH2 0xE06 PUSH1 0x23 DUP4 PUSH2 0xEE4 JUMP JUMPDEST SWAP2 POP PUSH2 0xE11 DUP3 PUSH2 0x10FA JUMP JUMPDEST PUSH1 0x40 DUP3 ADD SWAP1 POP SWAP2 SWAP1 POP JUMP JUMPDEST PUSH2 0xE25 DUP2 PUSH2 0xFD6 JUMP JUMPDEST DUP3 MSTORE POP POP JUMP JUMPDEST PUSH1 0x0 PUSH1 0x20 DUP3 ADD SWAP1 POP PUSH2 0xE40 PUSH1 0x0 DUP4 ADD DUP5 PUSH2 0xDA2 JUMP JUMPDEST SWAP3 SWAP2 POP POP JUMP JUMPDEST PUSH1 0x0 PUSH1 0x20 DUP3 ADD SWAP1 POP PUSH2 0xE5B PUSH1 0x0 DUP4 ADD DUP5 PUSH2 0xD93 JUMP JUMPDEST SWAP3 SWAP2 POP POP JUMP JUMPDEST PUSH1 0x0 PUSH1 0x20 DUP3 ADD SWAP1 POP PUSH2 0xE76 PUSH1 0x0 DUP4 ADD DUP5 PUSH2 0xDB1 JUMP JUMPDEST SWAP3 SWAP2 POP POP JUMP JUMPDEST PUSH1 0x0 PUSH1 0x20 DUP3 ADD SWAP1 POP DUP2 DUP2 SUB PUSH1 0x0 DUP4 ADD MSTORE PUSH2 0xE96 DUP2 DUP5 PUSH2 0xDC0 JUMP JUMPDEST SWAP1 POP SWAP3 SWAP2 POP POP JUMP JUMPDEST PUSH1 0x0 PUSH1 0x20 DUP3 ADD SWAP1 POP DUP2 DUP2 SUB PUSH1 0x0 DUP4 ADD MSTORE PUSH2 0xEB7 DUP2 PUSH2 0xDF9 JUMP JUMPDEST SWAP1 POP SWAP2 SWAP1 POP JUMP JUMPDEST PUSH1 0x0 PUSH1 0x20 DUP3 ADD SWAP1 POP PUSH2 0xED3 PUSH1 0x0 DUP4 ADD DUP5 PUSH2 0xE1C JUMP JUMPDEST SWAP3 SWAP2 POP POP JUMP JUMPDEST PUSH1 0x0 DUP2 MLOAD SWAP1 POP SWAP2 SWAP1 POP JUMP JUMPDEST PUSH1 0x0 DUP3 DUP3 MSTORE PUSH1 0x20 DUP3 ADD SWAP1 POP SWAP3 SWAP2 POP POP JUMP JUMPDEST PUSH1 0x0 PUSH2 0xF00 DUP3 PUSH2 0xFD6 JUMP JUMPDEST SWAP2 POP PUSH2 0xF0B DUP4 PUSH2 0xFD6 JUMP JUMPDEST SWAP3 POP DUP3 PUSH32 0xFFFFFFFFFFFFFFFFFFFFFFFFFFFFFFFFFFFFFFFFFFFFFFFFFFFFFFFFFFFFFFFF SUB DUP3 GT ISZERO PUSH2 0xF40 JUMPI PUSH2 0xF3F PUSH2 0x1057 JUMP JUMPDEST JUMPDEST DUP3 DUP3 ADD SWAP1 POP SWAP3 SWAP2 POP POP JUMP JUMPDEST PUSH1 0x0 PUSH2 0xF56 DUP3 PUSH2 0xFD6 JUMP JUMPDEST SWAP2 POP PUSH2 0xF61 DUP4 PUSH2 0xFD6 JUMP JUMPDEST SWAP3 POP DUP3 DUP3 LT ISZERO PUSH2 0xF74 JUMPI PUSH2 0xF73 PUSH2 0x1057 JUMP JUMPDEST JUMPDEST DUP3 DUP3 SUB SWAP1 POP SWAP3 SWAP2 POP POP JUMP JUMPDEST PUSH1 0x0 PUSH2 0xF8A DUP3 PUSH2 0xFB6 JUMP JUMPDEST SWAP1 POP SWAP2 SWAP1 POP JUMP JUMPDEST PUSH1 0x0 PUSH2 0xF9C DUP3 PUSH2 0xFB6 JUMP JUMPDEST SWAP1 POP SWAP2 SWAP1 POP JUMP JUMPDEST PUSH1 0x0 DUP2 SWAP1 POP PUSH2 0xFB1 DUP3 PUSH2 0x1149 JUMP JUMPDEST SWAP2 SWAP1 POP JUMP JUMPDEST PUSH1 0x0 PUSH20 0xFFFFFFFFFFFFFFFFFFFFFFFFFFFFFFFFFFFFFFFF DUP3 AND SWAP1 POP SWAP2 SWAP1 POP JUMP JUMPDEST PUSH1 0x0 DUP2 SWAP1 POP SWAP2 SWAP1 POP JUMP JUMPDEST PUSH1 0x0 PUSH2 0xFEB DUP3 PUSH2 0xFA3 JUMP JUMPDEST SWAP1 POP SWAP2 SWAP1 POP JUMP JUMPDEST PUSH1 0x0 JUMPDEST DUP4 DUP2 LT ISZERO PUSH2 0x1010 JUMPI DUP1 DUP3 ADD MLOAD DUP2 DUP5 ADD MSTORE PUSH1 0x20 DUP2 ADD SWAP1 POP PUSH2 0xFF5 JUMP JUMPDEST DUP4 DUP2 GT ISZERO PUSH2 0x101F JUMPI PUSH1 0x0 DUP5 DUP5 ADD MSTORE JUMPDEST POP POP POP POP JUMP JUMPDEST PUSH1 0x0 PUSH1 0x2 DUP3 DIV SWAP1 POP PUSH1 0x1 DUP3 AND DUP1 PUSH2 0x103D JUMPI PUSH1 0x7F DUP3 AND SWAP2 POP JUMPDEST PUSH1 0x20 DUP3 LT DUP2 EQ ISZERO PUSH2 0x1051 JUMPI PUSH2 0x1050 PUSH2 0x10B5 JUMP JUMPDEST JUMPDEST POP SWAP2 SWAP1 POP JUMP JUMPDEST PUSH32 0x4E487B7100000000000000000000000000000000000000000000000000000000 PUSH1 0x0 MSTORE PUSH1 0x11 PUSH1 0x4 MSTORE PUSH1 0x24 PUSH1 0x0 REVERT JUMPDEST PUSH32 0x4E487B7100000000000000000000000000000000000000000000000000000000 PUSH1 0x0 MSTORE PUSH1 0x21 PUSH1 0x4 MSTORE PUSH1 0x24 PUSH1 0x0 REVERT JUMPDEST PUSH32 0x4E487B7100000000000000000000000000000000000000000000000000000000 PUSH1 0x0 MSTORE PUSH1 0x22 PUSH1 0x4 MSTORE PUSH1 0x24 PUSH1 0x0 REVERT JUMPDEST PUSH1 0x0 DUP1 REVERT JUMPDEST PUSH1 0x0 PUSH1 0x1F NOT PUSH1 0x1F DUP4 ADD AND SWAP1 POP SWAP2 SWAP1 POP JUMP JUMPDEST PUSH32 0x506C65617365207761697420756E74696C207468652061756374696F6E207374 PUSH1 0x0 DUP3 ADD MSTORE PUSH32 0x6172740000000000000000000000000000000000000000000000000000000000 PUSH1 0x20 DUP3 ADD MSTORE POP JUMP JUMPDEST PUSH1 0x4 DUP2 LT PUSH2 0x115A JUMPI PUSH2 0x1159 PUSH2 0x1086 JUMP JUMPDEST JUMPDEST POP JUMP JUMPDEST PUSH2 0x1166 DUP2 PUSH2 0xF7F JUMP JUMPDEST DUP2 EQ PUSH2 0x1171 JUMPI PUSH1 0x0 DUP1 REVERT JUMPDEST POP JUMP JUMPDEST PUSH2 0x117D DUP2 PUSH2 0xFD6 JUMP JUMPDEST DUP2 EQ PUSH2 0x1188 JUMPI PUSH1 0x0 DUP1 REVERT JUMPDEST POP JUMP INVALID LOG2 PUSH5 0x6970667358 0x22 SLT KECCAK256 0xB2 DUP4 CALL SDIV PUSH1 0xD1 0xD2 0xAB STOP PC 0x5F PUSH20 0xFAA1247214A995669CA7E07BF6F02345663BC56D PUSH5 0x736F6C6343 STOP ADDMOD SMOD STOP CALLER "
				},
				"gasEstimates": {
					"creation": {
						"codeDepositCost": "909000",
						"executionCost": "49513",
						"totalCost": "958513"
					},
					"external": {
						"MinimumBidValue()": "2451",
						"auctionState()": "2649",
						"bids(address)": "2881",
						"cancelAuction()": "26621",
						"endBlock()": "2430",
						"finalizeAuction()": "infinite",
						"highestBidder()": "2559",
						"highestBindingBid()": "2495",
						"ipfsHash()": "infinite",
						"owner()": "2622",
						"placeBid()": "infinite",
						"startBlock()": "2474",
						"startNewBid(uint256,uint256,uint256)": "infinite"
					},
					"internal": {
						"isOwner(address)": "2182",
						"min(uint256,uint256)": "64"
					}
				},
				"methodIdentifiers": {
					"MinimumBidValue()": "d5f84189",
					"auctionState()": "7fb45099",
					"bids(address)": "62ea82db",
					"cancelAuction()": "8fa8b790",
					"endBlock()": "083c6323",
					"finalizeAuction()": "f77282ab",
					"highestBidder()": "91f90157",
					"highestBindingBid()": "f5b56c56",
					"ipfsHash()": "c623674f",
					"owner()": "8da5cb5b",
					"placeBid()": "ecfc7ecc",
					"startBlock()": "48cd4cb1",
					"startNewBid(uint256,uint256,uint256)": "341175d5"
				}
			},
			"storageLayout": {
				"storage": [
					{
						"astId": 3,
						"contract": "SmartContract-Auction/Auction.sol:Auction",
						"label": "owner",
						"offset": 0,
						"slot": "0",
						"type": "t_address"
					},
					{
						"astId": 5,
						"contract": "SmartContract-Auction/Auction.sol:Auction",
						"label": "startBlock",
						"offset": 0,
						"slot": "1",
						"type": "t_uint256"
					},
					{
						"astId": 7,
						"contract": "SmartContract-Auction/Auction.sol:Auction",
						"label": "endBlock",
						"offset": 0,
						"slot": "2",
						"type": "t_uint256"
					},
					{
						"astId": 9,
						"contract": "SmartContract-Auction/Auction.sol:Auction",
						"label": "MinimumBidValue",
						"offset": 0,
						"slot": "3",
						"type": "t_uint256"
					},
					{
						"astId": 11,
						"contract": "SmartContract-Auction/Auction.sol:Auction",
						"label": "ipfsHash",
						"offset": 0,
						"slot": "4",
						"type": "t_string_storage"
					},
					{
						"astId": 19,
						"contract": "SmartContract-Auction/Auction.sol:Auction",
						"label": "auctionState",
						"offset": 0,
						"slot": "5",
						"type": "t_enum(State)16"
					},
					{
						"astId": 21,
						"contract": "SmartContract-Auction/Auction.sol:Auction",
						"label": "highestBindingBid",
						"offset": 0,
						"slot": "6",
						"type": "t_uint256"
					},
					{
						"astId": 23,
						"contract": "SmartContract-Auction/Auction.sol:Auction",
						"label": "highestBidder",
						"offset": 0,
						"slot": "7",
						"type": "t_address_payable"
					},
					{
						"astId": 27,
						"contract": "SmartContract-Auction/Auction.sol:Auction",
						"label": "bids",
						"offset": 0,
						"slot": "8",
						"type": "t_mapping(t_address,t_uint256)"
					},
					{
						"astId": 29,
						"contract": "SmartContract-Auction/Auction.sol:Auction",
						"label": "bidIncrement",
						"offset": 0,
						"slot": "9",
						"type": "t_uint256"
					}
				],
				"types": {
					"t_address": {
						"encoding": "inplace",
						"label": "address",
						"numberOfBytes": "20"
					},
					"t_address_payable": {
						"encoding": "inplace",
						"label": "address payable",
						"numberOfBytes": "20"
					},
					"t_enum(State)16": {
						"encoding": "inplace",
						"label": "enum Auction.State",
						"numberOfBytes": "1"
					},
					"t_mapping(t_address,t_uint256)": {
						"encoding": "mapping",
						"key": "t_address",
						"label": "mapping(address => uint256)",
						"numberOfBytes": "32",
						"value": "t_uint256"
					},
					"t_string_storage": {
						"encoding": "bytes",
						"label": "string",
						"numberOfBytes": "32"
					},
					"t_uint256": {
						"encoding": "inplace",
						"label": "uint256",
						"numberOfBytes": "32"
					}
				}
			},
			"userdoc": {
				"kind": "user",
				"methods": {},
				"version": 1
			}
		}
	}
}