{
	"SmartContract-Auction/Auction.sol": {
		"Auction": {
			"abi": [
				{
					"inputs": [
						{
							"internalType": "address payable",
							"name": "_beneficiary",
							"type": "address"
						}
					],
					"stateMutability": "nonpayable",
					"type": "constructor"
				},
				{
					"inputs": [],
					"name": "MinimumBidValue",
					"outputs": [
						{
							"internalType": "uint256",
							"name": "",
							"type": "uint256"
						}
					],
					"stateMutability": "view",
					"type": "function"
				},
				{
					"inputs": [],
					"name": "auctionState",
					"outputs": [
						{
							"internalType": "enum Auction.State",
							"name": "",
							"type": "uint8"
						}
					],
					"stateMutability": "view",
					"type": "function"
				},
				{
					"inputs": [],
					"name": "beneficiary",
					"outputs": [
						{
							"internalType": "address payable",
							"name": "",
							"type": "address"
						}
					],
					"stateMutability": "view",
					"type": "function"
				},
				{
					"inputs": [
						{
							"internalType": "address",
							"name": "",
							"type": "address"
						}
					],
					"name": "bids",
					"outputs": [
						{
							"internalType": "uint256",
							"name": "",
							"type": "uint256"
						}
					],
					"stateMutability": "view",
					"type": "function"
				},
				{
					"inputs": [],
					"name": "cancelAuction",
					"outputs": [],
					"stateMutability": "nonpayable",
					"type": "function"
				},
				{
					"inputs": [],
					"name": "endBlock",
					"outputs": [
						{
							"internalType": "uint256",
							"name": "",
							"type": "uint256"
						}
					],
					"stateMutability": "view",
					"type": "function"
				},
				{
					"inputs": [],
					"name": "finalizeAuction",
					"outputs": [],
					"stateMutability": "nonpayable",
					"type": "function"
				},
				{
					"inputs": [],
					"name": "highestBidder",
					"outputs": [
						{
							"internalType": "address payable",
							"name": "",
							"type": "address"
						}
					],
					"stateMutability": "view",
					"type": "function"
				},
				{
					"inputs": [],
					"name": "highestBindingBid",
					"outputs": [
						{
							"internalType": "uint256",
							"name": "",
							"type": "uint256"
						}
					],
					"stateMutability": "view",
					"type": "function"
				},
				{
					"inputs": [],
					"name": "ipfsHash",
					"outputs": [
						{
							"internalType": "string",
							"name": "",
							"type": "string"
						}
					],
					"stateMutability": "view",
					"type": "function"
				},
				{
					"inputs": [],
					"name": "owner",
					"outputs": [
						{
							"internalType": "address",
							"name": "",
							"type": "address"
						}
					],
					"stateMutability": "view",
					"type": "function"
				},
				{
					"inputs": [],
					"name": "placeBid",
					"outputs": [],
					"stateMutability": "payable",
					"type": "function"
				},
				{
					"inputs": [],
					"name": "startBlock",
					"outputs": [
						{
							"internalType": "uint256",
							"name": "",
							"type": "uint256"
						}
					],
					"stateMutability": "view",
					"type": "function"
				},
				{
					"inputs": [
						{
							"internalType": "uint256",
							"name": "blocksGenerated",
							"type": "uint256"
						},
						{
							"internalType": "uint256",
							"name": "BidIncrementWei",
							"type": "uint256"
						},
						{
							"internalType": "uint256",
							"name": "_MinimumBidValue",
							"type": "uint256"
						}
					],
					"name": "startNewBid",
					"outputs": [],
					"stateMutability": "nonpayable",
					"type": "function"
				}
			],
			"devdoc": {
				"kind": "dev",
				"methods": {},
				"version": 1
			},
			"evm": {
				"assembly": "    /* \"SmartContract-Auction/Auction.sol\":68:3369  contract Auction {... */\n  mstore(0x40, 0x80)\n    /* \"SmartContract-Auction/Auction.sol\":695:845  constructor(address payable _beneficiary){... */\n  callvalue\n  dup1\n  iszero\n  tag_1\n  jumpi\n  0x00\n  dup1\n  revert\ntag_1:\n  pop\n  mload(0x40)\n  sub(codesize, bytecodeSize)\n  dup1\n  bytecodeSize\n  dup4\n  codecopy\n  dup2\n  dup2\n  add\n  0x40\n  mstore\n  dup2\n  add\n  swap1\n  tag_2\n  swap2\n  swap1\n  tag_3\n  jump\t// in\ntag_2:\n    /* \"SmartContract-Auction/Auction.sol\":754:764  msg.sender */\n  caller\n    /* \"SmartContract-Auction/Auction.sol\":746:751  owner */\n  0x00\n  dup1\n    /* \"SmartContract-Auction/Auction.sol\":746:764  owner = msg.sender */\n  0x0100\n  exp\n  dup2\n  sload\n  dup2\n  0xffffffffffffffffffffffffffffffffffffffff\n  mul\n  not\n  and\n  swap1\n  dup4\n  0xffffffffffffffffffffffffffffffffffffffff\n  and\n  mul\n  or\n  swap1\n  sstore\n  pop\n    /* \"SmartContract-Auction/Auction.sol\":788:800  _beneficiary */\n  dup1\n    /* \"SmartContract-Auction/Auction.sol\":774:785  beneficiary */\n  0x01\n  0x00\n    /* \"SmartContract-Auction/Auction.sol\":774:800  beneficiary = _beneficiary */\n  0x0100\n  exp\n  dup2\n  sload\n  dup2\n  0xffffffffffffffffffffffffffffffffffffffff\n  mul\n  not\n  and\n  swap1\n  dup4\n  0xffffffffffffffffffffffffffffffffffffffff\n  and\n  mul\n  or\n  swap1\n  sstore\n  pop\n    /* \"SmartContract-Auction/Auction.sol\":825:838  State.Started */\n  0x00\n    /* \"SmartContract-Auction/Auction.sol\":810:822  auctionState */\n  0x06\n  0x00\n    /* \"SmartContract-Auction/Auction.sol\":810:838  auctionState = State.Started */\n  0x0100\n  exp\n  dup2\n  sload\n  dup2\n  0xff\n  mul\n  not\n  and\n  swap1\n  dup4\n  0x03\n  dup2\n  gt\n  iszero\n  tag_6\n  jumpi\n  tag_7\n  tag_8\n  jump\t// in\ntag_7:\ntag_6:\n  mul\n  or\n  swap1\n  sstore\n  pop\n    /* \"SmartContract-Auction/Auction.sol\":695:845  constructor(address payable _beneficiary){... */\n  pop\n    /* \"SmartContract-Auction/Auction.sol\":68:3369  contract Auction {... */\n  jump(tag_9)\n    /* \"#utility.yul\":7:166   */\ntag_11:\n    /* \"#utility.yul\":72:77   */\n  0x00\n    /* \"#utility.yul\":103:109   */\n  dup2\n    /* \"#utility.yul\":97:110   */\n  mload\n    /* \"#utility.yul\":88:110   */\n  swap1\n  pop\n    /* \"#utility.yul\":119:160   */\n  tag_13\n    /* \"#utility.yul\":154:159   */\n  dup2\n    /* \"#utility.yul\":119:160   */\n  tag_14\n  jump\t// in\ntag_13:\n    /* \"#utility.yul\":7:166   */\n  swap3\n  swap2\n  pop\n  pop\n  jump\t// out\n    /* \"#utility.yul\":172:539   */\ntag_3:\n    /* \"#utility.yul\":250:256   */\n  0x00\n    /* \"#utility.yul\":299:301   */\n  0x20\n    /* \"#utility.yul\":287:296   */\n  dup3\n    /* \"#utility.yul\":278:285   */\n  dup5\n    /* \"#utility.yul\":274:297   */\n  sub\n    /* \"#utility.yul\":270:302   */\n  slt\n    /* \"#utility.yul\":267:386   */\n  iszero\n  tag_16\n  jumpi\n    /* \"#utility.yul\":305:384   */\n  tag_17\n  tag_18\n  jump\t// in\ntag_17:\n    /* \"#utility.yul\":267:386   */\ntag_16:\n    /* \"#utility.yul\":425:426   */\n  0x00\n    /* \"#utility.yul\":450:522   */\n  tag_19\n    /* \"#utility.yul\":514:521   */\n  dup5\n    /* \"#utility.yul\":505:511   */\n  dup3\n    /* \"#utility.yul\":494:503   */\n  dup6\n    /* \"#utility.yul\":490:512   */\n  add\n    /* \"#utility.yul\":450:522   */\n  tag_11\n  jump\t// in\ntag_19:\n    /* \"#utility.yul\":440:522   */\n  swap2\n  pop\n    /* \"#utility.yul\":396:532   */\n  pop\n    /* \"#utility.yul\":172:539   */\n  swap3\n  swap2\n  pop\n  pop\n  jump\t// out\n    /* \"#utility.yul\":626:730   */\ntag_22:\n    /* \"#utility.yul\":671:678   */\n  0x00\n    /* \"#utility.yul\":700:724   */\n  tag_24\n    /* \"#utility.yul\":718:723   */\n  dup3\n    /* \"#utility.yul\":700:724   */\n  tag_25\n  jump\t// in\ntag_24:\n    /* \"#utility.yul\":689:724   */\n  swap1\n  pop\n    /* \"#utility.yul\":626:730   */\n  swap2\n  swap1\n  pop\n  jump\t// out\n    /* \"#utility.yul\":736:862   */\ntag_25:\n    /* \"#utility.yul\":773:780   */\n  0x00\n    /* \"#utility.yul\":813:855   */\n  0xffffffffffffffffffffffffffffffffffffffff\n    /* \"#utility.yul\":806:811   */\n  dup3\n    /* \"#utility.yul\":802:856   */\n  and\n    /* \"#utility.yul\":791:856   */\n  swap1\n  pop\n    /* \"#utility.yul\":736:862   */\n  swap2\n  swap1\n  pop\n  jump\t// out\n    /* \"#utility.yul\":868:1048   */\ntag_8:\n    /* \"#utility.yul\":916:993   */\n  0x4e487b7100000000000000000000000000000000000000000000000000000000\n    /* \"#utility.yul\":913:914   */\n  0x00\n    /* \"#utility.yul\":906:994   */\n  mstore\n    /* \"#utility.yul\":1013:1017   */\n  0x21\n    /* \"#utility.yul\":1010:1011   */\n  0x04\n    /* \"#utility.yul\":1003:1018   */\n  mstore\n    /* \"#utility.yul\":1037:1041   */\n  0x24\n    /* \"#utility.yul\":1034:1035   */\n  0x00\n    /* \"#utility.yul\":1027:1042   */\n  revert\n    /* \"#utility.yul\":1177:1294   */\ntag_18:\n    /* \"#utility.yul\":1286:1287   */\n  0x00\n    /* \"#utility.yul\":1283:1284   */\n  dup1\n    /* \"#utility.yul\":1276:1288   */\n  revert\n    /* \"#utility.yul\":1300:1438   */\ntag_14:\n    /* \"#utility.yul\":1381:1413   */\n  tag_32\n    /* \"#utility.yul\":1407:1412   */\n  dup2\n    /* \"#utility.yul\":1381:1413   */\n  tag_22\n  jump\t// in\ntag_32:\n    /* \"#utility.yul\":1374:1379   */\n  dup2\n    /* \"#utility.yul\":1371:1414   */\n  eq\n    /* \"#utility.yul\":1361:1432   */\n  tag_33\n  jumpi\n    /* \"#utility.yul\":1428:1429   */\n  0x00\n    /* \"#utility.yul\":1425:1426   */\n  dup1\n    /* \"#utility.yul\":1418:1430   */\n  revert\n    /* \"#utility.yul\":1361:1432   */\ntag_33:\n    /* \"#utility.yul\":1300:1438   */\n  pop\n  jump\t// out\n    /* \"SmartContract-Auction/Auction.sol\":68:3369  contract Auction {... */\ntag_9:\n  dataSize(sub_0)\n  dup1\n  dataOffset(sub_0)\n  0x00\n  codecopy\n  0x00\n  return\nstop\n\nsub_0: assembly {\n        /* \"SmartContract-Auction/Auction.sol\":68:3369  contract Auction {... */\n      mstore(0x40, 0x80)\n      jumpi(tag_1, lt(calldatasize, 0x04))\n      shr(0xe0, calldataload(0x00))\n      dup1\n      0x8fa8b790\n      gt\n      tag_16\n      jumpi\n      dup1\n      0xd5f84189\n      gt\n      tag_17\n      jumpi\n      dup1\n      0xd5f84189\n      eq\n      tag_12\n      jumpi\n      dup1\n      0xecfc7ecc\n      eq\n      tag_13\n      jumpi\n      dup1\n      0xf5b56c56\n      eq\n      tag_14\n      jumpi\n      dup1\n      0xf77282ab\n      eq\n      tag_15\n      jumpi\n      jump(tag_1)\n    tag_17:\n      dup1\n      0x8fa8b790\n      eq\n      tag_9\n      jumpi\n      dup1\n      0x91f90157\n      eq\n      tag_10\n      jumpi\n      dup1\n      0xc623674f\n      eq\n      tag_11\n      jumpi\n      jump(tag_1)\n    tag_16:\n      dup1\n      0x48cd4cb1\n      gt\n      tag_18\n      jumpi\n      dup1\n      0x48cd4cb1\n      eq\n      tag_5\n      jumpi\n      dup1\n      0x62ea82db\n      eq\n      tag_6\n      jumpi\n      dup1\n      0x7fb45099\n      eq\n      tag_7\n      jumpi\n      dup1\n      0x8da5cb5b\n      eq\n      tag_8\n      jumpi\n      jump(tag_1)\n    tag_18:\n      dup1\n      0x083c6323\n      eq\n      tag_2\n      jumpi\n      dup1\n      0x341175d5\n      eq\n      tag_3\n      jumpi\n      dup1\n      0x38af3eed\n      eq\n      tag_4\n      jumpi\n    tag_1:\n      0x00\n      dup1\n      revert\n        /* \"SmartContract-Auction/Auction.sol\":284:304  uint public endBlock */\n    tag_2:\n      callvalue\n      dup1\n      iszero\n      tag_19\n      jumpi\n      0x00\n      dup1\n      revert\n    tag_19:\n      pop\n      tag_20\n      tag_21\n      jump\t// in\n    tag_20:\n      mload(0x40)\n      tag_22\n      swap2\n      swap1\n      tag_23\n      jump\t// in\n    tag_22:\n      mload(0x40)\n      dup1\n      swap2\n      sub\n      swap1\n      return\n        /* \"SmartContract-Auction/Auction.sol\":1075:1426  function startNewBid(uint blocksGenerated, uint BidIncrementWei, uint _MinimumBidValue) public onlyOwner NotRunning{... */\n    tag_3:\n      callvalue\n      dup1\n      iszero\n      tag_24\n      jumpi\n      0x00\n      dup1\n      revert\n    tag_24:\n      pop\n      tag_25\n      0x04\n      dup1\n      calldatasize\n      sub\n      dup2\n      add\n      swap1\n      tag_26\n      swap2\n      swap1\n      tag_27\n      jump\t// in\n    tag_26:\n      tag_28\n      jump\t// in\n    tag_25:\n      stop\n        /* \"SmartContract-Auction/Auction.sol\":117:151  address payable public beneficiary */\n    tag_4:\n      callvalue\n      dup1\n      iszero\n      tag_29\n      jumpi\n      0x00\n      dup1\n      revert\n    tag_29:\n      pop\n      tag_30\n      tag_31\n      jump\t// in\n    tag_30:\n      mload(0x40)\n      tag_32\n      swap2\n      swap1\n      tag_33\n      jump\t// in\n    tag_32:\n      mload(0x40)\n      dup1\n      swap2\n      sub\n      swap1\n      return\n        /* \"SmartContract-Auction/Auction.sol\":256:278  uint public startBlock */\n    tag_5:\n      callvalue\n      dup1\n      iszero\n      tag_34\n      jumpi\n      0x00\n      dup1\n      revert\n    tag_34:\n      pop\n      tag_35\n      tag_36\n      jump\t// in\n    tag_35:\n      mload(0x40)\n      tag_37\n      swap2\n      swap1\n      tag_23\n      jump\t// in\n    tag_37:\n      mload(0x40)\n      dup1\n      swap2\n      sub\n      swap1\n      return\n        /* \"SmartContract-Auction/Auction.sol\":571:607  mapping(address => uint) public bids */\n    tag_6:\n      callvalue\n      dup1\n      iszero\n      tag_38\n      jumpi\n      0x00\n      dup1\n      revert\n    tag_38:\n      pop\n      tag_39\n      0x04\n      dup1\n      calldatasize\n      sub\n      dup2\n      add\n      swap1\n      tag_40\n      swap2\n      swap1\n      tag_41\n      jump\t// in\n    tag_40:\n      tag_42\n      jump\t// in\n    tag_39:\n      mload(0x40)\n      tag_43\n      swap2\n      swap1\n      tag_23\n      jump\t// in\n    tag_43:\n      mload(0x40)\n      dup1\n      swap2\n      sub\n      swap1\n      return\n        /* \"SmartContract-Auction/Auction.sol\":461:486  State public auctionState */\n    tag_7:\n      callvalue\n      dup1\n      iszero\n      tag_44\n      jumpi\n      0x00\n      dup1\n      revert\n    tag_44:\n      pop\n      tag_45\n      tag_46\n      jump\t// in\n    tag_45:\n      mload(0x40)\n      tag_47\n      swap2\n      swap1\n      tag_48\n      jump\t// in\n    tag_47:\n      mload(0x40)\n      dup1\n      swap2\n      sub\n      swap1\n      return\n        /* \"SmartContract-Auction/Auction.sol\":91:111  address public owner */\n    tag_8:\n      callvalue\n      dup1\n      iszero\n      tag_49\n      jumpi\n      0x00\n      dup1\n      revert\n    tag_49:\n      pop\n      tag_50\n      tag_51\n      jump\t// in\n    tag_50:\n      mload(0x40)\n      tag_52\n      swap2\n      swap1\n      tag_53\n      jump\t// in\n    tag_52:\n      mload(0x40)\n      dup1\n      swap2\n      sub\n      swap1\n      return\n        /* \"SmartContract-Auction/Auction.sol\":1589:1677  function cancelAuction() public onlyOwner{... */\n    tag_9:\n      callvalue\n      dup1\n      iszero\n      tag_54\n      jumpi\n      0x00\n      dup1\n      revert\n    tag_54:\n      pop\n      tag_55\n      tag_56\n      jump\t// in\n    tag_55:\n      stop\n        /* \"SmartContract-Auction/Auction.sol\":528:564  address payable public highestBidder */\n    tag_10:\n      callvalue\n      dup1\n      iszero\n      tag_57\n      jumpi\n      0x00\n      dup1\n      revert\n    tag_57:\n      pop\n      tag_58\n      tag_59\n      jump\t// in\n    tag_58:\n      mload(0x40)\n      tag_60\n      swap2\n      swap1\n      tag_33\n      jump\t// in\n    tag_60:\n      mload(0x40)\n      dup1\n      swap2\n      sub\n      swap1\n      return\n        /* \"SmartContract-Auction/Auction.sol\":343:365  string public ipfsHash */\n    tag_11:\n      callvalue\n      dup1\n      iszero\n      tag_61\n      jumpi\n      0x00\n      dup1\n      revert\n    tag_61:\n      pop\n      tag_62\n      tag_63\n      jump\t// in\n    tag_62:\n      mload(0x40)\n      tag_64\n      swap2\n      swap1\n      tag_65\n      jump\t// in\n    tag_64:\n      mload(0x40)\n      dup1\n      swap2\n      sub\n      swap1\n      return\n        /* \"SmartContract-Auction/Auction.sol\":310:337  uint public MinimumBidValue */\n    tag_12:\n      callvalue\n      dup1\n      iszero\n      tag_66\n      jumpi\n      0x00\n      dup1\n      revert\n    tag_66:\n      pop\n      tag_67\n      tag_68\n      jump\t// in\n    tag_67:\n      mload(0x40)\n      tag_69\n      swap2\n      swap1\n      tag_23\n      jump\t// in\n    tag_69:\n      mload(0x40)\n      dup1\n      swap2\n      sub\n      swap1\n      return\n        /* \"SmartContract-Auction/Auction.sol\":1745:2390  function placeBid() public payable notOwner afterStart beforeEnd{... */\n    tag_13:\n      tag_70\n      tag_71\n      jump\t// in\n    tag_70:\n      stop\n        /* \"SmartContract-Auction/Auction.sol\":493:522  uint public highestBindingBid */\n    tag_14:\n      callvalue\n      dup1\n      iszero\n      tag_72\n      jumpi\n      0x00\n      dup1\n      revert\n    tag_72:\n      pop\n      tag_73\n      tag_74\n      jump\t// in\n    tag_73:\n      mload(0x40)\n      tag_75\n      swap2\n      swap1\n      tag_23\n      jump\t// in\n    tag_75:\n      mload(0x40)\n      dup1\n      swap2\n      sub\n      swap1\n      return\n        /* \"SmartContract-Auction/Auction.sol\":2396:2788  function finalizeAuction() public{... */\n    tag_15:\n      callvalue\n      dup1\n      iszero\n      tag_76\n      jumpi\n      0x00\n      dup1\n      revert\n    tag_76:\n      pop\n      tag_77\n      tag_78\n      jump\t// in\n    tag_77:\n      stop\n        /* \"SmartContract-Auction/Auction.sol\":284:304  uint public endBlock */\n    tag_21:\n      sload(0x03)\n      dup2\n      jump\t// out\n        /* \"SmartContract-Auction/Auction.sol\":1075:1426  function startNewBid(uint blocksGenerated, uint BidIncrementWei, uint _MinimumBidValue) public onlyOwner NotRunning{... */\n    tag_28:\n        /* \"SmartContract-Auction/Auction.sol\":3250:3255  owner */\n      0x00\n      dup1\n      sload\n      swap1\n      0x0100\n      exp\n      swap1\n      div\n      0xffffffffffffffffffffffffffffffffffffffff\n      and\n        /* \"SmartContract-Auction/Auction.sol\":3236:3255  msg.sender == owner */\n      0xffffffffffffffffffffffffffffffffffffffff\n      and\n        /* \"SmartContract-Auction/Auction.sol\":3236:3246  msg.sender */\n      caller\n        /* \"SmartContract-Auction/Auction.sol\":3236:3255  msg.sender == owner */\n      0xffffffffffffffffffffffffffffffffffffffff\n      and\n      eq\n        /* \"SmartContract-Auction/Auction.sol\":3228:3256  require(msg.sender == owner) */\n      tag_80\n      jumpi\n      0x00\n      dup1\n      revert\n    tag_80:\n        /* \"SmartContract-Auction/Auction.sol\":3160:3173  State.Running */\n      0x01\n        /* \"SmartContract-Auction/Auction.sol\":3144:3173  auctionState != State.Running */\n      0x03\n      dup2\n      gt\n      iszero\n      tag_82\n      jumpi\n      tag_83\n      tag_84\n      jump\t// in\n    tag_83:\n    tag_82:\n        /* \"SmartContract-Auction/Auction.sol\":3144:3156  auctionState */\n      0x06\n      0x00\n      swap1\n      sload\n      swap1\n      0x0100\n      exp\n      swap1\n      div\n      0xff\n      and\n        /* \"SmartContract-Auction/Auction.sol\":3144:3173  auctionState != State.Running */\n      0x03\n      dup2\n      gt\n      iszero\n      tag_85\n      jumpi\n      tag_86\n      tag_84\n      jump\t// in\n    tag_86:\n    tag_85:\n      eq\n      iszero\n        /* \"SmartContract-Auction/Auction.sol\":3135:3174  require (auctionState != State.Running) */\n      tag_87\n      jumpi\n      0x00\n      dup1\n      revert\n    tag_87:\n        /* \"SmartContract-Auction/Auction.sol\":1213:1225  block.number */\n      number\n        /* \"SmartContract-Auction/Auction.sol\":1200:1210  startBlock */\n      0x02\n        /* \"SmartContract-Auction/Auction.sol\":1200:1225  startBlock = block.number */\n      dup2\n      swap1\n      sstore\n      pop\n        /* \"SmartContract-Auction/Auction.sol\":1259:1274  blocksGenerated */\n      dup3\n        /* \"SmartContract-Auction/Auction.sol\":1246:1256  startBlock */\n      sload(0x02)\n        /* \"SmartContract-Auction/Auction.sol\":1246:1274  startBlock + blocksGenerated */\n      tag_89\n      swap2\n      swap1\n      tag_90\n      jump\t// in\n    tag_89:\n        /* \"SmartContract-Auction/Auction.sol\":1235:1243  endBlock */\n      0x03\n        /* \"SmartContract-Auction/Auction.sol\":1235:1274  endBlock = startBlock + blocksGenerated */\n      dup2\n      swap1\n      sstore\n      pop\n        /* \"SmartContract-Auction/Auction.sol\":1299:1312  State.Running */\n      0x01\n        /* \"SmartContract-Auction/Auction.sol\":1284:1296  auctionState */\n      0x06\n      0x00\n        /* \"SmartContract-Auction/Auction.sol\":1284:1312  auctionState = State.Running */\n      0x0100\n      exp\n      dup2\n      sload\n      dup2\n      0xff\n      mul\n      not\n      and\n      swap1\n      dup4\n      0x03\n      dup2\n      gt\n      iszero\n      tag_91\n      jumpi\n      tag_92\n      tag_84\n      jump\t// in\n    tag_92:\n    tag_91:\n      mul\n      or\n      swap1\n      sstore\n      pop\n        /* \"SmartContract-Auction/Auction.sol\":1322:1335  ipfsHash = \"\" */\n      mload(0x40)\n      dup1\n      0x20\n      add\n      0x40\n      mstore\n      dup1\n      0x00\n      dup2\n      mstore\n      pop\n        /* \"SmartContract-Auction/Auction.sol\":1322:1330  ipfsHash */\n      0x05\n        /* \"SmartContract-Auction/Auction.sol\":1322:1335  ipfsHash = \"\" */\n      swap1\n      dup1\n      mload\n      swap1\n      0x20\n      add\n      swap1\n      tag_93\n      swap3\n      swap2\n      swap1\n      tag_94\n      jump\t// in\n    tag_93:\n      pop\n        /* \"SmartContract-Auction/Auction.sol\":1360:1375  BidIncrementWei */\n      dup2\n        /* \"SmartContract-Auction/Auction.sol\":1345:1357  bidIncrement */\n      0x0a\n        /* \"SmartContract-Auction/Auction.sol\":1345:1375  bidIncrement = BidIncrementWei */\n      dup2\n      swap1\n      sstore\n      pop\n        /* \"SmartContract-Auction/Auction.sol\":1403:1419  _MinimumBidValue */\n      dup1\n        /* \"SmartContract-Auction/Auction.sol\":1385:1400  MinimumBidValue */\n      0x04\n        /* \"SmartContract-Auction/Auction.sol\":1385:1419  MinimumBidValue = _MinimumBidValue */\n      dup2\n      swap1\n      sstore\n      pop\n        /* \"SmartContract-Auction/Auction.sol\":1075:1426  function startNewBid(uint blocksGenerated, uint BidIncrementWei, uint _MinimumBidValue) public onlyOwner NotRunning{... */\n      pop\n      pop\n      pop\n      jump\t// out\n        /* \"SmartContract-Auction/Auction.sol\":117:151  address payable public beneficiary */\n    tag_31:\n      0x01\n      0x00\n      swap1\n      sload\n      swap1\n      0x0100\n      exp\n      swap1\n      div\n      0xffffffffffffffffffffffffffffffffffffffff\n      and\n      dup2\n      jump\t// out\n        /* \"SmartContract-Auction/Auction.sol\":256:278  uint public startBlock */\n    tag_36:\n      sload(0x02)\n      dup2\n      jump\t// out\n        /* \"SmartContract-Auction/Auction.sol\":571:607  mapping(address => uint) public bids */\n    tag_42:\n      mstore(0x20, 0x09)\n      dup1\n      0x00\n      mstore\n      keccak256(0x00, 0x40)\n      0x00\n      swap2\n      pop\n      swap1\n      pop\n      sload\n      dup2\n      jump\t// out\n        /* \"SmartContract-Auction/Auction.sol\":461:486  State public auctionState */\n    tag_46:\n      0x06\n      0x00\n      swap1\n      sload\n      swap1\n      0x0100\n      exp\n      swap1\n      div\n      0xff\n      and\n      dup2\n      jump\t// out\n        /* \"SmartContract-Auction/Auction.sol\":91:111  address public owner */\n    tag_51:\n      0x00\n      dup1\n      sload\n      swap1\n      0x0100\n      exp\n      swap1\n      div\n      0xffffffffffffffffffffffffffffffffffffffff\n      and\n      dup2\n      jump\t// out\n        /* \"SmartContract-Auction/Auction.sol\":1589:1677  function cancelAuction() public onlyOwner{... */\n    tag_56:\n        /* \"SmartContract-Auction/Auction.sol\":3250:3255  owner */\n      0x00\n      dup1\n      sload\n      swap1\n      0x0100\n      exp\n      swap1\n      div\n      0xffffffffffffffffffffffffffffffffffffffff\n      and\n        /* \"SmartContract-Auction/Auction.sol\":3236:3255  msg.sender == owner */\n      0xffffffffffffffffffffffffffffffffffffffff\n      and\n        /* \"SmartContract-Auction/Auction.sol\":3236:3246  msg.sender */\n      caller\n        /* \"SmartContract-Auction/Auction.sol\":3236:3255  msg.sender == owner */\n      0xffffffffffffffffffffffffffffffffffffffff\n      and\n      eq\n        /* \"SmartContract-Auction/Auction.sol\":3228:3256  require(msg.sender == owner) */\n      tag_96\n      jumpi\n      0x00\n      dup1\n      revert\n    tag_96:\n        /* \"SmartContract-Auction/Auction.sol\":1655:1669  State.Canceled */\n      0x03\n        /* \"SmartContract-Auction/Auction.sol\":1640:1652  auctionState */\n      0x06\n      0x00\n        /* \"SmartContract-Auction/Auction.sol\":1640:1669  auctionState = State.Canceled */\n      0x0100\n      exp\n      dup2\n      sload\n      dup2\n      0xff\n      mul\n      not\n      and\n      swap1\n      dup4\n      0x03\n      dup2\n      gt\n      iszero\n      tag_98\n      jumpi\n      tag_99\n      tag_84\n      jump\t// in\n    tag_99:\n    tag_98:\n      mul\n      or\n      swap1\n      sstore\n      pop\n        /* \"SmartContract-Auction/Auction.sol\":1589:1677  function cancelAuction() public onlyOwner{... */\n      jump\t// out\n        /* \"SmartContract-Auction/Auction.sol\":528:564  address payable public highestBidder */\n    tag_59:\n      0x08\n      0x00\n      swap1\n      sload\n      swap1\n      0x0100\n      exp\n      swap1\n      div\n      0xffffffffffffffffffffffffffffffffffffffff\n      and\n      dup2\n      jump\t// out\n        /* \"SmartContract-Auction/Auction.sol\":343:365  string public ipfsHash */\n    tag_63:\n      0x05\n      dup1\n      sload\n      tag_100\n      swap1\n      tag_101\n      jump\t// in\n    tag_100:\n      dup1\n      0x1f\n      add\n      0x20\n      dup1\n      swap2\n      div\n      mul\n      0x20\n      add\n      mload(0x40)\n      swap1\n      dup2\n      add\n      0x40\n      mstore\n      dup1\n      swap3\n      swap2\n      swap1\n      dup2\n      dup2\n      mstore\n      0x20\n      add\n      dup3\n      dup1\n      sload\n      tag_102\n      swap1\n      tag_101\n      jump\t// in\n    tag_102:\n      dup1\n      iszero\n      tag_103\n      jumpi\n      dup1\n      0x1f\n      lt\n      tag_104\n      jumpi\n      0x0100\n      dup1\n      dup4\n      sload\n      div\n      mul\n      dup4\n      mstore\n      swap2\n      0x20\n      add\n      swap2\n      jump(tag_103)\n    tag_104:\n      dup3\n      add\n      swap2\n      swap1\n      0x00\n      mstore\n      keccak256(0x00, 0x20)\n      swap1\n    tag_105:\n      dup2\n      sload\n      dup2\n      mstore\n      swap1\n      0x01\n      add\n      swap1\n      0x20\n      add\n      dup1\n      dup4\n      gt\n      tag_105\n      jumpi\n      dup3\n      swap1\n      sub\n      0x1f\n      and\n      dup3\n      add\n      swap2\n    tag_103:\n      pop\n      pop\n      pop\n      pop\n      pop\n      dup2\n      jump\t// out\n        /* \"SmartContract-Auction/Auction.sol\":310:337  uint public MinimumBidValue */\n    tag_68:\n      sload(0x04)\n      dup2\n      jump\t// out\n        /* \"SmartContract-Auction/Auction.sol\":1745:2390  function placeBid() public payable notOwner afterStart beforeEnd{... */\n    tag_71:\n        /* \"SmartContract-Auction/Auction.sol\":3074:3079  owner */\n      0x00\n      dup1\n      sload\n      swap1\n      0x0100\n      exp\n      swap1\n      div\n      0xffffffffffffffffffffffffffffffffffffffff\n      and\n        /* \"SmartContract-Auction/Auction.sol\":3060:3079  msg.sender != owner */\n      0xffffffffffffffffffffffffffffffffffffffff\n      and\n        /* \"SmartContract-Auction/Auction.sol\":3060:3070  msg.sender */\n      caller\n        /* \"SmartContract-Auction/Auction.sol\":3060:3079  msg.sender != owner */\n      0xffffffffffffffffffffffffffffffffffffffff\n      and\n      eq\n      iszero\n        /* \"SmartContract-Auction/Auction.sol\":3052:3080  require(msg.sender != owner) */\n      tag_107\n      jumpi\n      0x00\n      dup1\n      revert\n    tag_107:\n        /* \"SmartContract-Auction/Auction.sol\":2849:2859  startBlock */\n      sload(0x02)\n        /* \"SmartContract-Auction/Auction.sol\":2833:2845  block.number */\n      number\n        /* \"SmartContract-Auction/Auction.sol\":2833:2859  block.number >= startBlock */\n      lt\n      iszero\n        /* \"SmartContract-Auction/Auction.sol\":2825:2860  require(block.number >= startBlock) */\n      tag_109\n      jumpi\n      0x00\n      dup1\n      revert\n    tag_109:\n        /* \"SmartContract-Auction/Auction.sol\":2938:2946  endBlock */\n      sload(0x03)\n        /* \"SmartContract-Auction/Auction.sol\":2922:2934  block.number */\n      number\n        /* \"SmartContract-Auction/Auction.sol\":2922:2946  block.number <= endBlock */\n      gt\n      iszero\n        /* \"SmartContract-Auction/Auction.sol\":2914:2947  require(block.number <= endBlock) */\n      tag_111\n      jumpi\n      0x00\n      dup1\n      revert\n    tag_111:\n        /* \"SmartContract-Auction/Auction.sol\":1843:1856  State.Running */\n      0x01\n        /* \"SmartContract-Auction/Auction.sol\":1827:1856  auctionState == State.Running */\n      0x03\n      dup2\n      gt\n      iszero\n      tag_113\n      jumpi\n      tag_114\n      tag_84\n      jump\t// in\n    tag_114:\n    tag_113:\n        /* \"SmartContract-Auction/Auction.sol\":1827:1839  auctionState */\n      0x06\n      0x00\n      swap1\n      sload\n      swap1\n      0x0100\n      exp\n      swap1\n      div\n      0xff\n      and\n        /* \"SmartContract-Auction/Auction.sol\":1827:1856  auctionState == State.Running */\n      0x03\n      dup2\n      gt\n      iszero\n      tag_115\n      jumpi\n      tag_116\n      tag_84\n      jump\t// in\n    tag_116:\n    tag_115:\n      eq\n        /* \"SmartContract-Auction/Auction.sol\":1819:1896  require(auctionState == State.Running, \"Please wait until the auction start\") */\n      tag_117\n      jumpi\n      mload(0x40)\n      0x08c379a000000000000000000000000000000000000000000000000000000000\n      dup2\n      mstore\n      0x04\n      add\n      tag_118\n      swap1\n      tag_119\n      jump\t// in\n    tag_118:\n      mload(0x40)\n      dup1\n      swap2\n      sub\n      swap1\n      revert\n    tag_117:\n        /* \"SmartContract-Auction/Auction.sol\":1927:1942  MinimumBidValue */\n      sload(0x04)\n        /* \"SmartContract-Auction/Auction.sol\":1914:1923  msg.value */\n      callvalue\n        /* \"SmartContract-Auction/Auction.sol\":1914:1942  msg.value >= MinimumBidValue */\n      lt\n      iszero\n        /* \"SmartContract-Auction/Auction.sol\":1906:1943  require(msg.value >= MinimumBidValue) */\n      tag_120\n      jumpi\n      0x00\n      dup1\n      revert\n    tag_120:\n        /* \"SmartContract-Auction/Auction.sol\":1954:1969  uint currentBid */\n      0x00\n        /* \"SmartContract-Auction/Auction.sol\":1991:2000  msg.value */\n      callvalue\n        /* \"SmartContract-Auction/Auction.sol\":1972:1976  bids */\n      0x09\n        /* \"SmartContract-Auction/Auction.sol\":1972:1988  bids[msg.sender] */\n      0x00\n        /* \"SmartContract-Auction/Auction.sol\":1977:1987  msg.sender */\n      caller\n        /* \"SmartContract-Auction/Auction.sol\":1972:1988  bids[msg.sender] */\n      0xffffffffffffffffffffffffffffffffffffffff\n      and\n      0xffffffffffffffffffffffffffffffffffffffff\n      and\n      dup2\n      mstore\n      0x20\n      add\n      swap1\n      dup2\n      mstore\n      0x20\n      add\n      0x00\n      keccak256\n      sload\n        /* \"SmartContract-Auction/Auction.sol\":1972:2000  bids[msg.sender] + msg.value */\n      tag_121\n      swap2\n      swap1\n      tag_90\n      jump\t// in\n    tag_121:\n        /* \"SmartContract-Auction/Auction.sol\":1954:2000  uint currentBid = bids[msg.sender] + msg.value */\n      swap1\n      pop\n        /* \"SmartContract-Auction/Auction.sol\":2033:2050  highestBindingBid */\n      sload(0x07)\n        /* \"SmartContract-Auction/Auction.sol\":2019:2029  currentBid */\n      dup2\n        /* \"SmartContract-Auction/Auction.sol\":2019:2050  currentBid >= highestBindingBid */\n      lt\n      iszero\n        /* \"SmartContract-Auction/Auction.sol\":2011:2051  require(currentBid >= highestBindingBid) */\n      tag_122\n      jumpi\n      0x00\n      dup1\n      revert\n    tag_122:\n        /* \"SmartContract-Auction/Auction.sol\":2081:2091  currentBid */\n      dup1\n        /* \"SmartContract-Auction/Auction.sol\":2062:2066  bids */\n      0x09\n        /* \"SmartContract-Auction/Auction.sol\":2062:2078  bids[msg.sender] */\n      0x00\n        /* \"SmartContract-Auction/Auction.sol\":2067:2077  msg.sender */\n      caller\n        /* \"SmartContract-Auction/Auction.sol\":2062:2078  bids[msg.sender] */\n      0xffffffffffffffffffffffffffffffffffffffff\n      and\n      0xffffffffffffffffffffffffffffffffffffffff\n      and\n      dup2\n      mstore\n      0x20\n      add\n      swap1\n      dup2\n      mstore\n      0x20\n      add\n      0x00\n      keccak256\n        /* \"SmartContract-Auction/Auction.sol\":2062:2091  bids[msg.sender] = currentBid */\n      dup2\n      swap1\n      sstore\n      pop\n        /* \"SmartContract-Auction/Auction.sol\":2119:2123  bids */\n      0x09\n        /* \"SmartContract-Auction/Auction.sol\":2119:2138  bids[highestBidder] */\n      0x00\n        /* \"SmartContract-Auction/Auction.sol\":2124:2137  highestBidder */\n      0x08\n      0x00\n      swap1\n      sload\n      swap1\n      0x0100\n      exp\n      swap1\n      div\n      0xffffffffffffffffffffffffffffffffffffffff\n      and\n        /* \"SmartContract-Auction/Auction.sol\":2119:2138  bids[highestBidder] */\n      0xffffffffffffffffffffffffffffffffffffffff\n      and\n      0xffffffffffffffffffffffffffffffffffffffff\n      and\n      dup2\n      mstore\n      0x20\n      add\n      swap1\n      dup2\n      mstore\n      0x20\n      add\n      0x00\n      keccak256\n      sload\n        /* \"SmartContract-Auction/Auction.sol\":2105:2115  currentBid */\n      dup2\n        /* \"SmartContract-Auction/Auction.sol\":2105:2138  currentBid <= bids[highestBidder] */\n      gt\n        /* \"SmartContract-Auction/Auction.sol\":2102:2384  if(currentBid <= bids[highestBidder]){... */\n      tag_123\n      jumpi\n        /* \"SmartContract-Auction/Auction.sol\":2173:2224  min(currentBid + bidIncrement, bids[highestBidder]) */\n      tag_124\n        /* \"SmartContract-Auction/Auction.sol\":2190:2202  bidIncrement */\n      sload(0x0a)\n        /* \"SmartContract-Auction/Auction.sol\":2177:2187  currentBid */\n      dup3\n        /* \"SmartContract-Auction/Auction.sol\":2177:2202  currentBid + bidIncrement */\n      tag_125\n      swap2\n      swap1\n      tag_90\n      jump\t// in\n    tag_125:\n        /* \"SmartContract-Auction/Auction.sol\":2204:2208  bids */\n      0x09\n        /* \"SmartContract-Auction/Auction.sol\":2204:2223  bids[highestBidder] */\n      0x00\n        /* \"SmartContract-Auction/Auction.sol\":2209:2222  highestBidder */\n      0x08\n      0x00\n      swap1\n      sload\n      swap1\n      0x0100\n      exp\n      swap1\n      div\n      0xffffffffffffffffffffffffffffffffffffffff\n      and\n        /* \"SmartContract-Auction/Auction.sol\":2204:2223  bids[highestBidder] */\n      0xffffffffffffffffffffffffffffffffffffffff\n      and\n      0xffffffffffffffffffffffffffffffffffffffff\n      and\n      dup2\n      mstore\n      0x20\n      add\n      swap1\n      dup2\n      mstore\n      0x20\n      add\n      0x00\n      keccak256\n      sload\n        /* \"SmartContract-Auction/Auction.sol\":2173:2176  min */\n      tag_126\n        /* \"SmartContract-Auction/Auction.sol\":2173:2224  min(currentBid + bidIncrement, bids[highestBidder]) */\n      jump\t// in\n    tag_124:\n        /* \"SmartContract-Auction/Auction.sol\":2153:2170  highestBindingBid */\n      0x07\n        /* \"SmartContract-Auction/Auction.sol\":2153:2224  highestBindingBid = min(currentBid + bidIncrement, bids[highestBidder]) */\n      dup2\n      swap1\n      sstore\n      pop\n        /* \"SmartContract-Auction/Auction.sol\":2102:2384  if(currentBid <= bids[highestBidder]){... */\n      jump(tag_127)\n    tag_123:\n        /* \"SmartContract-Auction/Auction.sol\":2273:2324  min(currentBid, bids[highestBidder] + bidIncrement) */\n      tag_128\n        /* \"SmartContract-Auction/Auction.sol\":2277:2287  currentBid */\n      dup2\n        /* \"SmartContract-Auction/Auction.sol\":2311:2323  bidIncrement */\n      sload(0x0a)\n        /* \"SmartContract-Auction/Auction.sol\":2289:2293  bids */\n      0x09\n        /* \"SmartContract-Auction/Auction.sol\":2289:2308  bids[highestBidder] */\n      0x00\n        /* \"SmartContract-Auction/Auction.sol\":2294:2307  highestBidder */\n      0x08\n      0x00\n      swap1\n      sload\n      swap1\n      0x0100\n      exp\n      swap1\n      div\n      0xffffffffffffffffffffffffffffffffffffffff\n      and\n        /* \"SmartContract-Auction/Auction.sol\":2289:2308  bids[highestBidder] */\n      0xffffffffffffffffffffffffffffffffffffffff\n      and\n      0xffffffffffffffffffffffffffffffffffffffff\n      and\n      dup2\n      mstore\n      0x20\n      add\n      swap1\n      dup2\n      mstore\n      0x20\n      add\n      0x00\n      keccak256\n      sload\n        /* \"SmartContract-Auction/Auction.sol\":2289:2323  bids[highestBidder] + bidIncrement */\n      tag_129\n      swap2\n      swap1\n      tag_90\n      jump\t// in\n    tag_129:\n        /* \"SmartContract-Auction/Auction.sol\":2273:2276  min */\n      tag_126\n        /* \"SmartContract-Auction/Auction.sol\":2273:2324  min(currentBid, bids[highestBidder] + bidIncrement) */\n      jump\t// in\n    tag_128:\n        /* \"SmartContract-Auction/Auction.sol\":2253:2270  highestBindingBid */\n      0x07\n        /* \"SmartContract-Auction/Auction.sol\":2253:2324  highestBindingBid = min(currentBid, bids[highestBidder] + bidIncrement) */\n      dup2\n      swap1\n      sstore\n      pop\n        /* \"SmartContract-Auction/Auction.sol\":2362:2372  msg.sender */\n      caller\n        /* \"SmartContract-Auction/Auction.sol\":2338:2351  highestBidder */\n      0x08\n      0x00\n        /* \"SmartContract-Auction/Auction.sol\":2338:2373  highestBidder = payable(msg.sender) */\n      0x0100\n      exp\n      dup2\n      sload\n      dup2\n      0xffffffffffffffffffffffffffffffffffffffff\n      mul\n      not\n      and\n      swap1\n      dup4\n      0xffffffffffffffffffffffffffffffffffffffff\n      and\n      mul\n      or\n      swap1\n      sstore\n      pop\n        /* \"SmartContract-Auction/Auction.sol\":2102:2384  if(currentBid <= bids[highestBidder]){... */\n    tag_127:\n        /* \"SmartContract-Auction/Auction.sol\":1809:2390  {... */\n      pop\n        /* \"SmartContract-Auction/Auction.sol\":1745:2390  function placeBid() public payable notOwner afterStart beforeEnd{... */\n      jump\t// out\n        /* \"SmartContract-Auction/Auction.sol\":493:522  uint public highestBindingBid */\n    tag_74:\n      sload(0x07)\n      dup2\n      jump\t// out\n        /* \"SmartContract-Auction/Auction.sol\":2396:2788  function finalizeAuction() public{... */\n    tag_78:\n        /* \"SmartContract-Auction/Auction.sol\":2463:2477  State.Canceled */\n      0x03\n        /* \"SmartContract-Auction/Auction.sol\":2447:2477  auctionState == State.Canceled */\n      dup1\n      dup2\n      gt\n      iszero\n      tag_131\n      jumpi\n      tag_132\n      tag_84\n      jump\t// in\n    tag_132:\n    tag_131:\n        /* \"SmartContract-Auction/Auction.sol\":2447:2459  auctionState */\n      0x06\n      0x00\n      swap1\n      sload\n      swap1\n      0x0100\n      exp\n      swap1\n      div\n      0xff\n      and\n        /* \"SmartContract-Auction/Auction.sol\":2447:2477  auctionState == State.Canceled */\n      0x03\n      dup2\n      gt\n      iszero\n      tag_133\n      jumpi\n      tag_134\n      tag_84\n      jump\t// in\n    tag_134:\n    tag_133:\n      eq\n        /* \"SmartContract-Auction/Auction.sol\":2447:2505  auctionState == State.Canceled || block.number >= endBlock */\n      dup1\n      tag_135\n      jumpi\n      pop\n        /* \"SmartContract-Auction/Auction.sol\":2497:2505  endBlock */\n      sload(0x03)\n        /* \"SmartContract-Auction/Auction.sol\":2481:2493  block.number */\n      number\n        /* \"SmartContract-Auction/Auction.sol\":2481:2505  block.number >= endBlock */\n      lt\n      iszero\n        /* \"SmartContract-Auction/Auction.sol\":2447:2505  auctionState == State.Canceled || block.number >= endBlock */\n    tag_135:\n        /* \"SmartContract-Auction/Auction.sol\":2439:2506  require(auctionState == State.Canceled || block.number >= endBlock) */\n      tag_136\n      jumpi\n      0x00\n      dup1\n      revert\n    tag_136:\n        /* \"SmartContract-Auction/Auction.sol\":2538:2543  owner */\n      0x00\n      dup1\n      sload\n      swap1\n      0x0100\n      exp\n      swap1\n      div\n      0xffffffffffffffffffffffffffffffffffffffff\n      and\n        /* \"SmartContract-Auction/Auction.sol\":2524:2543  msg.sender == owner */\n      0xffffffffffffffffffffffffffffffffffffffff\n      and\n        /* \"SmartContract-Auction/Auction.sol\":2524:2534  msg.sender */\n      caller\n        /* \"SmartContract-Auction/Auction.sol\":2524:2543  msg.sender == owner */\n      0xffffffffffffffffffffffffffffffffffffffff\n      and\n      eq\n        /* \"SmartContract-Auction/Auction.sol\":2524:2567  msg.sender == owner || bids[msg.sender] > 0 */\n      dup1\n      tag_137\n      jumpi\n      pop\n        /* \"SmartContract-Auction/Auction.sol\":2566:2567  0 */\n      0x00\n        /* \"SmartContract-Auction/Auction.sol\":2547:2551  bids */\n      0x09\n        /* \"SmartContract-Auction/Auction.sol\":2547:2563  bids[msg.sender] */\n      0x00\n        /* \"SmartContract-Auction/Auction.sol\":2552:2562  msg.sender */\n      caller\n        /* \"SmartContract-Auction/Auction.sol\":2547:2563  bids[msg.sender] */\n      0xffffffffffffffffffffffffffffffffffffffff\n      and\n      0xffffffffffffffffffffffffffffffffffffffff\n      and\n      dup2\n      mstore\n      0x20\n      add\n      swap1\n      dup2\n      mstore\n      0x20\n      add\n      0x00\n      keccak256\n      sload\n        /* \"SmartContract-Auction/Auction.sol\":2547:2567  bids[msg.sender] > 0 */\n      gt\n        /* \"SmartContract-Auction/Auction.sol\":2524:2567  msg.sender == owner || bids[msg.sender] > 0 */\n    tag_137:\n        /* \"SmartContract-Auction/Auction.sol\":2516:2568  require(msg.sender == owner || bids[msg.sender] > 0) */\n      tag_138\n      jumpi\n      0x00\n      dup1\n      revert\n    tag_138:\n        /* \"SmartContract-Auction/Auction.sol\":2579:2604  address payable recipient */\n      0x00\n        /* \"SmartContract-Auction/Auction.sol\":2614:2624  uint value */\n      dup1\n        /* \"SmartContract-Auction/Auction.sol\":2654:2668  State.Canceled */\n      0x03\n        /* \"SmartContract-Auction/Auction.sol\":2638:2668  auctionState == State.Canceled */\n      dup1\n      dup2\n      gt\n      iszero\n      tag_139\n      jumpi\n      tag_140\n      tag_84\n      jump\t// in\n    tag_140:\n    tag_139:\n        /* \"SmartContract-Auction/Auction.sol\":2638:2650  auctionState */\n      0x06\n      0x00\n      swap1\n      sload\n      swap1\n      0x0100\n      exp\n      swap1\n      div\n      0xff\n      and\n        /* \"SmartContract-Auction/Auction.sol\":2638:2668  auctionState == State.Canceled */\n      0x03\n      dup2\n      gt\n      iszero\n      tag_141\n      jumpi\n      tag_142\n      tag_84\n      jump\t// in\n    tag_142:\n    tag_141:\n      eq\n        /* \"SmartContract-Auction/Auction.sol\":2635:2782  if(auctionState == State.Canceled){ //auction canceled... */\n      iszero\n      tag_143\n      jumpi\n        /* \"SmartContract-Auction/Auction.sol\":2722:2732  msg.sender */\n      caller\n        /* \"SmartContract-Auction/Auction.sol\":2702:2733  recipient = payable(msg.sender) */\n      swap2\n      pop\n        /* \"SmartContract-Auction/Auction.sol\":2755:2759  bids */\n      0x09\n        /* \"SmartContract-Auction/Auction.sol\":2755:2771  bids[msg.sender] */\n      0x00\n        /* \"SmartContract-Auction/Auction.sol\":2760:2770  msg.sender */\n      caller\n        /* \"SmartContract-Auction/Auction.sol\":2755:2771  bids[msg.sender] */\n      0xffffffffffffffffffffffffffffffffffffffff\n      and\n      0xffffffffffffffffffffffffffffffffffffffff\n      and\n      dup2\n      mstore\n      0x20\n      add\n      swap1\n      dup2\n      mstore\n      0x20\n      add\n      0x00\n      keccak256\n      sload\n        /* \"SmartContract-Auction/Auction.sol\":2747:2771  value = bids[msg.sender] */\n      swap1\n      pop\n        /* \"SmartContract-Auction/Auction.sol\":2635:2782  if(auctionState == State.Canceled){ //auction canceled... */\n    tag_143:\n        /* \"SmartContract-Auction/Auction.sol\":2429:2788  {... */\n      pop\n      pop\n        /* \"SmartContract-Auction/Auction.sol\":2396:2788  function finalizeAuction() public{... */\n      jump\t// out\n        /* \"SmartContract-Auction/Auction.sol\":1432:1583  function min(uint a, uint b) internal pure returns(uint){... */\n    tag_126:\n        /* \"SmartContract-Auction/Auction.sol\":1483:1487  uint */\n      0x00\n        /* \"SmartContract-Auction/Auction.sol\":1504:1505  b */\n      dup2\n        /* \"SmartContract-Auction/Auction.sol\":1501:1502  a */\n      dup4\n        /* \"SmartContract-Auction/Auction.sol\":1501:1505  a<=b */\n      gt\n        /* \"SmartContract-Auction/Auction.sol\":1498:1577  if(a<=b){... */\n      tag_145\n      jumpi\n        /* \"SmartContract-Auction/Auction.sol\":1527:1528  a */\n      dup3\n        /* \"SmartContract-Auction/Auction.sol\":1520:1528  return a */\n      swap1\n      pop\n      jump(tag_144)\n        /* \"SmartContract-Auction/Auction.sol\":1498:1577  if(a<=b){... */\n    tag_145:\n        /* \"SmartContract-Auction/Auction.sol\":1565:1566  b */\n      dup2\n        /* \"SmartContract-Auction/Auction.sol\":1558:1566  return b */\n      swap1\n      pop\n        /* \"SmartContract-Auction/Auction.sol\":1432:1583  function min(uint a, uint b) internal pure returns(uint){... */\n    tag_144:\n      swap3\n      swap2\n      pop\n      pop\n      jump\t// out\n    tag_94:\n      dup3\n      dup1\n      sload\n      tag_147\n      swap1\n      tag_101\n      jump\t// in\n    tag_147:\n      swap1\n      0x00\n      mstore\n      keccak256(0x00, 0x20)\n      swap1\n      0x1f\n      add\n      0x20\n      swap1\n      div\n      dup2\n      add\n      swap3\n      dup3\n      tag_149\n      jumpi\n      0x00\n      dup6\n      sstore\n      jump(tag_148)\n    tag_149:\n      dup3\n      0x1f\n      lt\n      tag_150\n      jumpi\n      dup1\n      mload\n      not(0xff)\n      and\n      dup4\n      dup1\n      add\n      or\n      dup6\n      sstore\n      jump(tag_148)\n    tag_150:\n      dup3\n      dup1\n      add\n      0x01\n      add\n      dup6\n      sstore\n      dup3\n      iszero\n      tag_148\n      jumpi\n      swap2\n      dup3\n      add\n    tag_151:\n      dup3\n      dup2\n      gt\n      iszero\n      tag_152\n      jumpi\n      dup3\n      mload\n      dup3\n      sstore\n      swap2\n      0x20\n      add\n      swap2\n      swap1\n      0x01\n      add\n      swap1\n      jump(tag_151)\n    tag_152:\n    tag_148:\n      pop\n      swap1\n      pop\n      tag_153\n      swap2\n      swap1\n      tag_154\n      jump\t// in\n    tag_153:\n      pop\n      swap1\n      jump\t// out\n    tag_154:\n    tag_155:\n      dup1\n      dup3\n      gt\n      iszero\n      tag_156\n      jumpi\n      0x00\n      dup2\n      0x00\n      swap1\n      sstore\n      pop\n      0x01\n      add\n      jump(tag_155)\n    tag_156:\n      pop\n      swap1\n      jump\t// out\n        /* \"#utility.yul\":7:146   */\n    tag_158:\n        /* \"#utility.yul\":53:58   */\n      0x00\n        /* \"#utility.yul\":91:97   */\n      dup2\n        /* \"#utility.yul\":78:98   */\n      calldataload\n        /* \"#utility.yul\":69:98   */\n      swap1\n      pop\n        /* \"#utility.yul\":107:140   */\n      tag_160\n        /* \"#utility.yul\":134:139   */\n      dup2\n        /* \"#utility.yul\":107:140   */\n      tag_161\n      jump\t// in\n    tag_160:\n        /* \"#utility.yul\":7:146   */\n      swap3\n      swap2\n      pop\n      pop\n      jump\t// out\n        /* \"#utility.yul\":152:291   */\n    tag_162:\n        /* \"#utility.yul\":198:203   */\n      0x00\n        /* \"#utility.yul\":236:242   */\n      dup2\n        /* \"#utility.yul\":223:243   */\n      calldataload\n        /* \"#utility.yul\":214:243   */\n      swap1\n      pop\n        /* \"#utility.yul\":252:285   */\n      tag_164\n        /* \"#utility.yul\":279:284   */\n      dup2\n        /* \"#utility.yul\":252:285   */\n      tag_165\n      jump\t// in\n    tag_164:\n        /* \"#utility.yul\":152:291   */\n      swap3\n      swap2\n      pop\n      pop\n      jump\t// out\n        /* \"#utility.yul\":297:626   */\n    tag_41:\n        /* \"#utility.yul\":356:362   */\n      0x00\n        /* \"#utility.yul\":405:407   */\n      0x20\n        /* \"#utility.yul\":393:402   */\n      dup3\n        /* \"#utility.yul\":384:391   */\n      dup5\n        /* \"#utility.yul\":380:403   */\n      sub\n        /* \"#utility.yul\":376:408   */\n      slt\n        /* \"#utility.yul\":373:492   */\n      iszero\n      tag_167\n      jumpi\n        /* \"#utility.yul\":411:490   */\n      tag_168\n      tag_169\n      jump\t// in\n    tag_168:\n        /* \"#utility.yul\":373:492   */\n    tag_167:\n        /* \"#utility.yul\":531:532   */\n      0x00\n        /* \"#utility.yul\":556:609   */\n      tag_170\n        /* \"#utility.yul\":601:608   */\n      dup5\n        /* \"#utility.yul\":592:598   */\n      dup3\n        /* \"#utility.yul\":581:590   */\n      dup6\n        /* \"#utility.yul\":577:599   */\n      add\n        /* \"#utility.yul\":556:609   */\n      tag_158\n      jump\t// in\n    tag_170:\n        /* \"#utility.yul\":546:609   */\n      swap2\n      pop\n        /* \"#utility.yul\":502:619   */\n      pop\n        /* \"#utility.yul\":297:626   */\n      swap3\n      swap2\n      pop\n      pop\n      jump\t// out\n        /* \"#utility.yul\":632:1251   */\n    tag_27:\n        /* \"#utility.yul\":709:715   */\n      0x00\n        /* \"#utility.yul\":717:723   */\n      dup1\n        /* \"#utility.yul\":725:731   */\n      0x00\n        /* \"#utility.yul\":774:776   */\n      0x60\n        /* \"#utility.yul\":762:771   */\n      dup5\n        /* \"#utility.yul\":753:760   */\n      dup7\n        /* \"#utility.yul\":749:772   */\n      sub\n        /* \"#utility.yul\":745:777   */\n      slt\n        /* \"#utility.yul\":742:861   */\n      iszero\n      tag_172\n      jumpi\n        /* \"#utility.yul\":780:859   */\n      tag_173\n      tag_169\n      jump\t// in\n    tag_173:\n        /* \"#utility.yul\":742:861   */\n    tag_172:\n        /* \"#utility.yul\":900:901   */\n      0x00\n        /* \"#utility.yul\":925:978   */\n      tag_174\n        /* \"#utility.yul\":970:977   */\n      dup7\n        /* \"#utility.yul\":961:967   */\n      dup3\n        /* \"#utility.yul\":950:959   */\n      dup8\n        /* \"#utility.yul\":946:968   */\n      add\n        /* \"#utility.yul\":925:978   */\n      tag_162\n      jump\t// in\n    tag_174:\n        /* \"#utility.yul\":915:978   */\n      swap4\n      pop\n        /* \"#utility.yul\":871:988   */\n      pop\n        /* \"#utility.yul\":1027:1029   */\n      0x20\n        /* \"#utility.yul\":1053:1106   */\n      tag_175\n        /* \"#utility.yul\":1098:1105   */\n      dup7\n        /* \"#utility.yul\":1089:1095   */\n      dup3\n        /* \"#utility.yul\":1078:1087   */\n      dup8\n        /* \"#utility.yul\":1074:1096   */\n      add\n        /* \"#utility.yul\":1053:1106   */\n      tag_162\n      jump\t// in\n    tag_175:\n        /* \"#utility.yul\":1043:1106   */\n      swap3\n      pop\n        /* \"#utility.yul\":998:1116   */\n      pop\n        /* \"#utility.yul\":1155:1157   */\n      0x40\n        /* \"#utility.yul\":1181:1234   */\n      tag_176\n        /* \"#utility.yul\":1226:1233   */\n      dup7\n        /* \"#utility.yul\":1217:1223   */\n      dup3\n        /* \"#utility.yul\":1206:1215   */\n      dup8\n        /* \"#utility.yul\":1202:1224   */\n      add\n        /* \"#utility.yul\":1181:1234   */\n      tag_162\n      jump\t// in\n    tag_176:\n        /* \"#utility.yul\":1171:1234   */\n      swap2\n      pop\n        /* \"#utility.yul\":1126:1244   */\n      pop\n        /* \"#utility.yul\":632:1251   */\n      swap3\n      pop\n      swap3\n      pop\n      swap3\n      jump\t// out\n        /* \"#utility.yul\":1257:1399   */\n    tag_177:\n        /* \"#utility.yul\":1360:1392   */\n      tag_179\n        /* \"#utility.yul\":1386:1391   */\n      dup2\n        /* \"#utility.yul\":1360:1392   */\n      tag_180\n      jump\t// in\n    tag_179:\n        /* \"#utility.yul\":1355:1358   */\n      dup3\n        /* \"#utility.yul\":1348:1393   */\n      mstore\n        /* \"#utility.yul\":1257:1399   */\n      pop\n      pop\n      jump\t// out\n        /* \"#utility.yul\":1405:1523   */\n    tag_181:\n        /* \"#utility.yul\":1492:1516   */\n      tag_183\n        /* \"#utility.yul\":1510:1515   */\n      dup2\n        /* \"#utility.yul\":1492:1516   */\n      tag_184\n      jump\t// in\n    tag_183:\n        /* \"#utility.yul\":1487:1490   */\n      dup3\n        /* \"#utility.yul\":1480:1517   */\n      mstore\n        /* \"#utility.yul\":1405:1523   */\n      pop\n      pop\n      jump\t// out\n        /* \"#utility.yul\":1529:1672   */\n    tag_185:\n        /* \"#utility.yul\":1622:1665   */\n      tag_187\n        /* \"#utility.yul\":1659:1664   */\n      dup2\n        /* \"#utility.yul\":1622:1665   */\n      tag_188\n      jump\t// in\n    tag_187:\n        /* \"#utility.yul\":1617:1620   */\n      dup3\n        /* \"#utility.yul\":1610:1666   */\n      mstore\n        /* \"#utility.yul\":1529:1672   */\n      pop\n      pop\n      jump\t// out\n        /* \"#utility.yul\":1678:2042   */\n    tag_189:\n        /* \"#utility.yul\":1766:1769   */\n      0x00\n        /* \"#utility.yul\":1794:1833   */\n      tag_191\n        /* \"#utility.yul\":1827:1832   */\n      dup3\n        /* \"#utility.yul\":1794:1833   */\n      tag_192\n      jump\t// in\n    tag_191:\n        /* \"#utility.yul\":1849:1920   */\n      tag_193\n        /* \"#utility.yul\":1913:1919   */\n      dup2\n        /* \"#utility.yul\":1908:1911   */\n      dup6\n        /* \"#utility.yul\":1849:1920   */\n      tag_194\n      jump\t// in\n    tag_193:\n        /* \"#utility.yul\":1842:1920   */\n      swap4\n      pop\n        /* \"#utility.yul\":1929:1981   */\n      tag_195\n        /* \"#utility.yul\":1974:1980   */\n      dup2\n        /* \"#utility.yul\":1969:1972   */\n      dup6\n        /* \"#utility.yul\":1962:1966   */\n      0x20\n        /* \"#utility.yul\":1955:1960   */\n      dup7\n        /* \"#utility.yul\":1951:1967   */\n      add\n        /* \"#utility.yul\":1929:1981   */\n      tag_196\n      jump\t// in\n    tag_195:\n        /* \"#utility.yul\":2006:2035   */\n      tag_197\n        /* \"#utility.yul\":2028:2034   */\n      dup2\n        /* \"#utility.yul\":2006:2035   */\n      tag_198\n      jump\t// in\n    tag_197:\n        /* \"#utility.yul\":2001:2004   */\n      dup5\n        /* \"#utility.yul\":1997:2036   */\n      add\n        /* \"#utility.yul\":1990:2036   */\n      swap2\n      pop\n        /* \"#utility.yul\":1770:2042   */\n      pop\n        /* \"#utility.yul\":1678:2042   */\n      swap3\n      swap2\n      pop\n      pop\n      jump\t// out\n        /* \"#utility.yul\":2048:2414   */\n    tag_199:\n        /* \"#utility.yul\":2190:2193   */\n      0x00\n        /* \"#utility.yul\":2211:2278   */\n      tag_201\n        /* \"#utility.yul\":2275:2277   */\n      0x23\n        /* \"#utility.yul\":2270:2273   */\n      dup4\n        /* \"#utility.yul\":2211:2278   */\n      tag_194\n      jump\t// in\n    tag_201:\n        /* \"#utility.yul\":2204:2278   */\n      swap2\n      pop\n        /* \"#utility.yul\":2287:2380   */\n      tag_202\n        /* \"#utility.yul\":2376:2379   */\n      dup3\n        /* \"#utility.yul\":2287:2380   */\n      tag_203\n      jump\t// in\n    tag_202:\n        /* \"#utility.yul\":2405:2407   */\n      0x40\n        /* \"#utility.yul\":2400:2403   */\n      dup3\n        /* \"#utility.yul\":2396:2408   */\n      add\n        /* \"#utility.yul\":2389:2408   */\n      swap1\n      pop\n        /* \"#utility.yul\":2048:2414   */\n      swap2\n      swap1\n      pop\n      jump\t// out\n        /* \"#utility.yul\":2420:2538   */\n    tag_204:\n        /* \"#utility.yul\":2507:2531   */\n      tag_206\n        /* \"#utility.yul\":2525:2530   */\n      dup2\n        /* \"#utility.yul\":2507:2531   */\n      tag_207\n      jump\t// in\n    tag_206:\n        /* \"#utility.yul\":2502:2505   */\n      dup3\n        /* \"#utility.yul\":2495:2532   */\n      mstore\n        /* \"#utility.yul\":2420:2538   */\n      pop\n      pop\n      jump\t// out\n        /* \"#utility.yul\":2544:2766   */\n    tag_53:\n        /* \"#utility.yul\":2637:2641   */\n      0x00\n        /* \"#utility.yul\":2675:2677   */\n      0x20\n        /* \"#utility.yul\":2664:2673   */\n      dup3\n        /* \"#utility.yul\":2660:2678   */\n      add\n        /* \"#utility.yul\":2652:2678   */\n      swap1\n      pop\n        /* \"#utility.yul\":2688:2759   */\n      tag_209\n        /* \"#utility.yul\":2756:2757   */\n      0x00\n        /* \"#utility.yul\":2745:2754   */\n      dup4\n        /* \"#utility.yul\":2741:2758   */\n      add\n        /* \"#utility.yul\":2732:2738   */\n      dup5\n        /* \"#utility.yul\":2688:2759   */\n      tag_181\n      jump\t// in\n    tag_209:\n        /* \"#utility.yul\":2544:2766   */\n      swap3\n      swap2\n      pop\n      pop\n      jump\t// out\n        /* \"#utility.yul\":2772:3026   */\n    tag_33:\n        /* \"#utility.yul\":2881:2885   */\n      0x00\n        /* \"#utility.yul\":2919:2921   */\n      0x20\n        /* \"#utility.yul\":2908:2917   */\n      dup3\n        /* \"#utility.yul\":2904:2922   */\n      add\n        /* \"#utility.yul\":2896:2922   */\n      swap1\n      pop\n        /* \"#utility.yul\":2932:3019   */\n      tag_211\n        /* \"#utility.yul\":3016:3017   */\n      0x00\n        /* \"#utility.yul\":3005:3014   */\n      dup4\n        /* \"#utility.yul\":3001:3018   */\n      add\n        /* \"#utility.yul\":2992:2998   */\n      dup5\n        /* \"#utility.yul\":2932:3019   */\n      tag_177\n      jump\t// in\n    tag_211:\n        /* \"#utility.yul\":2772:3026   */\n      swap3\n      swap2\n      pop\n      pop\n      jump\t// out\n        /* \"#utility.yul\":3032:3266   */\n    tag_48:\n        /* \"#utility.yul\":3131:3135   */\n      0x00\n        /* \"#utility.yul\":3169:3171   */\n      0x20\n        /* \"#utility.yul\":3158:3167   */\n      dup3\n        /* \"#utility.yul\":3154:3172   */\n      add\n        /* \"#utility.yul\":3146:3172   */\n      swap1\n      pop\n        /* \"#utility.yul\":3182:3259   */\n      tag_213\n        /* \"#utility.yul\":3256:3257   */\n      0x00\n        /* \"#utility.yul\":3245:3254   */\n      dup4\n        /* \"#utility.yul\":3241:3258   */\n      add\n        /* \"#utility.yul\":3232:3238   */\n      dup5\n        /* \"#utility.yul\":3182:3259   */\n      tag_185\n      jump\t// in\n    tag_213:\n        /* \"#utility.yul\":3032:3266   */\n      swap3\n      swap2\n      pop\n      pop\n      jump\t// out\n        /* \"#utility.yul\":3272:3585   */\n    tag_65:\n        /* \"#utility.yul\":3385:3389   */\n      0x00\n        /* \"#utility.yul\":3423:3425   */\n      0x20\n        /* \"#utility.yul\":3412:3421   */\n      dup3\n        /* \"#utility.yul\":3408:3426   */\n      add\n        /* \"#utility.yul\":3400:3426   */\n      swap1\n      pop\n        /* \"#utility.yul\":3472:3481   */\n      dup2\n        /* \"#utility.yul\":3466:3470   */\n      dup2\n        /* \"#utility.yul\":3462:3482   */\n      sub\n        /* \"#utility.yul\":3458:3459   */\n      0x00\n        /* \"#utility.yul\":3447:3456   */\n      dup4\n        /* \"#utility.yul\":3443:3460   */\n      add\n        /* \"#utility.yul\":3436:3483   */\n      mstore\n        /* \"#utility.yul\":3500:3578   */\n      tag_215\n        /* \"#utility.yul\":3573:3577   */\n      dup2\n        /* \"#utility.yul\":3564:3570   */\n      dup5\n        /* \"#utility.yul\":3500:3578   */\n      tag_189\n      jump\t// in\n    tag_215:\n        /* \"#utility.yul\":3492:3578   */\n      swap1\n      pop\n        /* \"#utility.yul\":3272:3585   */\n      swap3\n      swap2\n      pop\n      pop\n      jump\t// out\n        /* \"#utility.yul\":3591:4010   */\n    tag_119:\n        /* \"#utility.yul\":3757:3761   */\n      0x00\n        /* \"#utility.yul\":3795:3797   */\n      0x20\n        /* \"#utility.yul\":3784:3793   */\n      dup3\n        /* \"#utility.yul\":3780:3798   */\n      add\n        /* \"#utility.yul\":3772:3798   */\n      swap1\n      pop\n        /* \"#utility.yul\":3844:3853   */\n      dup2\n        /* \"#utility.yul\":3838:3842   */\n      dup2\n        /* \"#utility.yul\":3834:3854   */\n      sub\n        /* \"#utility.yul\":3830:3831   */\n      0x00\n        /* \"#utility.yul\":3819:3828   */\n      dup4\n        /* \"#utility.yul\":3815:3832   */\n      add\n        /* \"#utility.yul\":3808:3855   */\n      mstore\n        /* \"#utility.yul\":3872:4003   */\n      tag_217\n        /* \"#utility.yul\":3998:4002   */\n      dup2\n        /* \"#utility.yul\":3872:4003   */\n      tag_199\n      jump\t// in\n    tag_217:\n        /* \"#utility.yul\":3864:4003   */\n      swap1\n      pop\n        /* \"#utility.yul\":3591:4010   */\n      swap2\n      swap1\n      pop\n      jump\t// out\n        /* \"#utility.yul\":4016:4238   */\n    tag_23:\n        /* \"#utility.yul\":4109:4113   */\n      0x00\n        /* \"#utility.yul\":4147:4149   */\n      0x20\n        /* \"#utility.yul\":4136:4145   */\n      dup3\n        /* \"#utility.yul\":4132:4150   */\n      add\n        /* \"#utility.yul\":4124:4150   */\n      swap1\n      pop\n        /* \"#utility.yul\":4160:4231   */\n      tag_219\n        /* \"#utility.yul\":4228:4229   */\n      0x00\n        /* \"#utility.yul\":4217:4226   */\n      dup4\n        /* \"#utility.yul\":4213:4230   */\n      add\n        /* \"#utility.yul\":4204:4210   */\n      dup5\n        /* \"#utility.yul\":4160:4231   */\n      tag_204\n      jump\t// in\n    tag_219:\n        /* \"#utility.yul\":4016:4238   */\n      swap3\n      swap2\n      pop\n      pop\n      jump\t// out\n        /* \"#utility.yul\":4325:4424   */\n    tag_192:\n        /* \"#utility.yul\":4377:4383   */\n      0x00\n        /* \"#utility.yul\":4411:4416   */\n      dup2\n        /* \"#utility.yul\":4405:4417   */\n      mload\n        /* \"#utility.yul\":4395:4417   */\n      swap1\n      pop\n        /* \"#utility.yul\":4325:4424   */\n      swap2\n      swap1\n      pop\n      jump\t// out\n        /* \"#utility.yul\":4430:4599   */\n    tag_194:\n        /* \"#utility.yul\":4514:4525   */\n      0x00\n        /* \"#utility.yul\":4548:4554   */\n      dup3\n        /* \"#utility.yul\":4543:4546   */\n      dup3\n        /* \"#utility.yul\":4536:4555   */\n      mstore\n        /* \"#utility.yul\":4588:4592   */\n      0x20\n        /* \"#utility.yul\":4583:4586   */\n      dup3\n        /* \"#utility.yul\":4579:4593   */\n      add\n        /* \"#utility.yul\":4564:4593   */\n      swap1\n      pop\n        /* \"#utility.yul\":4430:4599   */\n      swap3\n      swap2\n      pop\n      pop\n      jump\t// out\n        /* \"#utility.yul\":4605:4910   */\n    tag_90:\n        /* \"#utility.yul\":4645:4648   */\n      0x00\n        /* \"#utility.yul\":4664:4684   */\n      tag_225\n        /* \"#utility.yul\":4682:4683   */\n      dup3\n        /* \"#utility.yul\":4664:4684   */\n      tag_207\n      jump\t// in\n    tag_225:\n        /* \"#utility.yul\":4659:4684   */\n      swap2\n      pop\n        /* \"#utility.yul\":4698:4718   */\n      tag_226\n        /* \"#utility.yul\":4716:4717   */\n      dup4\n        /* \"#utility.yul\":4698:4718   */\n      tag_207\n      jump\t// in\n    tag_226:\n        /* \"#utility.yul\":4693:4718   */\n      swap3\n      pop\n        /* \"#utility.yul\":4852:4853   */\n      dup3\n        /* \"#utility.yul\":4784:4850   */\n      0xffffffffffffffffffffffffffffffffffffffffffffffffffffffffffffffff\n        /* \"#utility.yul\":4780:4854   */\n      sub\n        /* \"#utility.yul\":4777:4778   */\n      dup3\n        /* \"#utility.yul\":4774:4855   */\n      gt\n        /* \"#utility.yul\":4771:4878   */\n      iszero\n      tag_227\n      jumpi\n        /* \"#utility.yul\":4858:4876   */\n      tag_228\n      tag_229\n      jump\t// in\n    tag_228:\n        /* \"#utility.yul\":4771:4878   */\n    tag_227:\n        /* \"#utility.yul\":4902:4903   */\n      dup3\n        /* \"#utility.yul\":4899:4900   */\n      dup3\n        /* \"#utility.yul\":4895:4904   */\n      add\n        /* \"#utility.yul\":4888:4904   */\n      swap1\n      pop\n        /* \"#utility.yul\":4605:4910   */\n      swap3\n      swap2\n      pop\n      pop\n      jump\t// out\n        /* \"#utility.yul\":4916:5012   */\n    tag_184:\n        /* \"#utility.yul\":4953:4960   */\n      0x00\n        /* \"#utility.yul\":4982:5006   */\n      tag_231\n        /* \"#utility.yul\":5000:5005   */\n      dup3\n        /* \"#utility.yul\":4982:5006   */\n      tag_232\n      jump\t// in\n    tag_231:\n        /* \"#utility.yul\":4971:5006   */\n      swap1\n      pop\n        /* \"#utility.yul\":4916:5012   */\n      swap2\n      swap1\n      pop\n      jump\t// out\n        /* \"#utility.yul\":5018:5122   */\n    tag_180:\n        /* \"#utility.yul\":5063:5070   */\n      0x00\n        /* \"#utility.yul\":5092:5116   */\n      tag_234\n        /* \"#utility.yul\":5110:5115   */\n      dup3\n        /* \"#utility.yul\":5092:5116   */\n      tag_232\n      jump\t// in\n    tag_234:\n        /* \"#utility.yul\":5081:5116   */\n      swap1\n      pop\n        /* \"#utility.yul\":5018:5122   */\n      swap2\n      swap1\n      pop\n      jump\t// out\n        /* \"#utility.yul\":5128:5255   */\n    tag_235:\n        /* \"#utility.yul\":5173:5180   */\n      0x00\n        /* \"#utility.yul\":5202:5207   */\n      dup2\n        /* \"#utility.yul\":5191:5207   */\n      swap1\n      pop\n        /* \"#utility.yul\":5208:5249   */\n      tag_237\n        /* \"#utility.yul\":5243:5248   */\n      dup3\n        /* \"#utility.yul\":5208:5249   */\n      tag_238\n      jump\t// in\n    tag_237:\n        /* \"#utility.yul\":5128:5255   */\n      swap2\n      swap1\n      pop\n      jump\t// out\n        /* \"#utility.yul\":5261:5387   */\n    tag_232:\n        /* \"#utility.yul\":5298:5305   */\n      0x00\n        /* \"#utility.yul\":5338:5380   */\n      0xffffffffffffffffffffffffffffffffffffffff\n        /* \"#utility.yul\":5331:5336   */\n      dup3\n        /* \"#utility.yul\":5327:5381   */\n      and\n        /* \"#utility.yul\":5316:5381   */\n      swap1\n      pop\n        /* \"#utility.yul\":5261:5387   */\n      swap2\n      swap1\n      pop\n      jump\t// out\n        /* \"#utility.yul\":5393:5470   */\n    tag_207:\n        /* \"#utility.yul\":5430:5437   */\n      0x00\n        /* \"#utility.yul\":5459:5464   */\n      dup2\n        /* \"#utility.yul\":5448:5464   */\n      swap1\n      pop\n        /* \"#utility.yul\":5393:5470   */\n      swap2\n      swap1\n      pop\n      jump\t// out\n        /* \"#utility.yul\":5476:5603   */\n    tag_188:\n        /* \"#utility.yul\":5532:5541   */\n      0x00\n        /* \"#utility.yul\":5565:5597   */\n      tag_242\n        /* \"#utility.yul\":5591:5596   */\n      dup3\n        /* \"#utility.yul\":5565:5597   */\n      tag_235\n      jump\t// in\n    tag_242:\n        /* \"#utility.yul\":5552:5597   */\n      swap1\n      pop\n        /* \"#utility.yul\":5476:5603   */\n      swap2\n      swap1\n      pop\n      jump\t// out\n        /* \"#utility.yul\":5609:5916   */\n    tag_196:\n        /* \"#utility.yul\":5677:5678   */\n      0x00\n        /* \"#utility.yul\":5687:5800   */\n    tag_244:\n        /* \"#utility.yul\":5701:5707   */\n      dup4\n        /* \"#utility.yul\":5698:5699   */\n      dup2\n        /* \"#utility.yul\":5695:5708   */\n      lt\n        /* \"#utility.yul\":5687:5800   */\n      iszero\n      tag_246\n      jumpi\n        /* \"#utility.yul\":5786:5787   */\n      dup1\n        /* \"#utility.yul\":5781:5784   */\n      dup3\n        /* \"#utility.yul\":5777:5788   */\n      add\n        /* \"#utility.yul\":5771:5789   */\n      mload\n        /* \"#utility.yul\":5767:5768   */\n      dup2\n        /* \"#utility.yul\":5762:5765   */\n      dup5\n        /* \"#utility.yul\":5758:5769   */\n      add\n        /* \"#utility.yul\":5751:5790   */\n      mstore\n        /* \"#utility.yul\":5723:5725   */\n      0x20\n        /* \"#utility.yul\":5720:5721   */\n      dup2\n        /* \"#utility.yul\":5716:5726   */\n      add\n        /* \"#utility.yul\":5711:5726   */\n      swap1\n      pop\n        /* \"#utility.yul\":5687:5800   */\n      jump(tag_244)\n    tag_246:\n        /* \"#utility.yul\":5818:5824   */\n      dup4\n        /* \"#utility.yul\":5815:5816   */\n      dup2\n        /* \"#utility.yul\":5812:5825   */\n      gt\n        /* \"#utility.yul\":5809:5910   */\n      iszero\n      tag_247\n      jumpi\n        /* \"#utility.yul\":5898:5899   */\n      0x00\n        /* \"#utility.yul\":5889:5895   */\n      dup5\n        /* \"#utility.yul\":5884:5887   */\n      dup5\n        /* \"#utility.yul\":5880:5896   */\n      add\n        /* \"#utility.yul\":5873:5900   */\n      mstore\n        /* \"#utility.yul\":5809:5910   */\n    tag_247:\n        /* \"#utility.yul\":5658:5916   */\n      pop\n        /* \"#utility.yul\":5609:5916   */\n      pop\n      pop\n      pop\n      jump\t// out\n        /* \"#utility.yul\":5922:6242   */\n    tag_101:\n        /* \"#utility.yul\":5966:5972   */\n      0x00\n        /* \"#utility.yul\":6003:6004   */\n      0x02\n        /* \"#utility.yul\":5997:6001   */\n      dup3\n        /* \"#utility.yul\":5993:6005   */\n      div\n        /* \"#utility.yul\":5983:6005   */\n      swap1\n      pop\n        /* \"#utility.yul\":6050:6051   */\n      0x01\n        /* \"#utility.yul\":6044:6048   */\n      dup3\n        /* \"#utility.yul\":6040:6052   */\n      and\n        /* \"#utility.yul\":6071:6089   */\n      dup1\n        /* \"#utility.yul\":6061:6142   */\n      tag_249\n      jumpi\n        /* \"#utility.yul\":6127:6131   */\n      0x7f\n        /* \"#utility.yul\":6119:6125   */\n      dup3\n        /* \"#utility.yul\":6115:6132   */\n      and\n        /* \"#utility.yul\":6105:6132   */\n      swap2\n      pop\n        /* \"#utility.yul\":6061:6142   */\n    tag_249:\n        /* \"#utility.yul\":6189:6191   */\n      0x20\n        /* \"#utility.yul\":6181:6187   */\n      dup3\n        /* \"#utility.yul\":6178:6192   */\n      lt\n        /* \"#utility.yul\":6158:6176   */\n      dup2\n        /* \"#utility.yul\":6155:6193   */\n      eq\n        /* \"#utility.yul\":6152:6236   */\n      iszero\n      tag_250\n      jumpi\n        /* \"#utility.yul\":6208:6226   */\n      tag_251\n      tag_252\n      jump\t// in\n    tag_251:\n        /* \"#utility.yul\":6152:6236   */\n    tag_250:\n        /* \"#utility.yul\":5973:6242   */\n      pop\n        /* \"#utility.yul\":5922:6242   */\n      swap2\n      swap1\n      pop\n      jump\t// out\n        /* \"#utility.yul\":6248:6428   */\n    tag_229:\n        /* \"#utility.yul\":6296:6373   */\n      0x4e487b7100000000000000000000000000000000000000000000000000000000\n        /* \"#utility.yul\":6293:6294   */\n      0x00\n        /* \"#utility.yul\":6286:6374   */\n      mstore\n        /* \"#utility.yul\":6393:6397   */\n      0x11\n        /* \"#utility.yul\":6390:6391   */\n      0x04\n        /* \"#utility.yul\":6383:6398   */\n      mstore\n        /* \"#utility.yul\":6417:6421   */\n      0x24\n        /* \"#utility.yul\":6414:6415   */\n      0x00\n        /* \"#utility.yul\":6407:6422   */\n      revert\n        /* \"#utility.yul\":6434:6614   */\n    tag_84:\n        /* \"#utility.yul\":6482:6559   */\n      0x4e487b7100000000000000000000000000000000000000000000000000000000\n        /* \"#utility.yul\":6479:6480   */\n      0x00\n        /* \"#utility.yul\":6472:6560   */\n      mstore\n        /* \"#utility.yul\":6579:6583   */\n      0x21\n        /* \"#utility.yul\":6576:6577   */\n      0x04\n        /* \"#utility.yul\":6569:6584   */\n      mstore\n        /* \"#utility.yul\":6603:6607   */\n      0x24\n        /* \"#utility.yul\":6600:6601   */\n      0x00\n        /* \"#utility.yul\":6593:6608   */\n      revert\n        /* \"#utility.yul\":6620:6800   */\n    tag_252:\n        /* \"#utility.yul\":6668:6745   */\n      0x4e487b7100000000000000000000000000000000000000000000000000000000\n        /* \"#utility.yul\":6665:6666   */\n      0x00\n        /* \"#utility.yul\":6658:6746   */\n      mstore\n        /* \"#utility.yul\":6765:6769   */\n      0x22\n        /* \"#utility.yul\":6762:6763   */\n      0x04\n        /* \"#utility.yul\":6755:6770   */\n      mstore\n        /* \"#utility.yul\":6789:6793   */\n      0x24\n        /* \"#utility.yul\":6786:6787   */\n      0x00\n        /* \"#utility.yul\":6779:6794   */\n      revert\n        /* \"#utility.yul\":6929:7046   */\n    tag_169:\n        /* \"#utility.yul\":7038:7039   */\n      0x00\n        /* \"#utility.yul\":7035:7036   */\n      dup1\n        /* \"#utility.yul\":7028:7040   */\n      revert\n        /* \"#utility.yul\":7052:7154   */\n    tag_198:\n        /* \"#utility.yul\":7093:7099   */\n      0x00\n        /* \"#utility.yul\":7144:7146   */\n      0x1f\n        /* \"#utility.yul\":7140:7147   */\n      not\n        /* \"#utility.yul\":7135:7137   */\n      0x1f\n        /* \"#utility.yul\":7128:7133   */\n      dup4\n        /* \"#utility.yul\":7124:7138   */\n      add\n        /* \"#utility.yul\":7120:7148   */\n      and\n        /* \"#utility.yul\":7110:7148   */\n      swap1\n      pop\n        /* \"#utility.yul\":7052:7154   */\n      swap2\n      swap1\n      pop\n      jump\t// out\n        /* \"#utility.yul\":7160:7382   */\n    tag_203:\n        /* \"#utility.yul\":7300:7334   */\n      0x506c65617365207761697420756e74696c207468652061756374696f6e207374\n        /* \"#utility.yul\":7296:7297   */\n      0x00\n        /* \"#utility.yul\":7288:7294   */\n      dup3\n        /* \"#utility.yul\":7284:7298   */\n      add\n        /* \"#utility.yul\":7277:7335   */\n      mstore\n        /* \"#utility.yul\":7369:7374   */\n      0x6172740000000000000000000000000000000000000000000000000000000000\n        /* \"#utility.yul\":7364:7366   */\n      0x20\n        /* \"#utility.yul\":7356:7362   */\n      dup3\n        /* \"#utility.yul\":7352:7367   */\n      add\n        /* \"#utility.yul\":7345:7375   */\n      mstore\n        /* \"#utility.yul\":7160:7382   */\n      pop\n      jump\t// out\n        /* \"#utility.yul\":7388:7501   */\n    tag_238:\n        /* \"#utility.yul\":7469:7470   */\n      0x04\n        /* \"#utility.yul\":7462:7467   */\n      dup2\n        /* \"#utility.yul\":7459:7471   */\n      lt\n        /* \"#utility.yul\":7449:7495   */\n      tag_262\n      jumpi\n        /* \"#utility.yul\":7475:7493   */\n      tag_263\n      tag_84\n      jump\t// in\n    tag_263:\n        /* \"#utility.yul\":7449:7495   */\n    tag_262:\n        /* \"#utility.yul\":7388:7501   */\n      pop\n      jump\t// out\n        /* \"#utility.yul\":7507:7629   */\n    tag_161:\n        /* \"#utility.yul\":7580:7604   */\n      tag_265\n        /* \"#utility.yul\":7598:7603   */\n      dup2\n        /* \"#utility.yul\":7580:7604   */\n      tag_184\n      jump\t// in\n    tag_265:\n        /* \"#utility.yul\":7573:7578   */\n      dup2\n        /* \"#utility.yul\":7570:7605   */\n      eq\n        /* \"#utility.yul\":7560:7623   */\n      tag_266\n      jumpi\n        /* \"#utility.yul\":7619:7620   */\n      0x00\n        /* \"#utility.yul\":7616:7617   */\n      dup1\n        /* \"#utility.yul\":7609:7621   */\n      revert\n        /* \"#utility.yul\":7560:7623   */\n    tag_266:\n        /* \"#utility.yul\":7507:7629   */\n      pop\n      jump\t// out\n        /* \"#utility.yul\":7635:7757   */\n    tag_165:\n        /* \"#utility.yul\":7708:7732   */\n      tag_268\n        /* \"#utility.yul\":7726:7731   */\n      dup2\n        /* \"#utility.yul\":7708:7732   */\n      tag_207\n      jump\t// in\n    tag_268:\n        /* \"#utility.yul\":7701:7706   */\n      dup2\n        /* \"#utility.yul\":7698:7733   */\n      eq\n        /* \"#utility.yul\":7688:7751   */\n      tag_269\n      jumpi\n        /* \"#utility.yul\":7747:7748   */\n      0x00\n        /* \"#utility.yul\":7744:7745   */\n      dup1\n        /* \"#utility.yul\":7737:7749   */\n      revert\n        /* \"#utility.yul\":7688:7751   */\n    tag_269:\n        /* \"#utility.yul\":7635:7757   */\n      pop\n      jump\t// out\n\n    auxdata: 0xa264697066735822122091df261882e269efa79afa8c658e60a66bacaa8711e29e026c2024dc08362e0d64736f6c63430008070033\n}\n",
				"bytecode": {
					"linkReferences": {},
					"object": "60806040523480156200001157600080fd5b50604051620011cd380380620011cd833981810160405281019062000037919062000104565b336000806101000a81548173ffffffffffffffffffffffffffffffffffffffff021916908373ffffffffffffffffffffffffffffffffffffffff16021790555080600160006101000a81548173ffffffffffffffffffffffffffffffffffffffff021916908373ffffffffffffffffffffffffffffffffffffffff1602179055506000600660006101000a81548160ff02191690836003811115620000e157620000e06200016a565b5b021790555050620001b8565b600081519050620000fe816200019e565b92915050565b6000602082840312156200011d576200011c62000199565b5b60006200012d84828501620000ed565b91505092915050565b600062000143826200014a565b9050919050565b600073ffffffffffffffffffffffffffffffffffffffff82169050919050565b7f4e487b7100000000000000000000000000000000000000000000000000000000600052602160045260246000fd5b600080fd5b620001a98162000136565b8114620001b557600080fd5b50565b61100580620001c86000396000f3fe6080604052600436106100dd5760003560e01c80638fa8b7901161007f578063d5f8418911610059578063d5f841891461028c578063ecfc7ecc146102b7578063f5b56c56146102c1578063f77282ab146102ec576100dd565b80638fa8b7901461021f57806391f9015714610236578063c623674f14610261576100dd565b806348cd4cb1116100bb57806348cd4cb11461016157806362ea82db1461018c5780637fb45099146101c95780638da5cb5b146101f4576100dd565b8063083c6323146100e2578063341175d51461010d57806338af3eed14610136575b600080fd5b3480156100ee57600080fd5b506100f7610303565b6040516101049190610d36565b60405180910390f35b34801561011957600080fd5b50610134600480360381019061012f9190610bb8565b610309565b005b34801561014257600080fd5b5061014b610421565b6040516101589190610cbe565b60405180910390f35b34801561016d57600080fd5b50610176610447565b6040516101839190610d36565b60405180910390f35b34801561019857600080fd5b506101b360048036038101906101ae9190610b8b565b61044d565b6040516101c09190610d36565b60405180910390f35b3480156101d557600080fd5b506101de610465565b6040516101eb9190610cd9565b60405180910390f35b34801561020057600080fd5b50610209610478565b6040516102169190610ca3565b60405180910390f35b34801561022b57600080fd5b5061023461049c565b005b34801561024257600080fd5b5061024b610521565b6040516102589190610cbe565b60405180910390f35b34801561026d57600080fd5b50610276610547565b6040516102839190610cf4565b60405180910390f35b34801561029857600080fd5b506102a16105d5565b6040516102ae9190610d36565b60405180910390f35b6102bf6105db565b005b3480156102cd57600080fd5b506102d6610927565b6040516102e39190610d36565b60405180910390f35b3480156102f857600080fd5b5061030161092d565b005b60035481565b60008054906101000a900473ffffffffffffffffffffffffffffffffffffffff1673ffffffffffffffffffffffffffffffffffffffff163373ffffffffffffffffffffffffffffffffffffffff161461036157600080fd5b6001600381111561037557610374610eca565b5b600660009054906101000a900460ff16600381111561039757610396610eca565b5b14156103a257600080fd5b43600281905550826002546103b79190610d6d565b6003819055506001600660006101000a81548160ff021916908360038111156103e3576103e2610eca565b5b0217905550604051806020016040528060008152506005908051906020019061040d929190610abe565b5081600a8190555080600481905550505050565b600160009054906101000a900473ffffffffffffffffffffffffffffffffffffffff1681565b60025481565b60096020528060005260406000206000915090505481565b600660009054906101000a900460ff1681565b60008054906101000a900473ffffffffffffffffffffffffffffffffffffffff1681565b60008054906101000a900473ffffffffffffffffffffffffffffffffffffffff1673ffffffffffffffffffffffffffffffffffffffff163373ffffffffffffffffffffffffffffffffffffffff16146104f457600080fd5b6003600660006101000a81548160ff0219169083600381111561051a57610519610eca565b5b0217905550565b600860009054906101000a900473ffffffffffffffffffffffffffffffffffffffff1681565b6005805461055490610e69565b80601f016020809104026020016040519081016040528092919081815260200182805461058090610e69565b80156105cd5780601f106105a2576101008083540402835291602001916105cd565b820191906000526020600020905b8154815290600101906020018083116105b057829003601f168201915b505050505081565b60045481565b60008054906101000a900473ffffffffffffffffffffffffffffffffffffffff1673ffffffffffffffffffffffffffffffffffffffff163373ffffffffffffffffffffffffffffffffffffffff16141561063457600080fd5b60025443101561064357600080fd5b60035443111561065257600080fd5b6001600381111561066657610665610eca565b5b600660009054906101000a900460ff16600381111561068857610687610eca565b5b146106c8576040517f08c379a00000000000000000000000000000000000000000000000000000000081526004016106bf90610d16565b60405180910390fd5b6004543410156106d757600080fd5b600034600960003373ffffffffffffffffffffffffffffffffffffffff1673ffffffffffffffffffffffffffffffffffffffff168152602001908152602001600020546107249190610d6d565b905060075481101561073557600080fd5b80600960003373ffffffffffffffffffffffffffffffffffffffff1673ffffffffffffffffffffffffffffffffffffffff1681526020019081526020016000208190555060096000600860009054906101000a900473ffffffffffffffffffffffffffffffffffffffff1673ffffffffffffffffffffffffffffffffffffffff1673ffffffffffffffffffffffffffffffffffffffff16815260200190815260200160002054811161086457610859600a54826107f29190610d6d565b60096000600860009054906101000a900473ffffffffffffffffffffffffffffffffffffffff1673ffffffffffffffffffffffffffffffffffffffff1673ffffffffffffffffffffffffffffffffffffffff16815260200190815260200160002054610aa3565b600781905550610924565b6108dc81600a5460096000600860009054906101000a900473ffffffffffffffffffffffffffffffffffffffff1673ffffffffffffffffffffffffffffffffffffffff1673ffffffffffffffffffffffffffffffffffffffff168152602001908152602001600020546108d79190610d6d565b610aa3565b60078190555033600860006101000a81548173ffffffffffffffffffffffffffffffffffffffff021916908373ffffffffffffffffffffffffffffffffffffffff1602179055505b50565b60075481565b6003808111156109405761093f610eca565b5b600660009054906101000a900460ff16600381111561096257610961610eca565b5b148061097057506003544310155b61097957600080fd5b60008054906101000a900473ffffffffffffffffffffffffffffffffffffffff1673ffffffffffffffffffffffffffffffffffffffff163373ffffffffffffffffffffffffffffffffffffffff161480610a1257506000600960003373ffffffffffffffffffffffffffffffffffffffff1673ffffffffffffffffffffffffffffffffffffffff16815260200190815260200160002054115b610a1b57600080fd5b600080600380811115610a3157610a30610eca565b5b600660009054906101000a900460ff166003811115610a5357610a52610eca565b5b1415610a9f57339150600960003373ffffffffffffffffffffffffffffffffffffffff1673ffffffffffffffffffffffffffffffffffffffff1681526020019081526020016000205490505b5050565b6000818311610ab457829050610ab8565b8190505b92915050565b828054610aca90610e69565b90600052602060002090601f016020900481019282610aec5760008555610b33565b82601f10610b0557805160ff1916838001178555610b33565b82800160010185558215610b33579182015b82811115610b32578251825591602001919060010190610b17565b5b509050610b409190610b44565b5090565b5b80821115610b5d576000816000905550600101610b45565b5090565b600081359050610b7081610fa1565b92915050565b600081359050610b8581610fb8565b92915050565b600060208284031215610ba157610ba0610f28565b5b6000610baf84828501610b61565b91505092915050565b600080600060608486031215610bd157610bd0610f28565b5b6000610bdf86828701610b76565b9350506020610bf086828701610b76565b9250506040610c0186828701610b76565b9150509250925092565b610c1481610dd5565b82525050565b610c2381610dc3565b82525050565b610c3281610e24565b82525050565b6000610c4382610d51565b610c4d8185610d5c565b9350610c5d818560208601610e36565b610c6681610f2d565b840191505092915050565b6000610c7e602383610d5c565b9150610c8982610f3e565b604082019050919050565b610c9d81610e1a565b82525050565b6000602082019050610cb86000830184610c1a565b92915050565b6000602082019050610cd36000830184610c0b565b92915050565b6000602082019050610cee6000830184610c29565b92915050565b60006020820190508181036000830152610d0e8184610c38565b905092915050565b60006020820190508181036000830152610d2f81610c71565b9050919050565b6000602082019050610d4b6000830184610c94565b92915050565b600081519050919050565b600082825260208201905092915050565b6000610d7882610e1a565b9150610d8383610e1a565b9250827fffffffffffffffffffffffffffffffffffffffffffffffffffffffffffffffff03821115610db857610db7610e9b565b5b828201905092915050565b6000610dce82610dfa565b9050919050565b6000610de082610dfa565b9050919050565b6000819050610df582610f8d565b919050565b600073ffffffffffffffffffffffffffffffffffffffff82169050919050565b6000819050919050565b6000610e2f82610de7565b9050919050565b60005b83811015610e54578082015181840152602081019050610e39565b83811115610e63576000848401525b50505050565b60006002820490506001821680610e8157607f821691505b60208210811415610e9557610e94610ef9565b5b50919050565b7f4e487b7100000000000000000000000000000000000000000000000000000000600052601160045260246000fd5b7f4e487b7100000000000000000000000000000000000000000000000000000000600052602160045260246000fd5b7f4e487b7100000000000000000000000000000000000000000000000000000000600052602260045260246000fd5b600080fd5b6000601f19601f8301169050919050565b7f506c65617365207761697420756e74696c207468652061756374696f6e20737460008201527f6172740000000000000000000000000000000000000000000000000000000000602082015250565b60048110610f9e57610f9d610eca565b5b50565b610faa81610dc3565b8114610fb557600080fd5b50565b610fc181610e1a565b8114610fcc57600080fd5b5056fea264697066735822122091df261882e269efa79afa8c658e60a66bacaa8711e29e026c2024dc08362e0d64736f6c63430008070033",
					"opcodes": "PUSH1 0x80 PUSH1 0x40 MSTORE CALLVALUE DUP1 ISZERO PUSH3 0x11 JUMPI PUSH1 0x0 DUP1 REVERT JUMPDEST POP PUSH1 0x40 MLOAD PUSH3 0x11CD CODESIZE SUB DUP1 PUSH3 0x11CD DUP4 CODECOPY DUP2 DUP2 ADD PUSH1 0x40 MSTORE DUP2 ADD SWAP1 PUSH3 0x37 SWAP2 SWAP1 PUSH3 0x104 JUMP JUMPDEST CALLER PUSH1 0x0 DUP1 PUSH2 0x100 EXP DUP2 SLOAD DUP2 PUSH20 0xFFFFFFFFFFFFFFFFFFFFFFFFFFFFFFFFFFFFFFFF MUL NOT AND SWAP1 DUP4 PUSH20 0xFFFFFFFFFFFFFFFFFFFFFFFFFFFFFFFFFFFFFFFF AND MUL OR SWAP1 SSTORE POP DUP1 PUSH1 0x1 PUSH1 0x0 PUSH2 0x100 EXP DUP2 SLOAD DUP2 PUSH20 0xFFFFFFFFFFFFFFFFFFFFFFFFFFFFFFFFFFFFFFFF MUL NOT AND SWAP1 DUP4 PUSH20 0xFFFFFFFFFFFFFFFFFFFFFFFFFFFFFFFFFFFFFFFF AND MUL OR SWAP1 SSTORE POP PUSH1 0x0 PUSH1 0x6 PUSH1 0x0 PUSH2 0x100 EXP DUP2 SLOAD DUP2 PUSH1 0xFF MUL NOT AND SWAP1 DUP4 PUSH1 0x3 DUP2 GT ISZERO PUSH3 0xE1 JUMPI PUSH3 0xE0 PUSH3 0x16A JUMP JUMPDEST JUMPDEST MUL OR SWAP1 SSTORE POP POP PUSH3 0x1B8 JUMP JUMPDEST PUSH1 0x0 DUP2 MLOAD SWAP1 POP PUSH3 0xFE DUP2 PUSH3 0x19E JUMP JUMPDEST SWAP3 SWAP2 POP POP JUMP JUMPDEST PUSH1 0x0 PUSH1 0x20 DUP3 DUP5 SUB SLT ISZERO PUSH3 0x11D JUMPI PUSH3 0x11C PUSH3 0x199 JUMP JUMPDEST JUMPDEST PUSH1 0x0 PUSH3 0x12D DUP5 DUP3 DUP6 ADD PUSH3 0xED JUMP JUMPDEST SWAP2 POP POP SWAP3 SWAP2 POP POP JUMP JUMPDEST PUSH1 0x0 PUSH3 0x143 DUP3 PUSH3 0x14A JUMP JUMPDEST SWAP1 POP SWAP2 SWAP1 POP JUMP JUMPDEST PUSH1 0x0 PUSH20 0xFFFFFFFFFFFFFFFFFFFFFFFFFFFFFFFFFFFFFFFF DUP3 AND SWAP1 POP SWAP2 SWAP1 POP JUMP JUMPDEST PUSH32 0x4E487B7100000000000000000000000000000000000000000000000000000000 PUSH1 0x0 MSTORE PUSH1 0x21 PUSH1 0x4 MSTORE PUSH1 0x24 PUSH1 0x0 REVERT JUMPDEST PUSH1 0x0 DUP1 REVERT JUMPDEST PUSH3 0x1A9 DUP2 PUSH3 0x136 JUMP JUMPDEST DUP2 EQ PUSH3 0x1B5 JUMPI PUSH1 0x0 DUP1 REVERT JUMPDEST POP JUMP JUMPDEST PUSH2 0x1005 DUP1 PUSH3 0x1C8 PUSH1 0x0 CODECOPY PUSH1 0x0 RETURN INVALID PUSH1 0x80 PUSH1 0x40 MSTORE PUSH1 0x4 CALLDATASIZE LT PUSH2 0xDD JUMPI PUSH1 0x0 CALLDATALOAD PUSH1 0xE0 SHR DUP1 PUSH4 0x8FA8B790 GT PUSH2 0x7F JUMPI DUP1 PUSH4 0xD5F84189 GT PUSH2 0x59 JUMPI DUP1 PUSH4 0xD5F84189 EQ PUSH2 0x28C JUMPI DUP1 PUSH4 0xECFC7ECC EQ PUSH2 0x2B7 JUMPI DUP1 PUSH4 0xF5B56C56 EQ PUSH2 0x2C1 JUMPI DUP1 PUSH4 0xF77282AB EQ PUSH2 0x2EC JUMPI PUSH2 0xDD JUMP JUMPDEST DUP1 PUSH4 0x8FA8B790 EQ PUSH2 0x21F JUMPI DUP1 PUSH4 0x91F90157 EQ PUSH2 0x236 JUMPI DUP1 PUSH4 0xC623674F EQ PUSH2 0x261 JUMPI PUSH2 0xDD JUMP JUMPDEST DUP1 PUSH4 0x48CD4CB1 GT PUSH2 0xBB JUMPI DUP1 PUSH4 0x48CD4CB1 EQ PUSH2 0x161 JUMPI DUP1 PUSH4 0x62EA82DB EQ PUSH2 0x18C JUMPI DUP1 PUSH4 0x7FB45099 EQ PUSH2 0x1C9 JUMPI DUP1 PUSH4 0x8DA5CB5B EQ PUSH2 0x1F4 JUMPI PUSH2 0xDD JUMP JUMPDEST DUP1 PUSH4 0x83C6323 EQ PUSH2 0xE2 JUMPI DUP1 PUSH4 0x341175D5 EQ PUSH2 0x10D JUMPI DUP1 PUSH4 0x38AF3EED EQ PUSH2 0x136 JUMPI JUMPDEST PUSH1 0x0 DUP1 REVERT JUMPDEST CALLVALUE DUP1 ISZERO PUSH2 0xEE JUMPI PUSH1 0x0 DUP1 REVERT JUMPDEST POP PUSH2 0xF7 PUSH2 0x303 JUMP JUMPDEST PUSH1 0x40 MLOAD PUSH2 0x104 SWAP2 SWAP1 PUSH2 0xD36 JUMP JUMPDEST PUSH1 0x40 MLOAD DUP1 SWAP2 SUB SWAP1 RETURN JUMPDEST CALLVALUE DUP1 ISZERO PUSH2 0x119 JUMPI PUSH1 0x0 DUP1 REVERT JUMPDEST POP PUSH2 0x134 PUSH1 0x4 DUP1 CALLDATASIZE SUB DUP2 ADD SWAP1 PUSH2 0x12F SWAP2 SWAP1 PUSH2 0xBB8 JUMP JUMPDEST PUSH2 0x309 JUMP JUMPDEST STOP JUMPDEST CALLVALUE DUP1 ISZERO PUSH2 0x142 JUMPI PUSH1 0x0 DUP1 REVERT JUMPDEST POP PUSH2 0x14B PUSH2 0x421 JUMP JUMPDEST PUSH1 0x40 MLOAD PUSH2 0x158 SWAP2 SWAP1 PUSH2 0xCBE JUMP JUMPDEST PUSH1 0x40 MLOAD DUP1 SWAP2 SUB SWAP1 RETURN JUMPDEST CALLVALUE DUP1 ISZERO PUSH2 0x16D JUMPI PUSH1 0x0 DUP1 REVERT JUMPDEST POP PUSH2 0x176 PUSH2 0x447 JUMP JUMPDEST PUSH1 0x40 MLOAD PUSH2 0x183 SWAP2 SWAP1 PUSH2 0xD36 JUMP JUMPDEST PUSH1 0x40 MLOAD DUP1 SWAP2 SUB SWAP1 RETURN JUMPDEST CALLVALUE DUP1 ISZERO PUSH2 0x198 JUMPI PUSH1 0x0 DUP1 REVERT JUMPDEST POP PUSH2 0x1B3 PUSH1 0x4 DUP1 CALLDATASIZE SUB DUP2 ADD SWAP1 PUSH2 0x1AE SWAP2 SWAP1 PUSH2 0xB8B JUMP JUMPDEST PUSH2 0x44D JUMP JUMPDEST PUSH1 0x40 MLOAD PUSH2 0x1C0 SWAP2 SWAP1 PUSH2 0xD36 JUMP JUMPDEST PUSH1 0x40 MLOAD DUP1 SWAP2 SUB SWAP1 RETURN JUMPDEST CALLVALUE DUP1 ISZERO PUSH2 0x1D5 JUMPI PUSH1 0x0 DUP1 REVERT JUMPDEST POP PUSH2 0x1DE PUSH2 0x465 JUMP JUMPDEST PUSH1 0x40 MLOAD PUSH2 0x1EB SWAP2 SWAP1 PUSH2 0xCD9 JUMP JUMPDEST PUSH1 0x40 MLOAD DUP1 SWAP2 SUB SWAP1 RETURN JUMPDEST CALLVALUE DUP1 ISZERO PUSH2 0x200 JUMPI PUSH1 0x0 DUP1 REVERT JUMPDEST POP PUSH2 0x209 PUSH2 0x478 JUMP JUMPDEST PUSH1 0x40 MLOAD PUSH2 0x216 SWAP2 SWAP1 PUSH2 0xCA3 JUMP JUMPDEST PUSH1 0x40 MLOAD DUP1 SWAP2 SUB SWAP1 RETURN JUMPDEST CALLVALUE DUP1 ISZERO PUSH2 0x22B JUMPI PUSH1 0x0 DUP1 REVERT JUMPDEST POP PUSH2 0x234 PUSH2 0x49C JUMP JUMPDEST STOP JUMPDEST CALLVALUE DUP1 ISZERO PUSH2 0x242 JUMPI PUSH1 0x0 DUP1 REVERT JUMPDEST POP PUSH2 0x24B PUSH2 0x521 JUMP JUMPDEST PUSH1 0x40 MLOAD PUSH2 0x258 SWAP2 SWAP1 PUSH2 0xCBE JUMP JUMPDEST PUSH1 0x40 MLOAD DUP1 SWAP2 SUB SWAP1 RETURN JUMPDEST CALLVALUE DUP1 ISZERO PUSH2 0x26D JUMPI PUSH1 0x0 DUP1 REVERT JUMPDEST POP PUSH2 0x276 PUSH2 0x547 JUMP JUMPDEST PUSH1 0x40 MLOAD PUSH2 0x283 SWAP2 SWAP1 PUSH2 0xCF4 JUMP JUMPDEST PUSH1 0x40 MLOAD DUP1 SWAP2 SUB SWAP1 RETURN JUMPDEST CALLVALUE DUP1 ISZERO PUSH2 0x298 JUMPI PUSH1 0x0 DUP1 REVERT JUMPDEST POP PUSH2 0x2A1 PUSH2 0x5D5 JUMP JUMPDEST PUSH1 0x40 MLOAD PUSH2 0x2AE SWAP2 SWAP1 PUSH2 0xD36 JUMP JUMPDEST PUSH1 0x40 MLOAD DUP1 SWAP2 SUB SWAP1 RETURN JUMPDEST PUSH2 0x2BF PUSH2 0x5DB JUMP JUMPDEST STOP JUMPDEST CALLVALUE DUP1 ISZERO PUSH2 0x2CD JUMPI PUSH1 0x0 DUP1 REVERT JUMPDEST POP PUSH2 0x2D6 PUSH2 0x927 JUMP JUMPDEST PUSH1 0x40 MLOAD PUSH2 0x2E3 SWAP2 SWAP1 PUSH2 0xD36 JUMP JUMPDEST PUSH1 0x40 MLOAD DUP1 SWAP2 SUB SWAP1 RETURN JUMPDEST CALLVALUE DUP1 ISZERO PUSH2 0x2F8 JUMPI PUSH1 0x0 DUP1 REVERT JUMPDEST POP PUSH2 0x301 PUSH2 0x92D JUMP JUMPDEST STOP JUMPDEST PUSH1 0x3 SLOAD DUP2 JUMP JUMPDEST PUSH1 0x0 DUP1 SLOAD SWAP1 PUSH2 0x100 EXP SWAP1 DIV PUSH20 0xFFFFFFFFFFFFFFFFFFFFFFFFFFFFFFFFFFFFFFFF AND PUSH20 0xFFFFFFFFFFFFFFFFFFFFFFFFFFFFFFFFFFFFFFFF AND CALLER PUSH20 0xFFFFFFFFFFFFFFFFFFFFFFFFFFFFFFFFFFFFFFFF AND EQ PUSH2 0x361 JUMPI PUSH1 0x0 DUP1 REVERT JUMPDEST PUSH1 0x1 PUSH1 0x3 DUP2 GT ISZERO PUSH2 0x375 JUMPI PUSH2 0x374 PUSH2 0xECA JUMP JUMPDEST JUMPDEST PUSH1 0x6 PUSH1 0x0 SWAP1 SLOAD SWAP1 PUSH2 0x100 EXP SWAP1 DIV PUSH1 0xFF AND PUSH1 0x3 DUP2 GT ISZERO PUSH2 0x397 JUMPI PUSH2 0x396 PUSH2 0xECA JUMP JUMPDEST JUMPDEST EQ ISZERO PUSH2 0x3A2 JUMPI PUSH1 0x0 DUP1 REVERT JUMPDEST NUMBER PUSH1 0x2 DUP2 SWAP1 SSTORE POP DUP3 PUSH1 0x2 SLOAD PUSH2 0x3B7 SWAP2 SWAP1 PUSH2 0xD6D JUMP JUMPDEST PUSH1 0x3 DUP2 SWAP1 SSTORE POP PUSH1 0x1 PUSH1 0x6 PUSH1 0x0 PUSH2 0x100 EXP DUP2 SLOAD DUP2 PUSH1 0xFF MUL NOT AND SWAP1 DUP4 PUSH1 0x3 DUP2 GT ISZERO PUSH2 0x3E3 JUMPI PUSH2 0x3E2 PUSH2 0xECA JUMP JUMPDEST JUMPDEST MUL OR SWAP1 SSTORE POP PUSH1 0x40 MLOAD DUP1 PUSH1 0x20 ADD PUSH1 0x40 MSTORE DUP1 PUSH1 0x0 DUP2 MSTORE POP PUSH1 0x5 SWAP1 DUP1 MLOAD SWAP1 PUSH1 0x20 ADD SWAP1 PUSH2 0x40D SWAP3 SWAP2 SWAP1 PUSH2 0xABE JUMP JUMPDEST POP DUP2 PUSH1 0xA DUP2 SWAP1 SSTORE POP DUP1 PUSH1 0x4 DUP2 SWAP1 SSTORE POP POP POP POP JUMP JUMPDEST PUSH1 0x1 PUSH1 0x0 SWAP1 SLOAD SWAP1 PUSH2 0x100 EXP SWAP1 DIV PUSH20 0xFFFFFFFFFFFFFFFFFFFFFFFFFFFFFFFFFFFFFFFF AND DUP2 JUMP JUMPDEST PUSH1 0x2 SLOAD DUP2 JUMP JUMPDEST PUSH1 0x9 PUSH1 0x20 MSTORE DUP1 PUSH1 0x0 MSTORE PUSH1 0x40 PUSH1 0x0 KECCAK256 PUSH1 0x0 SWAP2 POP SWAP1 POP SLOAD DUP2 JUMP JUMPDEST PUSH1 0x6 PUSH1 0x0 SWAP1 SLOAD SWAP1 PUSH2 0x100 EXP SWAP1 DIV PUSH1 0xFF AND DUP2 JUMP JUMPDEST PUSH1 0x0 DUP1 SLOAD SWAP1 PUSH2 0x100 EXP SWAP1 DIV PUSH20 0xFFFFFFFFFFFFFFFFFFFFFFFFFFFFFFFFFFFFFFFF AND DUP2 JUMP JUMPDEST PUSH1 0x0 DUP1 SLOAD SWAP1 PUSH2 0x100 EXP SWAP1 DIV PUSH20 0xFFFFFFFFFFFFFFFFFFFFFFFFFFFFFFFFFFFFFFFF AND PUSH20 0xFFFFFFFFFFFFFFFFFFFFFFFFFFFFFFFFFFFFFFFF AND CALLER PUSH20 0xFFFFFFFFFFFFFFFFFFFFFFFFFFFFFFFFFFFFFFFF AND EQ PUSH2 0x4F4 JUMPI PUSH1 0x0 DUP1 REVERT JUMPDEST PUSH1 0x3 PUSH1 0x6 PUSH1 0x0 PUSH2 0x100 EXP DUP2 SLOAD DUP2 PUSH1 0xFF MUL NOT AND SWAP1 DUP4 PUSH1 0x3 DUP2 GT ISZERO PUSH2 0x51A JUMPI PUSH2 0x519 PUSH2 0xECA JUMP JUMPDEST JUMPDEST MUL OR SWAP1 SSTORE POP JUMP JUMPDEST PUSH1 0x8 PUSH1 0x0 SWAP1 SLOAD SWAP1 PUSH2 0x100 EXP SWAP1 DIV PUSH20 0xFFFFFFFFFFFFFFFFFFFFFFFFFFFFFFFFFFFFFFFF AND DUP2 JUMP JUMPDEST PUSH1 0x5 DUP1 SLOAD PUSH2 0x554 SWAP1 PUSH2 0xE69 JUMP JUMPDEST DUP1 PUSH1 0x1F ADD PUSH1 0x20 DUP1 SWAP2 DIV MUL PUSH1 0x20 ADD PUSH1 0x40 MLOAD SWAP1 DUP2 ADD PUSH1 0x40 MSTORE DUP1 SWAP3 SWAP2 SWAP1 DUP2 DUP2 MSTORE PUSH1 0x20 ADD DUP3 DUP1 SLOAD PUSH2 0x580 SWAP1 PUSH2 0xE69 JUMP JUMPDEST DUP1 ISZERO PUSH2 0x5CD JUMPI DUP1 PUSH1 0x1F LT PUSH2 0x5A2 JUMPI PUSH2 0x100 DUP1 DUP4 SLOAD DIV MUL DUP4 MSTORE SWAP2 PUSH1 0x20 ADD SWAP2 PUSH2 0x5CD JUMP JUMPDEST DUP3 ADD SWAP2 SWAP1 PUSH1 0x0 MSTORE PUSH1 0x20 PUSH1 0x0 KECCAK256 SWAP1 JUMPDEST DUP2 SLOAD DUP2 MSTORE SWAP1 PUSH1 0x1 ADD SWAP1 PUSH1 0x20 ADD DUP1 DUP4 GT PUSH2 0x5B0 JUMPI DUP3 SWAP1 SUB PUSH1 0x1F AND DUP3 ADD SWAP2 JUMPDEST POP POP POP POP POP DUP2 JUMP JUMPDEST PUSH1 0x4 SLOAD DUP2 JUMP JUMPDEST PUSH1 0x0 DUP1 SLOAD SWAP1 PUSH2 0x100 EXP SWAP1 DIV PUSH20 0xFFFFFFFFFFFFFFFFFFFFFFFFFFFFFFFFFFFFFFFF AND PUSH20 0xFFFFFFFFFFFFFFFFFFFFFFFFFFFFFFFFFFFFFFFF AND CALLER PUSH20 0xFFFFFFFFFFFFFFFFFFFFFFFFFFFFFFFFFFFFFFFF AND EQ ISZERO PUSH2 0x634 JUMPI PUSH1 0x0 DUP1 REVERT JUMPDEST PUSH1 0x2 SLOAD NUMBER LT ISZERO PUSH2 0x643 JUMPI PUSH1 0x0 DUP1 REVERT JUMPDEST PUSH1 0x3 SLOAD NUMBER GT ISZERO PUSH2 0x652 JUMPI PUSH1 0x0 DUP1 REVERT JUMPDEST PUSH1 0x1 PUSH1 0x3 DUP2 GT ISZERO PUSH2 0x666 JUMPI PUSH2 0x665 PUSH2 0xECA JUMP JUMPDEST JUMPDEST PUSH1 0x6 PUSH1 0x0 SWAP1 SLOAD SWAP1 PUSH2 0x100 EXP SWAP1 DIV PUSH1 0xFF AND PUSH1 0x3 DUP2 GT ISZERO PUSH2 0x688 JUMPI PUSH2 0x687 PUSH2 0xECA JUMP JUMPDEST JUMPDEST EQ PUSH2 0x6C8 JUMPI PUSH1 0x40 MLOAD PUSH32 0x8C379A000000000000000000000000000000000000000000000000000000000 DUP2 MSTORE PUSH1 0x4 ADD PUSH2 0x6BF SWAP1 PUSH2 0xD16 JUMP JUMPDEST PUSH1 0x40 MLOAD DUP1 SWAP2 SUB SWAP1 REVERT JUMPDEST PUSH1 0x4 SLOAD CALLVALUE LT ISZERO PUSH2 0x6D7 JUMPI PUSH1 0x0 DUP1 REVERT JUMPDEST PUSH1 0x0 CALLVALUE PUSH1 0x9 PUSH1 0x0 CALLER PUSH20 0xFFFFFFFFFFFFFFFFFFFFFFFFFFFFFFFFFFFFFFFF AND PUSH20 0xFFFFFFFFFFFFFFFFFFFFFFFFFFFFFFFFFFFFFFFF AND DUP2 MSTORE PUSH1 0x20 ADD SWAP1 DUP2 MSTORE PUSH1 0x20 ADD PUSH1 0x0 KECCAK256 SLOAD PUSH2 0x724 SWAP2 SWAP1 PUSH2 0xD6D JUMP JUMPDEST SWAP1 POP PUSH1 0x7 SLOAD DUP2 LT ISZERO PUSH2 0x735 JUMPI PUSH1 0x0 DUP1 REVERT JUMPDEST DUP1 PUSH1 0x9 PUSH1 0x0 CALLER PUSH20 0xFFFFFFFFFFFFFFFFFFFFFFFFFFFFFFFFFFFFFFFF AND PUSH20 0xFFFFFFFFFFFFFFFFFFFFFFFFFFFFFFFFFFFFFFFF AND DUP2 MSTORE PUSH1 0x20 ADD SWAP1 DUP2 MSTORE PUSH1 0x20 ADD PUSH1 0x0 KECCAK256 DUP2 SWAP1 SSTORE POP PUSH1 0x9 PUSH1 0x0 PUSH1 0x8 PUSH1 0x0 SWAP1 SLOAD SWAP1 PUSH2 0x100 EXP SWAP1 DIV PUSH20 0xFFFFFFFFFFFFFFFFFFFFFFFFFFFFFFFFFFFFFFFF AND PUSH20 0xFFFFFFFFFFFFFFFFFFFFFFFFFFFFFFFFFFFFFFFF AND PUSH20 0xFFFFFFFFFFFFFFFFFFFFFFFFFFFFFFFFFFFFFFFF AND DUP2 MSTORE PUSH1 0x20 ADD SWAP1 DUP2 MSTORE PUSH1 0x20 ADD PUSH1 0x0 KECCAK256 SLOAD DUP2 GT PUSH2 0x864 JUMPI PUSH2 0x859 PUSH1 0xA SLOAD DUP3 PUSH2 0x7F2 SWAP2 SWAP1 PUSH2 0xD6D JUMP JUMPDEST PUSH1 0x9 PUSH1 0x0 PUSH1 0x8 PUSH1 0x0 SWAP1 SLOAD SWAP1 PUSH2 0x100 EXP SWAP1 DIV PUSH20 0xFFFFFFFFFFFFFFFFFFFFFFFFFFFFFFFFFFFFFFFF AND PUSH20 0xFFFFFFFFFFFFFFFFFFFFFFFFFFFFFFFFFFFFFFFF AND PUSH20 0xFFFFFFFFFFFFFFFFFFFFFFFFFFFFFFFFFFFFFFFF AND DUP2 MSTORE PUSH1 0x20 ADD SWAP1 DUP2 MSTORE PUSH1 0x20 ADD PUSH1 0x0 KECCAK256 SLOAD PUSH2 0xAA3 JUMP JUMPDEST PUSH1 0x7 DUP2 SWAP1 SSTORE POP PUSH2 0x924 JUMP JUMPDEST PUSH2 0x8DC DUP2 PUSH1 0xA SLOAD PUSH1 0x9 PUSH1 0x0 PUSH1 0x8 PUSH1 0x0 SWAP1 SLOAD SWAP1 PUSH2 0x100 EXP SWAP1 DIV PUSH20 0xFFFFFFFFFFFFFFFFFFFFFFFFFFFFFFFFFFFFFFFF AND PUSH20 0xFFFFFFFFFFFFFFFFFFFFFFFFFFFFFFFFFFFFFFFF AND PUSH20 0xFFFFFFFFFFFFFFFFFFFFFFFFFFFFFFFFFFFFFFFF AND DUP2 MSTORE PUSH1 0x20 ADD SWAP1 DUP2 MSTORE PUSH1 0x20 ADD PUSH1 0x0 KECCAK256 SLOAD PUSH2 0x8D7 SWAP2 SWAP1 PUSH2 0xD6D JUMP JUMPDEST PUSH2 0xAA3 JUMP JUMPDEST PUSH1 0x7 DUP2 SWAP1 SSTORE POP CALLER PUSH1 0x8 PUSH1 0x0 PUSH2 0x100 EXP DUP2 SLOAD DUP2 PUSH20 0xFFFFFFFFFFFFFFFFFFFFFFFFFFFFFFFFFFFFFFFF MUL NOT AND SWAP1 DUP4 PUSH20 0xFFFFFFFFFFFFFFFFFFFFFFFFFFFFFFFFFFFFFFFF AND MUL OR SWAP1 SSTORE POP JUMPDEST POP JUMP JUMPDEST PUSH1 0x7 SLOAD DUP2 JUMP JUMPDEST PUSH1 0x3 DUP1 DUP2 GT ISZERO PUSH2 0x940 JUMPI PUSH2 0x93F PUSH2 0xECA JUMP JUMPDEST JUMPDEST PUSH1 0x6 PUSH1 0x0 SWAP1 SLOAD SWAP1 PUSH2 0x100 EXP SWAP1 DIV PUSH1 0xFF AND PUSH1 0x3 DUP2 GT ISZERO PUSH2 0x962 JUMPI PUSH2 0x961 PUSH2 0xECA JUMP JUMPDEST JUMPDEST EQ DUP1 PUSH2 0x970 JUMPI POP PUSH1 0x3 SLOAD NUMBER LT ISZERO JUMPDEST PUSH2 0x979 JUMPI PUSH1 0x0 DUP1 REVERT JUMPDEST PUSH1 0x0 DUP1 SLOAD SWAP1 PUSH2 0x100 EXP SWAP1 DIV PUSH20 0xFFFFFFFFFFFFFFFFFFFFFFFFFFFFFFFFFFFFFFFF AND PUSH20 0xFFFFFFFFFFFFFFFFFFFFFFFFFFFFFFFFFFFFFFFF AND CALLER PUSH20 0xFFFFFFFFFFFFFFFFFFFFFFFFFFFFFFFFFFFFFFFF AND EQ DUP1 PUSH2 0xA12 JUMPI POP PUSH1 0x0 PUSH1 0x9 PUSH1 0x0 CALLER PUSH20 0xFFFFFFFFFFFFFFFFFFFFFFFFFFFFFFFFFFFFFFFF AND PUSH20 0xFFFFFFFFFFFFFFFFFFFFFFFFFFFFFFFFFFFFFFFF AND DUP2 MSTORE PUSH1 0x20 ADD SWAP1 DUP2 MSTORE PUSH1 0x20 ADD PUSH1 0x0 KECCAK256 SLOAD GT JUMPDEST PUSH2 0xA1B JUMPI PUSH1 0x0 DUP1 REVERT JUMPDEST PUSH1 0x0 DUP1 PUSH1 0x3 DUP1 DUP2 GT ISZERO PUSH2 0xA31 JUMPI PUSH2 0xA30 PUSH2 0xECA JUMP JUMPDEST JUMPDEST PUSH1 0x6 PUSH1 0x0 SWAP1 SLOAD SWAP1 PUSH2 0x100 EXP SWAP1 DIV PUSH1 0xFF AND PUSH1 0x3 DUP2 GT ISZERO PUSH2 0xA53 JUMPI PUSH2 0xA52 PUSH2 0xECA JUMP JUMPDEST JUMPDEST EQ ISZERO PUSH2 0xA9F JUMPI CALLER SWAP2 POP PUSH1 0x9 PUSH1 0x0 CALLER PUSH20 0xFFFFFFFFFFFFFFFFFFFFFFFFFFFFFFFFFFFFFFFF AND PUSH20 0xFFFFFFFFFFFFFFFFFFFFFFFFFFFFFFFFFFFFFFFF AND DUP2 MSTORE PUSH1 0x20 ADD SWAP1 DUP2 MSTORE PUSH1 0x20 ADD PUSH1 0x0 KECCAK256 SLOAD SWAP1 POP JUMPDEST POP POP JUMP JUMPDEST PUSH1 0x0 DUP2 DUP4 GT PUSH2 0xAB4 JUMPI DUP3 SWAP1 POP PUSH2 0xAB8 JUMP JUMPDEST DUP2 SWAP1 POP JUMPDEST SWAP3 SWAP2 POP POP JUMP JUMPDEST DUP3 DUP1 SLOAD PUSH2 0xACA SWAP1 PUSH2 0xE69 JUMP JUMPDEST SWAP1 PUSH1 0x0 MSTORE PUSH1 0x20 PUSH1 0x0 KECCAK256 SWAP1 PUSH1 0x1F ADD PUSH1 0x20 SWAP1 DIV DUP2 ADD SWAP3 DUP3 PUSH2 0xAEC JUMPI PUSH1 0x0 DUP6 SSTORE PUSH2 0xB33 JUMP JUMPDEST DUP3 PUSH1 0x1F LT PUSH2 0xB05 JUMPI DUP1 MLOAD PUSH1 0xFF NOT AND DUP4 DUP1 ADD OR DUP6 SSTORE PUSH2 0xB33 JUMP JUMPDEST DUP3 DUP1 ADD PUSH1 0x1 ADD DUP6 SSTORE DUP3 ISZERO PUSH2 0xB33 JUMPI SWAP2 DUP3 ADD JUMPDEST DUP3 DUP2 GT ISZERO PUSH2 0xB32 JUMPI DUP3 MLOAD DUP3 SSTORE SWAP2 PUSH1 0x20 ADD SWAP2 SWAP1 PUSH1 0x1 ADD SWAP1 PUSH2 0xB17 JUMP JUMPDEST JUMPDEST POP SWAP1 POP PUSH2 0xB40 SWAP2 SWAP1 PUSH2 0xB44 JUMP JUMPDEST POP SWAP1 JUMP JUMPDEST JUMPDEST DUP1 DUP3 GT ISZERO PUSH2 0xB5D JUMPI PUSH1 0x0 DUP2 PUSH1 0x0 SWAP1 SSTORE POP PUSH1 0x1 ADD PUSH2 0xB45 JUMP JUMPDEST POP SWAP1 JUMP JUMPDEST PUSH1 0x0 DUP2 CALLDATALOAD SWAP1 POP PUSH2 0xB70 DUP2 PUSH2 0xFA1 JUMP JUMPDEST SWAP3 SWAP2 POP POP JUMP JUMPDEST PUSH1 0x0 DUP2 CALLDATALOAD SWAP1 POP PUSH2 0xB85 DUP2 PUSH2 0xFB8 JUMP JUMPDEST SWAP3 SWAP2 POP POP JUMP JUMPDEST PUSH1 0x0 PUSH1 0x20 DUP3 DUP5 SUB SLT ISZERO PUSH2 0xBA1 JUMPI PUSH2 0xBA0 PUSH2 0xF28 JUMP JUMPDEST JUMPDEST PUSH1 0x0 PUSH2 0xBAF DUP5 DUP3 DUP6 ADD PUSH2 0xB61 JUMP JUMPDEST SWAP2 POP POP SWAP3 SWAP2 POP POP JUMP JUMPDEST PUSH1 0x0 DUP1 PUSH1 0x0 PUSH1 0x60 DUP5 DUP7 SUB SLT ISZERO PUSH2 0xBD1 JUMPI PUSH2 0xBD0 PUSH2 0xF28 JUMP JUMPDEST JUMPDEST PUSH1 0x0 PUSH2 0xBDF DUP7 DUP3 DUP8 ADD PUSH2 0xB76 JUMP JUMPDEST SWAP4 POP POP PUSH1 0x20 PUSH2 0xBF0 DUP7 DUP3 DUP8 ADD PUSH2 0xB76 JUMP JUMPDEST SWAP3 POP POP PUSH1 0x40 PUSH2 0xC01 DUP7 DUP3 DUP8 ADD PUSH2 0xB76 JUMP JUMPDEST SWAP2 POP POP SWAP3 POP SWAP3 POP SWAP3 JUMP JUMPDEST PUSH2 0xC14 DUP2 PUSH2 0xDD5 JUMP JUMPDEST DUP3 MSTORE POP POP JUMP JUMPDEST PUSH2 0xC23 DUP2 PUSH2 0xDC3 JUMP JUMPDEST DUP3 MSTORE POP POP JUMP JUMPDEST PUSH2 0xC32 DUP2 PUSH2 0xE24 JUMP JUMPDEST DUP3 MSTORE POP POP JUMP JUMPDEST PUSH1 0x0 PUSH2 0xC43 DUP3 PUSH2 0xD51 JUMP JUMPDEST PUSH2 0xC4D DUP2 DUP6 PUSH2 0xD5C JUMP JUMPDEST SWAP4 POP PUSH2 0xC5D DUP2 DUP6 PUSH1 0x20 DUP7 ADD PUSH2 0xE36 JUMP JUMPDEST PUSH2 0xC66 DUP2 PUSH2 0xF2D JUMP JUMPDEST DUP5 ADD SWAP2 POP POP SWAP3 SWAP2 POP POP JUMP JUMPDEST PUSH1 0x0 PUSH2 0xC7E PUSH1 0x23 DUP4 PUSH2 0xD5C JUMP JUMPDEST SWAP2 POP PUSH2 0xC89 DUP3 PUSH2 0xF3E JUMP JUMPDEST PUSH1 0x40 DUP3 ADD SWAP1 POP SWAP2 SWAP1 POP JUMP JUMPDEST PUSH2 0xC9D DUP2 PUSH2 0xE1A JUMP JUMPDEST DUP3 MSTORE POP POP JUMP JUMPDEST PUSH1 0x0 PUSH1 0x20 DUP3 ADD SWAP1 POP PUSH2 0xCB8 PUSH1 0x0 DUP4 ADD DUP5 PUSH2 0xC1A JUMP JUMPDEST SWAP3 SWAP2 POP POP JUMP JUMPDEST PUSH1 0x0 PUSH1 0x20 DUP3 ADD SWAP1 POP PUSH2 0xCD3 PUSH1 0x0 DUP4 ADD DUP5 PUSH2 0xC0B JUMP JUMPDEST SWAP3 SWAP2 POP POP JUMP JUMPDEST PUSH1 0x0 PUSH1 0x20 DUP3 ADD SWAP1 POP PUSH2 0xCEE PUSH1 0x0 DUP4 ADD DUP5 PUSH2 0xC29 JUMP JUMPDEST SWAP3 SWAP2 POP POP JUMP JUMPDEST PUSH1 0x0 PUSH1 0x20 DUP3 ADD SWAP1 POP DUP2 DUP2 SUB PUSH1 0x0 DUP4 ADD MSTORE PUSH2 0xD0E DUP2 DUP5 PUSH2 0xC38 JUMP JUMPDEST SWAP1 POP SWAP3 SWAP2 POP POP JUMP JUMPDEST PUSH1 0x0 PUSH1 0x20 DUP3 ADD SWAP1 POP DUP2 DUP2 SUB PUSH1 0x0 DUP4 ADD MSTORE PUSH2 0xD2F DUP2 PUSH2 0xC71 JUMP JUMPDEST SWAP1 POP SWAP2 SWAP1 POP JUMP JUMPDEST PUSH1 0x0 PUSH1 0x20 DUP3 ADD SWAP1 POP PUSH2 0xD4B PUSH1 0x0 DUP4 ADD DUP5 PUSH2 0xC94 JUMP JUMPDEST SWAP3 SWAP2 POP POP JUMP JUMPDEST PUSH1 0x0 DUP2 MLOAD SWAP1 POP SWAP2 SWAP1 POP JUMP JUMPDEST PUSH1 0x0 DUP3 DUP3 MSTORE PUSH1 0x20 DUP3 ADD SWAP1 POP SWAP3 SWAP2 POP POP JUMP JUMPDEST PUSH1 0x0 PUSH2 0xD78 DUP3 PUSH2 0xE1A JUMP JUMPDEST SWAP2 POP PUSH2 0xD83 DUP4 PUSH2 0xE1A JUMP JUMPDEST SWAP3 POP DUP3 PUSH32 0xFFFFFFFFFFFFFFFFFFFFFFFFFFFFFFFFFFFFFFFFFFFFFFFFFFFFFFFFFFFFFFFF SUB DUP3 GT ISZERO PUSH2 0xDB8 JUMPI PUSH2 0xDB7 PUSH2 0xE9B JUMP JUMPDEST JUMPDEST DUP3 DUP3 ADD SWAP1 POP SWAP3 SWAP2 POP POP JUMP JUMPDEST PUSH1 0x0 PUSH2 0xDCE DUP3 PUSH2 0xDFA JUMP JUMPDEST SWAP1 POP SWAP2 SWAP1 POP JUMP JUMPDEST PUSH1 0x0 PUSH2 0xDE0 DUP3 PUSH2 0xDFA JUMP JUMPDEST SWAP1 POP SWAP2 SWAP1 POP JUMP JUMPDEST PUSH1 0x0 DUP2 SWAP1 POP PUSH2 0xDF5 DUP3 PUSH2 0xF8D JUMP JUMPDEST SWAP2 SWAP1 POP JUMP JUMPDEST PUSH1 0x0 PUSH20 0xFFFFFFFFFFFFFFFFFFFFFFFFFFFFFFFFFFFFFFFF DUP3 AND SWAP1 POP SWAP2 SWAP1 POP JUMP JUMPDEST PUSH1 0x0 DUP2 SWAP1 POP SWAP2 SWAP1 POP JUMP JUMPDEST PUSH1 0x0 PUSH2 0xE2F DUP3 PUSH2 0xDE7 JUMP JUMPDEST SWAP1 POP SWAP2 SWAP1 POP JUMP JUMPDEST PUSH1 0x0 JUMPDEST DUP4 DUP2 LT ISZERO PUSH2 0xE54 JUMPI DUP1 DUP3 ADD MLOAD DUP2 DUP5 ADD MSTORE PUSH1 0x20 DUP2 ADD SWAP1 POP PUSH2 0xE39 JUMP JUMPDEST DUP4 DUP2 GT ISZERO PUSH2 0xE63 JUMPI PUSH1 0x0 DUP5 DUP5 ADD MSTORE JUMPDEST POP POP POP POP JUMP JUMPDEST PUSH1 0x0 PUSH1 0x2 DUP3 DIV SWAP1 POP PUSH1 0x1 DUP3 AND DUP1 PUSH2 0xE81 JUMPI PUSH1 0x7F DUP3 AND SWAP2 POP JUMPDEST PUSH1 0x20 DUP3 LT DUP2 EQ ISZERO PUSH2 0xE95 JUMPI PUSH2 0xE94 PUSH2 0xEF9 JUMP JUMPDEST JUMPDEST POP SWAP2 SWAP1 POP JUMP JUMPDEST PUSH32 0x4E487B7100000000000000000000000000000000000000000000000000000000 PUSH1 0x0 MSTORE PUSH1 0x11 PUSH1 0x4 MSTORE PUSH1 0x24 PUSH1 0x0 REVERT JUMPDEST PUSH32 0x4E487B7100000000000000000000000000000000000000000000000000000000 PUSH1 0x0 MSTORE PUSH1 0x21 PUSH1 0x4 MSTORE PUSH1 0x24 PUSH1 0x0 REVERT JUMPDEST PUSH32 0x4E487B7100000000000000000000000000000000000000000000000000000000 PUSH1 0x0 MSTORE PUSH1 0x22 PUSH1 0x4 MSTORE PUSH1 0x24 PUSH1 0x0 REVERT JUMPDEST PUSH1 0x0 DUP1 REVERT JUMPDEST PUSH1 0x0 PUSH1 0x1F NOT PUSH1 0x1F DUP4 ADD AND SWAP1 POP SWAP2 SWAP1 POP JUMP JUMPDEST PUSH32 0x506C65617365207761697420756E74696C207468652061756374696F6E207374 PUSH1 0x0 DUP3 ADD MSTORE PUSH32 0x6172740000000000000000000000000000000000000000000000000000000000 PUSH1 0x20 DUP3 ADD MSTORE POP JUMP JUMPDEST PUSH1 0x4 DUP2 LT PUSH2 0xF9E JUMPI PUSH2 0xF9D PUSH2 0xECA JUMP JUMPDEST JUMPDEST POP JUMP JUMPDEST PUSH2 0xFAA DUP2 PUSH2 0xDC3 JUMP JUMPDEST DUP2 EQ PUSH2 0xFB5 JUMPI PUSH1 0x0 DUP1 REVERT JUMPDEST POP JUMP JUMPDEST PUSH2 0xFC1 DUP2 PUSH2 0xE1A JUMP JUMPDEST DUP2 EQ PUSH2 0xFCC JUMPI PUSH1 0x0 DUP1 REVERT JUMPDEST POP JUMP INVALID LOG2 PUSH5 0x6970667358 0x22 SLT KECCAK256 SWAP2 0xDF 0x26 XOR DUP3 0xE2 PUSH10 0xEFA79AFA8C658E60A66B 0xAC 0xAA DUP8 GT 0xE2 SWAP15 MUL PUSH13 0x2024DC08362E0D64736F6C6343 STOP ADDMOD SMOD STOP CALLER "
				},
				"gasEstimates": {
					"creation": {
						"codeDepositCost": "820200",
						"executionCost": "infinite",
						"totalCost": "infinite"
					},
					"external": {
						"MinimumBidValue()": "2451",
						"auctionState()": "2627",
						"beneficiary()": "2582",
						"bids(address)": "2859",
						"cancelAuction()": "26621",
						"endBlock()": "2453",
						"finalizeAuction()": "13385",
						"highestBidder()": "2559",
						"highestBindingBid()": "2495",
						"ipfsHash()": "infinite",
						"owner()": "2600",
						"placeBid()": "infinite",
						"startBlock()": "2452",
						"startNewBid(uint256,uint256,uint256)": "infinite"
					},
					"internal": {
						"min(uint256,uint256)": "64"
					}
				},
				"methodIdentifiers": {
					"MinimumBidValue()": "d5f84189",
					"auctionState()": "7fb45099",
					"beneficiary()": "38af3eed",
					"bids(address)": "62ea82db",
					"cancelAuction()": "8fa8b790",
					"endBlock()": "083c6323",
					"finalizeAuction()": "f77282ab",
					"highestBidder()": "91f90157",
					"highestBindingBid()": "f5b56c56",
					"ipfsHash()": "c623674f",
					"owner()": "8da5cb5b",
					"placeBid()": "ecfc7ecc",
					"startBlock()": "48cd4cb1",
					"startNewBid(uint256,uint256,uint256)": "341175d5"
				}
			},
			"storageLayout": {
				"storage": [
					{
						"astId": 3,
						"contract": "SmartContract-Auction/Auction.sol:Auction",
						"label": "owner",
						"offset": 0,
						"slot": "0",
						"type": "t_address"
					},
					{
						"astId": 5,
						"contract": "SmartContract-Auction/Auction.sol:Auction",
						"label": "beneficiary",
						"offset": 0,
						"slot": "1",
						"type": "t_address_payable"
					},
					{
						"astId": 7,
						"contract": "SmartContract-Auction/Auction.sol:Auction",
						"label": "startBlock",
						"offset": 0,
						"slot": "2",
						"type": "t_uint256"
					},
					{
						"astId": 9,
						"contract": "SmartContract-Auction/Auction.sol:Auction",
						"label": "endBlock",
						"offset": 0,
						"slot": "3",
						"type": "t_uint256"
					},
					{
						"astId": 11,
						"contract": "SmartContract-Auction/Auction.sol:Auction",
						"label": "MinimumBidValue",
						"offset": 0,
						"slot": "4",
						"type": "t_uint256"
					},
					{
						"astId": 13,
						"contract": "SmartContract-Auction/Auction.sol:Auction",
						"label": "ipfsHash",
						"offset": 0,
						"slot": "5",
						"type": "t_string_storage"
					},
					{
						"astId": 21,
						"contract": "SmartContract-Auction/Auction.sol:Auction",
						"label": "auctionState",
						"offset": 0,
						"slot": "6",
						"type": "t_enum(State)18"
					},
					{
						"astId": 23,
						"contract": "SmartContract-Auction/Auction.sol:Auction",
						"label": "highestBindingBid",
						"offset": 0,
						"slot": "7",
						"type": "t_uint256"
					},
					{
						"astId": 25,
						"contract": "SmartContract-Auction/Auction.sol:Auction",
						"label": "highestBidder",
						"offset": 0,
						"slot": "8",
						"type": "t_address_payable"
					},
					{
						"astId": 29,
						"contract": "SmartContract-Auction/Auction.sol:Auction",
						"label": "bids",
						"offset": 0,
						"slot": "9",
						"type": "t_mapping(t_address,t_uint256)"
					},
					{
						"astId": 31,
						"contract": "SmartContract-Auction/Auction.sol:Auction",
						"label": "bidIncrement",
						"offset": 0,
						"slot": "10",
						"type": "t_uint256"
					}
				],
				"types": {
					"t_address": {
						"encoding": "inplace",
						"label": "address",
						"numberOfBytes": "20"
					},
					"t_address_payable": {
						"encoding": "inplace",
						"label": "address payable",
						"numberOfBytes": "20"
					},
					"t_enum(State)18": {
						"encoding": "inplace",
						"label": "enum Auction.State",
						"numberOfBytes": "1"
					},
					"t_mapping(t_address,t_uint256)": {
						"encoding": "mapping",
						"key": "t_address",
						"label": "mapping(address => uint256)",
						"numberOfBytes": "32",
						"value": "t_uint256"
					},
					"t_string_storage": {
						"encoding": "bytes",
						"label": "string",
						"numberOfBytes": "32"
					},
					"t_uint256": {
						"encoding": "inplace",
						"label": "uint256",
						"numberOfBytes": "32"
					}
				}
			},
			"userdoc": {
				"kind": "user",
				"methods": {},
				"version": 1
			}
		}
	}
}