{
	"SmartContract-Auction/Auction.sol": {
		"Auction": {
			"abi": [
				{
					"inputs": [
						{
							"internalType": "address payable",
							"name": "_beneficiary",
							"type": "address"
						}
					],
					"stateMutability": "nonpayable",
					"type": "constructor"
				},
				{
					"inputs": [],
					"name": "MinimumBidValue",
					"outputs": [
						{
							"internalType": "uint256",
							"name": "",
							"type": "uint256"
						}
					],
					"stateMutability": "view",
					"type": "function"
				},
				{
					"inputs": [],
					"name": "auctionState",
					"outputs": [
						{
							"internalType": "enum Auction.State",
							"name": "",
							"type": "uint8"
						}
					],
					"stateMutability": "view",
					"type": "function"
				},
				{
					"inputs": [],
					"name": "beneficiary",
					"outputs": [
						{
							"internalType": "address payable",
							"name": "",
							"type": "address"
						}
					],
					"stateMutability": "view",
					"type": "function"
				},
				{
					"inputs": [
						{
							"internalType": "address",
							"name": "",
							"type": "address"
						}
					],
					"name": "bids",
					"outputs": [
						{
							"internalType": "uint256",
							"name": "",
							"type": "uint256"
						}
					],
					"stateMutability": "view",
					"type": "function"
				},
				{
					"inputs": [],
					"name": "cancelAuction",
					"outputs": [],
					"stateMutability": "nonpayable",
					"type": "function"
				},
				{
					"inputs": [],
					"name": "endBlock",
					"outputs": [
						{
							"internalType": "uint256",
							"name": "",
							"type": "uint256"
						}
					],
					"stateMutability": "view",
					"type": "function"
				},
				{
					"inputs": [],
					"name": "finalizeAuction",
					"outputs": [],
					"stateMutability": "nonpayable",
					"type": "function"
				},
				{
					"inputs": [],
					"name": "highestBidder",
					"outputs": [
						{
							"internalType": "address payable",
							"name": "",
							"type": "address"
						}
					],
					"stateMutability": "view",
					"type": "function"
				},
				{
					"inputs": [],
					"name": "highestBindingBid",
					"outputs": [
						{
							"internalType": "uint256",
							"name": "",
							"type": "uint256"
						}
					],
					"stateMutability": "view",
					"type": "function"
				},
				{
					"inputs": [],
					"name": "ipfsHash",
					"outputs": [
						{
							"internalType": "string",
							"name": "",
							"type": "string"
						}
					],
					"stateMutability": "view",
					"type": "function"
				},
				{
					"inputs": [],
					"name": "owner",
					"outputs": [
						{
							"internalType": "address",
							"name": "",
							"type": "address"
						}
					],
					"stateMutability": "view",
					"type": "function"
				},
				{
					"inputs": [],
					"name": "placeBid",
					"outputs": [],
					"stateMutability": "payable",
					"type": "function"
				},
				{
					"inputs": [],
					"name": "startBlock",
					"outputs": [
						{
							"internalType": "uint256",
							"name": "",
							"type": "uint256"
						}
					],
					"stateMutability": "view",
					"type": "function"
				},
				{
					"inputs": [
						{
							"internalType": "uint256",
							"name": "blocksGenerated",
							"type": "uint256"
						},
						{
							"internalType": "uint256",
							"name": "BidIncrementWei",
							"type": "uint256"
						},
						{
							"internalType": "uint256",
							"name": "_MinimumBidValue",
							"type": "uint256"
						}
					],
					"name": "startNewBid",
					"outputs": [],
					"stateMutability": "nonpayable",
					"type": "function"
				}
			],
			"devdoc": {
				"kind": "dev",
				"methods": {},
				"version": 1
			},
			"evm": {
				"assembly": "    /* \"SmartContract-Auction/Auction.sol\":68:4217  contract Auction {... */\n  mstore(0x40, 0x80)\n    /* \"SmartContract-Auction/Auction.sol\":695:890  constructor(address payable _beneficiary){... */\n  callvalue\n  dup1\n  iszero\n  tag_1\n  jumpi\n  0x00\n  dup1\n  revert\ntag_1:\n  pop\n  mload(0x40)\n  sub(codesize, bytecodeSize)\n  dup1\n  bytecodeSize\n  dup4\n  codecopy\n  dup2\n  dup2\n  add\n  0x40\n  mstore\n  dup2\n  add\n  swap1\n  tag_2\n  swap2\n  swap1\n  tag_3\n  jump\t// in\ntag_2:\n    /* \"SmartContract-Auction/Auction.sol\":768:780  _beneficiary */\n  dup1\n    /* \"SmartContract-Auction/Auction.sol\":754:780  msg.sender != _beneficiary */\n  0xffffffffffffffffffffffffffffffffffffffff\n  and\n    /* \"SmartContract-Auction/Auction.sol\":754:764  msg.sender */\n  caller\n    /* \"SmartContract-Auction/Auction.sol\":754:780  msg.sender != _beneficiary */\n  0xffffffffffffffffffffffffffffffffffffffff\n  and\n  eq\n  iszero\n    /* \"SmartContract-Auction/Auction.sol\":746:781  require(msg.sender != _beneficiary) */\n  tag_6\n  jumpi\n  0x00\n  dup1\n  revert\ntag_6:\n    /* \"SmartContract-Auction/Auction.sol\":799:809  msg.sender */\n  caller\n    /* \"SmartContract-Auction/Auction.sol\":791:796  owner */\n  0x00\n  dup1\n    /* \"SmartContract-Auction/Auction.sol\":791:809  owner = msg.sender */\n  0x0100\n  exp\n  dup2\n  sload\n  dup2\n  0xffffffffffffffffffffffffffffffffffffffff\n  mul\n  not\n  and\n  swap1\n  dup4\n  0xffffffffffffffffffffffffffffffffffffffff\n  and\n  mul\n  or\n  swap1\n  sstore\n  pop\n    /* \"SmartContract-Auction/Auction.sol\":833:845  _beneficiary */\n  dup1\n    /* \"SmartContract-Auction/Auction.sol\":819:830  beneficiary */\n  0x01\n  0x00\n    /* \"SmartContract-Auction/Auction.sol\":819:845  beneficiary = _beneficiary */\n  0x0100\n  exp\n  dup2\n  sload\n  dup2\n  0xffffffffffffffffffffffffffffffffffffffff\n  mul\n  not\n  and\n  swap1\n  dup4\n  0xffffffffffffffffffffffffffffffffffffffff\n  and\n  mul\n  or\n  swap1\n  sstore\n  pop\n    /* \"SmartContract-Auction/Auction.sol\":870:883  State.Started */\n  0x00\n    /* \"SmartContract-Auction/Auction.sol\":855:867  auctionState */\n  0x06\n  0x00\n    /* \"SmartContract-Auction/Auction.sol\":855:883  auctionState = State.Started */\n  0x0100\n  exp\n  dup2\n  sload\n  dup2\n  0xff\n  mul\n  not\n  and\n  swap1\n  dup4\n  0x03\n  dup2\n  gt\n  iszero\n  tag_7\n  jumpi\n  tag_8\n  tag_9\n  jump\t// in\ntag_8:\ntag_7:\n  mul\n  or\n  swap1\n  sstore\n  pop\n    /* \"SmartContract-Auction/Auction.sol\":695:890  constructor(address payable _beneficiary){... */\n  pop\n    /* \"SmartContract-Auction/Auction.sol\":68:4217  contract Auction {... */\n  jump(tag_10)\n    /* \"#utility.yul\":7:166   */\ntag_12:\n    /* \"#utility.yul\":72:77   */\n  0x00\n    /* \"#utility.yul\":103:109   */\n  dup2\n    /* \"#utility.yul\":97:110   */\n  mload\n    /* \"#utility.yul\":88:110   */\n  swap1\n  pop\n    /* \"#utility.yul\":119:160   */\n  tag_14\n    /* \"#utility.yul\":154:159   */\n  dup2\n    /* \"#utility.yul\":119:160   */\n  tag_15\n  jump\t// in\ntag_14:\n    /* \"#utility.yul\":7:166   */\n  swap3\n  swap2\n  pop\n  pop\n  jump\t// out\n    /* \"#utility.yul\":172:539   */\ntag_3:\n    /* \"#utility.yul\":250:256   */\n  0x00\n    /* \"#utility.yul\":299:301   */\n  0x20\n    /* \"#utility.yul\":287:296   */\n  dup3\n    /* \"#utility.yul\":278:285   */\n  dup5\n    /* \"#utility.yul\":274:297   */\n  sub\n    /* \"#utility.yul\":270:302   */\n  slt\n    /* \"#utility.yul\":267:386   */\n  iszero\n  tag_17\n  jumpi\n    /* \"#utility.yul\":305:384   */\n  tag_18\n  tag_19\n  jump\t// in\ntag_18:\n    /* \"#utility.yul\":267:386   */\ntag_17:\n    /* \"#utility.yul\":425:426   */\n  0x00\n    /* \"#utility.yul\":450:522   */\n  tag_20\n    /* \"#utility.yul\":514:521   */\n  dup5\n    /* \"#utility.yul\":505:511   */\n  dup3\n    /* \"#utility.yul\":494:503   */\n  dup6\n    /* \"#utility.yul\":490:512   */\n  add\n    /* \"#utility.yul\":450:522   */\n  tag_12\n  jump\t// in\ntag_20:\n    /* \"#utility.yul\":440:522   */\n  swap2\n  pop\n    /* \"#utility.yul\":396:532   */\n  pop\n    /* \"#utility.yul\":172:539   */\n  swap3\n  swap2\n  pop\n  pop\n  jump\t// out\n    /* \"#utility.yul\":626:730   */\ntag_23:\n    /* \"#utility.yul\":671:678   */\n  0x00\n    /* \"#utility.yul\":700:724   */\n  tag_25\n    /* \"#utility.yul\":718:723   */\n  dup3\n    /* \"#utility.yul\":700:724   */\n  tag_26\n  jump\t// in\ntag_25:\n    /* \"#utility.yul\":689:724   */\n  swap1\n  pop\n    /* \"#utility.yul\":626:730   */\n  swap2\n  swap1\n  pop\n  jump\t// out\n    /* \"#utility.yul\":736:862   */\ntag_26:\n    /* \"#utility.yul\":773:780   */\n  0x00\n    /* \"#utility.yul\":813:855   */\n  0xffffffffffffffffffffffffffffffffffffffff\n    /* \"#utility.yul\":806:811   */\n  dup3\n    /* \"#utility.yul\":802:856   */\n  and\n    /* \"#utility.yul\":791:856   */\n  swap1\n  pop\n    /* \"#utility.yul\":736:862   */\n  swap2\n  swap1\n  pop\n  jump\t// out\n    /* \"#utility.yul\":868:1048   */\ntag_9:\n    /* \"#utility.yul\":916:993   */\n  0x4e487b7100000000000000000000000000000000000000000000000000000000\n    /* \"#utility.yul\":913:914   */\n  0x00\n    /* \"#utility.yul\":906:994   */\n  mstore\n    /* \"#utility.yul\":1013:1017   */\n  0x21\n    /* \"#utility.yul\":1010:1011   */\n  0x04\n    /* \"#utility.yul\":1003:1018   */\n  mstore\n    /* \"#utility.yul\":1037:1041   */\n  0x24\n    /* \"#utility.yul\":1034:1035   */\n  0x00\n    /* \"#utility.yul\":1027:1042   */\n  revert\n    /* \"#utility.yul\":1177:1294   */\ntag_19:\n    /* \"#utility.yul\":1286:1287   */\n  0x00\n    /* \"#utility.yul\":1283:1284   */\n  dup1\n    /* \"#utility.yul\":1276:1288   */\n  revert\n    /* \"#utility.yul\":1300:1438   */\ntag_15:\n    /* \"#utility.yul\":1381:1413   */\n  tag_33\n    /* \"#utility.yul\":1407:1412   */\n  dup2\n    /* \"#utility.yul\":1381:1413   */\n  tag_23\n  jump\t// in\ntag_33:\n    /* \"#utility.yul\":1374:1379   */\n  dup2\n    /* \"#utility.yul\":1371:1414   */\n  eq\n    /* \"#utility.yul\":1361:1432   */\n  tag_34\n  jumpi\n    /* \"#utility.yul\":1428:1429   */\n  0x00\n    /* \"#utility.yul\":1425:1426   */\n  dup1\n    /* \"#utility.yul\":1418:1430   */\n  revert\n    /* \"#utility.yul\":1361:1432   */\ntag_34:\n    /* \"#utility.yul\":1300:1438   */\n  pop\n  jump\t// out\n    /* \"SmartContract-Auction/Auction.sol\":68:4217  contract Auction {... */\ntag_10:\n  dataSize(sub_0)\n  dup1\n  dataOffset(sub_0)\n  0x00\n  codecopy\n  0x00\n  return\nstop\n\nsub_0: assembly {\n        /* \"SmartContract-Auction/Auction.sol\":68:4217  contract Auction {... */\n      mstore(0x40, 0x80)\n      jumpi(tag_1, lt(calldatasize, 0x04))\n      shr(0xe0, calldataload(0x00))\n      dup1\n      0x8fa8b790\n      gt\n      tag_16\n      jumpi\n      dup1\n      0xd5f84189\n      gt\n      tag_17\n      jumpi\n      dup1\n      0xd5f84189\n      eq\n      tag_12\n      jumpi\n      dup1\n      0xecfc7ecc\n      eq\n      tag_13\n      jumpi\n      dup1\n      0xf5b56c56\n      eq\n      tag_14\n      jumpi\n      dup1\n      0xf77282ab\n      eq\n      tag_15\n      jumpi\n      jump(tag_1)\n    tag_17:\n      dup1\n      0x8fa8b790\n      eq\n      tag_9\n      jumpi\n      dup1\n      0x91f90157\n      eq\n      tag_10\n      jumpi\n      dup1\n      0xc623674f\n      eq\n      tag_11\n      jumpi\n      jump(tag_1)\n    tag_16:\n      dup1\n      0x48cd4cb1\n      gt\n      tag_18\n      jumpi\n      dup1\n      0x48cd4cb1\n      eq\n      tag_5\n      jumpi\n      dup1\n      0x62ea82db\n      eq\n      tag_6\n      jumpi\n      dup1\n      0x7fb45099\n      eq\n      tag_7\n      jumpi\n      dup1\n      0x8da5cb5b\n      eq\n      tag_8\n      jumpi\n      jump(tag_1)\n    tag_18:\n      dup1\n      0x083c6323\n      eq\n      tag_2\n      jumpi\n      dup1\n      0x341175d5\n      eq\n      tag_3\n      jumpi\n      dup1\n      0x38af3eed\n      eq\n      tag_4\n      jumpi\n    tag_1:\n      0x00\n      dup1\n      revert\n        /* \"SmartContract-Auction/Auction.sol\":284:304  uint public endBlock */\n    tag_2:\n      callvalue\n      dup1\n      iszero\n      tag_19\n      jumpi\n      0x00\n      dup1\n      revert\n    tag_19:\n      pop\n      tag_20\n      tag_21\n      jump\t// in\n    tag_20:\n      mload(0x40)\n      tag_22\n      swap2\n      swap1\n      tag_23\n      jump\t// in\n    tag_22:\n      mload(0x40)\n      dup1\n      swap2\n      sub\n      swap1\n      return\n        /* \"SmartContract-Auction/Auction.sol\":1229:1580  function startNewBid(uint blocksGenerated, uint BidIncrementWei, uint _MinimumBidValue) public onlyOwner NotRunning{... */\n    tag_3:\n      callvalue\n      dup1\n      iszero\n      tag_24\n      jumpi\n      0x00\n      dup1\n      revert\n    tag_24:\n      pop\n      tag_25\n      0x04\n      dup1\n      calldatasize\n      sub\n      dup2\n      add\n      swap1\n      tag_26\n      swap2\n      swap1\n      tag_27\n      jump\t// in\n    tag_26:\n      tag_28\n      jump\t// in\n    tag_25:\n      stop\n        /* \"SmartContract-Auction/Auction.sol\":117:151  address payable public beneficiary */\n    tag_4:\n      callvalue\n      dup1\n      iszero\n      tag_29\n      jumpi\n      0x00\n      dup1\n      revert\n    tag_29:\n      pop\n      tag_30\n      tag_31\n      jump\t// in\n    tag_30:\n      mload(0x40)\n      tag_32\n      swap2\n      swap1\n      tag_33\n      jump\t// in\n    tag_32:\n      mload(0x40)\n      dup1\n      swap2\n      sub\n      swap1\n      return\n        /* \"SmartContract-Auction/Auction.sol\":256:278  uint public startBlock */\n    tag_5:\n      callvalue\n      dup1\n      iszero\n      tag_34\n      jumpi\n      0x00\n      dup1\n      revert\n    tag_34:\n      pop\n      tag_35\n      tag_36\n      jump\t// in\n    tag_35:\n      mload(0x40)\n      tag_37\n      swap2\n      swap1\n      tag_23\n      jump\t// in\n    tag_37:\n      mload(0x40)\n      dup1\n      swap2\n      sub\n      swap1\n      return\n        /* \"SmartContract-Auction/Auction.sol\":571:607  mapping(address => uint) public bids */\n    tag_6:\n      callvalue\n      dup1\n      iszero\n      tag_38\n      jumpi\n      0x00\n      dup1\n      revert\n    tag_38:\n      pop\n      tag_39\n      0x04\n      dup1\n      calldatasize\n      sub\n      dup2\n      add\n      swap1\n      tag_40\n      swap2\n      swap1\n      tag_41\n      jump\t// in\n    tag_40:\n      tag_42\n      jump\t// in\n    tag_39:\n      mload(0x40)\n      tag_43\n      swap2\n      swap1\n      tag_23\n      jump\t// in\n    tag_43:\n      mload(0x40)\n      dup1\n      swap2\n      sub\n      swap1\n      return\n        /* \"SmartContract-Auction/Auction.sol\":461:486  State public auctionState */\n    tag_7:\n      callvalue\n      dup1\n      iszero\n      tag_44\n      jumpi\n      0x00\n      dup1\n      revert\n    tag_44:\n      pop\n      tag_45\n      tag_46\n      jump\t// in\n    tag_45:\n      mload(0x40)\n      tag_47\n      swap2\n      swap1\n      tag_48\n      jump\t// in\n    tag_47:\n      mload(0x40)\n      dup1\n      swap2\n      sub\n      swap1\n      return\n        /* \"SmartContract-Auction/Auction.sol\":91:111  address public owner */\n    tag_8:\n      callvalue\n      dup1\n      iszero\n      tag_49\n      jumpi\n      0x00\n      dup1\n      revert\n    tag_49:\n      pop\n      tag_50\n      tag_51\n      jump\t// in\n    tag_50:\n      mload(0x40)\n      tag_52\n      swap2\n      swap1\n      tag_53\n      jump\t// in\n    tag_52:\n      mload(0x40)\n      dup1\n      swap2\n      sub\n      swap1\n      return\n        /* \"SmartContract-Auction/Auction.sol\":1743:1832  function cancelAuction() public onlyOwner {... */\n    tag_9:\n      callvalue\n      dup1\n      iszero\n      tag_54\n      jumpi\n      0x00\n      dup1\n      revert\n    tag_54:\n      pop\n      tag_55\n      tag_56\n      jump\t// in\n    tag_55:\n      stop\n        /* \"SmartContract-Auction/Auction.sol\":528:564  address payable public highestBidder */\n    tag_10:\n      callvalue\n      dup1\n      iszero\n      tag_57\n      jumpi\n      0x00\n      dup1\n      revert\n    tag_57:\n      pop\n      tag_58\n      tag_59\n      jump\t// in\n    tag_58:\n      mload(0x40)\n      tag_60\n      swap2\n      swap1\n      tag_33\n      jump\t// in\n    tag_60:\n      mload(0x40)\n      dup1\n      swap2\n      sub\n      swap1\n      return\n        /* \"SmartContract-Auction/Auction.sol\":343:365  string public ipfsHash */\n    tag_11:\n      callvalue\n      dup1\n      iszero\n      tag_61\n      jumpi\n      0x00\n      dup1\n      revert\n    tag_61:\n      pop\n      tag_62\n      tag_63\n      jump\t// in\n    tag_62:\n      mload(0x40)\n      tag_64\n      swap2\n      swap1\n      tag_65\n      jump\t// in\n    tag_64:\n      mload(0x40)\n      dup1\n      swap2\n      sub\n      swap1\n      return\n        /* \"SmartContract-Auction/Auction.sol\":310:337  uint public MinimumBidValue */\n    tag_12:\n      callvalue\n      dup1\n      iszero\n      tag_66\n      jumpi\n      0x00\n      dup1\n      revert\n    tag_66:\n      pop\n      tag_67\n      tag_68\n      jump\t// in\n    tag_67:\n      mload(0x40)\n      tag_69\n      swap2\n      swap1\n      tag_23\n      jump\t// in\n    tag_69:\n      mload(0x40)\n      dup1\n      swap2\n      sub\n      swap1\n      return\n        /* \"SmartContract-Auction/Auction.sol\":1900:2558  function placeBid() public payable notOwnerOrBeneficiary afterStart beforeEnd{... */\n    tag_13:\n      tag_70\n      tag_71\n      jump\t// in\n    tag_70:\n      stop\n        /* \"SmartContract-Auction/Auction.sol\":493:522  uint public highestBindingBid */\n    tag_14:\n      callvalue\n      dup1\n      iszero\n      tag_72\n      jumpi\n      0x00\n      dup1\n      revert\n    tag_72:\n      pop\n      tag_73\n      tag_74\n      jump\t// in\n    tag_73:\n      mload(0x40)\n      tag_75\n      swap2\n      swap1\n      tag_23\n      jump\t// in\n    tag_75:\n      mload(0x40)\n      dup1\n      swap2\n      sub\n      swap1\n      return\n        /* \"SmartContract-Auction/Auction.sol\":2564:3594  function finalizeAuction() public{... */\n    tag_15:\n      callvalue\n      dup1\n      iszero\n      tag_76\n      jumpi\n      0x00\n      dup1\n      revert\n    tag_76:\n      pop\n      tag_77\n      tag_78\n      jump\t// in\n    tag_77:\n      stop\n        /* \"SmartContract-Auction/Auction.sol\":284:304  uint public endBlock */\n    tag_21:\n      sload(0x03)\n      dup2\n      jump\t// out\n        /* \"SmartContract-Auction/Auction.sol\":1229:1580  function startNewBid(uint blocksGenerated, uint BidIncrementWei, uint _MinimumBidValue) public onlyOwner NotRunning{... */\n    tag_28:\n        /* \"SmartContract-Auction/Auction.sol\":4098:4103  owner */\n      0x00\n      dup1\n      sload\n      swap1\n      0x0100\n      exp\n      swap1\n      div\n      0xffffffffffffffffffffffffffffffffffffffff\n      and\n        /* \"SmartContract-Auction/Auction.sol\":4084:4103  msg.sender == owner */\n      0xffffffffffffffffffffffffffffffffffffffff\n      and\n        /* \"SmartContract-Auction/Auction.sol\":4084:4094  msg.sender */\n      caller\n        /* \"SmartContract-Auction/Auction.sol\":4084:4103  msg.sender == owner */\n      0xffffffffffffffffffffffffffffffffffffffff\n      and\n      eq\n        /* \"SmartContract-Auction/Auction.sol\":4076:4104  require(msg.sender == owner) */\n      tag_80\n      jumpi\n      0x00\n      dup1\n      revert\n    tag_80:\n        /* \"SmartContract-Auction/Auction.sol\":4008:4021  State.Running */\n      0x01\n        /* \"SmartContract-Auction/Auction.sol\":3992:4021  auctionState != State.Running */\n      0x03\n      dup2\n      gt\n      iszero\n      tag_82\n      jumpi\n      tag_83\n      tag_84\n      jump\t// in\n    tag_83:\n    tag_82:\n        /* \"SmartContract-Auction/Auction.sol\":3992:4004  auctionState */\n      0x06\n      0x00\n      swap1\n      sload\n      swap1\n      0x0100\n      exp\n      swap1\n      div\n      0xff\n      and\n        /* \"SmartContract-Auction/Auction.sol\":3992:4021  auctionState != State.Running */\n      0x03\n      dup2\n      gt\n      iszero\n      tag_85\n      jumpi\n      tag_86\n      tag_84\n      jump\t// in\n    tag_86:\n    tag_85:\n      eq\n      iszero\n        /* \"SmartContract-Auction/Auction.sol\":3983:4022  require (auctionState != State.Running) */\n      tag_87\n      jumpi\n      0x00\n      dup1\n      revert\n    tag_87:\n        /* \"SmartContract-Auction/Auction.sol\":1367:1379  block.number */\n      number\n        /* \"SmartContract-Auction/Auction.sol\":1354:1364  startBlock */\n      0x02\n        /* \"SmartContract-Auction/Auction.sol\":1354:1379  startBlock = block.number */\n      dup2\n      swap1\n      sstore\n      pop\n        /* \"SmartContract-Auction/Auction.sol\":1413:1428  blocksGenerated */\n      dup3\n        /* \"SmartContract-Auction/Auction.sol\":1400:1410  startBlock */\n      sload(0x02)\n        /* \"SmartContract-Auction/Auction.sol\":1400:1428  startBlock + blocksGenerated */\n      tag_89\n      swap2\n      swap1\n      tag_90\n      jump\t// in\n    tag_89:\n        /* \"SmartContract-Auction/Auction.sol\":1389:1397  endBlock */\n      0x03\n        /* \"SmartContract-Auction/Auction.sol\":1389:1428  endBlock = startBlock + blocksGenerated */\n      dup2\n      swap1\n      sstore\n      pop\n        /* \"SmartContract-Auction/Auction.sol\":1453:1466  State.Running */\n      0x01\n        /* \"SmartContract-Auction/Auction.sol\":1438:1450  auctionState */\n      0x06\n      0x00\n        /* \"SmartContract-Auction/Auction.sol\":1438:1466  auctionState = State.Running */\n      0x0100\n      exp\n      dup2\n      sload\n      dup2\n      0xff\n      mul\n      not\n      and\n      swap1\n      dup4\n      0x03\n      dup2\n      gt\n      iszero\n      tag_91\n      jumpi\n      tag_92\n      tag_84\n      jump\t// in\n    tag_92:\n    tag_91:\n      mul\n      or\n      swap1\n      sstore\n      pop\n        /* \"SmartContract-Auction/Auction.sol\":1476:1489  ipfsHash = \"\" */\n      mload(0x40)\n      dup1\n      0x20\n      add\n      0x40\n      mstore\n      dup1\n      0x00\n      dup2\n      mstore\n      pop\n        /* \"SmartContract-Auction/Auction.sol\":1476:1484  ipfsHash */\n      0x05\n        /* \"SmartContract-Auction/Auction.sol\":1476:1489  ipfsHash = \"\" */\n      swap1\n      dup1\n      mload\n      swap1\n      0x20\n      add\n      swap1\n      tag_93\n      swap3\n      swap2\n      swap1\n      tag_94\n      jump\t// in\n    tag_93:\n      pop\n        /* \"SmartContract-Auction/Auction.sol\":1514:1529  BidIncrementWei */\n      dup2\n        /* \"SmartContract-Auction/Auction.sol\":1499:1511  bidIncrement */\n      0x0a\n        /* \"SmartContract-Auction/Auction.sol\":1499:1529  bidIncrement = BidIncrementWei */\n      dup2\n      swap1\n      sstore\n      pop\n        /* \"SmartContract-Auction/Auction.sol\":1557:1573  _MinimumBidValue */\n      dup1\n        /* \"SmartContract-Auction/Auction.sol\":1539:1554  MinimumBidValue */\n      0x04\n        /* \"SmartContract-Auction/Auction.sol\":1539:1573  MinimumBidValue = _MinimumBidValue */\n      dup2\n      swap1\n      sstore\n      pop\n        /* \"SmartContract-Auction/Auction.sol\":1229:1580  function startNewBid(uint blocksGenerated, uint BidIncrementWei, uint _MinimumBidValue) public onlyOwner NotRunning{... */\n      pop\n      pop\n      pop\n      jump\t// out\n        /* \"SmartContract-Auction/Auction.sol\":117:151  address payable public beneficiary */\n    tag_31:\n      0x01\n      0x00\n      swap1\n      sload\n      swap1\n      0x0100\n      exp\n      swap1\n      div\n      0xffffffffffffffffffffffffffffffffffffffff\n      and\n      dup2\n      jump\t// out\n        /* \"SmartContract-Auction/Auction.sol\":256:278  uint public startBlock */\n    tag_36:\n      sload(0x02)\n      dup2\n      jump\t// out\n        /* \"SmartContract-Auction/Auction.sol\":571:607  mapping(address => uint) public bids */\n    tag_42:\n      mstore(0x20, 0x09)\n      dup1\n      0x00\n      mstore\n      keccak256(0x00, 0x40)\n      0x00\n      swap2\n      pop\n      swap1\n      pop\n      sload\n      dup2\n      jump\t// out\n        /* \"SmartContract-Auction/Auction.sol\":461:486  State public auctionState */\n    tag_46:\n      0x06\n      0x00\n      swap1\n      sload\n      swap1\n      0x0100\n      exp\n      swap1\n      div\n      0xff\n      and\n      dup2\n      jump\t// out\n        /* \"SmartContract-Auction/Auction.sol\":91:111  address public owner */\n    tag_51:\n      0x00\n      dup1\n      sload\n      swap1\n      0x0100\n      exp\n      swap1\n      div\n      0xffffffffffffffffffffffffffffffffffffffff\n      and\n      dup2\n      jump\t// out\n        /* \"SmartContract-Auction/Auction.sol\":1743:1832  function cancelAuction() public onlyOwner {... */\n    tag_56:\n        /* \"SmartContract-Auction/Auction.sol\":4098:4103  owner */\n      0x00\n      dup1\n      sload\n      swap1\n      0x0100\n      exp\n      swap1\n      div\n      0xffffffffffffffffffffffffffffffffffffffff\n      and\n        /* \"SmartContract-Auction/Auction.sol\":4084:4103  msg.sender == owner */\n      0xffffffffffffffffffffffffffffffffffffffff\n      and\n        /* \"SmartContract-Auction/Auction.sol\":4084:4094  msg.sender */\n      caller\n        /* \"SmartContract-Auction/Auction.sol\":4084:4103  msg.sender == owner */\n      0xffffffffffffffffffffffffffffffffffffffff\n      and\n      eq\n        /* \"SmartContract-Auction/Auction.sol\":4076:4104  require(msg.sender == owner) */\n      tag_96\n      jumpi\n      0x00\n      dup1\n      revert\n    tag_96:\n        /* \"SmartContract-Auction/Auction.sol\":1810:1824  State.Canceled */\n      0x03\n        /* \"SmartContract-Auction/Auction.sol\":1795:1807  auctionState */\n      0x06\n      0x00\n        /* \"SmartContract-Auction/Auction.sol\":1795:1824  auctionState = State.Canceled */\n      0x0100\n      exp\n      dup2\n      sload\n      dup2\n      0xff\n      mul\n      not\n      and\n      swap1\n      dup4\n      0x03\n      dup2\n      gt\n      iszero\n      tag_98\n      jumpi\n      tag_99\n      tag_84\n      jump\t// in\n    tag_99:\n    tag_98:\n      mul\n      or\n      swap1\n      sstore\n      pop\n        /* \"SmartContract-Auction/Auction.sol\":1743:1832  function cancelAuction() public onlyOwner {... */\n      jump\t// out\n        /* \"SmartContract-Auction/Auction.sol\":528:564  address payable public highestBidder */\n    tag_59:\n      0x08\n      0x00\n      swap1\n      sload\n      swap1\n      0x0100\n      exp\n      swap1\n      div\n      0xffffffffffffffffffffffffffffffffffffffff\n      and\n      dup2\n      jump\t// out\n        /* \"SmartContract-Auction/Auction.sol\":343:365  string public ipfsHash */\n    tag_63:\n      0x05\n      dup1\n      sload\n      tag_100\n      swap1\n      tag_101\n      jump\t// in\n    tag_100:\n      dup1\n      0x1f\n      add\n      0x20\n      dup1\n      swap2\n      div\n      mul\n      0x20\n      add\n      mload(0x40)\n      swap1\n      dup2\n      add\n      0x40\n      mstore\n      dup1\n      swap3\n      swap2\n      swap1\n      dup2\n      dup2\n      mstore\n      0x20\n      add\n      dup3\n      dup1\n      sload\n      tag_102\n      swap1\n      tag_101\n      jump\t// in\n    tag_102:\n      dup1\n      iszero\n      tag_103\n      jumpi\n      dup1\n      0x1f\n      lt\n      tag_104\n      jumpi\n      0x0100\n      dup1\n      dup4\n      sload\n      div\n      mul\n      dup4\n      mstore\n      swap2\n      0x20\n      add\n      swap2\n      jump(tag_103)\n    tag_104:\n      dup3\n      add\n      swap2\n      swap1\n      0x00\n      mstore\n      keccak256(0x00, 0x20)\n      swap1\n    tag_105:\n      dup2\n      sload\n      dup2\n      mstore\n      swap1\n      0x01\n      add\n      swap1\n      0x20\n      add\n      dup1\n      dup4\n      gt\n      tag_105\n      jumpi\n      dup3\n      swap1\n      sub\n      0x1f\n      and\n      dup3\n      add\n      swap2\n    tag_103:\n      pop\n      pop\n      pop\n      pop\n      pop\n      dup2\n      jump\t// out\n        /* \"SmartContract-Auction/Auction.sol\":310:337  uint public MinimumBidValue */\n    tag_68:\n      sload(0x04)\n      dup2\n      jump\t// out\n        /* \"SmartContract-Auction/Auction.sol\":1900:2558  function placeBid() public payable notOwnerOrBeneficiary afterStart beforeEnd{... */\n    tag_71:\n        /* \"SmartContract-Auction/Auction.sol\":3893:3898  owner */\n      0x00\n      dup1\n      sload\n      swap1\n      0x0100\n      exp\n      swap1\n      div\n      0xffffffffffffffffffffffffffffffffffffffff\n      and\n        /* \"SmartContract-Auction/Auction.sol\":3879:3898  msg.sender != owner */\n      0xffffffffffffffffffffffffffffffffffffffff\n      and\n        /* \"SmartContract-Auction/Auction.sol\":3879:3889  msg.sender */\n      caller\n        /* \"SmartContract-Auction/Auction.sol\":3879:3898  msg.sender != owner */\n      0xffffffffffffffffffffffffffffffffffffffff\n      and\n      eq\n      iszero\n        /* \"SmartContract-Auction/Auction.sol\":3879:3927  msg.sender != owner && msg.sender != beneficiary */\n      dup1\n      iszero\n      tag_107\n      jumpi\n      pop\n        /* \"SmartContract-Auction/Auction.sol\":3916:3927  beneficiary */\n      0x01\n      0x00\n      swap1\n      sload\n      swap1\n      0x0100\n      exp\n      swap1\n      div\n      0xffffffffffffffffffffffffffffffffffffffff\n      and\n        /* \"SmartContract-Auction/Auction.sol\":3902:3927  msg.sender != beneficiary */\n      0xffffffffffffffffffffffffffffffffffffffff\n      and\n        /* \"SmartContract-Auction/Auction.sol\":3902:3912  msg.sender */\n      caller\n        /* \"SmartContract-Auction/Auction.sol\":3902:3927  msg.sender != beneficiary */\n      0xffffffffffffffffffffffffffffffffffffffff\n      and\n      eq\n      iszero\n        /* \"SmartContract-Auction/Auction.sol\":3879:3927  msg.sender != owner && msg.sender != beneficiary */\n    tag_107:\n        /* \"SmartContract-Auction/Auction.sol\":3871:3928  require(msg.sender != owner && msg.sender != beneficiary) */\n      tag_108\n      jumpi\n      0x00\n      dup1\n      revert\n    tag_108:\n        /* \"SmartContract-Auction/Auction.sol\":3655:3665  startBlock */\n      sload(0x02)\n        /* \"SmartContract-Auction/Auction.sol\":3639:3651  block.number */\n      number\n        /* \"SmartContract-Auction/Auction.sol\":3639:3665  block.number >= startBlock */\n      lt\n      iszero\n        /* \"SmartContract-Auction/Auction.sol\":3631:3666  require(block.number >= startBlock) */\n      tag_110\n      jumpi\n      0x00\n      dup1\n      revert\n    tag_110:\n        /* \"SmartContract-Auction/Auction.sol\":3744:3752  endBlock */\n      sload(0x03)\n        /* \"SmartContract-Auction/Auction.sol\":3728:3740  block.number */\n      number\n        /* \"SmartContract-Auction/Auction.sol\":3728:3752  block.number <= endBlock */\n      gt\n      iszero\n        /* \"SmartContract-Auction/Auction.sol\":3720:3753  require(block.number <= endBlock) */\n      tag_112\n      jumpi\n      0x00\n      dup1\n      revert\n    tag_112:\n        /* \"SmartContract-Auction/Auction.sol\":2011:2024  State.Running */\n      0x01\n        /* \"SmartContract-Auction/Auction.sol\":1995:2024  auctionState == State.Running */\n      0x03\n      dup2\n      gt\n      iszero\n      tag_114\n      jumpi\n      tag_115\n      tag_84\n      jump\t// in\n    tag_115:\n    tag_114:\n        /* \"SmartContract-Auction/Auction.sol\":1995:2007  auctionState */\n      0x06\n      0x00\n      swap1\n      sload\n      swap1\n      0x0100\n      exp\n      swap1\n      div\n      0xff\n      and\n        /* \"SmartContract-Auction/Auction.sol\":1995:2024  auctionState == State.Running */\n      0x03\n      dup2\n      gt\n      iszero\n      tag_116\n      jumpi\n      tag_117\n      tag_84\n      jump\t// in\n    tag_117:\n    tag_116:\n      eq\n        /* \"SmartContract-Auction/Auction.sol\":1987:2064  require(auctionState == State.Running, \"Please wait until the auction start\") */\n      tag_118\n      jumpi\n      mload(0x40)\n      0x08c379a000000000000000000000000000000000000000000000000000000000\n      dup2\n      mstore\n      0x04\n      add\n      tag_119\n      swap1\n      tag_120\n      jump\t// in\n    tag_119:\n      mload(0x40)\n      dup1\n      swap2\n      sub\n      swap1\n      revert\n    tag_118:\n        /* \"SmartContract-Auction/Auction.sol\":2095:2110  MinimumBidValue */\n      sload(0x04)\n        /* \"SmartContract-Auction/Auction.sol\":2082:2091  msg.value */\n      callvalue\n        /* \"SmartContract-Auction/Auction.sol\":2082:2110  msg.value >= MinimumBidValue */\n      lt\n      iszero\n        /* \"SmartContract-Auction/Auction.sol\":2074:2111  require(msg.value >= MinimumBidValue) */\n      tag_121\n      jumpi\n      0x00\n      dup1\n      revert\n    tag_121:\n        /* \"SmartContract-Auction/Auction.sol\":2122:2137  uint currentBid */\n      0x00\n        /* \"SmartContract-Auction/Auction.sol\":2159:2168  msg.value */\n      callvalue\n        /* \"SmartContract-Auction/Auction.sol\":2140:2144  bids */\n      0x09\n        /* \"SmartContract-Auction/Auction.sol\":2140:2156  bids[msg.sender] */\n      0x00\n        /* \"SmartContract-Auction/Auction.sol\":2145:2155  msg.sender */\n      caller\n        /* \"SmartContract-Auction/Auction.sol\":2140:2156  bids[msg.sender] */\n      0xffffffffffffffffffffffffffffffffffffffff\n      and\n      0xffffffffffffffffffffffffffffffffffffffff\n      and\n      dup2\n      mstore\n      0x20\n      add\n      swap1\n      dup2\n      mstore\n      0x20\n      add\n      0x00\n      keccak256\n      sload\n        /* \"SmartContract-Auction/Auction.sol\":2140:2168  bids[msg.sender] + msg.value */\n      tag_122\n      swap2\n      swap1\n      tag_90\n      jump\t// in\n    tag_122:\n        /* \"SmartContract-Auction/Auction.sol\":2122:2168  uint currentBid = bids[msg.sender] + msg.value */\n      swap1\n      pop\n        /* \"SmartContract-Auction/Auction.sol\":2201:2218  highestBindingBid */\n      sload(0x07)\n        /* \"SmartContract-Auction/Auction.sol\":2187:2197  currentBid */\n      dup2\n        /* \"SmartContract-Auction/Auction.sol\":2187:2218  currentBid >= highestBindingBid */\n      lt\n      iszero\n        /* \"SmartContract-Auction/Auction.sol\":2179:2219  require(currentBid >= highestBindingBid) */\n      tag_123\n      jumpi\n      0x00\n      dup1\n      revert\n    tag_123:\n        /* \"SmartContract-Auction/Auction.sol\":2249:2259  currentBid */\n      dup1\n        /* \"SmartContract-Auction/Auction.sol\":2230:2234  bids */\n      0x09\n        /* \"SmartContract-Auction/Auction.sol\":2230:2246  bids[msg.sender] */\n      0x00\n        /* \"SmartContract-Auction/Auction.sol\":2235:2245  msg.sender */\n      caller\n        /* \"SmartContract-Auction/Auction.sol\":2230:2246  bids[msg.sender] */\n      0xffffffffffffffffffffffffffffffffffffffff\n      and\n      0xffffffffffffffffffffffffffffffffffffffff\n      and\n      dup2\n      mstore\n      0x20\n      add\n      swap1\n      dup2\n      mstore\n      0x20\n      add\n      0x00\n      keccak256\n        /* \"SmartContract-Auction/Auction.sol\":2230:2259  bids[msg.sender] = currentBid */\n      dup2\n      swap1\n      sstore\n      pop\n        /* \"SmartContract-Auction/Auction.sol\":2287:2291  bids */\n      0x09\n        /* \"SmartContract-Auction/Auction.sol\":2287:2306  bids[highestBidder] */\n      0x00\n        /* \"SmartContract-Auction/Auction.sol\":2292:2305  highestBidder */\n      0x08\n      0x00\n      swap1\n      sload\n      swap1\n      0x0100\n      exp\n      swap1\n      div\n      0xffffffffffffffffffffffffffffffffffffffff\n      and\n        /* \"SmartContract-Auction/Auction.sol\":2287:2306  bids[highestBidder] */\n      0xffffffffffffffffffffffffffffffffffffffff\n      and\n      0xffffffffffffffffffffffffffffffffffffffff\n      and\n      dup2\n      mstore\n      0x20\n      add\n      swap1\n      dup2\n      mstore\n      0x20\n      add\n      0x00\n      keccak256\n      sload\n        /* \"SmartContract-Auction/Auction.sol\":2273:2283  currentBid */\n      dup2\n        /* \"SmartContract-Auction/Auction.sol\":2273:2306  currentBid <= bids[highestBidder] */\n      gt\n        /* \"SmartContract-Auction/Auction.sol\":2270:2552  if(currentBid <= bids[highestBidder]){... */\n      tag_124\n      jumpi\n        /* \"SmartContract-Auction/Auction.sol\":2341:2392  min(currentBid + bidIncrement, bids[highestBidder]) */\n      tag_125\n        /* \"SmartContract-Auction/Auction.sol\":2358:2370  bidIncrement */\n      sload(0x0a)\n        /* \"SmartContract-Auction/Auction.sol\":2345:2355  currentBid */\n      dup3\n        /* \"SmartContract-Auction/Auction.sol\":2345:2370  currentBid + bidIncrement */\n      tag_126\n      swap2\n      swap1\n      tag_90\n      jump\t// in\n    tag_126:\n        /* \"SmartContract-Auction/Auction.sol\":2372:2376  bids */\n      0x09\n        /* \"SmartContract-Auction/Auction.sol\":2372:2391  bids[highestBidder] */\n      0x00\n        /* \"SmartContract-Auction/Auction.sol\":2377:2390  highestBidder */\n      0x08\n      0x00\n      swap1\n      sload\n      swap1\n      0x0100\n      exp\n      swap1\n      div\n      0xffffffffffffffffffffffffffffffffffffffff\n      and\n        /* \"SmartContract-Auction/Auction.sol\":2372:2391  bids[highestBidder] */\n      0xffffffffffffffffffffffffffffffffffffffff\n      and\n      0xffffffffffffffffffffffffffffffffffffffff\n      and\n      dup2\n      mstore\n      0x20\n      add\n      swap1\n      dup2\n      mstore\n      0x20\n      add\n      0x00\n      keccak256\n      sload\n        /* \"SmartContract-Auction/Auction.sol\":2341:2344  min */\n      tag_127\n        /* \"SmartContract-Auction/Auction.sol\":2341:2392  min(currentBid + bidIncrement, bids[highestBidder]) */\n      jump\t// in\n    tag_125:\n        /* \"SmartContract-Auction/Auction.sol\":2321:2338  highestBindingBid */\n      0x07\n        /* \"SmartContract-Auction/Auction.sol\":2321:2392  highestBindingBid = min(currentBid + bidIncrement, bids[highestBidder]) */\n      dup2\n      swap1\n      sstore\n      pop\n        /* \"SmartContract-Auction/Auction.sol\":2270:2552  if(currentBid <= bids[highestBidder]){... */\n      jump(tag_128)\n    tag_124:\n        /* \"SmartContract-Auction/Auction.sol\":2441:2492  min(currentBid, bids[highestBidder] + bidIncrement) */\n      tag_129\n        /* \"SmartContract-Auction/Auction.sol\":2445:2455  currentBid */\n      dup2\n        /* \"SmartContract-Auction/Auction.sol\":2479:2491  bidIncrement */\n      sload(0x0a)\n        /* \"SmartContract-Auction/Auction.sol\":2457:2461  bids */\n      0x09\n        /* \"SmartContract-Auction/Auction.sol\":2457:2476  bids[highestBidder] */\n      0x00\n        /* \"SmartContract-Auction/Auction.sol\":2462:2475  highestBidder */\n      0x08\n      0x00\n      swap1\n      sload\n      swap1\n      0x0100\n      exp\n      swap1\n      div\n      0xffffffffffffffffffffffffffffffffffffffff\n      and\n        /* \"SmartContract-Auction/Auction.sol\":2457:2476  bids[highestBidder] */\n      0xffffffffffffffffffffffffffffffffffffffff\n      and\n      0xffffffffffffffffffffffffffffffffffffffff\n      and\n      dup2\n      mstore\n      0x20\n      add\n      swap1\n      dup2\n      mstore\n      0x20\n      add\n      0x00\n      keccak256\n      sload\n        /* \"SmartContract-Auction/Auction.sol\":2457:2491  bids[highestBidder] + bidIncrement */\n      tag_130\n      swap2\n      swap1\n      tag_90\n      jump\t// in\n    tag_130:\n        /* \"SmartContract-Auction/Auction.sol\":2441:2444  min */\n      tag_127\n        /* \"SmartContract-Auction/Auction.sol\":2441:2492  min(currentBid, bids[highestBidder] + bidIncrement) */\n      jump\t// in\n    tag_129:\n        /* \"SmartContract-Auction/Auction.sol\":2421:2438  highestBindingBid */\n      0x07\n        /* \"SmartContract-Auction/Auction.sol\":2421:2492  highestBindingBid = min(currentBid, bids[highestBidder] + bidIncrement) */\n      dup2\n      swap1\n      sstore\n      pop\n        /* \"SmartContract-Auction/Auction.sol\":2530:2540  msg.sender */\n      caller\n        /* \"SmartContract-Auction/Auction.sol\":2506:2519  highestBidder */\n      0x08\n      0x00\n        /* \"SmartContract-Auction/Auction.sol\":2506:2541  highestBidder = payable(msg.sender) */\n      0x0100\n      exp\n      dup2\n      sload\n      dup2\n      0xffffffffffffffffffffffffffffffffffffffff\n      mul\n      not\n      and\n      swap1\n      dup4\n      0xffffffffffffffffffffffffffffffffffffffff\n      and\n      mul\n      or\n      swap1\n      sstore\n      pop\n        /* \"SmartContract-Auction/Auction.sol\":2270:2552  if(currentBid <= bids[highestBidder]){... */\n    tag_128:\n        /* \"SmartContract-Auction/Auction.sol\":1977:2558  {... */\n      pop\n        /* \"SmartContract-Auction/Auction.sol\":1900:2558  function placeBid() public payable notOwnerOrBeneficiary afterStart beforeEnd{... */\n      jump\t// out\n        /* \"SmartContract-Auction/Auction.sol\":493:522  uint public highestBindingBid */\n    tag_74:\n      sload(0x07)\n      dup2\n      jump\t// out\n        /* \"SmartContract-Auction/Auction.sol\":2564:3594  function finalizeAuction() public{... */\n    tag_78:\n        /* \"SmartContract-Auction/Auction.sol\":2631:2645  State.Canceled */\n      0x03\n        /* \"SmartContract-Auction/Auction.sol\":2615:2645  auctionState == State.Canceled */\n      dup1\n      dup2\n      gt\n      iszero\n      tag_132\n      jumpi\n      tag_133\n      tag_84\n      jump\t// in\n    tag_133:\n    tag_132:\n        /* \"SmartContract-Auction/Auction.sol\":2615:2627  auctionState */\n      0x06\n      0x00\n      swap1\n      sload\n      swap1\n      0x0100\n      exp\n      swap1\n      div\n      0xff\n      and\n        /* \"SmartContract-Auction/Auction.sol\":2615:2645  auctionState == State.Canceled */\n      0x03\n      dup2\n      gt\n      iszero\n      tag_134\n      jumpi\n      tag_135\n      tag_84\n      jump\t// in\n    tag_135:\n    tag_134:\n      eq\n        /* \"SmartContract-Auction/Auction.sol\":2615:2673  auctionState == State.Canceled || block.number >= endBlock */\n      dup1\n      tag_136\n      jumpi\n      pop\n        /* \"SmartContract-Auction/Auction.sol\":2665:2673  endBlock */\n      sload(0x03)\n        /* \"SmartContract-Auction/Auction.sol\":2649:2661  block.number */\n      number\n        /* \"SmartContract-Auction/Auction.sol\":2649:2673  block.number >= endBlock */\n      lt\n      iszero\n        /* \"SmartContract-Auction/Auction.sol\":2615:2673  auctionState == State.Canceled || block.number >= endBlock */\n    tag_136:\n        /* \"SmartContract-Auction/Auction.sol\":2607:2674  require(auctionState == State.Canceled || block.number >= endBlock) */\n      tag_137\n      jumpi\n      0x00\n      dup1\n      revert\n    tag_137:\n        /* \"SmartContract-Auction/Auction.sol\":2692:2711  isOwner(msg.sender) */\n      tag_138\n        /* \"SmartContract-Auction/Auction.sol\":2700:2710  msg.sender */\n      caller\n        /* \"SmartContract-Auction/Auction.sol\":2692:2699  isOwner */\n      tag_139\n        /* \"SmartContract-Auction/Auction.sol\":2692:2711  isOwner(msg.sender) */\n      jump\t// in\n    tag_138:\n        /* \"SmartContract-Auction/Auction.sol\":2692:2735  isOwner(msg.sender) || bids[msg.sender] > 0 */\n      dup1\n      tag_140\n      jumpi\n      pop\n        /* \"SmartContract-Auction/Auction.sol\":2734:2735  0 */\n      0x00\n        /* \"SmartContract-Auction/Auction.sol\":2715:2719  bids */\n      0x09\n        /* \"SmartContract-Auction/Auction.sol\":2715:2731  bids[msg.sender] */\n      0x00\n        /* \"SmartContract-Auction/Auction.sol\":2720:2730  msg.sender */\n      caller\n        /* \"SmartContract-Auction/Auction.sol\":2715:2731  bids[msg.sender] */\n      0xffffffffffffffffffffffffffffffffffffffff\n      and\n      0xffffffffffffffffffffffffffffffffffffffff\n      and\n      dup2\n      mstore\n      0x20\n      add\n      swap1\n      dup2\n      mstore\n      0x20\n      add\n      0x00\n      keccak256\n      sload\n        /* \"SmartContract-Auction/Auction.sol\":2715:2735  bids[msg.sender] > 0 */\n      gt\n        /* \"SmartContract-Auction/Auction.sol\":2692:2735  isOwner(msg.sender) || bids[msg.sender] > 0 */\n    tag_140:\n        /* \"SmartContract-Auction/Auction.sol\":2684:2736  require(isOwner(msg.sender) || bids[msg.sender] > 0) */\n      tag_141\n      jumpi\n      0x00\n      dup1\n      revert\n    tag_141:\n        /* \"SmartContract-Auction/Auction.sol\":2747:2772  address payable recipient */\n      0x00\n        /* \"SmartContract-Auction/Auction.sol\":2782:2792  uint value */\n      dup1\n        /* \"SmartContract-Auction/Auction.sol\":2822:2836  State.Canceled */\n      0x03\n        /* \"SmartContract-Auction/Auction.sol\":2806:2836  auctionState == State.Canceled */\n      dup1\n      dup2\n      gt\n      iszero\n      tag_142\n      jumpi\n      tag_143\n      tag_84\n      jump\t// in\n    tag_143:\n    tag_142:\n        /* \"SmartContract-Auction/Auction.sol\":2806:2818  auctionState */\n      0x06\n      0x00\n      swap1\n      sload\n      swap1\n      0x0100\n      exp\n      swap1\n      div\n      0xff\n      and\n        /* \"SmartContract-Auction/Auction.sol\":2806:2836  auctionState == State.Canceled */\n      0x03\n      dup2\n      gt\n      iszero\n      tag_144\n      jumpi\n      tag_145\n      tag_84\n      jump\t// in\n    tag_145:\n    tag_144:\n      eq\n        /* \"SmartContract-Auction/Auction.sol\":2803:3523  if(auctionState == State.Canceled){ //auction canceled... */\n      iszero\n      tag_146\n      jumpi\n        /* \"SmartContract-Auction/Auction.sol\":2890:2900  msg.sender */\n      caller\n        /* \"SmartContract-Auction/Auction.sol\":2870:2901  recipient = payable(msg.sender) */\n      swap2\n      pop\n        /* \"SmartContract-Auction/Auction.sol\":2923:2927  bids */\n      0x09\n        /* \"SmartContract-Auction/Auction.sol\":2923:2939  bids[msg.sender] */\n      0x00\n        /* \"SmartContract-Auction/Auction.sol\":2928:2938  msg.sender */\n      caller\n        /* \"SmartContract-Auction/Auction.sol\":2923:2939  bids[msg.sender] */\n      0xffffffffffffffffffffffffffffffffffffffff\n      and\n      0xffffffffffffffffffffffffffffffffffffffff\n      and\n      dup2\n      mstore\n      0x20\n      add\n      swap1\n      dup2\n      mstore\n      0x20\n      add\n      0x00\n      keccak256\n      sload\n        /* \"SmartContract-Auction/Auction.sol\":2915:2939  value = bids[msg.sender] */\n      swap1\n      pop\n        /* \"SmartContract-Auction/Auction.sol\":2803:3523  if(auctionState == State.Canceled){ //auction canceled... */\n      jump(tag_147)\n    tag_146:\n        /* \"SmartContract-Auction/Auction.sol\":3001:3020  isOwner(msg.sender) */\n      tag_148\n        /* \"SmartContract-Auction/Auction.sol\":3009:3019  msg.sender */\n      caller\n        /* \"SmartContract-Auction/Auction.sol\":3001:3008  isOwner */\n      tag_139\n        /* \"SmartContract-Auction/Auction.sol\":3001:3020  isOwner(msg.sender) */\n      jump\t// in\n    tag_148:\n        /* \"SmartContract-Auction/Auction.sol\":2998:3513  if(isOwner(msg.sender)){... */\n      iszero\n      tag_149\n      jumpi\n        /* \"SmartContract-Auction/Auction.sol\":3059:3064  owner */\n      0x00\n      dup1\n      sload\n      swap1\n      0x0100\n      exp\n      swap1\n      div\n      0xffffffffffffffffffffffffffffffffffffffff\n      and\n        /* \"SmartContract-Auction/Auction.sol\":3039:3065  recipient = payable(owner) */\n      swap2\n      pop\n        /* \"SmartContract-Auction/Auction.sol\":3091:3108  highestBindingBid */\n      sload(0x07)\n        /* \"SmartContract-Auction/Auction.sol\":3083:3108  value = highestBindingBid */\n      swap1\n      pop\n        /* \"SmartContract-Auction/Auction.sol\":2998:3513  if(isOwner(msg.sender)){... */\n      jump(tag_150)\n    tag_149:\n        /* \"SmartContract-Auction/Auction.sol\":3173:3186  highestBidder */\n      0x08\n      0x00\n      swap1\n      sload\n      swap1\n      0x0100\n      exp\n      swap1\n      div\n      0xffffffffffffffffffffffffffffffffffffffff\n      and\n        /* \"SmartContract-Auction/Auction.sol\":3159:3186  msg.sender == highestBidder */\n      0xffffffffffffffffffffffffffffffffffffffff\n      and\n        /* \"SmartContract-Auction/Auction.sol\":3159:3169  msg.sender */\n      caller\n        /* \"SmartContract-Auction/Auction.sol\":3159:3186  msg.sender == highestBidder */\n      0xffffffffffffffffffffffffffffffffffffffff\n      and\n      eq\n        /* \"SmartContract-Auction/Auction.sol\":3156:3499  if(msg.sender == highestBidder){ //when highest bidder ... */\n      iszero\n      tag_151\n      jumpi\n        /* \"SmartContract-Auction/Auction.sol\":3252:3265  highestBidder */\n      0x08\n      0x00\n      swap1\n      sload\n      swap1\n      0x0100\n      exp\n      swap1\n      div\n      0xffffffffffffffffffffffffffffffffffffffff\n      and\n        /* \"SmartContract-Auction/Auction.sol\":3232:3266  recipient = payable(highestBidder) */\n      swap2\n      pop\n        /* \"SmartContract-Auction/Auction.sol\":3315:3332  highestBindingBid */\n      sload(0x07)\n        /* \"SmartContract-Auction/Auction.sol\":3296:3300  bids */\n      0x09\n        /* \"SmartContract-Auction/Auction.sol\":3296:3312  bids[msg.sender] */\n      0x00\n        /* \"SmartContract-Auction/Auction.sol\":3301:3311  msg.sender */\n      caller\n        /* \"SmartContract-Auction/Auction.sol\":3296:3312  bids[msg.sender] */\n      0xffffffffffffffffffffffffffffffffffffffff\n      and\n      0xffffffffffffffffffffffffffffffffffffffff\n      and\n      dup2\n      mstore\n      0x20\n      add\n      swap1\n      dup2\n      mstore\n      0x20\n      add\n      0x00\n      keccak256\n      sload\n        /* \"SmartContract-Auction/Auction.sol\":3296:3332  bids[msg.sender] - highestBindingBid */\n      tag_152\n      swap2\n      swap1\n      tag_153\n      jump\t// in\n    tag_152:\n        /* \"SmartContract-Auction/Auction.sol\":3288:3332  value = bids[msg.sender] - highestBindingBid */\n      swap1\n      pop\n        /* \"SmartContract-Auction/Auction.sol\":3156:3499  if(msg.sender == highestBidder){ //when highest bidder ... */\n      jump(tag_154)\n    tag_151:\n        /* \"SmartContract-Auction/Auction.sol\":3423:3433  msg.sender */\n      caller\n        /* \"SmartContract-Auction/Auction.sol\":3403:3434  recipient = payable(msg.sender) */\n      swap2\n      pop\n        /* \"SmartContract-Auction/Auction.sol\":3464:3468  bids */\n      0x09\n        /* \"SmartContract-Auction/Auction.sol\":3464:3480  bids[msg.sender] */\n      0x00\n        /* \"SmartContract-Auction/Auction.sol\":3469:3479  msg.sender */\n      caller\n        /* \"SmartContract-Auction/Auction.sol\":3464:3480  bids[msg.sender] */\n      0xffffffffffffffffffffffffffffffffffffffff\n      and\n      0xffffffffffffffffffffffffffffffffffffffff\n      and\n      dup2\n      mstore\n      0x20\n      add\n      swap1\n      dup2\n      mstore\n      0x20\n      add\n      0x00\n      keccak256\n      sload\n        /* \"SmartContract-Auction/Auction.sol\":3456:3480  value = bids[msg.sender] */\n      swap1\n      pop\n        /* \"SmartContract-Auction/Auction.sol\":3156:3499  if(msg.sender == highestBidder){ //when highest bidder ... */\n    tag_154:\n        /* \"SmartContract-Auction/Auction.sol\":2998:3513  if(isOwner(msg.sender)){... */\n    tag_150:\n        /* \"SmartContract-Auction/Auction.sol\":2803:3523  if(auctionState == State.Canceled){ //auction canceled... */\n    tag_147:\n        /* \"SmartContract-Auction/Auction.sol\":3551:3552  0 */\n      0x00\n        /* \"SmartContract-Auction/Auction.sol\":3533:3537  bids */\n      0x09\n        /* \"SmartContract-Auction/Auction.sol\":3533:3548  bids[recipient] */\n      0x00\n        /* \"SmartContract-Auction/Auction.sol\":3538:3547  recipient */\n      dup5\n        /* \"SmartContract-Auction/Auction.sol\":3533:3548  bids[recipient] */\n      0xffffffffffffffffffffffffffffffffffffffff\n      and\n      0xffffffffffffffffffffffffffffffffffffffff\n      and\n      dup2\n      mstore\n      0x20\n      add\n      swap1\n      dup2\n      mstore\n      0x20\n      add\n      0x00\n      keccak256\n        /* \"SmartContract-Auction/Auction.sol\":3533:3552  bids[recipient] = 0 */\n      dup2\n      swap1\n      sstore\n      pop\n        /* \"SmartContract-Auction/Auction.sol\":3562:3571  recipient */\n      dup2\n        /* \"SmartContract-Auction/Auction.sol\":3562:3580  recipient.transfer */\n      0xffffffffffffffffffffffffffffffffffffffff\n      and\n        /* \"SmartContract-Auction/Auction.sol\":3562:3587  recipient.transfer(value) */\n      0x08fc\n        /* \"SmartContract-Auction/Auction.sol\":3581:3586  value */\n      dup3\n        /* \"SmartContract-Auction/Auction.sol\":3562:3587  recipient.transfer(value) */\n      swap1\n      dup2\n      iszero\n      mul\n      swap1\n      mload(0x40)\n      0x00\n      mload(0x40)\n      dup1\n      dup4\n      sub\n      dup2\n      dup6\n      dup9\n      dup9\n      call\n      swap4\n      pop\n      pop\n      pop\n      pop\n      iszero\n      dup1\n      iszero\n      tag_156\n      jumpi\n      returndatasize\n      0x00\n      dup1\n      returndatacopy\n      revert(0x00, returndatasize)\n    tag_156:\n      pop\n        /* \"SmartContract-Auction/Auction.sol\":2597:3594  {... */\n      pop\n      pop\n        /* \"SmartContract-Auction/Auction.sol\":2564:3594  function finalizeAuction() public{... */\n      jump\t// out\n        /* \"SmartContract-Auction/Auction.sol\":1586:1737  function min(uint a, uint b) internal pure returns(uint){... */\n    tag_127:\n        /* \"SmartContract-Auction/Auction.sol\":1637:1641  uint */\n      0x00\n        /* \"SmartContract-Auction/Auction.sol\":1658:1659  b */\n      dup2\n        /* \"SmartContract-Auction/Auction.sol\":1655:1656  a */\n      dup4\n        /* \"SmartContract-Auction/Auction.sol\":1655:1659  a<=b */\n      gt\n        /* \"SmartContract-Auction/Auction.sol\":1652:1731  if(a<=b){... */\n      tag_158\n      jumpi\n        /* \"SmartContract-Auction/Auction.sol\":1681:1682  a */\n      dup3\n        /* \"SmartContract-Auction/Auction.sol\":1674:1682  return a */\n      swap1\n      pop\n      jump(tag_157)\n        /* \"SmartContract-Auction/Auction.sol\":1652:1731  if(a<=b){... */\n    tag_158:\n        /* \"SmartContract-Auction/Auction.sol\":1719:1720  b */\n      dup2\n        /* \"SmartContract-Auction/Auction.sol\":1712:1720  return b */\n      swap1\n      pop\n        /* \"SmartContract-Auction/Auction.sol\":1586:1737  function min(uint a, uint b) internal pure returns(uint){... */\n    tag_157:\n      swap3\n      swap2\n      pop\n      pop\n      jump\t// out\n        /* \"SmartContract-Auction/Auction.sol\":896:999  function isOwner(address _address) internal view returns(bool){... */\n    tag_139:\n        /* \"SmartContract-Auction/Auction.sol\":953:957  bool */\n      0x00\n        /* \"SmartContract-Auction/Auction.sol\":987:992  owner */\n      dup1\n      0x00\n      swap1\n      sload\n      swap1\n      0x0100\n      exp\n      swap1\n      div\n      0xffffffffffffffffffffffffffffffffffffffff\n      and\n        /* \"SmartContract-Auction/Auction.sol\":975:992  _address == owner */\n      0xffffffffffffffffffffffffffffffffffffffff\n      and\n        /* \"SmartContract-Auction/Auction.sol\":975:983  _address */\n      dup3\n        /* \"SmartContract-Auction/Auction.sol\":975:992  _address == owner */\n      0xffffffffffffffffffffffffffffffffffffffff\n      and\n      eq\n        /* \"SmartContract-Auction/Auction.sol\":968:992  return _address == owner */\n      swap1\n      pop\n        /* \"SmartContract-Auction/Auction.sol\":896:999  function isOwner(address _address) internal view returns(bool){... */\n      swap2\n      swap1\n      pop\n      jump\t// out\n    tag_94:\n      dup3\n      dup1\n      sload\n      tag_161\n      swap1\n      tag_101\n      jump\t// in\n    tag_161:\n      swap1\n      0x00\n      mstore\n      keccak256(0x00, 0x20)\n      swap1\n      0x1f\n      add\n      0x20\n      swap1\n      div\n      dup2\n      add\n      swap3\n      dup3\n      tag_163\n      jumpi\n      0x00\n      dup6\n      sstore\n      jump(tag_162)\n    tag_163:\n      dup3\n      0x1f\n      lt\n      tag_164\n      jumpi\n      dup1\n      mload\n      not(0xff)\n      and\n      dup4\n      dup1\n      add\n      or\n      dup6\n      sstore\n      jump(tag_162)\n    tag_164:\n      dup3\n      dup1\n      add\n      0x01\n      add\n      dup6\n      sstore\n      dup3\n      iszero\n      tag_162\n      jumpi\n      swap2\n      dup3\n      add\n    tag_165:\n      dup3\n      dup2\n      gt\n      iszero\n      tag_166\n      jumpi\n      dup3\n      mload\n      dup3\n      sstore\n      swap2\n      0x20\n      add\n      swap2\n      swap1\n      0x01\n      add\n      swap1\n      jump(tag_165)\n    tag_166:\n    tag_162:\n      pop\n      swap1\n      pop\n      tag_167\n      swap2\n      swap1\n      tag_168\n      jump\t// in\n    tag_167:\n      pop\n      swap1\n      jump\t// out\n    tag_168:\n    tag_169:\n      dup1\n      dup3\n      gt\n      iszero\n      tag_170\n      jumpi\n      0x00\n      dup2\n      0x00\n      swap1\n      sstore\n      pop\n      0x01\n      add\n      jump(tag_169)\n    tag_170:\n      pop\n      swap1\n      jump\t// out\n        /* \"#utility.yul\":7:146   */\n    tag_172:\n        /* \"#utility.yul\":53:58   */\n      0x00\n        /* \"#utility.yul\":91:97   */\n      dup2\n        /* \"#utility.yul\":78:98   */\n      calldataload\n        /* \"#utility.yul\":69:98   */\n      swap1\n      pop\n        /* \"#utility.yul\":107:140   */\n      tag_174\n        /* \"#utility.yul\":134:139   */\n      dup2\n        /* \"#utility.yul\":107:140   */\n      tag_175\n      jump\t// in\n    tag_174:\n        /* \"#utility.yul\":7:146   */\n      swap3\n      swap2\n      pop\n      pop\n      jump\t// out\n        /* \"#utility.yul\":152:291   */\n    tag_176:\n        /* \"#utility.yul\":198:203   */\n      0x00\n        /* \"#utility.yul\":236:242   */\n      dup2\n        /* \"#utility.yul\":223:243   */\n      calldataload\n        /* \"#utility.yul\":214:243   */\n      swap1\n      pop\n        /* \"#utility.yul\":252:285   */\n      tag_178\n        /* \"#utility.yul\":279:284   */\n      dup2\n        /* \"#utility.yul\":252:285   */\n      tag_179\n      jump\t// in\n    tag_178:\n        /* \"#utility.yul\":152:291   */\n      swap3\n      swap2\n      pop\n      pop\n      jump\t// out\n        /* \"#utility.yul\":297:626   */\n    tag_41:\n        /* \"#utility.yul\":356:362   */\n      0x00\n        /* \"#utility.yul\":405:407   */\n      0x20\n        /* \"#utility.yul\":393:402   */\n      dup3\n        /* \"#utility.yul\":384:391   */\n      dup5\n        /* \"#utility.yul\":380:403   */\n      sub\n        /* \"#utility.yul\":376:408   */\n      slt\n        /* \"#utility.yul\":373:492   */\n      iszero\n      tag_181\n      jumpi\n        /* \"#utility.yul\":411:490   */\n      tag_182\n      tag_183\n      jump\t// in\n    tag_182:\n        /* \"#utility.yul\":373:492   */\n    tag_181:\n        /* \"#utility.yul\":531:532   */\n      0x00\n        /* \"#utility.yul\":556:609   */\n      tag_184\n        /* \"#utility.yul\":601:608   */\n      dup5\n        /* \"#utility.yul\":592:598   */\n      dup3\n        /* \"#utility.yul\":581:590   */\n      dup6\n        /* \"#utility.yul\":577:599   */\n      add\n        /* \"#utility.yul\":556:609   */\n      tag_172\n      jump\t// in\n    tag_184:\n        /* \"#utility.yul\":546:609   */\n      swap2\n      pop\n        /* \"#utility.yul\":502:619   */\n      pop\n        /* \"#utility.yul\":297:626   */\n      swap3\n      swap2\n      pop\n      pop\n      jump\t// out\n        /* \"#utility.yul\":632:1251   */\n    tag_27:\n        /* \"#utility.yul\":709:715   */\n      0x00\n        /* \"#utility.yul\":717:723   */\n      dup1\n        /* \"#utility.yul\":725:731   */\n      0x00\n        /* \"#utility.yul\":774:776   */\n      0x60\n        /* \"#utility.yul\":762:771   */\n      dup5\n        /* \"#utility.yul\":753:760   */\n      dup7\n        /* \"#utility.yul\":749:772   */\n      sub\n        /* \"#utility.yul\":745:777   */\n      slt\n        /* \"#utility.yul\":742:861   */\n      iszero\n      tag_186\n      jumpi\n        /* \"#utility.yul\":780:859   */\n      tag_187\n      tag_183\n      jump\t// in\n    tag_187:\n        /* \"#utility.yul\":742:861   */\n    tag_186:\n        /* \"#utility.yul\":900:901   */\n      0x00\n        /* \"#utility.yul\":925:978   */\n      tag_188\n        /* \"#utility.yul\":970:977   */\n      dup7\n        /* \"#utility.yul\":961:967   */\n      dup3\n        /* \"#utility.yul\":950:959   */\n      dup8\n        /* \"#utility.yul\":946:968   */\n      add\n        /* \"#utility.yul\":925:978   */\n      tag_176\n      jump\t// in\n    tag_188:\n        /* \"#utility.yul\":915:978   */\n      swap4\n      pop\n        /* \"#utility.yul\":871:988   */\n      pop\n        /* \"#utility.yul\":1027:1029   */\n      0x20\n        /* \"#utility.yul\":1053:1106   */\n      tag_189\n        /* \"#utility.yul\":1098:1105   */\n      dup7\n        /* \"#utility.yul\":1089:1095   */\n      dup3\n        /* \"#utility.yul\":1078:1087   */\n      dup8\n        /* \"#utility.yul\":1074:1096   */\n      add\n        /* \"#utility.yul\":1053:1106   */\n      tag_176\n      jump\t// in\n    tag_189:\n        /* \"#utility.yul\":1043:1106   */\n      swap3\n      pop\n        /* \"#utility.yul\":998:1116   */\n      pop\n        /* \"#utility.yul\":1155:1157   */\n      0x40\n        /* \"#utility.yul\":1181:1234   */\n      tag_190\n        /* \"#utility.yul\":1226:1233   */\n      dup7\n        /* \"#utility.yul\":1217:1223   */\n      dup3\n        /* \"#utility.yul\":1206:1215   */\n      dup8\n        /* \"#utility.yul\":1202:1224   */\n      add\n        /* \"#utility.yul\":1181:1234   */\n      tag_176\n      jump\t// in\n    tag_190:\n        /* \"#utility.yul\":1171:1234   */\n      swap2\n      pop\n        /* \"#utility.yul\":1126:1244   */\n      pop\n        /* \"#utility.yul\":632:1251   */\n      swap3\n      pop\n      swap3\n      pop\n      swap3\n      jump\t// out\n        /* \"#utility.yul\":1257:1399   */\n    tag_191:\n        /* \"#utility.yul\":1360:1392   */\n      tag_193\n        /* \"#utility.yul\":1386:1391   */\n      dup2\n        /* \"#utility.yul\":1360:1392   */\n      tag_194\n      jump\t// in\n    tag_193:\n        /* \"#utility.yul\":1355:1358   */\n      dup3\n        /* \"#utility.yul\":1348:1393   */\n      mstore\n        /* \"#utility.yul\":1257:1399   */\n      pop\n      pop\n      jump\t// out\n        /* \"#utility.yul\":1405:1523   */\n    tag_195:\n        /* \"#utility.yul\":1492:1516   */\n      tag_197\n        /* \"#utility.yul\":1510:1515   */\n      dup2\n        /* \"#utility.yul\":1492:1516   */\n      tag_198\n      jump\t// in\n    tag_197:\n        /* \"#utility.yul\":1487:1490   */\n      dup3\n        /* \"#utility.yul\":1480:1517   */\n      mstore\n        /* \"#utility.yul\":1405:1523   */\n      pop\n      pop\n      jump\t// out\n        /* \"#utility.yul\":1529:1672   */\n    tag_199:\n        /* \"#utility.yul\":1622:1665   */\n      tag_201\n        /* \"#utility.yul\":1659:1664   */\n      dup2\n        /* \"#utility.yul\":1622:1665   */\n      tag_202\n      jump\t// in\n    tag_201:\n        /* \"#utility.yul\":1617:1620   */\n      dup3\n        /* \"#utility.yul\":1610:1666   */\n      mstore\n        /* \"#utility.yul\":1529:1672   */\n      pop\n      pop\n      jump\t// out\n        /* \"#utility.yul\":1678:2042   */\n    tag_203:\n        /* \"#utility.yul\":1766:1769   */\n      0x00\n        /* \"#utility.yul\":1794:1833   */\n      tag_205\n        /* \"#utility.yul\":1827:1832   */\n      dup3\n        /* \"#utility.yul\":1794:1833   */\n      tag_206\n      jump\t// in\n    tag_205:\n        /* \"#utility.yul\":1849:1920   */\n      tag_207\n        /* \"#utility.yul\":1913:1919   */\n      dup2\n        /* \"#utility.yul\":1908:1911   */\n      dup6\n        /* \"#utility.yul\":1849:1920   */\n      tag_208\n      jump\t// in\n    tag_207:\n        /* \"#utility.yul\":1842:1920   */\n      swap4\n      pop\n        /* \"#utility.yul\":1929:1981   */\n      tag_209\n        /* \"#utility.yul\":1974:1980   */\n      dup2\n        /* \"#utility.yul\":1969:1972   */\n      dup6\n        /* \"#utility.yul\":1962:1966   */\n      0x20\n        /* \"#utility.yul\":1955:1960   */\n      dup7\n        /* \"#utility.yul\":1951:1967   */\n      add\n        /* \"#utility.yul\":1929:1981   */\n      tag_210\n      jump\t// in\n    tag_209:\n        /* \"#utility.yul\":2006:2035   */\n      tag_211\n        /* \"#utility.yul\":2028:2034   */\n      dup2\n        /* \"#utility.yul\":2006:2035   */\n      tag_212\n      jump\t// in\n    tag_211:\n        /* \"#utility.yul\":2001:2004   */\n      dup5\n        /* \"#utility.yul\":1997:2036   */\n      add\n        /* \"#utility.yul\":1990:2036   */\n      swap2\n      pop\n        /* \"#utility.yul\":1770:2042   */\n      pop\n        /* \"#utility.yul\":1678:2042   */\n      swap3\n      swap2\n      pop\n      pop\n      jump\t// out\n        /* \"#utility.yul\":2048:2414   */\n    tag_213:\n        /* \"#utility.yul\":2190:2193   */\n      0x00\n        /* \"#utility.yul\":2211:2278   */\n      tag_215\n        /* \"#utility.yul\":2275:2277   */\n      0x23\n        /* \"#utility.yul\":2270:2273   */\n      dup4\n        /* \"#utility.yul\":2211:2278   */\n      tag_208\n      jump\t// in\n    tag_215:\n        /* \"#utility.yul\":2204:2278   */\n      swap2\n      pop\n        /* \"#utility.yul\":2287:2380   */\n      tag_216\n        /* \"#utility.yul\":2376:2379   */\n      dup3\n        /* \"#utility.yul\":2287:2380   */\n      tag_217\n      jump\t// in\n    tag_216:\n        /* \"#utility.yul\":2405:2407   */\n      0x40\n        /* \"#utility.yul\":2400:2403   */\n      dup3\n        /* \"#utility.yul\":2396:2408   */\n      add\n        /* \"#utility.yul\":2389:2408   */\n      swap1\n      pop\n        /* \"#utility.yul\":2048:2414   */\n      swap2\n      swap1\n      pop\n      jump\t// out\n        /* \"#utility.yul\":2420:2538   */\n    tag_218:\n        /* \"#utility.yul\":2507:2531   */\n      tag_220\n        /* \"#utility.yul\":2525:2530   */\n      dup2\n        /* \"#utility.yul\":2507:2531   */\n      tag_221\n      jump\t// in\n    tag_220:\n        /* \"#utility.yul\":2502:2505   */\n      dup3\n        /* \"#utility.yul\":2495:2532   */\n      mstore\n        /* \"#utility.yul\":2420:2538   */\n      pop\n      pop\n      jump\t// out\n        /* \"#utility.yul\":2544:2766   */\n    tag_53:\n        /* \"#utility.yul\":2637:2641   */\n      0x00\n        /* \"#utility.yul\":2675:2677   */\n      0x20\n        /* \"#utility.yul\":2664:2673   */\n      dup3\n        /* \"#utility.yul\":2660:2678   */\n      add\n        /* \"#utility.yul\":2652:2678   */\n      swap1\n      pop\n        /* \"#utility.yul\":2688:2759   */\n      tag_223\n        /* \"#utility.yul\":2756:2757   */\n      0x00\n        /* \"#utility.yul\":2745:2754   */\n      dup4\n        /* \"#utility.yul\":2741:2758   */\n      add\n        /* \"#utility.yul\":2732:2738   */\n      dup5\n        /* \"#utility.yul\":2688:2759   */\n      tag_195\n      jump\t// in\n    tag_223:\n        /* \"#utility.yul\":2544:2766   */\n      swap3\n      swap2\n      pop\n      pop\n      jump\t// out\n        /* \"#utility.yul\":2772:3026   */\n    tag_33:\n        /* \"#utility.yul\":2881:2885   */\n      0x00\n        /* \"#utility.yul\":2919:2921   */\n      0x20\n        /* \"#utility.yul\":2908:2917   */\n      dup3\n        /* \"#utility.yul\":2904:2922   */\n      add\n        /* \"#utility.yul\":2896:2922   */\n      swap1\n      pop\n        /* \"#utility.yul\":2932:3019   */\n      tag_225\n        /* \"#utility.yul\":3016:3017   */\n      0x00\n        /* \"#utility.yul\":3005:3014   */\n      dup4\n        /* \"#utility.yul\":3001:3018   */\n      add\n        /* \"#utility.yul\":2992:2998   */\n      dup5\n        /* \"#utility.yul\":2932:3019   */\n      tag_191\n      jump\t// in\n    tag_225:\n        /* \"#utility.yul\":2772:3026   */\n      swap3\n      swap2\n      pop\n      pop\n      jump\t// out\n        /* \"#utility.yul\":3032:3266   */\n    tag_48:\n        /* \"#utility.yul\":3131:3135   */\n      0x00\n        /* \"#utility.yul\":3169:3171   */\n      0x20\n        /* \"#utility.yul\":3158:3167   */\n      dup3\n        /* \"#utility.yul\":3154:3172   */\n      add\n        /* \"#utility.yul\":3146:3172   */\n      swap1\n      pop\n        /* \"#utility.yul\":3182:3259   */\n      tag_227\n        /* \"#utility.yul\":3256:3257   */\n      0x00\n        /* \"#utility.yul\":3245:3254   */\n      dup4\n        /* \"#utility.yul\":3241:3258   */\n      add\n        /* \"#utility.yul\":3232:3238   */\n      dup5\n        /* \"#utility.yul\":3182:3259   */\n      tag_199\n      jump\t// in\n    tag_227:\n        /* \"#utility.yul\":3032:3266   */\n      swap3\n      swap2\n      pop\n      pop\n      jump\t// out\n        /* \"#utility.yul\":3272:3585   */\n    tag_65:\n        /* \"#utility.yul\":3385:3389   */\n      0x00\n        /* \"#utility.yul\":3423:3425   */\n      0x20\n        /* \"#utility.yul\":3412:3421   */\n      dup3\n        /* \"#utility.yul\":3408:3426   */\n      add\n        /* \"#utility.yul\":3400:3426   */\n      swap1\n      pop\n        /* \"#utility.yul\":3472:3481   */\n      dup2\n        /* \"#utility.yul\":3466:3470   */\n      dup2\n        /* \"#utility.yul\":3462:3482   */\n      sub\n        /* \"#utility.yul\":3458:3459   */\n      0x00\n        /* \"#utility.yul\":3447:3456   */\n      dup4\n        /* \"#utility.yul\":3443:3460   */\n      add\n        /* \"#utility.yul\":3436:3483   */\n      mstore\n        /* \"#utility.yul\":3500:3578   */\n      tag_229\n        /* \"#utility.yul\":3573:3577   */\n      dup2\n        /* \"#utility.yul\":3564:3570   */\n      dup5\n        /* \"#utility.yul\":3500:3578   */\n      tag_203\n      jump\t// in\n    tag_229:\n        /* \"#utility.yul\":3492:3578   */\n      swap1\n      pop\n        /* \"#utility.yul\":3272:3585   */\n      swap3\n      swap2\n      pop\n      pop\n      jump\t// out\n        /* \"#utility.yul\":3591:4010   */\n    tag_120:\n        /* \"#utility.yul\":3757:3761   */\n      0x00\n        /* \"#utility.yul\":3795:3797   */\n      0x20\n        /* \"#utility.yul\":3784:3793   */\n      dup3\n        /* \"#utility.yul\":3780:3798   */\n      add\n        /* \"#utility.yul\":3772:3798   */\n      swap1\n      pop\n        /* \"#utility.yul\":3844:3853   */\n      dup2\n        /* \"#utility.yul\":3838:3842   */\n      dup2\n        /* \"#utility.yul\":3834:3854   */\n      sub\n        /* \"#utility.yul\":3830:3831   */\n      0x00\n        /* \"#utility.yul\":3819:3828   */\n      dup4\n        /* \"#utility.yul\":3815:3832   */\n      add\n        /* \"#utility.yul\":3808:3855   */\n      mstore\n        /* \"#utility.yul\":3872:4003   */\n      tag_231\n        /* \"#utility.yul\":3998:4002   */\n      dup2\n        /* \"#utility.yul\":3872:4003   */\n      tag_213\n      jump\t// in\n    tag_231:\n        /* \"#utility.yul\":3864:4003   */\n      swap1\n      pop\n        /* \"#utility.yul\":3591:4010   */\n      swap2\n      swap1\n      pop\n      jump\t// out\n        /* \"#utility.yul\":4016:4238   */\n    tag_23:\n        /* \"#utility.yul\":4109:4113   */\n      0x00\n        /* \"#utility.yul\":4147:4149   */\n      0x20\n        /* \"#utility.yul\":4136:4145   */\n      dup3\n        /* \"#utility.yul\":4132:4150   */\n      add\n        /* \"#utility.yul\":4124:4150   */\n      swap1\n      pop\n        /* \"#utility.yul\":4160:4231   */\n      tag_233\n        /* \"#utility.yul\":4228:4229   */\n      0x00\n        /* \"#utility.yul\":4217:4226   */\n      dup4\n        /* \"#utility.yul\":4213:4230   */\n      add\n        /* \"#utility.yul\":4204:4210   */\n      dup5\n        /* \"#utility.yul\":4160:4231   */\n      tag_218\n      jump\t// in\n    tag_233:\n        /* \"#utility.yul\":4016:4238   */\n      swap3\n      swap2\n      pop\n      pop\n      jump\t// out\n        /* \"#utility.yul\":4325:4424   */\n    tag_206:\n        /* \"#utility.yul\":4377:4383   */\n      0x00\n        /* \"#utility.yul\":4411:4416   */\n      dup2\n        /* \"#utility.yul\":4405:4417   */\n      mload\n        /* \"#utility.yul\":4395:4417   */\n      swap1\n      pop\n        /* \"#utility.yul\":4325:4424   */\n      swap2\n      swap1\n      pop\n      jump\t// out\n        /* \"#utility.yul\":4430:4599   */\n    tag_208:\n        /* \"#utility.yul\":4514:4525   */\n      0x00\n        /* \"#utility.yul\":4548:4554   */\n      dup3\n        /* \"#utility.yul\":4543:4546   */\n      dup3\n        /* \"#utility.yul\":4536:4555   */\n      mstore\n        /* \"#utility.yul\":4588:4592   */\n      0x20\n        /* \"#utility.yul\":4583:4586   */\n      dup3\n        /* \"#utility.yul\":4579:4593   */\n      add\n        /* \"#utility.yul\":4564:4593   */\n      swap1\n      pop\n        /* \"#utility.yul\":4430:4599   */\n      swap3\n      swap2\n      pop\n      pop\n      jump\t// out\n        /* \"#utility.yul\":4605:4910   */\n    tag_90:\n        /* \"#utility.yul\":4645:4648   */\n      0x00\n        /* \"#utility.yul\":4664:4684   */\n      tag_239\n        /* \"#utility.yul\":4682:4683   */\n      dup3\n        /* \"#utility.yul\":4664:4684   */\n      tag_221\n      jump\t// in\n    tag_239:\n        /* \"#utility.yul\":4659:4684   */\n      swap2\n      pop\n        /* \"#utility.yul\":4698:4718   */\n      tag_240\n        /* \"#utility.yul\":4716:4717   */\n      dup4\n        /* \"#utility.yul\":4698:4718   */\n      tag_221\n      jump\t// in\n    tag_240:\n        /* \"#utility.yul\":4693:4718   */\n      swap3\n      pop\n        /* \"#utility.yul\":4852:4853   */\n      dup3\n        /* \"#utility.yul\":4784:4850   */\n      0xffffffffffffffffffffffffffffffffffffffffffffffffffffffffffffffff\n        /* \"#utility.yul\":4780:4854   */\n      sub\n        /* \"#utility.yul\":4777:4778   */\n      dup3\n        /* \"#utility.yul\":4774:4855   */\n      gt\n        /* \"#utility.yul\":4771:4878   */\n      iszero\n      tag_241\n      jumpi\n        /* \"#utility.yul\":4858:4876   */\n      tag_242\n      tag_243\n      jump\t// in\n    tag_242:\n        /* \"#utility.yul\":4771:4878   */\n    tag_241:\n        /* \"#utility.yul\":4902:4903   */\n      dup3\n        /* \"#utility.yul\":4899:4900   */\n      dup3\n        /* \"#utility.yul\":4895:4904   */\n      add\n        /* \"#utility.yul\":4888:4904   */\n      swap1\n      pop\n        /* \"#utility.yul\":4605:4910   */\n      swap3\n      swap2\n      pop\n      pop\n      jump\t// out\n        /* \"#utility.yul\":4916:5107   */\n    tag_153:\n        /* \"#utility.yul\":4956:4960   */\n      0x00\n        /* \"#utility.yul\":4976:4996   */\n      tag_245\n        /* \"#utility.yul\":4994:4995   */\n      dup3\n        /* \"#utility.yul\":4976:4996   */\n      tag_221\n      jump\t// in\n    tag_245:\n        /* \"#utility.yul\":4971:4996   */\n      swap2\n      pop\n        /* \"#utility.yul\":5010:5030   */\n      tag_246\n        /* \"#utility.yul\":5028:5029   */\n      dup4\n        /* \"#utility.yul\":5010:5030   */\n      tag_221\n      jump\t// in\n    tag_246:\n        /* \"#utility.yul\":5005:5030   */\n      swap3\n      pop\n        /* \"#utility.yul\":5049:5050   */\n      dup3\n        /* \"#utility.yul\":5046:5047   */\n      dup3\n        /* \"#utility.yul\":5043:5051   */\n      lt\n        /* \"#utility.yul\":5040:5074   */\n      iszero\n      tag_247\n      jumpi\n        /* \"#utility.yul\":5054:5072   */\n      tag_248\n      tag_243\n      jump\t// in\n    tag_248:\n        /* \"#utility.yul\":5040:5074   */\n    tag_247:\n        /* \"#utility.yul\":5099:5100   */\n      dup3\n        /* \"#utility.yul\":5096:5097   */\n      dup3\n        /* \"#utility.yul\":5092:5101   */\n      sub\n        /* \"#utility.yul\":5084:5101   */\n      swap1\n      pop\n        /* \"#utility.yul\":4916:5107   */\n      swap3\n      swap2\n      pop\n      pop\n      jump\t// out\n        /* \"#utility.yul\":5113:5209   */\n    tag_198:\n        /* \"#utility.yul\":5150:5157   */\n      0x00\n        /* \"#utility.yul\":5179:5203   */\n      tag_250\n        /* \"#utility.yul\":5197:5202   */\n      dup3\n        /* \"#utility.yul\":5179:5203   */\n      tag_251\n      jump\t// in\n    tag_250:\n        /* \"#utility.yul\":5168:5203   */\n      swap1\n      pop\n        /* \"#utility.yul\":5113:5209   */\n      swap2\n      swap1\n      pop\n      jump\t// out\n        /* \"#utility.yul\":5215:5319   */\n    tag_194:\n        /* \"#utility.yul\":5260:5267   */\n      0x00\n        /* \"#utility.yul\":5289:5313   */\n      tag_253\n        /* \"#utility.yul\":5307:5312   */\n      dup3\n        /* \"#utility.yul\":5289:5313   */\n      tag_251\n      jump\t// in\n    tag_253:\n        /* \"#utility.yul\":5278:5313   */\n      swap1\n      pop\n        /* \"#utility.yul\":5215:5319   */\n      swap2\n      swap1\n      pop\n      jump\t// out\n        /* \"#utility.yul\":5325:5452   */\n    tag_254:\n        /* \"#utility.yul\":5370:5377   */\n      0x00\n        /* \"#utility.yul\":5399:5404   */\n      dup2\n        /* \"#utility.yul\":5388:5404   */\n      swap1\n      pop\n        /* \"#utility.yul\":5405:5446   */\n      tag_256\n        /* \"#utility.yul\":5440:5445   */\n      dup3\n        /* \"#utility.yul\":5405:5446   */\n      tag_257\n      jump\t// in\n    tag_256:\n        /* \"#utility.yul\":5325:5452   */\n      swap2\n      swap1\n      pop\n      jump\t// out\n        /* \"#utility.yul\":5458:5584   */\n    tag_251:\n        /* \"#utility.yul\":5495:5502   */\n      0x00\n        /* \"#utility.yul\":5535:5577   */\n      0xffffffffffffffffffffffffffffffffffffffff\n        /* \"#utility.yul\":5528:5533   */\n      dup3\n        /* \"#utility.yul\":5524:5578   */\n      and\n        /* \"#utility.yul\":5513:5578   */\n      swap1\n      pop\n        /* \"#utility.yul\":5458:5584   */\n      swap2\n      swap1\n      pop\n      jump\t// out\n        /* \"#utility.yul\":5590:5667   */\n    tag_221:\n        /* \"#utility.yul\":5627:5634   */\n      0x00\n        /* \"#utility.yul\":5656:5661   */\n      dup2\n        /* \"#utility.yul\":5645:5661   */\n      swap1\n      pop\n        /* \"#utility.yul\":5590:5667   */\n      swap2\n      swap1\n      pop\n      jump\t// out\n        /* \"#utility.yul\":5673:5800   */\n    tag_202:\n        /* \"#utility.yul\":5729:5738   */\n      0x00\n        /* \"#utility.yul\":5762:5794   */\n      tag_261\n        /* \"#utility.yul\":5788:5793   */\n      dup3\n        /* \"#utility.yul\":5762:5794   */\n      tag_254\n      jump\t// in\n    tag_261:\n        /* \"#utility.yul\":5749:5794   */\n      swap1\n      pop\n        /* \"#utility.yul\":5673:5800   */\n      swap2\n      swap1\n      pop\n      jump\t// out\n        /* \"#utility.yul\":5806:6113   */\n    tag_210:\n        /* \"#utility.yul\":5874:5875   */\n      0x00\n        /* \"#utility.yul\":5884:5997   */\n    tag_263:\n        /* \"#utility.yul\":5898:5904   */\n      dup4\n        /* \"#utility.yul\":5895:5896   */\n      dup2\n        /* \"#utility.yul\":5892:5905   */\n      lt\n        /* \"#utility.yul\":5884:5997   */\n      iszero\n      tag_265\n      jumpi\n        /* \"#utility.yul\":5983:5984   */\n      dup1\n        /* \"#utility.yul\":5978:5981   */\n      dup3\n        /* \"#utility.yul\":5974:5985   */\n      add\n        /* \"#utility.yul\":5968:5986   */\n      mload\n        /* \"#utility.yul\":5964:5965   */\n      dup2\n        /* \"#utility.yul\":5959:5962   */\n      dup5\n        /* \"#utility.yul\":5955:5966   */\n      add\n        /* \"#utility.yul\":5948:5987   */\n      mstore\n        /* \"#utility.yul\":5920:5922   */\n      0x20\n        /* \"#utility.yul\":5917:5918   */\n      dup2\n        /* \"#utility.yul\":5913:5923   */\n      add\n        /* \"#utility.yul\":5908:5923   */\n      swap1\n      pop\n        /* \"#utility.yul\":5884:5997   */\n      jump(tag_263)\n    tag_265:\n        /* \"#utility.yul\":6015:6021   */\n      dup4\n        /* \"#utility.yul\":6012:6013   */\n      dup2\n        /* \"#utility.yul\":6009:6022   */\n      gt\n        /* \"#utility.yul\":6006:6107   */\n      iszero\n      tag_266\n      jumpi\n        /* \"#utility.yul\":6095:6096   */\n      0x00\n        /* \"#utility.yul\":6086:6092   */\n      dup5\n        /* \"#utility.yul\":6081:6084   */\n      dup5\n        /* \"#utility.yul\":6077:6093   */\n      add\n        /* \"#utility.yul\":6070:6097   */\n      mstore\n        /* \"#utility.yul\":6006:6107   */\n    tag_266:\n        /* \"#utility.yul\":5855:6113   */\n      pop\n        /* \"#utility.yul\":5806:6113   */\n      pop\n      pop\n      pop\n      jump\t// out\n        /* \"#utility.yul\":6119:6439   */\n    tag_101:\n        /* \"#utility.yul\":6163:6169   */\n      0x00\n        /* \"#utility.yul\":6200:6201   */\n      0x02\n        /* \"#utility.yul\":6194:6198   */\n      dup3\n        /* \"#utility.yul\":6190:6202   */\n      div\n        /* \"#utility.yul\":6180:6202   */\n      swap1\n      pop\n        /* \"#utility.yul\":6247:6248   */\n      0x01\n        /* \"#utility.yul\":6241:6245   */\n      dup3\n        /* \"#utility.yul\":6237:6249   */\n      and\n        /* \"#utility.yul\":6268:6286   */\n      dup1\n        /* \"#utility.yul\":6258:6339   */\n      tag_268\n      jumpi\n        /* \"#utility.yul\":6324:6328   */\n      0x7f\n        /* \"#utility.yul\":6316:6322   */\n      dup3\n        /* \"#utility.yul\":6312:6329   */\n      and\n        /* \"#utility.yul\":6302:6329   */\n      swap2\n      pop\n        /* \"#utility.yul\":6258:6339   */\n    tag_268:\n        /* \"#utility.yul\":6386:6388   */\n      0x20\n        /* \"#utility.yul\":6378:6384   */\n      dup3\n        /* \"#utility.yul\":6375:6389   */\n      lt\n        /* \"#utility.yul\":6355:6373   */\n      dup2\n        /* \"#utility.yul\":6352:6390   */\n      eq\n        /* \"#utility.yul\":6349:6433   */\n      iszero\n      tag_269\n      jumpi\n        /* \"#utility.yul\":6405:6423   */\n      tag_270\n      tag_271\n      jump\t// in\n    tag_270:\n        /* \"#utility.yul\":6349:6433   */\n    tag_269:\n        /* \"#utility.yul\":6170:6439   */\n      pop\n        /* \"#utility.yul\":6119:6439   */\n      swap2\n      swap1\n      pop\n      jump\t// out\n        /* \"#utility.yul\":6445:6625   */\n    tag_243:\n        /* \"#utility.yul\":6493:6570   */\n      0x4e487b7100000000000000000000000000000000000000000000000000000000\n        /* \"#utility.yul\":6490:6491   */\n      0x00\n        /* \"#utility.yul\":6483:6571   */\n      mstore\n        /* \"#utility.yul\":6590:6594   */\n      0x11\n        /* \"#utility.yul\":6587:6588   */\n      0x04\n        /* \"#utility.yul\":6580:6595   */\n      mstore\n        /* \"#utility.yul\":6614:6618   */\n      0x24\n        /* \"#utility.yul\":6611:6612   */\n      0x00\n        /* \"#utility.yul\":6604:6619   */\n      revert\n        /* \"#utility.yul\":6631:6811   */\n    tag_84:\n        /* \"#utility.yul\":6679:6756   */\n      0x4e487b7100000000000000000000000000000000000000000000000000000000\n        /* \"#utility.yul\":6676:6677   */\n      0x00\n        /* \"#utility.yul\":6669:6757   */\n      mstore\n        /* \"#utility.yul\":6776:6780   */\n      0x21\n        /* \"#utility.yul\":6773:6774   */\n      0x04\n        /* \"#utility.yul\":6766:6781   */\n      mstore\n        /* \"#utility.yul\":6800:6804   */\n      0x24\n        /* \"#utility.yul\":6797:6798   */\n      0x00\n        /* \"#utility.yul\":6790:6805   */\n      revert\n        /* \"#utility.yul\":6817:6997   */\n    tag_271:\n        /* \"#utility.yul\":6865:6942   */\n      0x4e487b7100000000000000000000000000000000000000000000000000000000\n        /* \"#utility.yul\":6862:6863   */\n      0x00\n        /* \"#utility.yul\":6855:6943   */\n      mstore\n        /* \"#utility.yul\":6962:6966   */\n      0x22\n        /* \"#utility.yul\":6959:6960   */\n      0x04\n        /* \"#utility.yul\":6952:6967   */\n      mstore\n        /* \"#utility.yul\":6986:6990   */\n      0x24\n        /* \"#utility.yul\":6983:6984   */\n      0x00\n        /* \"#utility.yul\":6976:6991   */\n      revert\n        /* \"#utility.yul\":7126:7243   */\n    tag_183:\n        /* \"#utility.yul\":7235:7236   */\n      0x00\n        /* \"#utility.yul\":7232:7233   */\n      dup1\n        /* \"#utility.yul\":7225:7237   */\n      revert\n        /* \"#utility.yul\":7249:7351   */\n    tag_212:\n        /* \"#utility.yul\":7290:7296   */\n      0x00\n        /* \"#utility.yul\":7341:7343   */\n      0x1f\n        /* \"#utility.yul\":7337:7344   */\n      not\n        /* \"#utility.yul\":7332:7334   */\n      0x1f\n        /* \"#utility.yul\":7325:7330   */\n      dup4\n        /* \"#utility.yul\":7321:7335   */\n      add\n        /* \"#utility.yul\":7317:7345   */\n      and\n        /* \"#utility.yul\":7307:7345   */\n      swap1\n      pop\n        /* \"#utility.yul\":7249:7351   */\n      swap2\n      swap1\n      pop\n      jump\t// out\n        /* \"#utility.yul\":7357:7579   */\n    tag_217:\n        /* \"#utility.yul\":7497:7531   */\n      0x506c65617365207761697420756e74696c207468652061756374696f6e207374\n        /* \"#utility.yul\":7493:7494   */\n      0x00\n        /* \"#utility.yul\":7485:7491   */\n      dup3\n        /* \"#utility.yul\":7481:7495   */\n      add\n        /* \"#utility.yul\":7474:7532   */\n      mstore\n        /* \"#utility.yul\":7566:7571   */\n      0x6172740000000000000000000000000000000000000000000000000000000000\n        /* \"#utility.yul\":7561:7563   */\n      0x20\n        /* \"#utility.yul\":7553:7559   */\n      dup3\n        /* \"#utility.yul\":7549:7564   */\n      add\n        /* \"#utility.yul\":7542:7572   */\n      mstore\n        /* \"#utility.yul\":7357:7579   */\n      pop\n      jump\t// out\n        /* \"#utility.yul\":7585:7698   */\n    tag_257:\n        /* \"#utility.yul\":7666:7667   */\n      0x04\n        /* \"#utility.yul\":7659:7664   */\n      dup2\n        /* \"#utility.yul\":7656:7668   */\n      lt\n        /* \"#utility.yul\":7646:7692   */\n      tag_281\n      jumpi\n        /* \"#utility.yul\":7672:7690   */\n      tag_282\n      tag_84\n      jump\t// in\n    tag_282:\n        /* \"#utility.yul\":7646:7692   */\n    tag_281:\n        /* \"#utility.yul\":7585:7698   */\n      pop\n      jump\t// out\n        /* \"#utility.yul\":7704:7826   */\n    tag_175:\n        /* \"#utility.yul\":7777:7801   */\n      tag_284\n        /* \"#utility.yul\":7795:7800   */\n      dup2\n        /* \"#utility.yul\":7777:7801   */\n      tag_198\n      jump\t// in\n    tag_284:\n        /* \"#utility.yul\":7770:7775   */\n      dup2\n        /* \"#utility.yul\":7767:7802   */\n      eq\n        /* \"#utility.yul\":7757:7820   */\n      tag_285\n      jumpi\n        /* \"#utility.yul\":7816:7817   */\n      0x00\n        /* \"#utility.yul\":7813:7814   */\n      dup1\n        /* \"#utility.yul\":7806:7818   */\n      revert\n        /* \"#utility.yul\":7757:7820   */\n    tag_285:\n        /* \"#utility.yul\":7704:7826   */\n      pop\n      jump\t// out\n        /* \"#utility.yul\":7832:7954   */\n    tag_179:\n        /* \"#utility.yul\":7905:7929   */\n      tag_287\n        /* \"#utility.yul\":7923:7928   */\n      dup2\n        /* \"#utility.yul\":7905:7929   */\n      tag_221\n      jump\t// in\n    tag_287:\n        /* \"#utility.yul\":7898:7903   */\n      dup2\n        /* \"#utility.yul\":7895:7930   */\n      eq\n        /* \"#utility.yul\":7885:7948   */\n      tag_288\n      jumpi\n        /* \"#utility.yul\":7944:7945   */\n      0x00\n        /* \"#utility.yul\":7941:7942   */\n      dup1\n        /* \"#utility.yul\":7934:7946   */\n      revert\n        /* \"#utility.yul\":7885:7948   */\n    tag_288:\n        /* \"#utility.yul\":7832:7954   */\n      pop\n      jump\t// out\n\n    auxdata: 0xa26469706673582212209a69bd37696f0030fb9830dba1f00c04eaf51e868ec951aa81b92ba68b3c6d7b64736f6c63430008070033\n}\n",
				"bytecode": {
					"linkReferences": {},
					"object": "60806040523480156200001157600080fd5b506040516200148a3803806200148a83398181016040528101906200003791906200013e565b8073ffffffffffffffffffffffffffffffffffffffff163373ffffffffffffffffffffffffffffffffffffffff1614156200007157600080fd5b336000806101000a81548173ffffffffffffffffffffffffffffffffffffffff021916908373ffffffffffffffffffffffffffffffffffffffff16021790555080600160006101000a81548173ffffffffffffffffffffffffffffffffffffffff021916908373ffffffffffffffffffffffffffffffffffffffff1602179055506000600660006101000a81548160ff021916908360038111156200011b576200011a620001a4565b5b021790555050620001f2565b6000815190506200013881620001d8565b92915050565b600060208284031215620001575762000156620001d3565b5b6000620001678482850162000127565b91505092915050565b60006200017d8262000184565b9050919050565b600073ffffffffffffffffffffffffffffffffffffffff82169050919050565b7f4e487b7100000000000000000000000000000000000000000000000000000000600052602160045260246000fd5b600080fd5b620001e38162000170565b8114620001ef57600080fd5b50565b61128880620002026000396000f3fe6080604052600436106100dd5760003560e01c80638fa8b7901161007f578063d5f8418911610059578063d5f841891461028c578063ecfc7ecc146102b7578063f5b56c56146102c1578063f77282ab146102ec576100dd565b80638fa8b7901461021f57806391f9015714610236578063c623674f14610261576100dd565b806348cd4cb1116100bb57806348cd4cb11461016157806362ea82db1461018c5780637fb45099146101c95780638da5cb5b146101f4576100dd565b8063083c6323146100e2578063341175d51461010d57806338af3eed14610136575b600080fd5b3480156100ee57600080fd5b506100f7610303565b6040516101049190610f85565b60405180910390f35b34801561011957600080fd5b50610134600480360381019061012f9190610e07565b610309565b005b34801561014257600080fd5b5061014b610421565b6040516101589190610f0d565b60405180910390f35b34801561016d57600080fd5b50610176610447565b6040516101839190610f85565b60405180910390f35b34801561019857600080fd5b506101b360048036038101906101ae9190610dda565b61044d565b6040516101c09190610f85565b60405180910390f35b3480156101d557600080fd5b506101de610465565b6040516101eb9190610f28565b60405180910390f35b34801561020057600080fd5b50610209610478565b6040516102169190610ef2565b60405180910390f35b34801561022b57600080fd5b5061023461049c565b005b34801561024257600080fd5b5061024b610521565b6040516102589190610f0d565b60405180910390f35b34801561026d57600080fd5b50610276610547565b6040516102839190610f43565b60405180910390f35b34801561029857600080fd5b506102a16105d5565b6040516102ae9190610f85565b60405180910390f35b6102bf6105db565b005b3480156102cd57600080fd5b506102d6610981565b6040516102e39190610f85565b60405180910390f35b3480156102f857600080fd5b50610301610987565b005b60035481565b60008054906101000a900473ffffffffffffffffffffffffffffffffffffffff1673ffffffffffffffffffffffffffffffffffffffff163373ffffffffffffffffffffffffffffffffffffffff161461036157600080fd5b600160038111156103755761037461114d565b5b600660009054906101000a900460ff1660038111156103975761039661114d565b5b14156103a257600080fd5b43600281905550826002546103b79190610fbc565b6003819055506001600660006101000a81548160ff021916908360038111156103e3576103e261114d565b5b0217905550604051806020016040528060008152506005908051906020019061040d929190610d0d565b5081600a8190555080600481905550505050565b600160009054906101000a900473ffffffffffffffffffffffffffffffffffffffff1681565b60025481565b60096020528060005260406000206000915090505481565b600660009054906101000a900460ff1681565b60008054906101000a900473ffffffffffffffffffffffffffffffffffffffff1681565b60008054906101000a900473ffffffffffffffffffffffffffffffffffffffff1673ffffffffffffffffffffffffffffffffffffffff163373ffffffffffffffffffffffffffffffffffffffff16146104f457600080fd5b6003600660006101000a81548160ff0219169083600381111561051a5761051961114d565b5b0217905550565b600860009054906101000a900473ffffffffffffffffffffffffffffffffffffffff1681565b60058054610554906110ec565b80601f0160208091040260200160405190810160405280929190818152602001828054610580906110ec565b80156105cd5780601f106105a2576101008083540402835291602001916105cd565b820191906000526020600020905b8154815290600101906020018083116105b057829003601f168201915b505050505081565b60045481565b60008054906101000a900473ffffffffffffffffffffffffffffffffffffffff1673ffffffffffffffffffffffffffffffffffffffff163373ffffffffffffffffffffffffffffffffffffffff16141580156106855750600160009054906101000a900473ffffffffffffffffffffffffffffffffffffffff1673ffffffffffffffffffffffffffffffffffffffff163373ffffffffffffffffffffffffffffffffffffffff1614155b61068e57600080fd5b60025443101561069d57600080fd5b6003544311156106ac57600080fd5b600160038111156106c0576106bf61114d565b5b600660009054906101000a900460ff1660038111156106e2576106e161114d565b5b14610722576040517f08c379a000000000000000000000000000000000000000000000000000000000815260040161071990610f65565b60405180910390fd5b60045434101561073157600080fd5b600034600960003373ffffffffffffffffffffffffffffffffffffffff1673ffffffffffffffffffffffffffffffffffffffff1681526020019081526020016000205461077e9190610fbc565b905060075481101561078f57600080fd5b80600960003373ffffffffffffffffffffffffffffffffffffffff1673ffffffffffffffffffffffffffffffffffffffff1681526020019081526020016000208190555060096000600860009054906101000a900473ffffffffffffffffffffffffffffffffffffffff1673ffffffffffffffffffffffffffffffffffffffff1673ffffffffffffffffffffffffffffffffffffffff1681526020019081526020016000205481116108be576108b3600a548261084c9190610fbc565b60096000600860009054906101000a900473ffffffffffffffffffffffffffffffffffffffff1673ffffffffffffffffffffffffffffffffffffffff1673ffffffffffffffffffffffffffffffffffffffff16815260200190815260200160002054610c99565b60078190555061097e565b61093681600a5460096000600860009054906101000a900473ffffffffffffffffffffffffffffffffffffffff1673ffffffffffffffffffffffffffffffffffffffff1673ffffffffffffffffffffffffffffffffffffffff168152602001908152602001600020546109319190610fbc565b610c99565b60078190555033600860006101000a81548173ffffffffffffffffffffffffffffffffffffffff021916908373ffffffffffffffffffffffffffffffffffffffff1602179055505b50565b60075481565b60038081111561099a5761099961114d565b5b600660009054906101000a900460ff1660038111156109bc576109bb61114d565b5b14806109ca57506003544310155b6109d357600080fd5b6109dc33610cb4565b80610a2657506000600960003373ffffffffffffffffffffffffffffffffffffffff1673ffffffffffffffffffffffffffffffffffffffff16815260200190815260200160002054115b610a2f57600080fd5b600080600380811115610a4557610a4461114d565b5b600660009054906101000a900460ff166003811115610a6757610a6661114d565b5b1415610ab757339150600960003373ffffffffffffffffffffffffffffffffffffffff1673ffffffffffffffffffffffffffffffffffffffff168152602001908152602001600020549050610c09565b610ac033610cb4565b15610af25760008054906101000a900473ffffffffffffffffffffffffffffffffffffffff1691506007549050610c08565b600860009054906101000a900473ffffffffffffffffffffffffffffffffffffffff1673ffffffffffffffffffffffffffffffffffffffff163373ffffffffffffffffffffffffffffffffffffffff161415610bc157600860009054906101000a900473ffffffffffffffffffffffffffffffffffffffff169150600754600960003373ffffffffffffffffffffffffffffffffffffffff1673ffffffffffffffffffffffffffffffffffffffff16815260200190815260200160002054610bba9190611012565b9050610c07565b339150600960003373ffffffffffffffffffffffffffffffffffffffff1673ffffffffffffffffffffffffffffffffffffffff1681526020019081526020016000205490505b5b5b6000600960008473ffffffffffffffffffffffffffffffffffffffff1673ffffffffffffffffffffffffffffffffffffffff168152602001908152602001600020819055508173ffffffffffffffffffffffffffffffffffffffff166108fc829081150290604051600060405180830381858888f19350505050158015610c94573d6000803e3d6000fd5b505050565b6000818311610caa57829050610cae565b8190505b92915050565b60008060009054906101000a900473ffffffffffffffffffffffffffffffffffffffff1673ffffffffffffffffffffffffffffffffffffffff168273ffffffffffffffffffffffffffffffffffffffff16149050919050565b828054610d19906110ec565b90600052602060002090601f016020900481019282610d3b5760008555610d82565b82601f10610d5457805160ff1916838001178555610d82565b82800160010185558215610d82579182015b82811115610d81578251825591602001919060010190610d66565b5b509050610d8f9190610d93565b5090565b5b80821115610dac576000816000905550600101610d94565b5090565b600081359050610dbf81611224565b92915050565b600081359050610dd48161123b565b92915050565b600060208284031215610df057610def6111ab565b5b6000610dfe84828501610db0565b91505092915050565b600080600060608486031215610e2057610e1f6111ab565b5b6000610e2e86828701610dc5565b9350506020610e3f86828701610dc5565b9250506040610e5086828701610dc5565b9150509250925092565b610e6381611058565b82525050565b610e7281611046565b82525050565b610e81816110a7565b82525050565b6000610e9282610fa0565b610e9c8185610fab565b9350610eac8185602086016110b9565b610eb5816111b0565b840191505092915050565b6000610ecd602383610fab565b9150610ed8826111c1565b604082019050919050565b610eec8161109d565b82525050565b6000602082019050610f076000830184610e69565b92915050565b6000602082019050610f226000830184610e5a565b92915050565b6000602082019050610f3d6000830184610e78565b92915050565b60006020820190508181036000830152610f5d8184610e87565b905092915050565b60006020820190508181036000830152610f7e81610ec0565b9050919050565b6000602082019050610f9a6000830184610ee3565b92915050565b600081519050919050565b600082825260208201905092915050565b6000610fc78261109d565b9150610fd28361109d565b9250827fffffffffffffffffffffffffffffffffffffffffffffffffffffffffffffffff038211156110075761100661111e565b5b828201905092915050565b600061101d8261109d565b91506110288361109d565b92508282101561103b5761103a61111e565b5b828203905092915050565b60006110518261107d565b9050919050565b60006110638261107d565b9050919050565b600081905061107882611210565b919050565b600073ffffffffffffffffffffffffffffffffffffffff82169050919050565b6000819050919050565b60006110b28261106a565b9050919050565b60005b838110156110d75780820151818401526020810190506110bc565b838111156110e6576000848401525b50505050565b6000600282049050600182168061110457607f821691505b602082108114156111185761111761117c565b5b50919050565b7f4e487b7100000000000000000000000000000000000000000000000000000000600052601160045260246000fd5b7f4e487b7100000000000000000000000000000000000000000000000000000000600052602160045260246000fd5b7f4e487b7100000000000000000000000000000000000000000000000000000000600052602260045260246000fd5b600080fd5b6000601f19601f8301169050919050565b7f506c65617365207761697420756e74696c207468652061756374696f6e20737460008201527f6172740000000000000000000000000000000000000000000000000000000000602082015250565b600481106112215761122061114d565b5b50565b61122d81611046565b811461123857600080fd5b50565b6112448161109d565b811461124f57600080fd5b5056fea26469706673582212209a69bd37696f0030fb9830dba1f00c04eaf51e868ec951aa81b92ba68b3c6d7b64736f6c63430008070033",
					"opcodes": "PUSH1 0x80 PUSH1 0x40 MSTORE CALLVALUE DUP1 ISZERO PUSH3 0x11 JUMPI PUSH1 0x0 DUP1 REVERT JUMPDEST POP PUSH1 0x40 MLOAD PUSH3 0x148A CODESIZE SUB DUP1 PUSH3 0x148A DUP4 CODECOPY DUP2 DUP2 ADD PUSH1 0x40 MSTORE DUP2 ADD SWAP1 PUSH3 0x37 SWAP2 SWAP1 PUSH3 0x13E JUMP JUMPDEST DUP1 PUSH20 0xFFFFFFFFFFFFFFFFFFFFFFFFFFFFFFFFFFFFFFFF AND CALLER PUSH20 0xFFFFFFFFFFFFFFFFFFFFFFFFFFFFFFFFFFFFFFFF AND EQ ISZERO PUSH3 0x71 JUMPI PUSH1 0x0 DUP1 REVERT JUMPDEST CALLER PUSH1 0x0 DUP1 PUSH2 0x100 EXP DUP2 SLOAD DUP2 PUSH20 0xFFFFFFFFFFFFFFFFFFFFFFFFFFFFFFFFFFFFFFFF MUL NOT AND SWAP1 DUP4 PUSH20 0xFFFFFFFFFFFFFFFFFFFFFFFFFFFFFFFFFFFFFFFF AND MUL OR SWAP1 SSTORE POP DUP1 PUSH1 0x1 PUSH1 0x0 PUSH2 0x100 EXP DUP2 SLOAD DUP2 PUSH20 0xFFFFFFFFFFFFFFFFFFFFFFFFFFFFFFFFFFFFFFFF MUL NOT AND SWAP1 DUP4 PUSH20 0xFFFFFFFFFFFFFFFFFFFFFFFFFFFFFFFFFFFFFFFF AND MUL OR SWAP1 SSTORE POP PUSH1 0x0 PUSH1 0x6 PUSH1 0x0 PUSH2 0x100 EXP DUP2 SLOAD DUP2 PUSH1 0xFF MUL NOT AND SWAP1 DUP4 PUSH1 0x3 DUP2 GT ISZERO PUSH3 0x11B JUMPI PUSH3 0x11A PUSH3 0x1A4 JUMP JUMPDEST JUMPDEST MUL OR SWAP1 SSTORE POP POP PUSH3 0x1F2 JUMP JUMPDEST PUSH1 0x0 DUP2 MLOAD SWAP1 POP PUSH3 0x138 DUP2 PUSH3 0x1D8 JUMP JUMPDEST SWAP3 SWAP2 POP POP JUMP JUMPDEST PUSH1 0x0 PUSH1 0x20 DUP3 DUP5 SUB SLT ISZERO PUSH3 0x157 JUMPI PUSH3 0x156 PUSH3 0x1D3 JUMP JUMPDEST JUMPDEST PUSH1 0x0 PUSH3 0x167 DUP5 DUP3 DUP6 ADD PUSH3 0x127 JUMP JUMPDEST SWAP2 POP POP SWAP3 SWAP2 POP POP JUMP JUMPDEST PUSH1 0x0 PUSH3 0x17D DUP3 PUSH3 0x184 JUMP JUMPDEST SWAP1 POP SWAP2 SWAP1 POP JUMP JUMPDEST PUSH1 0x0 PUSH20 0xFFFFFFFFFFFFFFFFFFFFFFFFFFFFFFFFFFFFFFFF DUP3 AND SWAP1 POP SWAP2 SWAP1 POP JUMP JUMPDEST PUSH32 0x4E487B7100000000000000000000000000000000000000000000000000000000 PUSH1 0x0 MSTORE PUSH1 0x21 PUSH1 0x4 MSTORE PUSH1 0x24 PUSH1 0x0 REVERT JUMPDEST PUSH1 0x0 DUP1 REVERT JUMPDEST PUSH3 0x1E3 DUP2 PUSH3 0x170 JUMP JUMPDEST DUP2 EQ PUSH3 0x1EF JUMPI PUSH1 0x0 DUP1 REVERT JUMPDEST POP JUMP JUMPDEST PUSH2 0x1288 DUP1 PUSH3 0x202 PUSH1 0x0 CODECOPY PUSH1 0x0 RETURN INVALID PUSH1 0x80 PUSH1 0x40 MSTORE PUSH1 0x4 CALLDATASIZE LT PUSH2 0xDD JUMPI PUSH1 0x0 CALLDATALOAD PUSH1 0xE0 SHR DUP1 PUSH4 0x8FA8B790 GT PUSH2 0x7F JUMPI DUP1 PUSH4 0xD5F84189 GT PUSH2 0x59 JUMPI DUP1 PUSH4 0xD5F84189 EQ PUSH2 0x28C JUMPI DUP1 PUSH4 0xECFC7ECC EQ PUSH2 0x2B7 JUMPI DUP1 PUSH4 0xF5B56C56 EQ PUSH2 0x2C1 JUMPI DUP1 PUSH4 0xF77282AB EQ PUSH2 0x2EC JUMPI PUSH2 0xDD JUMP JUMPDEST DUP1 PUSH4 0x8FA8B790 EQ PUSH2 0x21F JUMPI DUP1 PUSH4 0x91F90157 EQ PUSH2 0x236 JUMPI DUP1 PUSH4 0xC623674F EQ PUSH2 0x261 JUMPI PUSH2 0xDD JUMP JUMPDEST DUP1 PUSH4 0x48CD4CB1 GT PUSH2 0xBB JUMPI DUP1 PUSH4 0x48CD4CB1 EQ PUSH2 0x161 JUMPI DUP1 PUSH4 0x62EA82DB EQ PUSH2 0x18C JUMPI DUP1 PUSH4 0x7FB45099 EQ PUSH2 0x1C9 JUMPI DUP1 PUSH4 0x8DA5CB5B EQ PUSH2 0x1F4 JUMPI PUSH2 0xDD JUMP JUMPDEST DUP1 PUSH4 0x83C6323 EQ PUSH2 0xE2 JUMPI DUP1 PUSH4 0x341175D5 EQ PUSH2 0x10D JUMPI DUP1 PUSH4 0x38AF3EED EQ PUSH2 0x136 JUMPI JUMPDEST PUSH1 0x0 DUP1 REVERT JUMPDEST CALLVALUE DUP1 ISZERO PUSH2 0xEE JUMPI PUSH1 0x0 DUP1 REVERT JUMPDEST POP PUSH2 0xF7 PUSH2 0x303 JUMP JUMPDEST PUSH1 0x40 MLOAD PUSH2 0x104 SWAP2 SWAP1 PUSH2 0xF85 JUMP JUMPDEST PUSH1 0x40 MLOAD DUP1 SWAP2 SUB SWAP1 RETURN JUMPDEST CALLVALUE DUP1 ISZERO PUSH2 0x119 JUMPI PUSH1 0x0 DUP1 REVERT JUMPDEST POP PUSH2 0x134 PUSH1 0x4 DUP1 CALLDATASIZE SUB DUP2 ADD SWAP1 PUSH2 0x12F SWAP2 SWAP1 PUSH2 0xE07 JUMP JUMPDEST PUSH2 0x309 JUMP JUMPDEST STOP JUMPDEST CALLVALUE DUP1 ISZERO PUSH2 0x142 JUMPI PUSH1 0x0 DUP1 REVERT JUMPDEST POP PUSH2 0x14B PUSH2 0x421 JUMP JUMPDEST PUSH1 0x40 MLOAD PUSH2 0x158 SWAP2 SWAP1 PUSH2 0xF0D JUMP JUMPDEST PUSH1 0x40 MLOAD DUP1 SWAP2 SUB SWAP1 RETURN JUMPDEST CALLVALUE DUP1 ISZERO PUSH2 0x16D JUMPI PUSH1 0x0 DUP1 REVERT JUMPDEST POP PUSH2 0x176 PUSH2 0x447 JUMP JUMPDEST PUSH1 0x40 MLOAD PUSH2 0x183 SWAP2 SWAP1 PUSH2 0xF85 JUMP JUMPDEST PUSH1 0x40 MLOAD DUP1 SWAP2 SUB SWAP1 RETURN JUMPDEST CALLVALUE DUP1 ISZERO PUSH2 0x198 JUMPI PUSH1 0x0 DUP1 REVERT JUMPDEST POP PUSH2 0x1B3 PUSH1 0x4 DUP1 CALLDATASIZE SUB DUP2 ADD SWAP1 PUSH2 0x1AE SWAP2 SWAP1 PUSH2 0xDDA JUMP JUMPDEST PUSH2 0x44D JUMP JUMPDEST PUSH1 0x40 MLOAD PUSH2 0x1C0 SWAP2 SWAP1 PUSH2 0xF85 JUMP JUMPDEST PUSH1 0x40 MLOAD DUP1 SWAP2 SUB SWAP1 RETURN JUMPDEST CALLVALUE DUP1 ISZERO PUSH2 0x1D5 JUMPI PUSH1 0x0 DUP1 REVERT JUMPDEST POP PUSH2 0x1DE PUSH2 0x465 JUMP JUMPDEST PUSH1 0x40 MLOAD PUSH2 0x1EB SWAP2 SWAP1 PUSH2 0xF28 JUMP JUMPDEST PUSH1 0x40 MLOAD DUP1 SWAP2 SUB SWAP1 RETURN JUMPDEST CALLVALUE DUP1 ISZERO PUSH2 0x200 JUMPI PUSH1 0x0 DUP1 REVERT JUMPDEST POP PUSH2 0x209 PUSH2 0x478 JUMP JUMPDEST PUSH1 0x40 MLOAD PUSH2 0x216 SWAP2 SWAP1 PUSH2 0xEF2 JUMP JUMPDEST PUSH1 0x40 MLOAD DUP1 SWAP2 SUB SWAP1 RETURN JUMPDEST CALLVALUE DUP1 ISZERO PUSH2 0x22B JUMPI PUSH1 0x0 DUP1 REVERT JUMPDEST POP PUSH2 0x234 PUSH2 0x49C JUMP JUMPDEST STOP JUMPDEST CALLVALUE DUP1 ISZERO PUSH2 0x242 JUMPI PUSH1 0x0 DUP1 REVERT JUMPDEST POP PUSH2 0x24B PUSH2 0x521 JUMP JUMPDEST PUSH1 0x40 MLOAD PUSH2 0x258 SWAP2 SWAP1 PUSH2 0xF0D JUMP JUMPDEST PUSH1 0x40 MLOAD DUP1 SWAP2 SUB SWAP1 RETURN JUMPDEST CALLVALUE DUP1 ISZERO PUSH2 0x26D JUMPI PUSH1 0x0 DUP1 REVERT JUMPDEST POP PUSH2 0x276 PUSH2 0x547 JUMP JUMPDEST PUSH1 0x40 MLOAD PUSH2 0x283 SWAP2 SWAP1 PUSH2 0xF43 JUMP JUMPDEST PUSH1 0x40 MLOAD DUP1 SWAP2 SUB SWAP1 RETURN JUMPDEST CALLVALUE DUP1 ISZERO PUSH2 0x298 JUMPI PUSH1 0x0 DUP1 REVERT JUMPDEST POP PUSH2 0x2A1 PUSH2 0x5D5 JUMP JUMPDEST PUSH1 0x40 MLOAD PUSH2 0x2AE SWAP2 SWAP1 PUSH2 0xF85 JUMP JUMPDEST PUSH1 0x40 MLOAD DUP1 SWAP2 SUB SWAP1 RETURN JUMPDEST PUSH2 0x2BF PUSH2 0x5DB JUMP JUMPDEST STOP JUMPDEST CALLVALUE DUP1 ISZERO PUSH2 0x2CD JUMPI PUSH1 0x0 DUP1 REVERT JUMPDEST POP PUSH2 0x2D6 PUSH2 0x981 JUMP JUMPDEST PUSH1 0x40 MLOAD PUSH2 0x2E3 SWAP2 SWAP1 PUSH2 0xF85 JUMP JUMPDEST PUSH1 0x40 MLOAD DUP1 SWAP2 SUB SWAP1 RETURN JUMPDEST CALLVALUE DUP1 ISZERO PUSH2 0x2F8 JUMPI PUSH1 0x0 DUP1 REVERT JUMPDEST POP PUSH2 0x301 PUSH2 0x987 JUMP JUMPDEST STOP JUMPDEST PUSH1 0x3 SLOAD DUP2 JUMP JUMPDEST PUSH1 0x0 DUP1 SLOAD SWAP1 PUSH2 0x100 EXP SWAP1 DIV PUSH20 0xFFFFFFFFFFFFFFFFFFFFFFFFFFFFFFFFFFFFFFFF AND PUSH20 0xFFFFFFFFFFFFFFFFFFFFFFFFFFFFFFFFFFFFFFFF AND CALLER PUSH20 0xFFFFFFFFFFFFFFFFFFFFFFFFFFFFFFFFFFFFFFFF AND EQ PUSH2 0x361 JUMPI PUSH1 0x0 DUP1 REVERT JUMPDEST PUSH1 0x1 PUSH1 0x3 DUP2 GT ISZERO PUSH2 0x375 JUMPI PUSH2 0x374 PUSH2 0x114D JUMP JUMPDEST JUMPDEST PUSH1 0x6 PUSH1 0x0 SWAP1 SLOAD SWAP1 PUSH2 0x100 EXP SWAP1 DIV PUSH1 0xFF AND PUSH1 0x3 DUP2 GT ISZERO PUSH2 0x397 JUMPI PUSH2 0x396 PUSH2 0x114D JUMP JUMPDEST JUMPDEST EQ ISZERO PUSH2 0x3A2 JUMPI PUSH1 0x0 DUP1 REVERT JUMPDEST NUMBER PUSH1 0x2 DUP2 SWAP1 SSTORE POP DUP3 PUSH1 0x2 SLOAD PUSH2 0x3B7 SWAP2 SWAP1 PUSH2 0xFBC JUMP JUMPDEST PUSH1 0x3 DUP2 SWAP1 SSTORE POP PUSH1 0x1 PUSH1 0x6 PUSH1 0x0 PUSH2 0x100 EXP DUP2 SLOAD DUP2 PUSH1 0xFF MUL NOT AND SWAP1 DUP4 PUSH1 0x3 DUP2 GT ISZERO PUSH2 0x3E3 JUMPI PUSH2 0x3E2 PUSH2 0x114D JUMP JUMPDEST JUMPDEST MUL OR SWAP1 SSTORE POP PUSH1 0x40 MLOAD DUP1 PUSH1 0x20 ADD PUSH1 0x40 MSTORE DUP1 PUSH1 0x0 DUP2 MSTORE POP PUSH1 0x5 SWAP1 DUP1 MLOAD SWAP1 PUSH1 0x20 ADD SWAP1 PUSH2 0x40D SWAP3 SWAP2 SWAP1 PUSH2 0xD0D JUMP JUMPDEST POP DUP2 PUSH1 0xA DUP2 SWAP1 SSTORE POP DUP1 PUSH1 0x4 DUP2 SWAP1 SSTORE POP POP POP POP JUMP JUMPDEST PUSH1 0x1 PUSH1 0x0 SWAP1 SLOAD SWAP1 PUSH2 0x100 EXP SWAP1 DIV PUSH20 0xFFFFFFFFFFFFFFFFFFFFFFFFFFFFFFFFFFFFFFFF AND DUP2 JUMP JUMPDEST PUSH1 0x2 SLOAD DUP2 JUMP JUMPDEST PUSH1 0x9 PUSH1 0x20 MSTORE DUP1 PUSH1 0x0 MSTORE PUSH1 0x40 PUSH1 0x0 KECCAK256 PUSH1 0x0 SWAP2 POP SWAP1 POP SLOAD DUP2 JUMP JUMPDEST PUSH1 0x6 PUSH1 0x0 SWAP1 SLOAD SWAP1 PUSH2 0x100 EXP SWAP1 DIV PUSH1 0xFF AND DUP2 JUMP JUMPDEST PUSH1 0x0 DUP1 SLOAD SWAP1 PUSH2 0x100 EXP SWAP1 DIV PUSH20 0xFFFFFFFFFFFFFFFFFFFFFFFFFFFFFFFFFFFFFFFF AND DUP2 JUMP JUMPDEST PUSH1 0x0 DUP1 SLOAD SWAP1 PUSH2 0x100 EXP SWAP1 DIV PUSH20 0xFFFFFFFFFFFFFFFFFFFFFFFFFFFFFFFFFFFFFFFF AND PUSH20 0xFFFFFFFFFFFFFFFFFFFFFFFFFFFFFFFFFFFFFFFF AND CALLER PUSH20 0xFFFFFFFFFFFFFFFFFFFFFFFFFFFFFFFFFFFFFFFF AND EQ PUSH2 0x4F4 JUMPI PUSH1 0x0 DUP1 REVERT JUMPDEST PUSH1 0x3 PUSH1 0x6 PUSH1 0x0 PUSH2 0x100 EXP DUP2 SLOAD DUP2 PUSH1 0xFF MUL NOT AND SWAP1 DUP4 PUSH1 0x3 DUP2 GT ISZERO PUSH2 0x51A JUMPI PUSH2 0x519 PUSH2 0x114D JUMP JUMPDEST JUMPDEST MUL OR SWAP1 SSTORE POP JUMP JUMPDEST PUSH1 0x8 PUSH1 0x0 SWAP1 SLOAD SWAP1 PUSH2 0x100 EXP SWAP1 DIV PUSH20 0xFFFFFFFFFFFFFFFFFFFFFFFFFFFFFFFFFFFFFFFF AND DUP2 JUMP JUMPDEST PUSH1 0x5 DUP1 SLOAD PUSH2 0x554 SWAP1 PUSH2 0x10EC JUMP JUMPDEST DUP1 PUSH1 0x1F ADD PUSH1 0x20 DUP1 SWAP2 DIV MUL PUSH1 0x20 ADD PUSH1 0x40 MLOAD SWAP1 DUP2 ADD PUSH1 0x40 MSTORE DUP1 SWAP3 SWAP2 SWAP1 DUP2 DUP2 MSTORE PUSH1 0x20 ADD DUP3 DUP1 SLOAD PUSH2 0x580 SWAP1 PUSH2 0x10EC JUMP JUMPDEST DUP1 ISZERO PUSH2 0x5CD JUMPI DUP1 PUSH1 0x1F LT PUSH2 0x5A2 JUMPI PUSH2 0x100 DUP1 DUP4 SLOAD DIV MUL DUP4 MSTORE SWAP2 PUSH1 0x20 ADD SWAP2 PUSH2 0x5CD JUMP JUMPDEST DUP3 ADD SWAP2 SWAP1 PUSH1 0x0 MSTORE PUSH1 0x20 PUSH1 0x0 KECCAK256 SWAP1 JUMPDEST DUP2 SLOAD DUP2 MSTORE SWAP1 PUSH1 0x1 ADD SWAP1 PUSH1 0x20 ADD DUP1 DUP4 GT PUSH2 0x5B0 JUMPI DUP3 SWAP1 SUB PUSH1 0x1F AND DUP3 ADD SWAP2 JUMPDEST POP POP POP POP POP DUP2 JUMP JUMPDEST PUSH1 0x4 SLOAD DUP2 JUMP JUMPDEST PUSH1 0x0 DUP1 SLOAD SWAP1 PUSH2 0x100 EXP SWAP1 DIV PUSH20 0xFFFFFFFFFFFFFFFFFFFFFFFFFFFFFFFFFFFFFFFF AND PUSH20 0xFFFFFFFFFFFFFFFFFFFFFFFFFFFFFFFFFFFFFFFF AND CALLER PUSH20 0xFFFFFFFFFFFFFFFFFFFFFFFFFFFFFFFFFFFFFFFF AND EQ ISZERO DUP1 ISZERO PUSH2 0x685 JUMPI POP PUSH1 0x1 PUSH1 0x0 SWAP1 SLOAD SWAP1 PUSH2 0x100 EXP SWAP1 DIV PUSH20 0xFFFFFFFFFFFFFFFFFFFFFFFFFFFFFFFFFFFFFFFF AND PUSH20 0xFFFFFFFFFFFFFFFFFFFFFFFFFFFFFFFFFFFFFFFF AND CALLER PUSH20 0xFFFFFFFFFFFFFFFFFFFFFFFFFFFFFFFFFFFFFFFF AND EQ ISZERO JUMPDEST PUSH2 0x68E JUMPI PUSH1 0x0 DUP1 REVERT JUMPDEST PUSH1 0x2 SLOAD NUMBER LT ISZERO PUSH2 0x69D JUMPI PUSH1 0x0 DUP1 REVERT JUMPDEST PUSH1 0x3 SLOAD NUMBER GT ISZERO PUSH2 0x6AC JUMPI PUSH1 0x0 DUP1 REVERT JUMPDEST PUSH1 0x1 PUSH1 0x3 DUP2 GT ISZERO PUSH2 0x6C0 JUMPI PUSH2 0x6BF PUSH2 0x114D JUMP JUMPDEST JUMPDEST PUSH1 0x6 PUSH1 0x0 SWAP1 SLOAD SWAP1 PUSH2 0x100 EXP SWAP1 DIV PUSH1 0xFF AND PUSH1 0x3 DUP2 GT ISZERO PUSH2 0x6E2 JUMPI PUSH2 0x6E1 PUSH2 0x114D JUMP JUMPDEST JUMPDEST EQ PUSH2 0x722 JUMPI PUSH1 0x40 MLOAD PUSH32 0x8C379A000000000000000000000000000000000000000000000000000000000 DUP2 MSTORE PUSH1 0x4 ADD PUSH2 0x719 SWAP1 PUSH2 0xF65 JUMP JUMPDEST PUSH1 0x40 MLOAD DUP1 SWAP2 SUB SWAP1 REVERT JUMPDEST PUSH1 0x4 SLOAD CALLVALUE LT ISZERO PUSH2 0x731 JUMPI PUSH1 0x0 DUP1 REVERT JUMPDEST PUSH1 0x0 CALLVALUE PUSH1 0x9 PUSH1 0x0 CALLER PUSH20 0xFFFFFFFFFFFFFFFFFFFFFFFFFFFFFFFFFFFFFFFF AND PUSH20 0xFFFFFFFFFFFFFFFFFFFFFFFFFFFFFFFFFFFFFFFF AND DUP2 MSTORE PUSH1 0x20 ADD SWAP1 DUP2 MSTORE PUSH1 0x20 ADD PUSH1 0x0 KECCAK256 SLOAD PUSH2 0x77E SWAP2 SWAP1 PUSH2 0xFBC JUMP JUMPDEST SWAP1 POP PUSH1 0x7 SLOAD DUP2 LT ISZERO PUSH2 0x78F JUMPI PUSH1 0x0 DUP1 REVERT JUMPDEST DUP1 PUSH1 0x9 PUSH1 0x0 CALLER PUSH20 0xFFFFFFFFFFFFFFFFFFFFFFFFFFFFFFFFFFFFFFFF AND PUSH20 0xFFFFFFFFFFFFFFFFFFFFFFFFFFFFFFFFFFFFFFFF AND DUP2 MSTORE PUSH1 0x20 ADD SWAP1 DUP2 MSTORE PUSH1 0x20 ADD PUSH1 0x0 KECCAK256 DUP2 SWAP1 SSTORE POP PUSH1 0x9 PUSH1 0x0 PUSH1 0x8 PUSH1 0x0 SWAP1 SLOAD SWAP1 PUSH2 0x100 EXP SWAP1 DIV PUSH20 0xFFFFFFFFFFFFFFFFFFFFFFFFFFFFFFFFFFFFFFFF AND PUSH20 0xFFFFFFFFFFFFFFFFFFFFFFFFFFFFFFFFFFFFFFFF AND PUSH20 0xFFFFFFFFFFFFFFFFFFFFFFFFFFFFFFFFFFFFFFFF AND DUP2 MSTORE PUSH1 0x20 ADD SWAP1 DUP2 MSTORE PUSH1 0x20 ADD PUSH1 0x0 KECCAK256 SLOAD DUP2 GT PUSH2 0x8BE JUMPI PUSH2 0x8B3 PUSH1 0xA SLOAD DUP3 PUSH2 0x84C SWAP2 SWAP1 PUSH2 0xFBC JUMP JUMPDEST PUSH1 0x9 PUSH1 0x0 PUSH1 0x8 PUSH1 0x0 SWAP1 SLOAD SWAP1 PUSH2 0x100 EXP SWAP1 DIV PUSH20 0xFFFFFFFFFFFFFFFFFFFFFFFFFFFFFFFFFFFFFFFF AND PUSH20 0xFFFFFFFFFFFFFFFFFFFFFFFFFFFFFFFFFFFFFFFF AND PUSH20 0xFFFFFFFFFFFFFFFFFFFFFFFFFFFFFFFFFFFFFFFF AND DUP2 MSTORE PUSH1 0x20 ADD SWAP1 DUP2 MSTORE PUSH1 0x20 ADD PUSH1 0x0 KECCAK256 SLOAD PUSH2 0xC99 JUMP JUMPDEST PUSH1 0x7 DUP2 SWAP1 SSTORE POP PUSH2 0x97E JUMP JUMPDEST PUSH2 0x936 DUP2 PUSH1 0xA SLOAD PUSH1 0x9 PUSH1 0x0 PUSH1 0x8 PUSH1 0x0 SWAP1 SLOAD SWAP1 PUSH2 0x100 EXP SWAP1 DIV PUSH20 0xFFFFFFFFFFFFFFFFFFFFFFFFFFFFFFFFFFFFFFFF AND PUSH20 0xFFFFFFFFFFFFFFFFFFFFFFFFFFFFFFFFFFFFFFFF AND PUSH20 0xFFFFFFFFFFFFFFFFFFFFFFFFFFFFFFFFFFFFFFFF AND DUP2 MSTORE PUSH1 0x20 ADD SWAP1 DUP2 MSTORE PUSH1 0x20 ADD PUSH1 0x0 KECCAK256 SLOAD PUSH2 0x931 SWAP2 SWAP1 PUSH2 0xFBC JUMP JUMPDEST PUSH2 0xC99 JUMP JUMPDEST PUSH1 0x7 DUP2 SWAP1 SSTORE POP CALLER PUSH1 0x8 PUSH1 0x0 PUSH2 0x100 EXP DUP2 SLOAD DUP2 PUSH20 0xFFFFFFFFFFFFFFFFFFFFFFFFFFFFFFFFFFFFFFFF MUL NOT AND SWAP1 DUP4 PUSH20 0xFFFFFFFFFFFFFFFFFFFFFFFFFFFFFFFFFFFFFFFF AND MUL OR SWAP1 SSTORE POP JUMPDEST POP JUMP JUMPDEST PUSH1 0x7 SLOAD DUP2 JUMP JUMPDEST PUSH1 0x3 DUP1 DUP2 GT ISZERO PUSH2 0x99A JUMPI PUSH2 0x999 PUSH2 0x114D JUMP JUMPDEST JUMPDEST PUSH1 0x6 PUSH1 0x0 SWAP1 SLOAD SWAP1 PUSH2 0x100 EXP SWAP1 DIV PUSH1 0xFF AND PUSH1 0x3 DUP2 GT ISZERO PUSH2 0x9BC JUMPI PUSH2 0x9BB PUSH2 0x114D JUMP JUMPDEST JUMPDEST EQ DUP1 PUSH2 0x9CA JUMPI POP PUSH1 0x3 SLOAD NUMBER LT ISZERO JUMPDEST PUSH2 0x9D3 JUMPI PUSH1 0x0 DUP1 REVERT JUMPDEST PUSH2 0x9DC CALLER PUSH2 0xCB4 JUMP JUMPDEST DUP1 PUSH2 0xA26 JUMPI POP PUSH1 0x0 PUSH1 0x9 PUSH1 0x0 CALLER PUSH20 0xFFFFFFFFFFFFFFFFFFFFFFFFFFFFFFFFFFFFFFFF AND PUSH20 0xFFFFFFFFFFFFFFFFFFFFFFFFFFFFFFFFFFFFFFFF AND DUP2 MSTORE PUSH1 0x20 ADD SWAP1 DUP2 MSTORE PUSH1 0x20 ADD PUSH1 0x0 KECCAK256 SLOAD GT JUMPDEST PUSH2 0xA2F JUMPI PUSH1 0x0 DUP1 REVERT JUMPDEST PUSH1 0x0 DUP1 PUSH1 0x3 DUP1 DUP2 GT ISZERO PUSH2 0xA45 JUMPI PUSH2 0xA44 PUSH2 0x114D JUMP JUMPDEST JUMPDEST PUSH1 0x6 PUSH1 0x0 SWAP1 SLOAD SWAP1 PUSH2 0x100 EXP SWAP1 DIV PUSH1 0xFF AND PUSH1 0x3 DUP2 GT ISZERO PUSH2 0xA67 JUMPI PUSH2 0xA66 PUSH2 0x114D JUMP JUMPDEST JUMPDEST EQ ISZERO PUSH2 0xAB7 JUMPI CALLER SWAP2 POP PUSH1 0x9 PUSH1 0x0 CALLER PUSH20 0xFFFFFFFFFFFFFFFFFFFFFFFFFFFFFFFFFFFFFFFF AND PUSH20 0xFFFFFFFFFFFFFFFFFFFFFFFFFFFFFFFFFFFFFFFF AND DUP2 MSTORE PUSH1 0x20 ADD SWAP1 DUP2 MSTORE PUSH1 0x20 ADD PUSH1 0x0 KECCAK256 SLOAD SWAP1 POP PUSH2 0xC09 JUMP JUMPDEST PUSH2 0xAC0 CALLER PUSH2 0xCB4 JUMP JUMPDEST ISZERO PUSH2 0xAF2 JUMPI PUSH1 0x0 DUP1 SLOAD SWAP1 PUSH2 0x100 EXP SWAP1 DIV PUSH20 0xFFFFFFFFFFFFFFFFFFFFFFFFFFFFFFFFFFFFFFFF AND SWAP2 POP PUSH1 0x7 SLOAD SWAP1 POP PUSH2 0xC08 JUMP JUMPDEST PUSH1 0x8 PUSH1 0x0 SWAP1 SLOAD SWAP1 PUSH2 0x100 EXP SWAP1 DIV PUSH20 0xFFFFFFFFFFFFFFFFFFFFFFFFFFFFFFFFFFFFFFFF AND PUSH20 0xFFFFFFFFFFFFFFFFFFFFFFFFFFFFFFFFFFFFFFFF AND CALLER PUSH20 0xFFFFFFFFFFFFFFFFFFFFFFFFFFFFFFFFFFFFFFFF AND EQ ISZERO PUSH2 0xBC1 JUMPI PUSH1 0x8 PUSH1 0x0 SWAP1 SLOAD SWAP1 PUSH2 0x100 EXP SWAP1 DIV PUSH20 0xFFFFFFFFFFFFFFFFFFFFFFFFFFFFFFFFFFFFFFFF AND SWAP2 POP PUSH1 0x7 SLOAD PUSH1 0x9 PUSH1 0x0 CALLER PUSH20 0xFFFFFFFFFFFFFFFFFFFFFFFFFFFFFFFFFFFFFFFF AND PUSH20 0xFFFFFFFFFFFFFFFFFFFFFFFFFFFFFFFFFFFFFFFF AND DUP2 MSTORE PUSH1 0x20 ADD SWAP1 DUP2 MSTORE PUSH1 0x20 ADD PUSH1 0x0 KECCAK256 SLOAD PUSH2 0xBBA SWAP2 SWAP1 PUSH2 0x1012 JUMP JUMPDEST SWAP1 POP PUSH2 0xC07 JUMP JUMPDEST CALLER SWAP2 POP PUSH1 0x9 PUSH1 0x0 CALLER PUSH20 0xFFFFFFFFFFFFFFFFFFFFFFFFFFFFFFFFFFFFFFFF AND PUSH20 0xFFFFFFFFFFFFFFFFFFFFFFFFFFFFFFFFFFFFFFFF AND DUP2 MSTORE PUSH1 0x20 ADD SWAP1 DUP2 MSTORE PUSH1 0x20 ADD PUSH1 0x0 KECCAK256 SLOAD SWAP1 POP JUMPDEST JUMPDEST JUMPDEST PUSH1 0x0 PUSH1 0x9 PUSH1 0x0 DUP5 PUSH20 0xFFFFFFFFFFFFFFFFFFFFFFFFFFFFFFFFFFFFFFFF AND PUSH20 0xFFFFFFFFFFFFFFFFFFFFFFFFFFFFFFFFFFFFFFFF AND DUP2 MSTORE PUSH1 0x20 ADD SWAP1 DUP2 MSTORE PUSH1 0x20 ADD PUSH1 0x0 KECCAK256 DUP2 SWAP1 SSTORE POP DUP2 PUSH20 0xFFFFFFFFFFFFFFFFFFFFFFFFFFFFFFFFFFFFFFFF AND PUSH2 0x8FC DUP3 SWAP1 DUP2 ISZERO MUL SWAP1 PUSH1 0x40 MLOAD PUSH1 0x0 PUSH1 0x40 MLOAD DUP1 DUP4 SUB DUP2 DUP6 DUP9 DUP9 CALL SWAP4 POP POP POP POP ISZERO DUP1 ISZERO PUSH2 0xC94 JUMPI RETURNDATASIZE PUSH1 0x0 DUP1 RETURNDATACOPY RETURNDATASIZE PUSH1 0x0 REVERT JUMPDEST POP POP POP JUMP JUMPDEST PUSH1 0x0 DUP2 DUP4 GT PUSH2 0xCAA JUMPI DUP3 SWAP1 POP PUSH2 0xCAE JUMP JUMPDEST DUP2 SWAP1 POP JUMPDEST SWAP3 SWAP2 POP POP JUMP JUMPDEST PUSH1 0x0 DUP1 PUSH1 0x0 SWAP1 SLOAD SWAP1 PUSH2 0x100 EXP SWAP1 DIV PUSH20 0xFFFFFFFFFFFFFFFFFFFFFFFFFFFFFFFFFFFFFFFF AND PUSH20 0xFFFFFFFFFFFFFFFFFFFFFFFFFFFFFFFFFFFFFFFF AND DUP3 PUSH20 0xFFFFFFFFFFFFFFFFFFFFFFFFFFFFFFFFFFFFFFFF AND EQ SWAP1 POP SWAP2 SWAP1 POP JUMP JUMPDEST DUP3 DUP1 SLOAD PUSH2 0xD19 SWAP1 PUSH2 0x10EC JUMP JUMPDEST SWAP1 PUSH1 0x0 MSTORE PUSH1 0x20 PUSH1 0x0 KECCAK256 SWAP1 PUSH1 0x1F ADD PUSH1 0x20 SWAP1 DIV DUP2 ADD SWAP3 DUP3 PUSH2 0xD3B JUMPI PUSH1 0x0 DUP6 SSTORE PUSH2 0xD82 JUMP JUMPDEST DUP3 PUSH1 0x1F LT PUSH2 0xD54 JUMPI DUP1 MLOAD PUSH1 0xFF NOT AND DUP4 DUP1 ADD OR DUP6 SSTORE PUSH2 0xD82 JUMP JUMPDEST DUP3 DUP1 ADD PUSH1 0x1 ADD DUP6 SSTORE DUP3 ISZERO PUSH2 0xD82 JUMPI SWAP2 DUP3 ADD JUMPDEST DUP3 DUP2 GT ISZERO PUSH2 0xD81 JUMPI DUP3 MLOAD DUP3 SSTORE SWAP2 PUSH1 0x20 ADD SWAP2 SWAP1 PUSH1 0x1 ADD SWAP1 PUSH2 0xD66 JUMP JUMPDEST JUMPDEST POP SWAP1 POP PUSH2 0xD8F SWAP2 SWAP1 PUSH2 0xD93 JUMP JUMPDEST POP SWAP1 JUMP JUMPDEST JUMPDEST DUP1 DUP3 GT ISZERO PUSH2 0xDAC JUMPI PUSH1 0x0 DUP2 PUSH1 0x0 SWAP1 SSTORE POP PUSH1 0x1 ADD PUSH2 0xD94 JUMP JUMPDEST POP SWAP1 JUMP JUMPDEST PUSH1 0x0 DUP2 CALLDATALOAD SWAP1 POP PUSH2 0xDBF DUP2 PUSH2 0x1224 JUMP JUMPDEST SWAP3 SWAP2 POP POP JUMP JUMPDEST PUSH1 0x0 DUP2 CALLDATALOAD SWAP1 POP PUSH2 0xDD4 DUP2 PUSH2 0x123B JUMP JUMPDEST SWAP3 SWAP2 POP POP JUMP JUMPDEST PUSH1 0x0 PUSH1 0x20 DUP3 DUP5 SUB SLT ISZERO PUSH2 0xDF0 JUMPI PUSH2 0xDEF PUSH2 0x11AB JUMP JUMPDEST JUMPDEST PUSH1 0x0 PUSH2 0xDFE DUP5 DUP3 DUP6 ADD PUSH2 0xDB0 JUMP JUMPDEST SWAP2 POP POP SWAP3 SWAP2 POP POP JUMP JUMPDEST PUSH1 0x0 DUP1 PUSH1 0x0 PUSH1 0x60 DUP5 DUP7 SUB SLT ISZERO PUSH2 0xE20 JUMPI PUSH2 0xE1F PUSH2 0x11AB JUMP JUMPDEST JUMPDEST PUSH1 0x0 PUSH2 0xE2E DUP7 DUP3 DUP8 ADD PUSH2 0xDC5 JUMP JUMPDEST SWAP4 POP POP PUSH1 0x20 PUSH2 0xE3F DUP7 DUP3 DUP8 ADD PUSH2 0xDC5 JUMP JUMPDEST SWAP3 POP POP PUSH1 0x40 PUSH2 0xE50 DUP7 DUP3 DUP8 ADD PUSH2 0xDC5 JUMP JUMPDEST SWAP2 POP POP SWAP3 POP SWAP3 POP SWAP3 JUMP JUMPDEST PUSH2 0xE63 DUP2 PUSH2 0x1058 JUMP JUMPDEST DUP3 MSTORE POP POP JUMP JUMPDEST PUSH2 0xE72 DUP2 PUSH2 0x1046 JUMP JUMPDEST DUP3 MSTORE POP POP JUMP JUMPDEST PUSH2 0xE81 DUP2 PUSH2 0x10A7 JUMP JUMPDEST DUP3 MSTORE POP POP JUMP JUMPDEST PUSH1 0x0 PUSH2 0xE92 DUP3 PUSH2 0xFA0 JUMP JUMPDEST PUSH2 0xE9C DUP2 DUP6 PUSH2 0xFAB JUMP JUMPDEST SWAP4 POP PUSH2 0xEAC DUP2 DUP6 PUSH1 0x20 DUP7 ADD PUSH2 0x10B9 JUMP JUMPDEST PUSH2 0xEB5 DUP2 PUSH2 0x11B0 JUMP JUMPDEST DUP5 ADD SWAP2 POP POP SWAP3 SWAP2 POP POP JUMP JUMPDEST PUSH1 0x0 PUSH2 0xECD PUSH1 0x23 DUP4 PUSH2 0xFAB JUMP JUMPDEST SWAP2 POP PUSH2 0xED8 DUP3 PUSH2 0x11C1 JUMP JUMPDEST PUSH1 0x40 DUP3 ADD SWAP1 POP SWAP2 SWAP1 POP JUMP JUMPDEST PUSH2 0xEEC DUP2 PUSH2 0x109D JUMP JUMPDEST DUP3 MSTORE POP POP JUMP JUMPDEST PUSH1 0x0 PUSH1 0x20 DUP3 ADD SWAP1 POP PUSH2 0xF07 PUSH1 0x0 DUP4 ADD DUP5 PUSH2 0xE69 JUMP JUMPDEST SWAP3 SWAP2 POP POP JUMP JUMPDEST PUSH1 0x0 PUSH1 0x20 DUP3 ADD SWAP1 POP PUSH2 0xF22 PUSH1 0x0 DUP4 ADD DUP5 PUSH2 0xE5A JUMP JUMPDEST SWAP3 SWAP2 POP POP JUMP JUMPDEST PUSH1 0x0 PUSH1 0x20 DUP3 ADD SWAP1 POP PUSH2 0xF3D PUSH1 0x0 DUP4 ADD DUP5 PUSH2 0xE78 JUMP JUMPDEST SWAP3 SWAP2 POP POP JUMP JUMPDEST PUSH1 0x0 PUSH1 0x20 DUP3 ADD SWAP1 POP DUP2 DUP2 SUB PUSH1 0x0 DUP4 ADD MSTORE PUSH2 0xF5D DUP2 DUP5 PUSH2 0xE87 JUMP JUMPDEST SWAP1 POP SWAP3 SWAP2 POP POP JUMP JUMPDEST PUSH1 0x0 PUSH1 0x20 DUP3 ADD SWAP1 POP DUP2 DUP2 SUB PUSH1 0x0 DUP4 ADD MSTORE PUSH2 0xF7E DUP2 PUSH2 0xEC0 JUMP JUMPDEST SWAP1 POP SWAP2 SWAP1 POP JUMP JUMPDEST PUSH1 0x0 PUSH1 0x20 DUP3 ADD SWAP1 POP PUSH2 0xF9A PUSH1 0x0 DUP4 ADD DUP5 PUSH2 0xEE3 JUMP JUMPDEST SWAP3 SWAP2 POP POP JUMP JUMPDEST PUSH1 0x0 DUP2 MLOAD SWAP1 POP SWAP2 SWAP1 POP JUMP JUMPDEST PUSH1 0x0 DUP3 DUP3 MSTORE PUSH1 0x20 DUP3 ADD SWAP1 POP SWAP3 SWAP2 POP POP JUMP JUMPDEST PUSH1 0x0 PUSH2 0xFC7 DUP3 PUSH2 0x109D JUMP JUMPDEST SWAP2 POP PUSH2 0xFD2 DUP4 PUSH2 0x109D JUMP JUMPDEST SWAP3 POP DUP3 PUSH32 0xFFFFFFFFFFFFFFFFFFFFFFFFFFFFFFFFFFFFFFFFFFFFFFFFFFFFFFFFFFFFFFFF SUB DUP3 GT ISZERO PUSH2 0x1007 JUMPI PUSH2 0x1006 PUSH2 0x111E JUMP JUMPDEST JUMPDEST DUP3 DUP3 ADD SWAP1 POP SWAP3 SWAP2 POP POP JUMP JUMPDEST PUSH1 0x0 PUSH2 0x101D DUP3 PUSH2 0x109D JUMP JUMPDEST SWAP2 POP PUSH2 0x1028 DUP4 PUSH2 0x109D JUMP JUMPDEST SWAP3 POP DUP3 DUP3 LT ISZERO PUSH2 0x103B JUMPI PUSH2 0x103A PUSH2 0x111E JUMP JUMPDEST JUMPDEST DUP3 DUP3 SUB SWAP1 POP SWAP3 SWAP2 POP POP JUMP JUMPDEST PUSH1 0x0 PUSH2 0x1051 DUP3 PUSH2 0x107D JUMP JUMPDEST SWAP1 POP SWAP2 SWAP1 POP JUMP JUMPDEST PUSH1 0x0 PUSH2 0x1063 DUP3 PUSH2 0x107D JUMP JUMPDEST SWAP1 POP SWAP2 SWAP1 POP JUMP JUMPDEST PUSH1 0x0 DUP2 SWAP1 POP PUSH2 0x1078 DUP3 PUSH2 0x1210 JUMP JUMPDEST SWAP2 SWAP1 POP JUMP JUMPDEST PUSH1 0x0 PUSH20 0xFFFFFFFFFFFFFFFFFFFFFFFFFFFFFFFFFFFFFFFF DUP3 AND SWAP1 POP SWAP2 SWAP1 POP JUMP JUMPDEST PUSH1 0x0 DUP2 SWAP1 POP SWAP2 SWAP1 POP JUMP JUMPDEST PUSH1 0x0 PUSH2 0x10B2 DUP3 PUSH2 0x106A JUMP JUMPDEST SWAP1 POP SWAP2 SWAP1 POP JUMP JUMPDEST PUSH1 0x0 JUMPDEST DUP4 DUP2 LT ISZERO PUSH2 0x10D7 JUMPI DUP1 DUP3 ADD MLOAD DUP2 DUP5 ADD MSTORE PUSH1 0x20 DUP2 ADD SWAP1 POP PUSH2 0x10BC JUMP JUMPDEST DUP4 DUP2 GT ISZERO PUSH2 0x10E6 JUMPI PUSH1 0x0 DUP5 DUP5 ADD MSTORE JUMPDEST POP POP POP POP JUMP JUMPDEST PUSH1 0x0 PUSH1 0x2 DUP3 DIV SWAP1 POP PUSH1 0x1 DUP3 AND DUP1 PUSH2 0x1104 JUMPI PUSH1 0x7F DUP3 AND SWAP2 POP JUMPDEST PUSH1 0x20 DUP3 LT DUP2 EQ ISZERO PUSH2 0x1118 JUMPI PUSH2 0x1117 PUSH2 0x117C JUMP JUMPDEST JUMPDEST POP SWAP2 SWAP1 POP JUMP JUMPDEST PUSH32 0x4E487B7100000000000000000000000000000000000000000000000000000000 PUSH1 0x0 MSTORE PUSH1 0x11 PUSH1 0x4 MSTORE PUSH1 0x24 PUSH1 0x0 REVERT JUMPDEST PUSH32 0x4E487B7100000000000000000000000000000000000000000000000000000000 PUSH1 0x0 MSTORE PUSH1 0x21 PUSH1 0x4 MSTORE PUSH1 0x24 PUSH1 0x0 REVERT JUMPDEST PUSH32 0x4E487B7100000000000000000000000000000000000000000000000000000000 PUSH1 0x0 MSTORE PUSH1 0x22 PUSH1 0x4 MSTORE PUSH1 0x24 PUSH1 0x0 REVERT JUMPDEST PUSH1 0x0 DUP1 REVERT JUMPDEST PUSH1 0x0 PUSH1 0x1F NOT PUSH1 0x1F DUP4 ADD AND SWAP1 POP SWAP2 SWAP1 POP JUMP JUMPDEST PUSH32 0x506C65617365207761697420756E74696C207468652061756374696F6E207374 PUSH1 0x0 DUP3 ADD MSTORE PUSH32 0x6172740000000000000000000000000000000000000000000000000000000000 PUSH1 0x20 DUP3 ADD MSTORE POP JUMP JUMPDEST PUSH1 0x4 DUP2 LT PUSH2 0x1221 JUMPI PUSH2 0x1220 PUSH2 0x114D JUMP JUMPDEST JUMPDEST POP JUMP JUMPDEST PUSH2 0x122D DUP2 PUSH2 0x1046 JUMP JUMPDEST DUP2 EQ PUSH2 0x1238 JUMPI PUSH1 0x0 DUP1 REVERT JUMPDEST POP JUMP JUMPDEST PUSH2 0x1244 DUP2 PUSH2 0x109D JUMP JUMPDEST DUP2 EQ PUSH2 0x124F JUMPI PUSH1 0x0 DUP1 REVERT JUMPDEST POP JUMP INVALID LOG2 PUSH5 0x6970667358 0x22 SLT KECCAK256 SWAP11 PUSH10 0xBD37696F0030FB9830DB LOG1 CREATE 0xC DIV 0xEA CREATE2 0x1E DUP7 DUP15 0xC9 MLOAD 0xAA DUP2 0xB9 0x2B 0xA6 DUP12 EXTCODECOPY PUSH14 0x7B64736F6C634300080700330000 "
				},
				"gasEstimates": {
					"creation": {
						"codeDepositCost": "948800",
						"executionCost": "infinite",
						"totalCost": "infinite"
					},
					"external": {
						"MinimumBidValue()": "2451",
						"auctionState()": "2627",
						"beneficiary()": "2582",
						"bids(address)": "2859",
						"cancelAuction()": "26621",
						"endBlock()": "2453",
						"finalizeAuction()": "infinite",
						"highestBidder()": "2559",
						"highestBindingBid()": "2495",
						"ipfsHash()": "infinite",
						"owner()": "2600",
						"placeBid()": "infinite",
						"startBlock()": "2452",
						"startNewBid(uint256,uint256,uint256)": "infinite"
					},
					"internal": {
						"isOwner(address)": "2182",
						"min(uint256,uint256)": "64"
					}
				},
				"methodIdentifiers": {
					"MinimumBidValue()": "d5f84189",
					"auctionState()": "7fb45099",
					"beneficiary()": "38af3eed",
					"bids(address)": "62ea82db",
					"cancelAuction()": "8fa8b790",
					"endBlock()": "083c6323",
					"finalizeAuction()": "f77282ab",
					"highestBidder()": "91f90157",
					"highestBindingBid()": "f5b56c56",
					"ipfsHash()": "c623674f",
					"owner()": "8da5cb5b",
					"placeBid()": "ecfc7ecc",
					"startBlock()": "48cd4cb1",
					"startNewBid(uint256,uint256,uint256)": "341175d5"
				}
			},
			"storageLayout": {
				"storage": [
					{
						"astId": 3,
						"contract": "SmartContract-Auction/Auction.sol:Auction",
						"label": "owner",
						"offset": 0,
						"slot": "0",
						"type": "t_address"
					},
					{
						"astId": 5,
						"contract": "SmartContract-Auction/Auction.sol:Auction",
						"label": "beneficiary",
						"offset": 0,
						"slot": "1",
						"type": "t_address_payable"
					},
					{
						"astId": 7,
						"contract": "SmartContract-Auction/Auction.sol:Auction",
						"label": "startBlock",
						"offset": 0,
						"slot": "2",
						"type": "t_uint256"
					},
					{
						"astId": 9,
						"contract": "SmartContract-Auction/Auction.sol:Auction",
						"label": "endBlock",
						"offset": 0,
						"slot": "3",
						"type": "t_uint256"
					},
					{
						"astId": 11,
						"contract": "SmartContract-Auction/Auction.sol:Auction",
						"label": "MinimumBidValue",
						"offset": 0,
						"slot": "4",
						"type": "t_uint256"
					},
					{
						"astId": 13,
						"contract": "SmartContract-Auction/Auction.sol:Auction",
						"label": "ipfsHash",
						"offset": 0,
						"slot": "5",
						"type": "t_string_storage"
					},
					{
						"astId": 21,
						"contract": "SmartContract-Auction/Auction.sol:Auction",
						"label": "auctionState",
						"offset": 0,
						"slot": "6",
						"type": "t_enum(State)18"
					},
					{
						"astId": 23,
						"contract": "SmartContract-Auction/Auction.sol:Auction",
						"label": "highestBindingBid",
						"offset": 0,
						"slot": "7",
						"type": "t_uint256"
					},
					{
						"astId": 25,
						"contract": "SmartContract-Auction/Auction.sol:Auction",
						"label": "highestBidder",
						"offset": 0,
						"slot": "8",
						"type": "t_address_payable"
					},
					{
						"astId": 29,
						"contract": "SmartContract-Auction/Auction.sol:Auction",
						"label": "bids",
						"offset": 0,
						"slot": "9",
						"type": "t_mapping(t_address,t_uint256)"
					},
					{
						"astId": 31,
						"contract": "SmartContract-Auction/Auction.sol:Auction",
						"label": "bidIncrement",
						"offset": 0,
						"slot": "10",
						"type": "t_uint256"
					}
				],
				"types": {
					"t_address": {
						"encoding": "inplace",
						"label": "address",
						"numberOfBytes": "20"
					},
					"t_address_payable": {
						"encoding": "inplace",
						"label": "address payable",
						"numberOfBytes": "20"
					},
					"t_enum(State)18": {
						"encoding": "inplace",
						"label": "enum Auction.State",
						"numberOfBytes": "1"
					},
					"t_mapping(t_address,t_uint256)": {
						"encoding": "mapping",
						"key": "t_address",
						"label": "mapping(address => uint256)",
						"numberOfBytes": "32",
						"value": "t_uint256"
					},
					"t_string_storage": {
						"encoding": "bytes",
						"label": "string",
						"numberOfBytes": "32"
					},
					"t_uint256": {
						"encoding": "inplace",
						"label": "uint256",
						"numberOfBytes": "32"
					}
				}
			},
			"userdoc": {
				"kind": "user",
				"methods": {},
				"version": 1
			}
		}
	}
}