{
	"SmartContract-Auction/Auction.sol": {
		"Auction": {
			"abi": [
				{
					"inputs": [
						{
							"internalType": "address payable",
							"name": "_beneficiary",
							"type": "address"
						}
					],
					"stateMutability": "nonpayable",
					"type": "constructor"
				},
				{
					"inputs": [],
					"name": "MinimumBidValue",
					"outputs": [
						{
							"internalType": "uint256",
							"name": "",
							"type": "uint256"
						}
					],
					"stateMutability": "view",
					"type": "function"
				},
				{
					"inputs": [
						{
							"internalType": "address",
							"name": "",
							"type": "address"
						}
					],
					"name": "UsersCart",
					"outputs": [
						{
							"internalType": "string",
							"name": "Name",
							"type": "string"
						},
						{
							"internalType": "bool",
							"name": "active",
							"type": "bool"
						}
					],
					"stateMutability": "view",
					"type": "function"
				},
				{
					"inputs": [],
					"name": "auctionState",
					"outputs": [
						{
							"internalType": "enum Auction.State",
							"name": "",
							"type": "uint8"
						}
					],
					"stateMutability": "view",
					"type": "function"
				},
				{
					"inputs": [],
					"name": "beneficiary",
					"outputs": [
						{
							"internalType": "address payable",
							"name": "",
							"type": "address"
						}
					],
					"stateMutability": "view",
					"type": "function"
				},
				{
					"inputs": [
						{
							"internalType": "address",
							"name": "",
							"type": "address"
						}
					],
					"name": "bids",
					"outputs": [
						{
							"internalType": "uint256",
							"name": "",
							"type": "uint256"
						}
					],
					"stateMutability": "view",
					"type": "function"
				},
				{
					"inputs": [],
					"name": "endBlock",
					"outputs": [
						{
							"internalType": "uint256",
							"name": "",
							"type": "uint256"
						}
					],
					"stateMutability": "view",
					"type": "function"
				},
				{
					"inputs": [],
					"name": "highestBidder",
					"outputs": [
						{
							"internalType": "address payable",
							"name": "",
							"type": "address"
						}
					],
					"stateMutability": "view",
					"type": "function"
				},
				{
					"inputs": [],
					"name": "highestBindingBid",
					"outputs": [
						{
							"internalType": "uint256",
							"name": "",
							"type": "uint256"
						}
					],
					"stateMutability": "view",
					"type": "function"
				},
				{
					"inputs": [],
					"name": "ipfsHash",
					"outputs": [
						{
							"internalType": "string",
							"name": "",
							"type": "string"
						}
					],
					"stateMutability": "view",
					"type": "function"
				},
				{
					"inputs": [],
					"name": "owner",
					"outputs": [
						{
							"internalType": "address",
							"name": "",
							"type": "address"
						}
					],
					"stateMutability": "view",
					"type": "function"
				},
				{
					"inputs": [],
					"name": "placeBid",
					"outputs": [],
					"stateMutability": "payable",
					"type": "function"
				},
				{
					"inputs": [],
					"name": "startBlock",
					"outputs": [
						{
							"internalType": "uint256",
							"name": "",
							"type": "uint256"
						}
					],
					"stateMutability": "view",
					"type": "function"
				},
				{
					"inputs": [
						{
							"internalType": "uint256",
							"name": "blocksGenerated",
							"type": "uint256"
						},
						{
							"internalType": "uint256",
							"name": "BidIncrementWei",
							"type": "uint256"
						},
						{
							"internalType": "uint256",
							"name": "_MinimumBidValue",
							"type": "uint256"
						}
					],
					"name": "startNewBid",
					"outputs": [],
					"stateMutability": "nonpayable",
					"type": "function"
				}
			],
			"devdoc": {
				"kind": "dev",
				"methods": {},
				"version": 1
			},
			"evm": {
				"assembly": "    /* \"SmartContract-Auction/Auction.sol\":68:2907  contract Auction {... */\n  mstore(0x40, 0x80)\n    /* \"SmartContract-Auction/Auction.sol\":695:843  constructor(address payable _beneficiary){... */\n  callvalue\n  dup1\n  iszero\n  tag_1\n  jumpi\n  0x00\n  dup1\n  revert\ntag_1:\n  pop\n  mload(0x40)\n  sub(codesize, bytecodeSize)\n  dup1\n  bytecodeSize\n  dup4\n  codecopy\n  dup2\n  dup2\n  add\n  0x40\n  mstore\n  dup2\n  add\n  swap1\n  tag_2\n  swap2\n  swap1\n  tag_3\n  jump\t// in\ntag_2:\n    /* \"SmartContract-Auction/Auction.sol\":754:764  msg.sender */\n  caller\n    /* \"SmartContract-Auction/Auction.sol\":746:751  owner */\n  0x00\n  dup1\n    /* \"SmartContract-Auction/Auction.sol\":746:764  owner = msg.sender */\n  0x0100\n  exp\n  dup2\n  sload\n  dup2\n  0xffffffffffffffffffffffffffffffffffffffff\n  mul\n  not\n  and\n  swap1\n  dup4\n  0xffffffffffffffffffffffffffffffffffffffff\n  and\n  mul\n  or\n  swap1\n  sstore\n  pop\n    /* \"SmartContract-Auction/Auction.sol\":788:800  _beneficiary */\n  dup1\n    /* \"SmartContract-Auction/Auction.sol\":774:785  beneficiary */\n  0x01\n  0x00\n    /* \"SmartContract-Auction/Auction.sol\":774:800  beneficiary = _beneficiary */\n  0x0100\n  exp\n  dup2\n  sload\n  dup2\n  0xffffffffffffffffffffffffffffffffffffffff\n  mul\n  not\n  and\n  swap1\n  dup4\n  0xffffffffffffffffffffffffffffffffffffffff\n  and\n  mul\n  or\n  swap1\n  sstore\n  pop\n    /* \"SmartContract-Auction/Auction.sol\":825:836  State.Ended */\n  0x02\n    /* \"SmartContract-Auction/Auction.sol\":810:822  auctionState */\n  0x06\n  0x00\n    /* \"SmartContract-Auction/Auction.sol\":810:836  auctionState = State.Ended */\n  0x0100\n  exp\n  dup2\n  sload\n  dup2\n  0xff\n  mul\n  not\n  and\n  swap1\n  dup4\n  0x03\n  dup2\n  gt\n  iszero\n  tag_6\n  jumpi\n  tag_7\n  tag_8\n  jump\t// in\ntag_7:\ntag_6:\n  mul\n  or\n  swap1\n  sstore\n  pop\n    /* \"SmartContract-Auction/Auction.sol\":695:843  constructor(address payable _beneficiary){... */\n  pop\n    /* \"SmartContract-Auction/Auction.sol\":68:2907  contract Auction {... */\n  jump(tag_9)\n    /* \"#utility.yul\":7:166   */\ntag_11:\n    /* \"#utility.yul\":72:77   */\n  0x00\n    /* \"#utility.yul\":103:109   */\n  dup2\n    /* \"#utility.yul\":97:110   */\n  mload\n    /* \"#utility.yul\":88:110   */\n  swap1\n  pop\n    /* \"#utility.yul\":119:160   */\n  tag_13\n    /* \"#utility.yul\":154:159   */\n  dup2\n    /* \"#utility.yul\":119:160   */\n  tag_14\n  jump\t// in\ntag_13:\n    /* \"#utility.yul\":7:166   */\n  swap3\n  swap2\n  pop\n  pop\n  jump\t// out\n    /* \"#utility.yul\":172:539   */\ntag_3:\n    /* \"#utility.yul\":250:256   */\n  0x00\n    /* \"#utility.yul\":299:301   */\n  0x20\n    /* \"#utility.yul\":287:296   */\n  dup3\n    /* \"#utility.yul\":278:285   */\n  dup5\n    /* \"#utility.yul\":274:297   */\n  sub\n    /* \"#utility.yul\":270:302   */\n  slt\n    /* \"#utility.yul\":267:386   */\n  iszero\n  tag_16\n  jumpi\n    /* \"#utility.yul\":305:384   */\n  tag_17\n  tag_18\n  jump\t// in\ntag_17:\n    /* \"#utility.yul\":267:386   */\ntag_16:\n    /* \"#utility.yul\":425:426   */\n  0x00\n    /* \"#utility.yul\":450:522   */\n  tag_19\n    /* \"#utility.yul\":514:521   */\n  dup5\n    /* \"#utility.yul\":505:511   */\n  dup3\n    /* \"#utility.yul\":494:503   */\n  dup6\n    /* \"#utility.yul\":490:512   */\n  add\n    /* \"#utility.yul\":450:522   */\n  tag_11\n  jump\t// in\ntag_19:\n    /* \"#utility.yul\":440:522   */\n  swap2\n  pop\n    /* \"#utility.yul\":396:532   */\n  pop\n    /* \"#utility.yul\":172:539   */\n  swap3\n  swap2\n  pop\n  pop\n  jump\t// out\n    /* \"#utility.yul\":626:730   */\ntag_22:\n    /* \"#utility.yul\":671:678   */\n  0x00\n    /* \"#utility.yul\":700:724   */\n  tag_24\n    /* \"#utility.yul\":718:723   */\n  dup3\n    /* \"#utility.yul\":700:724   */\n  tag_25\n  jump\t// in\ntag_24:\n    /* \"#utility.yul\":689:724   */\n  swap1\n  pop\n    /* \"#utility.yul\":626:730   */\n  swap2\n  swap1\n  pop\n  jump\t// out\n    /* \"#utility.yul\":736:862   */\ntag_25:\n    /* \"#utility.yul\":773:780   */\n  0x00\n    /* \"#utility.yul\":813:855   */\n  0xffffffffffffffffffffffffffffffffffffffff\n    /* \"#utility.yul\":806:811   */\n  dup3\n    /* \"#utility.yul\":802:856   */\n  and\n    /* \"#utility.yul\":791:856   */\n  swap1\n  pop\n    /* \"#utility.yul\":736:862   */\n  swap2\n  swap1\n  pop\n  jump\t// out\n    /* \"#utility.yul\":868:1048   */\ntag_8:\n    /* \"#utility.yul\":916:993   */\n  0x4e487b7100000000000000000000000000000000000000000000000000000000\n    /* \"#utility.yul\":913:914   */\n  0x00\n    /* \"#utility.yul\":906:994   */\n  mstore\n    /* \"#utility.yul\":1013:1017   */\n  0x21\n    /* \"#utility.yul\":1010:1011   */\n  0x04\n    /* \"#utility.yul\":1003:1018   */\n  mstore\n    /* \"#utility.yul\":1037:1041   */\n  0x24\n    /* \"#utility.yul\":1034:1035   */\n  0x00\n    /* \"#utility.yul\":1027:1042   */\n  revert\n    /* \"#utility.yul\":1177:1294   */\ntag_18:\n    /* \"#utility.yul\":1286:1287   */\n  0x00\n    /* \"#utility.yul\":1283:1284   */\n  dup1\n    /* \"#utility.yul\":1276:1288   */\n  revert\n    /* \"#utility.yul\":1300:1438   */\ntag_14:\n    /* \"#utility.yul\":1381:1413   */\n  tag_32\n    /* \"#utility.yul\":1407:1412   */\n  dup2\n    /* \"#utility.yul\":1381:1413   */\n  tag_22\n  jump\t// in\ntag_32:\n    /* \"#utility.yul\":1374:1379   */\n  dup2\n    /* \"#utility.yul\":1371:1414   */\n  eq\n    /* \"#utility.yul\":1361:1432   */\n  tag_33\n  jumpi\n    /* \"#utility.yul\":1428:1429   */\n  0x00\n    /* \"#utility.yul\":1425:1426   */\n  dup1\n    /* \"#utility.yul\":1418:1430   */\n  revert\n    /* \"#utility.yul\":1361:1432   */\ntag_33:\n    /* \"#utility.yul\":1300:1438   */\n  pop\n  jump\t// out\n    /* \"SmartContract-Auction/Auction.sol\":68:2907  contract Auction {... */\ntag_9:\n  dataSize(sub_0)\n  dup1\n  dataOffset(sub_0)\n  0x00\n  codecopy\n  0x00\n  return\nstop\n\nsub_0: assembly {\n        /* \"SmartContract-Auction/Auction.sol\":68:2907  contract Auction {... */\n      mstore(0x40, 0x80)\n      jumpi(tag_1, lt(calldatasize, 0x04))\n      shr(0xe0, calldataload(0x00))\n      dup1\n      0x8da5cb5b\n      gt\n      tag_15\n      jumpi\n      dup1\n      0xc623674f\n      gt\n      tag_16\n      jumpi\n      dup1\n      0xc623674f\n      eq\n      tag_11\n      jumpi\n      dup1\n      0xd5f84189\n      eq\n      tag_12\n      jumpi\n      dup1\n      0xecfc7ecc\n      eq\n      tag_13\n      jumpi\n      dup1\n      0xf5b56c56\n      eq\n      tag_14\n      jumpi\n      jump(tag_1)\n    tag_16:\n      dup1\n      0x8da5cb5b\n      eq\n      tag_8\n      jumpi\n      dup1\n      0x91f90157\n      eq\n      tag_9\n      jumpi\n      dup1\n      0xbde97e09\n      eq\n      tag_10\n      jumpi\n      jump(tag_1)\n    tag_15:\n      dup1\n      0x083c6323\n      eq\n      tag_2\n      jumpi\n      dup1\n      0x341175d5\n      eq\n      tag_3\n      jumpi\n      dup1\n      0x38af3eed\n      eq\n      tag_4\n      jumpi\n      dup1\n      0x48cd4cb1\n      eq\n      tag_5\n      jumpi\n      dup1\n      0x62ea82db\n      eq\n      tag_6\n      jumpi\n      dup1\n      0x7fb45099\n      eq\n      tag_7\n      jumpi\n    tag_1:\n      0x00\n      dup1\n      revert\n        /* \"SmartContract-Auction/Auction.sol\":284:304  uint public endBlock */\n    tag_2:\n      callvalue\n      dup1\n      iszero\n      tag_17\n      jumpi\n      0x00\n      dup1\n      revert\n    tag_17:\n      pop\n      tag_18\n      tag_19\n      jump\t// in\n    tag_18:\n      mload(0x40)\n      tag_20\n      swap2\n      swap1\n      tag_21\n      jump\t// in\n    tag_20:\n      mload(0x40)\n      dup1\n      swap2\n      sub\n      swap1\n      return\n        /* \"SmartContract-Auction/Auction.sol\":1073:1423  function startNewBid(uint blocksGenerated, uint BidIncrementWei, uint _MinimumBidValue) public onlyOwner onlyEnded{... */\n    tag_3:\n      callvalue\n      dup1\n      iszero\n      tag_22\n      jumpi\n      0x00\n      dup1\n      revert\n    tag_22:\n      pop\n      tag_23\n      0x04\n      dup1\n      calldatasize\n      sub\n      dup2\n      add\n      swap1\n      tag_24\n      swap2\n      swap1\n      tag_25\n      jump\t// in\n    tag_24:\n      tag_26\n      jump\t// in\n    tag_23:\n      stop\n        /* \"SmartContract-Auction/Auction.sol\":117:151  address payable public beneficiary */\n    tag_4:\n      callvalue\n      dup1\n      iszero\n      tag_27\n      jumpi\n      0x00\n      dup1\n      revert\n    tag_27:\n      pop\n      tag_28\n      tag_29\n      jump\t// in\n    tag_28:\n      mload(0x40)\n      tag_30\n      swap2\n      swap1\n      tag_31\n      jump\t// in\n    tag_30:\n      mload(0x40)\n      dup1\n      swap2\n      sub\n      swap1\n      return\n        /* \"SmartContract-Auction/Auction.sol\":256:278  uint public startBlock */\n    tag_5:\n      callvalue\n      dup1\n      iszero\n      tag_32\n      jumpi\n      0x00\n      dup1\n      revert\n    tag_32:\n      pop\n      tag_33\n      tag_34\n      jump\t// in\n    tag_33:\n      mload(0x40)\n      tag_35\n      swap2\n      swap1\n      tag_21\n      jump\t// in\n    tag_35:\n      mload(0x40)\n      dup1\n      swap2\n      sub\n      swap1\n      return\n        /* \"SmartContract-Auction/Auction.sol\":571:607  mapping(address => uint) public bids */\n    tag_6:\n      callvalue\n      dup1\n      iszero\n      tag_36\n      jumpi\n      0x00\n      dup1\n      revert\n    tag_36:\n      pop\n      tag_37\n      0x04\n      dup1\n      calldatasize\n      sub\n      dup2\n      add\n      swap1\n      tag_38\n      swap2\n      swap1\n      tag_39\n      jump\t// in\n    tag_38:\n      tag_40\n      jump\t// in\n    tag_37:\n      mload(0x40)\n      tag_41\n      swap2\n      swap1\n      tag_21\n      jump\t// in\n    tag_41:\n      mload(0x40)\n      dup1\n      swap2\n      sub\n      swap1\n      return\n        /* \"SmartContract-Auction/Auction.sol\":461:486  State public auctionState */\n    tag_7:\n      callvalue\n      dup1\n      iszero\n      tag_42\n      jumpi\n      0x00\n      dup1\n      revert\n    tag_42:\n      pop\n      tag_43\n      tag_44\n      jump\t// in\n    tag_43:\n      mload(0x40)\n      tag_45\n      swap2\n      swap1\n      tag_46\n      jump\t// in\n    tag_45:\n      mload(0x40)\n      dup1\n      swap2\n      sub\n      swap1\n      return\n        /* \"SmartContract-Auction/Auction.sol\":91:111  address public owner */\n    tag_8:\n      callvalue\n      dup1\n      iszero\n      tag_47\n      jumpi\n      0x00\n      dup1\n      revert\n    tag_47:\n      pop\n      tag_48\n      tag_49\n      jump\t// in\n    tag_48:\n      mload(0x40)\n      tag_50\n      swap2\n      swap1\n      tag_51\n      jump\t// in\n    tag_50:\n      mload(0x40)\n      dup1\n      swap2\n      sub\n      swap1\n      return\n        /* \"SmartContract-Auction/Auction.sol\":528:564  address payable public highestBidder */\n    tag_9:\n      callvalue\n      dup1\n      iszero\n      tag_52\n      jumpi\n      0x00\n      dup1\n      revert\n    tag_52:\n      pop\n      tag_53\n      tag_54\n      jump\t// in\n    tag_53:\n      mload(0x40)\n      tag_55\n      swap2\n      swap1\n      tag_31\n      jump\t// in\n    tag_55:\n      mload(0x40)\n      dup1\n      swap2\n      sub\n      swap1\n      return\n        /* \"SmartContract-Auction/Auction.sol\":2863:2904  mapping(address => User) public UsersCart */\n    tag_10:\n      callvalue\n      dup1\n      iszero\n      tag_56\n      jumpi\n      0x00\n      dup1\n      revert\n    tag_56:\n      pop\n      tag_57\n      0x04\n      dup1\n      calldatasize\n      sub\n      dup2\n      add\n      swap1\n      tag_58\n      swap2\n      swap1\n      tag_39\n      jump\t// in\n    tag_58:\n      tag_59\n      jump\t// in\n    tag_57:\n      mload(0x40)\n      tag_60\n      swap3\n      swap2\n      swap1\n      tag_61\n      jump\t// in\n    tag_60:\n      mload(0x40)\n      dup1\n      swap2\n      sub\n      swap1\n      return\n        /* \"SmartContract-Auction/Auction.sol\":343:365  string public ipfsHash */\n    tag_11:\n      callvalue\n      dup1\n      iszero\n      tag_62\n      jumpi\n      0x00\n      dup1\n      revert\n    tag_62:\n      pop\n      tag_63\n      tag_64\n      jump\t// in\n    tag_63:\n      mload(0x40)\n      tag_65\n      swap2\n      swap1\n      tag_66\n      jump\t// in\n    tag_65:\n      mload(0x40)\n      dup1\n      swap2\n      sub\n      swap1\n      return\n        /* \"SmartContract-Auction/Auction.sol\":310:337  uint public MinimumBidValue */\n    tag_12:\n      callvalue\n      dup1\n      iszero\n      tag_67\n      jumpi\n      0x00\n      dup1\n      revert\n    tag_67:\n      pop\n      tag_68\n      tag_69\n      jump\t// in\n    tag_68:\n      mload(0x40)\n      tag_70\n      swap2\n      swap1\n      tag_21\n      jump\t// in\n    tag_70:\n      mload(0x40)\n      dup1\n      swap2\n      sub\n      swap1\n      return\n        /* \"SmartContract-Auction/Auction.sol\":1586:2182  function placeBid() public payable notOwner afterStart beforeEnd{... */\n    tag_13:\n      tag_71\n      tag_72\n      jump\t// in\n    tag_71:\n      stop\n        /* \"SmartContract-Auction/Auction.sol\":493:522  uint public highestBindingBid */\n    tag_14:\n      callvalue\n      dup1\n      iszero\n      tag_73\n      jumpi\n      0x00\n      dup1\n      revert\n    tag_73:\n      pop\n      tag_74\n      tag_75\n      jump\t// in\n    tag_74:\n      mload(0x40)\n      tag_76\n      swap2\n      swap1\n      tag_21\n      jump\t// in\n    tag_76:\n      mload(0x40)\n      dup1\n      swap2\n      sub\n      swap1\n      return\n        /* \"SmartContract-Auction/Auction.sol\":284:304  uint public endBlock */\n    tag_19:\n      sload(0x03)\n      dup2\n      jump\t// out\n        /* \"SmartContract-Auction/Auction.sol\":1073:1423  function startNewBid(uint blocksGenerated, uint BidIncrementWei, uint _MinimumBidValue) public onlyOwner onlyEnded{... */\n    tag_26:\n        /* \"SmartContract-Auction/Auction.sol\":2641:2646  owner */\n      0x00\n      dup1\n      sload\n      swap1\n      0x0100\n      exp\n      swap1\n      div\n      0xffffffffffffffffffffffffffffffffffffffff\n      and\n        /* \"SmartContract-Auction/Auction.sol\":2627:2646  msg.sender == owner */\n      0xffffffffffffffffffffffffffffffffffffffff\n      and\n        /* \"SmartContract-Auction/Auction.sol\":2627:2637  msg.sender */\n      caller\n        /* \"SmartContract-Auction/Auction.sol\":2627:2646  msg.sender == owner */\n      0xffffffffffffffffffffffffffffffffffffffff\n      and\n      eq\n        /* \"SmartContract-Auction/Auction.sol\":2619:2647  require(msg.sender == owner) */\n      tag_78\n      jumpi\n      0x00\n      dup1\n      revert\n    tag_78:\n        /* \"SmartContract-Auction/Auction.sol\":2553:2564  State.Ended */\n      0x02\n        /* \"SmartContract-Auction/Auction.sol\":2537:2564  auctionState == State.Ended */\n      0x03\n      dup2\n      gt\n      iszero\n      tag_80\n      jumpi\n      tag_81\n      tag_82\n      jump\t// in\n    tag_81:\n    tag_80:\n        /* \"SmartContract-Auction/Auction.sol\":2537:2549  auctionState */\n      0x06\n      0x00\n      swap1\n      sload\n      swap1\n      0x0100\n      exp\n      swap1\n      div\n      0xff\n      and\n        /* \"SmartContract-Auction/Auction.sol\":2537:2564  auctionState == State.Ended */\n      0x03\n      dup2\n      gt\n      iszero\n      tag_83\n      jumpi\n      tag_84\n      tag_82\n      jump\t// in\n    tag_84:\n    tag_83:\n      eq\n        /* \"SmartContract-Auction/Auction.sol\":2528:2565  require (auctionState == State.Ended) */\n      tag_85\n      jumpi\n      0x00\n      dup1\n      revert\n    tag_85:\n        /* \"SmartContract-Auction/Auction.sol\":1210:1222  block.number */\n      number\n        /* \"SmartContract-Auction/Auction.sol\":1197:1207  startBlock */\n      0x02\n        /* \"SmartContract-Auction/Auction.sol\":1197:1222  startBlock = block.number */\n      dup2\n      swap1\n      sstore\n      pop\n        /* \"SmartContract-Auction/Auction.sol\":1256:1271  blocksGenerated */\n      dup3\n        /* \"SmartContract-Auction/Auction.sol\":1243:1253  startBlock */\n      sload(0x02)\n        /* \"SmartContract-Auction/Auction.sol\":1243:1271  startBlock + blocksGenerated */\n      tag_87\n      swap2\n      swap1\n      tag_88\n      jump\t// in\n    tag_87:\n        /* \"SmartContract-Auction/Auction.sol\":1232:1240  endBlock */\n      0x03\n        /* \"SmartContract-Auction/Auction.sol\":1232:1271  endBlock = startBlock + blocksGenerated */\n      dup2\n      swap1\n      sstore\n      pop\n        /* \"SmartContract-Auction/Auction.sol\":1296:1309  State.Started */\n      0x00\n        /* \"SmartContract-Auction/Auction.sol\":1281:1293  auctionState */\n      0x06\n      0x00\n        /* \"SmartContract-Auction/Auction.sol\":1281:1309  auctionState = State.Started */\n      0x0100\n      exp\n      dup2\n      sload\n      dup2\n      0xff\n      mul\n      not\n      and\n      swap1\n      dup4\n      0x03\n      dup2\n      gt\n      iszero\n      tag_89\n      jumpi\n      tag_90\n      tag_82\n      jump\t// in\n    tag_90:\n    tag_89:\n      mul\n      or\n      swap1\n      sstore\n      pop\n        /* \"SmartContract-Auction/Auction.sol\":1319:1332  ipfsHash = \"\" */\n      mload(0x40)\n      dup1\n      0x20\n      add\n      0x40\n      mstore\n      dup1\n      0x00\n      dup2\n      mstore\n      pop\n        /* \"SmartContract-Auction/Auction.sol\":1319:1327  ipfsHash */\n      0x05\n        /* \"SmartContract-Auction/Auction.sol\":1319:1332  ipfsHash = \"\" */\n      swap1\n      dup1\n      mload\n      swap1\n      0x20\n      add\n      swap1\n      tag_91\n      swap3\n      swap2\n      swap1\n      tag_92\n      jump\t// in\n    tag_91:\n      pop\n        /* \"SmartContract-Auction/Auction.sol\":1357:1372  BidIncrementWei */\n      dup2\n        /* \"SmartContract-Auction/Auction.sol\":1342:1354  bidIncrement */\n      0x0a\n        /* \"SmartContract-Auction/Auction.sol\":1342:1372  bidIncrement = BidIncrementWei */\n      dup2\n      swap1\n      sstore\n      pop\n        /* \"SmartContract-Auction/Auction.sol\":1400:1416  _MinimumBidValue */\n      dup1\n        /* \"SmartContract-Auction/Auction.sol\":1382:1397  MinimumBidValue */\n      0x04\n        /* \"SmartContract-Auction/Auction.sol\":1382:1416  MinimumBidValue = _MinimumBidValue */\n      dup2\n      swap1\n      sstore\n      pop\n        /* \"SmartContract-Auction/Auction.sol\":1073:1423  function startNewBid(uint blocksGenerated, uint BidIncrementWei, uint _MinimumBidValue) public onlyOwner onlyEnded{... */\n      pop\n      pop\n      pop\n      jump\t// out\n        /* \"SmartContract-Auction/Auction.sol\":117:151  address payable public beneficiary */\n    tag_29:\n      0x01\n      0x00\n      swap1\n      sload\n      swap1\n      0x0100\n      exp\n      swap1\n      div\n      0xffffffffffffffffffffffffffffffffffffffff\n      and\n      dup2\n      jump\t// out\n        /* \"SmartContract-Auction/Auction.sol\":256:278  uint public startBlock */\n    tag_34:\n      sload(0x02)\n      dup2\n      jump\t// out\n        /* \"SmartContract-Auction/Auction.sol\":571:607  mapping(address => uint) public bids */\n    tag_40:\n      mstore(0x20, 0x09)\n      dup1\n      0x00\n      mstore\n      keccak256(0x00, 0x40)\n      0x00\n      swap2\n      pop\n      swap1\n      pop\n      sload\n      dup2\n      jump\t// out\n        /* \"SmartContract-Auction/Auction.sol\":461:486  State public auctionState */\n    tag_44:\n      0x06\n      0x00\n      swap1\n      sload\n      swap1\n      0x0100\n      exp\n      swap1\n      div\n      0xff\n      and\n      dup2\n      jump\t// out\n        /* \"SmartContract-Auction/Auction.sol\":91:111  address public owner */\n    tag_49:\n      0x00\n      dup1\n      sload\n      swap1\n      0x0100\n      exp\n      swap1\n      div\n      0xffffffffffffffffffffffffffffffffffffffff\n      and\n      dup2\n      jump\t// out\n        /* \"SmartContract-Auction/Auction.sol\":528:564  address payable public highestBidder */\n    tag_54:\n      0x08\n      0x00\n      swap1\n      sload\n      swap1\n      0x0100\n      exp\n      swap1\n      div\n      0xffffffffffffffffffffffffffffffffffffffff\n      and\n      dup2\n      jump\t// out\n        /* \"SmartContract-Auction/Auction.sol\":2863:2904  mapping(address => User) public UsersCart */\n    tag_59:\n      mstore(0x20, 0x0b)\n      dup1\n      0x00\n      mstore\n      keccak256(0x00, 0x40)\n      0x00\n      swap2\n      pop\n      swap1\n      pop\n      dup1\n      0x00\n      add\n      dup1\n      sload\n      tag_93\n      swap1\n      tag_94\n      jump\t// in\n    tag_93:\n      dup1\n      0x1f\n      add\n      0x20\n      dup1\n      swap2\n      div\n      mul\n      0x20\n      add\n      mload(0x40)\n      swap1\n      dup2\n      add\n      0x40\n      mstore\n      dup1\n      swap3\n      swap2\n      swap1\n      dup2\n      dup2\n      mstore\n      0x20\n      add\n      dup3\n      dup1\n      sload\n      tag_95\n      swap1\n      tag_94\n      jump\t// in\n    tag_95:\n      dup1\n      iszero\n      tag_96\n      jumpi\n      dup1\n      0x1f\n      lt\n      tag_97\n      jumpi\n      0x0100\n      dup1\n      dup4\n      sload\n      div\n      mul\n      dup4\n      mstore\n      swap2\n      0x20\n      add\n      swap2\n      jump(tag_96)\n    tag_97:\n      dup3\n      add\n      swap2\n      swap1\n      0x00\n      mstore\n      keccak256(0x00, 0x20)\n      swap1\n    tag_98:\n      dup2\n      sload\n      dup2\n      mstore\n      swap1\n      0x01\n      add\n      swap1\n      0x20\n      add\n      dup1\n      dup4\n      gt\n      tag_98\n      jumpi\n      dup3\n      swap1\n      sub\n      0x1f\n      and\n      dup3\n      add\n      swap2\n    tag_96:\n      pop\n      pop\n      pop\n      pop\n      pop\n      swap1\n      dup1\n      0x01\n      add\n      0x00\n      swap1\n      sload\n      swap1\n      0x0100\n      exp\n      swap1\n      div\n      0xff\n      and\n      swap1\n      pop\n      dup3\n      jump\t// out\n        /* \"SmartContract-Auction/Auction.sol\":343:365  string public ipfsHash */\n    tag_64:\n      0x05\n      dup1\n      sload\n      tag_99\n      swap1\n      tag_94\n      jump\t// in\n    tag_99:\n      dup1\n      0x1f\n      add\n      0x20\n      dup1\n      swap2\n      div\n      mul\n      0x20\n      add\n      mload(0x40)\n      swap1\n      dup2\n      add\n      0x40\n      mstore\n      dup1\n      swap3\n      swap2\n      swap1\n      dup2\n      dup2\n      mstore\n      0x20\n      add\n      dup3\n      dup1\n      sload\n      tag_100\n      swap1\n      tag_94\n      jump\t// in\n    tag_100:\n      dup1\n      iszero\n      tag_101\n      jumpi\n      dup1\n      0x1f\n      lt\n      tag_102\n      jumpi\n      0x0100\n      dup1\n      dup4\n      sload\n      div\n      mul\n      dup4\n      mstore\n      swap2\n      0x20\n      add\n      swap2\n      jump(tag_101)\n    tag_102:\n      dup3\n      add\n      swap2\n      swap1\n      0x00\n      mstore\n      keccak256(0x00, 0x20)\n      swap1\n    tag_103:\n      dup2\n      sload\n      dup2\n      mstore\n      swap1\n      0x01\n      add\n      swap1\n      0x20\n      add\n      dup1\n      dup4\n      gt\n      tag_103\n      jumpi\n      dup3\n      swap1\n      sub\n      0x1f\n      and\n      dup3\n      add\n      swap2\n    tag_101:\n      pop\n      pop\n      pop\n      pop\n      pop\n      dup2\n      jump\t// out\n        /* \"SmartContract-Auction/Auction.sol\":310:337  uint public MinimumBidValue */\n    tag_69:\n      sload(0x04)\n      dup2\n      jump\t// out\n        /* \"SmartContract-Auction/Auction.sol\":1586:2182  function placeBid() public payable notOwner afterStart beforeEnd{... */\n    tag_72:\n        /* \"SmartContract-Auction/Auction.sol\":2468:2473  owner */\n      0x00\n      dup1\n      sload\n      swap1\n      0x0100\n      exp\n      swap1\n      div\n      0xffffffffffffffffffffffffffffffffffffffff\n      and\n        /* \"SmartContract-Auction/Auction.sol\":2454:2473  msg.sender != owner */\n      0xffffffffffffffffffffffffffffffffffffffff\n      and\n        /* \"SmartContract-Auction/Auction.sol\":2454:2464  msg.sender */\n      caller\n        /* \"SmartContract-Auction/Auction.sol\":2454:2473  msg.sender != owner */\n      0xffffffffffffffffffffffffffffffffffffffff\n      and\n      eq\n      iszero\n        /* \"SmartContract-Auction/Auction.sol\":2446:2474  require(msg.sender != owner) */\n      tag_105\n      jumpi\n      0x00\n      dup1\n      revert\n    tag_105:\n        /* \"SmartContract-Auction/Auction.sol\":2243:2253  startBlock */\n      sload(0x02)\n        /* \"SmartContract-Auction/Auction.sol\":2227:2239  block.number */\n      number\n        /* \"SmartContract-Auction/Auction.sol\":2227:2253  block.number >= startBlock */\n      lt\n      iszero\n        /* \"SmartContract-Auction/Auction.sol\":2219:2254  require(block.number >= startBlock) */\n      tag_107\n      jumpi\n      0x00\n      dup1\n      revert\n    tag_107:\n        /* \"SmartContract-Auction/Auction.sol\":2332:2340  endBlock */\n      sload(0x03)\n        /* \"SmartContract-Auction/Auction.sol\":2316:2328  block.number */\n      number\n        /* \"SmartContract-Auction/Auction.sol\":2316:2340  block.number <= endBlock */\n      gt\n      iszero\n        /* \"SmartContract-Auction/Auction.sol\":2308:2341  require(block.number <= endBlock) */\n      tag_109\n      jumpi\n      0x00\n      dup1\n      revert\n    tag_109:\n        /* \"SmartContract-Auction/Auction.sol\":1684:1697  State.Started */\n      0x00\n        /* \"SmartContract-Auction/Auction.sol\":1668:1697  auctionState == State.Started */\n      0x03\n      dup2\n      gt\n      iszero\n      tag_111\n      jumpi\n      tag_112\n      tag_82\n      jump\t// in\n    tag_112:\n    tag_111:\n        /* \"SmartContract-Auction/Auction.sol\":1668:1680  auctionState */\n      0x06\n      0x00\n      swap1\n      sload\n      swap1\n      0x0100\n      exp\n      swap1\n      div\n      0xff\n      and\n        /* \"SmartContract-Auction/Auction.sol\":1668:1697  auctionState == State.Started */\n      0x03\n      dup2\n      gt\n      iszero\n      tag_113\n      jumpi\n      tag_114\n      tag_82\n      jump\t// in\n    tag_114:\n    tag_113:\n      eq\n        /* \"SmartContract-Auction/Auction.sol\":1660:1737  require(auctionState == State.Started, \"Please wait until the auction start\") */\n      tag_115\n      jumpi\n      mload(0x40)\n      0x08c379a000000000000000000000000000000000000000000000000000000000\n      dup2\n      mstore\n      0x04\n      add\n      tag_116\n      swap1\n      tag_117\n      jump\t// in\n    tag_116:\n      mload(0x40)\n      dup1\n      swap2\n      sub\n      swap1\n      revert\n    tag_115:\n        /* \"SmartContract-Auction/Auction.sol\":1768:1783  MinimumBidValue */\n      sload(0x04)\n        /* \"SmartContract-Auction/Auction.sol\":1755:1764  msg.value */\n      callvalue\n        /* \"SmartContract-Auction/Auction.sol\":1755:1783  msg.value >= MinimumBidValue */\n      lt\n      iszero\n        /* \"SmartContract-Auction/Auction.sol\":1747:1784  require(msg.value >= MinimumBidValue) */\n      tag_118\n      jumpi\n      0x00\n      dup1\n      revert\n    tag_118:\n        /* \"SmartContract-Auction/Auction.sol\":1795:1810  uint currentBid */\n      0x00\n        /* \"SmartContract-Auction/Auction.sol\":1832:1841  msg.value */\n      callvalue\n        /* \"SmartContract-Auction/Auction.sol\":1813:1817  bids */\n      0x09\n        /* \"SmartContract-Auction/Auction.sol\":1813:1829  bids[msg.sender] */\n      0x00\n        /* \"SmartContract-Auction/Auction.sol\":1818:1828  msg.sender */\n      caller\n        /* \"SmartContract-Auction/Auction.sol\":1813:1829  bids[msg.sender] */\n      0xffffffffffffffffffffffffffffffffffffffff\n      and\n      0xffffffffffffffffffffffffffffffffffffffff\n      and\n      dup2\n      mstore\n      0x20\n      add\n      swap1\n      dup2\n      mstore\n      0x20\n      add\n      0x00\n      keccak256\n      sload\n        /* \"SmartContract-Auction/Auction.sol\":1813:1841  bids[msg.sender] + msg.value */\n      tag_119\n      swap2\n      swap1\n      tag_88\n      jump\t// in\n    tag_119:\n        /* \"SmartContract-Auction/Auction.sol\":1795:1841  uint currentBid = bids[msg.sender] + msg.value */\n      swap1\n      pop\n        /* \"SmartContract-Auction/Auction.sol\":1874:1891  highestBindingBid */\n      sload(0x07)\n        /* \"SmartContract-Auction/Auction.sol\":1860:1870  currentBid */\n      dup2\n        /* \"SmartContract-Auction/Auction.sol\":1860:1891  currentBid >= highestBindingBid */\n      lt\n      iszero\n        /* \"SmartContract-Auction/Auction.sol\":1852:1892  require(currentBid >= highestBindingBid) */\n      tag_120\n      jumpi\n      0x00\n      dup1\n      revert\n    tag_120:\n        /* \"SmartContract-Auction/Auction.sol\":1922:1932  currentBid */\n      dup1\n        /* \"SmartContract-Auction/Auction.sol\":1903:1907  bids */\n      0x09\n        /* \"SmartContract-Auction/Auction.sol\":1903:1919  bids[msg.sender] */\n      0x00\n        /* \"SmartContract-Auction/Auction.sol\":1908:1918  msg.sender */\n      caller\n        /* \"SmartContract-Auction/Auction.sol\":1903:1919  bids[msg.sender] */\n      0xffffffffffffffffffffffffffffffffffffffff\n      and\n      0xffffffffffffffffffffffffffffffffffffffff\n      and\n      dup2\n      mstore\n      0x20\n      add\n      swap1\n      dup2\n      mstore\n      0x20\n      add\n      0x00\n      keccak256\n        /* \"SmartContract-Auction/Auction.sol\":1903:1932  bids[msg.sender] = currentBid */\n      dup2\n      swap1\n      sstore\n      pop\n        /* \"SmartContract-Auction/Auction.sol\":1960:1964  bids */\n      0x09\n        /* \"SmartContract-Auction/Auction.sol\":1960:1979  bids[highestBidder] */\n      0x00\n        /* \"SmartContract-Auction/Auction.sol\":1965:1978  highestBidder */\n      0x08\n      0x00\n      swap1\n      sload\n      swap1\n      0x0100\n      exp\n      swap1\n      div\n      0xffffffffffffffffffffffffffffffffffffffff\n      and\n        /* \"SmartContract-Auction/Auction.sol\":1960:1979  bids[highestBidder] */\n      0xffffffffffffffffffffffffffffffffffffffff\n      and\n      0xffffffffffffffffffffffffffffffffffffffff\n      and\n      dup2\n      mstore\n      0x20\n      add\n      swap1\n      dup2\n      mstore\n      0x20\n      add\n      0x00\n      keccak256\n      sload\n        /* \"SmartContract-Auction/Auction.sol\":1946:1956  currentBid */\n      dup2\n        /* \"SmartContract-Auction/Auction.sol\":1946:1979  currentBid <= bids[highestBidder] */\n      gt\n        /* \"SmartContract-Auction/Auction.sol\":1943:2176  if(currentBid <= bids[highestBidder]){... */\n      tag_121\n      jumpi\n        /* \"SmartContract-Auction/Auction.sol\":2014:2065  min(currentBid + bidIncrement, bids[highestBidder]) */\n      tag_122\n        /* \"SmartContract-Auction/Auction.sol\":2031:2043  bidIncrement */\n      sload(0x0a)\n        /* \"SmartContract-Auction/Auction.sol\":2018:2028  currentBid */\n      dup3\n        /* \"SmartContract-Auction/Auction.sol\":2018:2043  currentBid + bidIncrement */\n      tag_123\n      swap2\n      swap1\n      tag_88\n      jump\t// in\n    tag_123:\n        /* \"SmartContract-Auction/Auction.sol\":2045:2049  bids */\n      0x09\n        /* \"SmartContract-Auction/Auction.sol\":2045:2064  bids[highestBidder] */\n      0x00\n        /* \"SmartContract-Auction/Auction.sol\":2050:2063  highestBidder */\n      0x08\n      0x00\n      swap1\n      sload\n      swap1\n      0x0100\n      exp\n      swap1\n      div\n      0xffffffffffffffffffffffffffffffffffffffff\n      and\n        /* \"SmartContract-Auction/Auction.sol\":2045:2064  bids[highestBidder] */\n      0xffffffffffffffffffffffffffffffffffffffff\n      and\n      0xffffffffffffffffffffffffffffffffffffffff\n      and\n      dup2\n      mstore\n      0x20\n      add\n      swap1\n      dup2\n      mstore\n      0x20\n      add\n      0x00\n      keccak256\n      sload\n        /* \"SmartContract-Auction/Auction.sol\":2014:2017  min */\n      tag_124\n        /* \"SmartContract-Auction/Auction.sol\":2014:2065  min(currentBid + bidIncrement, bids[highestBidder]) */\n      jump\t// in\n    tag_122:\n        /* \"SmartContract-Auction/Auction.sol\":1994:2011  highestBindingBid */\n      0x07\n        /* \"SmartContract-Auction/Auction.sol\":1994:2065  highestBindingBid = min(currentBid + bidIncrement, bids[highestBidder]) */\n      dup2\n      swap1\n      sstore\n      pop\n        /* \"SmartContract-Auction/Auction.sol\":1943:2176  if(currentBid <= bids[highestBidder]){... */\n      jump(tag_125)\n    tag_121:\n        /* \"SmartContract-Auction/Auction.sol\":2114:2165  min(currentBid, bids[highestBidder] + bidIncrement) */\n      tag_126\n        /* \"SmartContract-Auction/Auction.sol\":2118:2128  currentBid */\n      dup2\n        /* \"SmartContract-Auction/Auction.sol\":2152:2164  bidIncrement */\n      sload(0x0a)\n        /* \"SmartContract-Auction/Auction.sol\":2130:2134  bids */\n      0x09\n        /* \"SmartContract-Auction/Auction.sol\":2130:2149  bids[highestBidder] */\n      0x00\n        /* \"SmartContract-Auction/Auction.sol\":2135:2148  highestBidder */\n      0x08\n      0x00\n      swap1\n      sload\n      swap1\n      0x0100\n      exp\n      swap1\n      div\n      0xffffffffffffffffffffffffffffffffffffffff\n      and\n        /* \"SmartContract-Auction/Auction.sol\":2130:2149  bids[highestBidder] */\n      0xffffffffffffffffffffffffffffffffffffffff\n      and\n      0xffffffffffffffffffffffffffffffffffffffff\n      and\n      dup2\n      mstore\n      0x20\n      add\n      swap1\n      dup2\n      mstore\n      0x20\n      add\n      0x00\n      keccak256\n      sload\n        /* \"SmartContract-Auction/Auction.sol\":2130:2164  bids[highestBidder] + bidIncrement */\n      tag_127\n      swap2\n      swap1\n      tag_88\n      jump\t// in\n    tag_127:\n        /* \"SmartContract-Auction/Auction.sol\":2114:2117  min */\n      tag_124\n        /* \"SmartContract-Auction/Auction.sol\":2114:2165  min(currentBid, bids[highestBidder] + bidIncrement) */\n      jump\t// in\n    tag_126:\n        /* \"SmartContract-Auction/Auction.sol\":2094:2111  highestBindingBid */\n      0x07\n        /* \"SmartContract-Auction/Auction.sol\":2094:2165  highestBindingBid = min(currentBid, bids[highestBidder] + bidIncrement) */\n      dup2\n      swap1\n      sstore\n      pop\n        /* \"SmartContract-Auction/Auction.sol\":1943:2176  if(currentBid <= bids[highestBidder]){... */\n    tag_125:\n        /* \"SmartContract-Auction/Auction.sol\":1650:2182  {... */\n      pop\n        /* \"SmartContract-Auction/Auction.sol\":1586:2182  function placeBid() public payable notOwner afterStart beforeEnd{... */\n      jump\t// out\n        /* \"SmartContract-Auction/Auction.sol\":493:522  uint public highestBindingBid */\n    tag_75:\n      sload(0x07)\n      dup2\n      jump\t// out\n        /* \"SmartContract-Auction/Auction.sol\":1429:1580  function min(uint a, uint b) internal pure returns(uint){... */\n    tag_124:\n        /* \"SmartContract-Auction/Auction.sol\":1480:1484  uint */\n      0x00\n        /* \"SmartContract-Auction/Auction.sol\":1501:1502  b */\n      dup2\n        /* \"SmartContract-Auction/Auction.sol\":1498:1499  a */\n      dup4\n        /* \"SmartContract-Auction/Auction.sol\":1498:1502  a<=b */\n      gt\n        /* \"SmartContract-Auction/Auction.sol\":1495:1574  if(a<=b){... */\n      tag_129\n      jumpi\n        /* \"SmartContract-Auction/Auction.sol\":1524:1525  a */\n      dup3\n        /* \"SmartContract-Auction/Auction.sol\":1517:1525  return a */\n      swap1\n      pop\n      jump(tag_128)\n        /* \"SmartContract-Auction/Auction.sol\":1495:1574  if(a<=b){... */\n    tag_129:\n        /* \"SmartContract-Auction/Auction.sol\":1562:1563  b */\n      dup2\n        /* \"SmartContract-Auction/Auction.sol\":1555:1563  return b */\n      swap1\n      pop\n        /* \"SmartContract-Auction/Auction.sol\":1429:1580  function min(uint a, uint b) internal pure returns(uint){... */\n    tag_128:\n      swap3\n      swap2\n      pop\n      pop\n      jump\t// out\n    tag_92:\n      dup3\n      dup1\n      sload\n      tag_131\n      swap1\n      tag_94\n      jump\t// in\n    tag_131:\n      swap1\n      0x00\n      mstore\n      keccak256(0x00, 0x20)\n      swap1\n      0x1f\n      add\n      0x20\n      swap1\n      div\n      dup2\n      add\n      swap3\n      dup3\n      tag_133\n      jumpi\n      0x00\n      dup6\n      sstore\n      jump(tag_132)\n    tag_133:\n      dup3\n      0x1f\n      lt\n      tag_134\n      jumpi\n      dup1\n      mload\n      not(0xff)\n      and\n      dup4\n      dup1\n      add\n      or\n      dup6\n      sstore\n      jump(tag_132)\n    tag_134:\n      dup3\n      dup1\n      add\n      0x01\n      add\n      dup6\n      sstore\n      dup3\n      iszero\n      tag_132\n      jumpi\n      swap2\n      dup3\n      add\n    tag_135:\n      dup3\n      dup2\n      gt\n      iszero\n      tag_136\n      jumpi\n      dup3\n      mload\n      dup3\n      sstore\n      swap2\n      0x20\n      add\n      swap2\n      swap1\n      0x01\n      add\n      swap1\n      jump(tag_135)\n    tag_136:\n    tag_132:\n      pop\n      swap1\n      pop\n      tag_137\n      swap2\n      swap1\n      tag_138\n      jump\t// in\n    tag_137:\n      pop\n      swap1\n      jump\t// out\n    tag_138:\n    tag_139:\n      dup1\n      dup3\n      gt\n      iszero\n      tag_140\n      jumpi\n      0x00\n      dup2\n      0x00\n      swap1\n      sstore\n      pop\n      0x01\n      add\n      jump(tag_139)\n    tag_140:\n      pop\n      swap1\n      jump\t// out\n        /* \"#utility.yul\":7:146   */\n    tag_142:\n        /* \"#utility.yul\":53:58   */\n      0x00\n        /* \"#utility.yul\":91:97   */\n      dup2\n        /* \"#utility.yul\":78:98   */\n      calldataload\n        /* \"#utility.yul\":69:98   */\n      swap1\n      pop\n        /* \"#utility.yul\":107:140   */\n      tag_144\n        /* \"#utility.yul\":134:139   */\n      dup2\n        /* \"#utility.yul\":107:140   */\n      tag_145\n      jump\t// in\n    tag_144:\n        /* \"#utility.yul\":7:146   */\n      swap3\n      swap2\n      pop\n      pop\n      jump\t// out\n        /* \"#utility.yul\":152:291   */\n    tag_146:\n        /* \"#utility.yul\":198:203   */\n      0x00\n        /* \"#utility.yul\":236:242   */\n      dup2\n        /* \"#utility.yul\":223:243   */\n      calldataload\n        /* \"#utility.yul\":214:243   */\n      swap1\n      pop\n        /* \"#utility.yul\":252:285   */\n      tag_148\n        /* \"#utility.yul\":279:284   */\n      dup2\n        /* \"#utility.yul\":252:285   */\n      tag_149\n      jump\t// in\n    tag_148:\n        /* \"#utility.yul\":152:291   */\n      swap3\n      swap2\n      pop\n      pop\n      jump\t// out\n        /* \"#utility.yul\":297:626   */\n    tag_39:\n        /* \"#utility.yul\":356:362   */\n      0x00\n        /* \"#utility.yul\":405:407   */\n      0x20\n        /* \"#utility.yul\":393:402   */\n      dup3\n        /* \"#utility.yul\":384:391   */\n      dup5\n        /* \"#utility.yul\":380:403   */\n      sub\n        /* \"#utility.yul\":376:408   */\n      slt\n        /* \"#utility.yul\":373:492   */\n      iszero\n      tag_151\n      jumpi\n        /* \"#utility.yul\":411:490   */\n      tag_152\n      tag_153\n      jump\t// in\n    tag_152:\n        /* \"#utility.yul\":373:492   */\n    tag_151:\n        /* \"#utility.yul\":531:532   */\n      0x00\n        /* \"#utility.yul\":556:609   */\n      tag_154\n        /* \"#utility.yul\":601:608   */\n      dup5\n        /* \"#utility.yul\":592:598   */\n      dup3\n        /* \"#utility.yul\":581:590   */\n      dup6\n        /* \"#utility.yul\":577:599   */\n      add\n        /* \"#utility.yul\":556:609   */\n      tag_142\n      jump\t// in\n    tag_154:\n        /* \"#utility.yul\":546:609   */\n      swap2\n      pop\n        /* \"#utility.yul\":502:619   */\n      pop\n        /* \"#utility.yul\":297:626   */\n      swap3\n      swap2\n      pop\n      pop\n      jump\t// out\n        /* \"#utility.yul\":632:1251   */\n    tag_25:\n        /* \"#utility.yul\":709:715   */\n      0x00\n        /* \"#utility.yul\":717:723   */\n      dup1\n        /* \"#utility.yul\":725:731   */\n      0x00\n        /* \"#utility.yul\":774:776   */\n      0x60\n        /* \"#utility.yul\":762:771   */\n      dup5\n        /* \"#utility.yul\":753:760   */\n      dup7\n        /* \"#utility.yul\":749:772   */\n      sub\n        /* \"#utility.yul\":745:777   */\n      slt\n        /* \"#utility.yul\":742:861   */\n      iszero\n      tag_156\n      jumpi\n        /* \"#utility.yul\":780:859   */\n      tag_157\n      tag_153\n      jump\t// in\n    tag_157:\n        /* \"#utility.yul\":742:861   */\n    tag_156:\n        /* \"#utility.yul\":900:901   */\n      0x00\n        /* \"#utility.yul\":925:978   */\n      tag_158\n        /* \"#utility.yul\":970:977   */\n      dup7\n        /* \"#utility.yul\":961:967   */\n      dup3\n        /* \"#utility.yul\":950:959   */\n      dup8\n        /* \"#utility.yul\":946:968   */\n      add\n        /* \"#utility.yul\":925:978   */\n      tag_146\n      jump\t// in\n    tag_158:\n        /* \"#utility.yul\":915:978   */\n      swap4\n      pop\n        /* \"#utility.yul\":871:988   */\n      pop\n        /* \"#utility.yul\":1027:1029   */\n      0x20\n        /* \"#utility.yul\":1053:1106   */\n      tag_159\n        /* \"#utility.yul\":1098:1105   */\n      dup7\n        /* \"#utility.yul\":1089:1095   */\n      dup3\n        /* \"#utility.yul\":1078:1087   */\n      dup8\n        /* \"#utility.yul\":1074:1096   */\n      add\n        /* \"#utility.yul\":1053:1106   */\n      tag_146\n      jump\t// in\n    tag_159:\n        /* \"#utility.yul\":1043:1106   */\n      swap3\n      pop\n        /* \"#utility.yul\":998:1116   */\n      pop\n        /* \"#utility.yul\":1155:1157   */\n      0x40\n        /* \"#utility.yul\":1181:1234   */\n      tag_160\n        /* \"#utility.yul\":1226:1233   */\n      dup7\n        /* \"#utility.yul\":1217:1223   */\n      dup3\n        /* \"#utility.yul\":1206:1215   */\n      dup8\n        /* \"#utility.yul\":1202:1224   */\n      add\n        /* \"#utility.yul\":1181:1234   */\n      tag_146\n      jump\t// in\n    tag_160:\n        /* \"#utility.yul\":1171:1234   */\n      swap2\n      pop\n        /* \"#utility.yul\":1126:1244   */\n      pop\n        /* \"#utility.yul\":632:1251   */\n      swap3\n      pop\n      swap3\n      pop\n      swap3\n      jump\t// out\n        /* \"#utility.yul\":1257:1399   */\n    tag_161:\n        /* \"#utility.yul\":1360:1392   */\n      tag_163\n        /* \"#utility.yul\":1386:1391   */\n      dup2\n        /* \"#utility.yul\":1360:1392   */\n      tag_164\n      jump\t// in\n    tag_163:\n        /* \"#utility.yul\":1355:1358   */\n      dup3\n        /* \"#utility.yul\":1348:1393   */\n      mstore\n        /* \"#utility.yul\":1257:1399   */\n      pop\n      pop\n      jump\t// out\n        /* \"#utility.yul\":1405:1523   */\n    tag_165:\n        /* \"#utility.yul\":1492:1516   */\n      tag_167\n        /* \"#utility.yul\":1510:1515   */\n      dup2\n        /* \"#utility.yul\":1492:1516   */\n      tag_168\n      jump\t// in\n    tag_167:\n        /* \"#utility.yul\":1487:1490   */\n      dup3\n        /* \"#utility.yul\":1480:1517   */\n      mstore\n        /* \"#utility.yul\":1405:1523   */\n      pop\n      pop\n      jump\t// out\n        /* \"#utility.yul\":1529:1638   */\n    tag_169:\n        /* \"#utility.yul\":1610:1631   */\n      tag_171\n        /* \"#utility.yul\":1625:1630   */\n      dup2\n        /* \"#utility.yul\":1610:1631   */\n      tag_172\n      jump\t// in\n    tag_171:\n        /* \"#utility.yul\":1605:1608   */\n      dup3\n        /* \"#utility.yul\":1598:1632   */\n      mstore\n        /* \"#utility.yul\":1529:1638   */\n      pop\n      pop\n      jump\t// out\n        /* \"#utility.yul\":1644:1787   */\n    tag_173:\n        /* \"#utility.yul\":1737:1780   */\n      tag_175\n        /* \"#utility.yul\":1774:1779   */\n      dup2\n        /* \"#utility.yul\":1737:1780   */\n      tag_176\n      jump\t// in\n    tag_175:\n        /* \"#utility.yul\":1732:1735   */\n      dup3\n        /* \"#utility.yul\":1725:1781   */\n      mstore\n        /* \"#utility.yul\":1644:1787   */\n      pop\n      pop\n      jump\t// out\n        /* \"#utility.yul\":1793:2157   */\n    tag_177:\n        /* \"#utility.yul\":1881:1884   */\n      0x00\n        /* \"#utility.yul\":1909:1948   */\n      tag_179\n        /* \"#utility.yul\":1942:1947   */\n      dup3\n        /* \"#utility.yul\":1909:1948   */\n      tag_180\n      jump\t// in\n    tag_179:\n        /* \"#utility.yul\":1964:2035   */\n      tag_181\n        /* \"#utility.yul\":2028:2034   */\n      dup2\n        /* \"#utility.yul\":2023:2026   */\n      dup6\n        /* \"#utility.yul\":1964:2035   */\n      tag_182\n      jump\t// in\n    tag_181:\n        /* \"#utility.yul\":1957:2035   */\n      swap4\n      pop\n        /* \"#utility.yul\":2044:2096   */\n      tag_183\n        /* \"#utility.yul\":2089:2095   */\n      dup2\n        /* \"#utility.yul\":2084:2087   */\n      dup6\n        /* \"#utility.yul\":2077:2081   */\n      0x20\n        /* \"#utility.yul\":2070:2075   */\n      dup7\n        /* \"#utility.yul\":2066:2082   */\n      add\n        /* \"#utility.yul\":2044:2096   */\n      tag_184\n      jump\t// in\n    tag_183:\n        /* \"#utility.yul\":2121:2150   */\n      tag_185\n        /* \"#utility.yul\":2143:2149   */\n      dup2\n        /* \"#utility.yul\":2121:2150   */\n      tag_186\n      jump\t// in\n    tag_185:\n        /* \"#utility.yul\":2116:2119   */\n      dup5\n        /* \"#utility.yul\":2112:2151   */\n      add\n        /* \"#utility.yul\":2105:2151   */\n      swap2\n      pop\n        /* \"#utility.yul\":1885:2157   */\n      pop\n        /* \"#utility.yul\":1793:2157   */\n      swap3\n      swap2\n      pop\n      pop\n      jump\t// out\n        /* \"#utility.yul\":2163:2529   */\n    tag_187:\n        /* \"#utility.yul\":2305:2308   */\n      0x00\n        /* \"#utility.yul\":2326:2393   */\n      tag_189\n        /* \"#utility.yul\":2390:2392   */\n      0x23\n        /* \"#utility.yul\":2385:2388   */\n      dup4\n        /* \"#utility.yul\":2326:2393   */\n      tag_182\n      jump\t// in\n    tag_189:\n        /* \"#utility.yul\":2319:2393   */\n      swap2\n      pop\n        /* \"#utility.yul\":2402:2495   */\n      tag_190\n        /* \"#utility.yul\":2491:2494   */\n      dup3\n        /* \"#utility.yul\":2402:2495   */\n      tag_191\n      jump\t// in\n    tag_190:\n        /* \"#utility.yul\":2520:2522   */\n      0x40\n        /* \"#utility.yul\":2515:2518   */\n      dup3\n        /* \"#utility.yul\":2511:2523   */\n      add\n        /* \"#utility.yul\":2504:2523   */\n      swap1\n      pop\n        /* \"#utility.yul\":2163:2529   */\n      swap2\n      swap1\n      pop\n      jump\t// out\n        /* \"#utility.yul\":2535:2653   */\n    tag_192:\n        /* \"#utility.yul\":2622:2646   */\n      tag_194\n        /* \"#utility.yul\":2640:2645   */\n      dup2\n        /* \"#utility.yul\":2622:2646   */\n      tag_195\n      jump\t// in\n    tag_194:\n        /* \"#utility.yul\":2617:2620   */\n      dup3\n        /* \"#utility.yul\":2610:2647   */\n      mstore\n        /* \"#utility.yul\":2535:2653   */\n      pop\n      pop\n      jump\t// out\n        /* \"#utility.yul\":2659:2881   */\n    tag_51:\n        /* \"#utility.yul\":2752:2756   */\n      0x00\n        /* \"#utility.yul\":2790:2792   */\n      0x20\n        /* \"#utility.yul\":2779:2788   */\n      dup3\n        /* \"#utility.yul\":2775:2793   */\n      add\n        /* \"#utility.yul\":2767:2793   */\n      swap1\n      pop\n        /* \"#utility.yul\":2803:2874   */\n      tag_197\n        /* \"#utility.yul\":2871:2872   */\n      0x00\n        /* \"#utility.yul\":2860:2869   */\n      dup4\n        /* \"#utility.yul\":2856:2873   */\n      add\n        /* \"#utility.yul\":2847:2853   */\n      dup5\n        /* \"#utility.yul\":2803:2874   */\n      tag_165\n      jump\t// in\n    tag_197:\n        /* \"#utility.yul\":2659:2881   */\n      swap3\n      swap2\n      pop\n      pop\n      jump\t// out\n        /* \"#utility.yul\":2887:3141   */\n    tag_31:\n        /* \"#utility.yul\":2996:3000   */\n      0x00\n        /* \"#utility.yul\":3034:3036   */\n      0x20\n        /* \"#utility.yul\":3023:3032   */\n      dup3\n        /* \"#utility.yul\":3019:3037   */\n      add\n        /* \"#utility.yul\":3011:3037   */\n      swap1\n      pop\n        /* \"#utility.yul\":3047:3134   */\n      tag_199\n        /* \"#utility.yul\":3131:3132   */\n      0x00\n        /* \"#utility.yul\":3120:3129   */\n      dup4\n        /* \"#utility.yul\":3116:3133   */\n      add\n        /* \"#utility.yul\":3107:3113   */\n      dup5\n        /* \"#utility.yul\":3047:3134   */\n      tag_161\n      jump\t// in\n    tag_199:\n        /* \"#utility.yul\":2887:3141   */\n      swap3\n      swap2\n      pop\n      pop\n      jump\t// out\n        /* \"#utility.yul\":3147:3381   */\n    tag_46:\n        /* \"#utility.yul\":3246:3250   */\n      0x00\n        /* \"#utility.yul\":3284:3286   */\n      0x20\n        /* \"#utility.yul\":3273:3282   */\n      dup3\n        /* \"#utility.yul\":3269:3287   */\n      add\n        /* \"#utility.yul\":3261:3287   */\n      swap1\n      pop\n        /* \"#utility.yul\":3297:3374   */\n      tag_201\n        /* \"#utility.yul\":3371:3372   */\n      0x00\n        /* \"#utility.yul\":3360:3369   */\n      dup4\n        /* \"#utility.yul\":3356:3373   */\n      add\n        /* \"#utility.yul\":3347:3353   */\n      dup5\n        /* \"#utility.yul\":3297:3374   */\n      tag_173\n      jump\t// in\n    tag_201:\n        /* \"#utility.yul\":3147:3381   */\n      swap3\n      swap2\n      pop\n      pop\n      jump\t// out\n        /* \"#utility.yul\":3387:3700   */\n    tag_66:\n        /* \"#utility.yul\":3500:3504   */\n      0x00\n        /* \"#utility.yul\":3538:3540   */\n      0x20\n        /* \"#utility.yul\":3527:3536   */\n      dup3\n        /* \"#utility.yul\":3523:3541   */\n      add\n        /* \"#utility.yul\":3515:3541   */\n      swap1\n      pop\n        /* \"#utility.yul\":3587:3596   */\n      dup2\n        /* \"#utility.yul\":3581:3585   */\n      dup2\n        /* \"#utility.yul\":3577:3597   */\n      sub\n        /* \"#utility.yul\":3573:3574   */\n      0x00\n        /* \"#utility.yul\":3562:3571   */\n      dup4\n        /* \"#utility.yul\":3558:3575   */\n      add\n        /* \"#utility.yul\":3551:3598   */\n      mstore\n        /* \"#utility.yul\":3615:3693   */\n      tag_203\n        /* \"#utility.yul\":3688:3692   */\n      dup2\n        /* \"#utility.yul\":3679:3685   */\n      dup5\n        /* \"#utility.yul\":3615:3693   */\n      tag_177\n      jump\t// in\n    tag_203:\n        /* \"#utility.yul\":3607:3693   */\n      swap1\n      pop\n        /* \"#utility.yul\":3387:3700   */\n      swap3\n      swap2\n      pop\n      pop\n      jump\t// out\n        /* \"#utility.yul\":3706:4117   */\n    tag_61:\n        /* \"#utility.yul\":3841:3845   */\n      0x00\n        /* \"#utility.yul\":3879:3881   */\n      0x40\n        /* \"#utility.yul\":3868:3877   */\n      dup3\n        /* \"#utility.yul\":3864:3882   */\n      add\n        /* \"#utility.yul\":3856:3882   */\n      swap1\n      pop\n        /* \"#utility.yul\":3928:3937   */\n      dup2\n        /* \"#utility.yul\":3922:3926   */\n      dup2\n        /* \"#utility.yul\":3918:3938   */\n      sub\n        /* \"#utility.yul\":3914:3915   */\n      0x00\n        /* \"#utility.yul\":3903:3912   */\n      dup4\n        /* \"#utility.yul\":3899:3916   */\n      add\n        /* \"#utility.yul\":3892:3939   */\n      mstore\n        /* \"#utility.yul\":3956:4034   */\n      tag_205\n        /* \"#utility.yul\":4029:4033   */\n      dup2\n        /* \"#utility.yul\":4020:4026   */\n      dup6\n        /* \"#utility.yul\":3956:4034   */\n      tag_177\n      jump\t// in\n    tag_205:\n        /* \"#utility.yul\":3948:4034   */\n      swap1\n      pop\n        /* \"#utility.yul\":4044:4110   */\n      tag_206\n        /* \"#utility.yul\":4106:4108   */\n      0x20\n        /* \"#utility.yul\":4095:4104   */\n      dup4\n        /* \"#utility.yul\":4091:4109   */\n      add\n        /* \"#utility.yul\":4082:4088   */\n      dup5\n        /* \"#utility.yul\":4044:4110   */\n      tag_169\n      jump\t// in\n    tag_206:\n        /* \"#utility.yul\":3706:4117   */\n      swap4\n      swap3\n      pop\n      pop\n      pop\n      jump\t// out\n        /* \"#utility.yul\":4123:4542   */\n    tag_117:\n        /* \"#utility.yul\":4289:4293   */\n      0x00\n        /* \"#utility.yul\":4327:4329   */\n      0x20\n        /* \"#utility.yul\":4316:4325   */\n      dup3\n        /* \"#utility.yul\":4312:4330   */\n      add\n        /* \"#utility.yul\":4304:4330   */\n      swap1\n      pop\n        /* \"#utility.yul\":4376:4385   */\n      dup2\n        /* \"#utility.yul\":4370:4374   */\n      dup2\n        /* \"#utility.yul\":4366:4386   */\n      sub\n        /* \"#utility.yul\":4362:4363   */\n      0x00\n        /* \"#utility.yul\":4351:4360   */\n      dup4\n        /* \"#utility.yul\":4347:4364   */\n      add\n        /* \"#utility.yul\":4340:4387   */\n      mstore\n        /* \"#utility.yul\":4404:4535   */\n      tag_208\n        /* \"#utility.yul\":4530:4534   */\n      dup2\n        /* \"#utility.yul\":4404:4535   */\n      tag_187\n      jump\t// in\n    tag_208:\n        /* \"#utility.yul\":4396:4535   */\n      swap1\n      pop\n        /* \"#utility.yul\":4123:4542   */\n      swap2\n      swap1\n      pop\n      jump\t// out\n        /* \"#utility.yul\":4548:4770   */\n    tag_21:\n        /* \"#utility.yul\":4641:4645   */\n      0x00\n        /* \"#utility.yul\":4679:4681   */\n      0x20\n        /* \"#utility.yul\":4668:4677   */\n      dup3\n        /* \"#utility.yul\":4664:4682   */\n      add\n        /* \"#utility.yul\":4656:4682   */\n      swap1\n      pop\n        /* \"#utility.yul\":4692:4763   */\n      tag_210\n        /* \"#utility.yul\":4760:4761   */\n      0x00\n        /* \"#utility.yul\":4749:4758   */\n      dup4\n        /* \"#utility.yul\":4745:4762   */\n      add\n        /* \"#utility.yul\":4736:4742   */\n      dup5\n        /* \"#utility.yul\":4692:4763   */\n      tag_192\n      jump\t// in\n    tag_210:\n        /* \"#utility.yul\":4548:4770   */\n      swap3\n      swap2\n      pop\n      pop\n      jump\t// out\n        /* \"#utility.yul\":4857:4956   */\n    tag_180:\n        /* \"#utility.yul\":4909:4915   */\n      0x00\n        /* \"#utility.yul\":4943:4948   */\n      dup2\n        /* \"#utility.yul\":4937:4949   */\n      mload\n        /* \"#utility.yul\":4927:4949   */\n      swap1\n      pop\n        /* \"#utility.yul\":4857:4956   */\n      swap2\n      swap1\n      pop\n      jump\t// out\n        /* \"#utility.yul\":4962:5131   */\n    tag_182:\n        /* \"#utility.yul\":5046:5057   */\n      0x00\n        /* \"#utility.yul\":5080:5086   */\n      dup3\n        /* \"#utility.yul\":5075:5078   */\n      dup3\n        /* \"#utility.yul\":5068:5087   */\n      mstore\n        /* \"#utility.yul\":5120:5124   */\n      0x20\n        /* \"#utility.yul\":5115:5118   */\n      dup3\n        /* \"#utility.yul\":5111:5125   */\n      add\n        /* \"#utility.yul\":5096:5125   */\n      swap1\n      pop\n        /* \"#utility.yul\":4962:5131   */\n      swap3\n      swap2\n      pop\n      pop\n      jump\t// out\n        /* \"#utility.yul\":5137:5442   */\n    tag_88:\n        /* \"#utility.yul\":5177:5180   */\n      0x00\n        /* \"#utility.yul\":5196:5216   */\n      tag_216\n        /* \"#utility.yul\":5214:5215   */\n      dup3\n        /* \"#utility.yul\":5196:5216   */\n      tag_195\n      jump\t// in\n    tag_216:\n        /* \"#utility.yul\":5191:5216   */\n      swap2\n      pop\n        /* \"#utility.yul\":5230:5250   */\n      tag_217\n        /* \"#utility.yul\":5248:5249   */\n      dup4\n        /* \"#utility.yul\":5230:5250   */\n      tag_195\n      jump\t// in\n    tag_217:\n        /* \"#utility.yul\":5225:5250   */\n      swap3\n      pop\n        /* \"#utility.yul\":5384:5385   */\n      dup3\n        /* \"#utility.yul\":5316:5382   */\n      0xffffffffffffffffffffffffffffffffffffffffffffffffffffffffffffffff\n        /* \"#utility.yul\":5312:5386   */\n      sub\n        /* \"#utility.yul\":5309:5310   */\n      dup3\n        /* \"#utility.yul\":5306:5387   */\n      gt\n        /* \"#utility.yul\":5303:5410   */\n      iszero\n      tag_218\n      jumpi\n        /* \"#utility.yul\":5390:5408   */\n      tag_219\n      tag_220\n      jump\t// in\n    tag_219:\n        /* \"#utility.yul\":5303:5410   */\n    tag_218:\n        /* \"#utility.yul\":5434:5435   */\n      dup3\n        /* \"#utility.yul\":5431:5432   */\n      dup3\n        /* \"#utility.yul\":5427:5436   */\n      add\n        /* \"#utility.yul\":5420:5436   */\n      swap1\n      pop\n        /* \"#utility.yul\":5137:5442   */\n      swap3\n      swap2\n      pop\n      pop\n      jump\t// out\n        /* \"#utility.yul\":5448:5544   */\n    tag_168:\n        /* \"#utility.yul\":5485:5492   */\n      0x00\n        /* \"#utility.yul\":5514:5538   */\n      tag_222\n        /* \"#utility.yul\":5532:5537   */\n      dup3\n        /* \"#utility.yul\":5514:5538   */\n      tag_223\n      jump\t// in\n    tag_222:\n        /* \"#utility.yul\":5503:5538   */\n      swap1\n      pop\n        /* \"#utility.yul\":5448:5544   */\n      swap2\n      swap1\n      pop\n      jump\t// out\n        /* \"#utility.yul\":5550:5654   */\n    tag_164:\n        /* \"#utility.yul\":5595:5602   */\n      0x00\n        /* \"#utility.yul\":5624:5648   */\n      tag_225\n        /* \"#utility.yul\":5642:5647   */\n      dup3\n        /* \"#utility.yul\":5624:5648   */\n      tag_223\n      jump\t// in\n    tag_225:\n        /* \"#utility.yul\":5613:5648   */\n      swap1\n      pop\n        /* \"#utility.yul\":5550:5654   */\n      swap2\n      swap1\n      pop\n      jump\t// out\n        /* \"#utility.yul\":5660:5750   */\n    tag_172:\n        /* \"#utility.yul\":5694:5701   */\n      0x00\n        /* \"#utility.yul\":5737:5742   */\n      dup2\n        /* \"#utility.yul\":5730:5743   */\n      iszero\n        /* \"#utility.yul\":5723:5744   */\n      iszero\n        /* \"#utility.yul\":5712:5744   */\n      swap1\n      pop\n        /* \"#utility.yul\":5660:5750   */\n      swap2\n      swap1\n      pop\n      jump\t// out\n        /* \"#utility.yul\":5756:5883   */\n    tag_227:\n        /* \"#utility.yul\":5801:5808   */\n      0x00\n        /* \"#utility.yul\":5830:5835   */\n      dup2\n        /* \"#utility.yul\":5819:5835   */\n      swap1\n      pop\n        /* \"#utility.yul\":5836:5877   */\n      tag_229\n        /* \"#utility.yul\":5871:5876   */\n      dup3\n        /* \"#utility.yul\":5836:5877   */\n      tag_230\n      jump\t// in\n    tag_229:\n        /* \"#utility.yul\":5756:5883   */\n      swap2\n      swap1\n      pop\n      jump\t// out\n        /* \"#utility.yul\":5889:6015   */\n    tag_223:\n        /* \"#utility.yul\":5926:5933   */\n      0x00\n        /* \"#utility.yul\":5966:6008   */\n      0xffffffffffffffffffffffffffffffffffffffff\n        /* \"#utility.yul\":5959:5964   */\n      dup3\n        /* \"#utility.yul\":5955:6009   */\n      and\n        /* \"#utility.yul\":5944:6009   */\n      swap1\n      pop\n        /* \"#utility.yul\":5889:6015   */\n      swap2\n      swap1\n      pop\n      jump\t// out\n        /* \"#utility.yul\":6021:6098   */\n    tag_195:\n        /* \"#utility.yul\":6058:6065   */\n      0x00\n        /* \"#utility.yul\":6087:6092   */\n      dup2\n        /* \"#utility.yul\":6076:6092   */\n      swap1\n      pop\n        /* \"#utility.yul\":6021:6098   */\n      swap2\n      swap1\n      pop\n      jump\t// out\n        /* \"#utility.yul\":6104:6231   */\n    tag_176:\n        /* \"#utility.yul\":6160:6169   */\n      0x00\n        /* \"#utility.yul\":6193:6225   */\n      tag_234\n        /* \"#utility.yul\":6219:6224   */\n      dup3\n        /* \"#utility.yul\":6193:6225   */\n      tag_227\n      jump\t// in\n    tag_234:\n        /* \"#utility.yul\":6180:6225   */\n      swap1\n      pop\n        /* \"#utility.yul\":6104:6231   */\n      swap2\n      swap1\n      pop\n      jump\t// out\n        /* \"#utility.yul\":6237:6544   */\n    tag_184:\n        /* \"#utility.yul\":6305:6306   */\n      0x00\n        /* \"#utility.yul\":6315:6428   */\n    tag_236:\n        /* \"#utility.yul\":6329:6335   */\n      dup4\n        /* \"#utility.yul\":6326:6327   */\n      dup2\n        /* \"#utility.yul\":6323:6336   */\n      lt\n        /* \"#utility.yul\":6315:6428   */\n      iszero\n      tag_238\n      jumpi\n        /* \"#utility.yul\":6414:6415   */\n      dup1\n        /* \"#utility.yul\":6409:6412   */\n      dup3\n        /* \"#utility.yul\":6405:6416   */\n      add\n        /* \"#utility.yul\":6399:6417   */\n      mload\n        /* \"#utility.yul\":6395:6396   */\n      dup2\n        /* \"#utility.yul\":6390:6393   */\n      dup5\n        /* \"#utility.yul\":6386:6397   */\n      add\n        /* \"#utility.yul\":6379:6418   */\n      mstore\n        /* \"#utility.yul\":6351:6353   */\n      0x20\n        /* \"#utility.yul\":6348:6349   */\n      dup2\n        /* \"#utility.yul\":6344:6354   */\n      add\n        /* \"#utility.yul\":6339:6354   */\n      swap1\n      pop\n        /* \"#utility.yul\":6315:6428   */\n      jump(tag_236)\n    tag_238:\n        /* \"#utility.yul\":6446:6452   */\n      dup4\n        /* \"#utility.yul\":6443:6444   */\n      dup2\n        /* \"#utility.yul\":6440:6453   */\n      gt\n        /* \"#utility.yul\":6437:6538   */\n      iszero\n      tag_239\n      jumpi\n        /* \"#utility.yul\":6526:6527   */\n      0x00\n        /* \"#utility.yul\":6517:6523   */\n      dup5\n        /* \"#utility.yul\":6512:6515   */\n      dup5\n        /* \"#utility.yul\":6508:6524   */\n      add\n        /* \"#utility.yul\":6501:6528   */\n      mstore\n        /* \"#utility.yul\":6437:6538   */\n    tag_239:\n        /* \"#utility.yul\":6286:6544   */\n      pop\n        /* \"#utility.yul\":6237:6544   */\n      pop\n      pop\n      pop\n      jump\t// out\n        /* \"#utility.yul\":6550:6870   */\n    tag_94:\n        /* \"#utility.yul\":6594:6600   */\n      0x00\n        /* \"#utility.yul\":6631:6632   */\n      0x02\n        /* \"#utility.yul\":6625:6629   */\n      dup3\n        /* \"#utility.yul\":6621:6633   */\n      div\n        /* \"#utility.yul\":6611:6633   */\n      swap1\n      pop\n        /* \"#utility.yul\":6678:6679   */\n      0x01\n        /* \"#utility.yul\":6672:6676   */\n      dup3\n        /* \"#utility.yul\":6668:6680   */\n      and\n        /* \"#utility.yul\":6699:6717   */\n      dup1\n        /* \"#utility.yul\":6689:6770   */\n      tag_241\n      jumpi\n        /* \"#utility.yul\":6755:6759   */\n      0x7f\n        /* \"#utility.yul\":6747:6753   */\n      dup3\n        /* \"#utility.yul\":6743:6760   */\n      and\n        /* \"#utility.yul\":6733:6760   */\n      swap2\n      pop\n        /* \"#utility.yul\":6689:6770   */\n    tag_241:\n        /* \"#utility.yul\":6817:6819   */\n      0x20\n        /* \"#utility.yul\":6809:6815   */\n      dup3\n        /* \"#utility.yul\":6806:6820   */\n      lt\n        /* \"#utility.yul\":6786:6804   */\n      dup2\n        /* \"#utility.yul\":6783:6821   */\n      eq\n        /* \"#utility.yul\":6780:6864   */\n      iszero\n      tag_242\n      jumpi\n        /* \"#utility.yul\":6836:6854   */\n      tag_243\n      tag_244\n      jump\t// in\n    tag_243:\n        /* \"#utility.yul\":6780:6864   */\n    tag_242:\n        /* \"#utility.yul\":6601:6870   */\n      pop\n        /* \"#utility.yul\":6550:6870   */\n      swap2\n      swap1\n      pop\n      jump\t// out\n        /* \"#utility.yul\":6876:7056   */\n    tag_220:\n        /* \"#utility.yul\":6924:7001   */\n      0x4e487b7100000000000000000000000000000000000000000000000000000000\n        /* \"#utility.yul\":6921:6922   */\n      0x00\n        /* \"#utility.yul\":6914:7002   */\n      mstore\n        /* \"#utility.yul\":7021:7025   */\n      0x11\n        /* \"#utility.yul\":7018:7019   */\n      0x04\n        /* \"#utility.yul\":7011:7026   */\n      mstore\n        /* \"#utility.yul\":7045:7049   */\n      0x24\n        /* \"#utility.yul\":7042:7043   */\n      0x00\n        /* \"#utility.yul\":7035:7050   */\n      revert\n        /* \"#utility.yul\":7062:7242   */\n    tag_82:\n        /* \"#utility.yul\":7110:7187   */\n      0x4e487b7100000000000000000000000000000000000000000000000000000000\n        /* \"#utility.yul\":7107:7108   */\n      0x00\n        /* \"#utility.yul\":7100:7188   */\n      mstore\n        /* \"#utility.yul\":7207:7211   */\n      0x21\n        /* \"#utility.yul\":7204:7205   */\n      0x04\n        /* \"#utility.yul\":7197:7212   */\n      mstore\n        /* \"#utility.yul\":7231:7235   */\n      0x24\n        /* \"#utility.yul\":7228:7229   */\n      0x00\n        /* \"#utility.yul\":7221:7236   */\n      revert\n        /* \"#utility.yul\":7248:7428   */\n    tag_244:\n        /* \"#utility.yul\":7296:7373   */\n      0x4e487b7100000000000000000000000000000000000000000000000000000000\n        /* \"#utility.yul\":7293:7294   */\n      0x00\n        /* \"#utility.yul\":7286:7374   */\n      mstore\n        /* \"#utility.yul\":7393:7397   */\n      0x22\n        /* \"#utility.yul\":7390:7391   */\n      0x04\n        /* \"#utility.yul\":7383:7398   */\n      mstore\n        /* \"#utility.yul\":7417:7421   */\n      0x24\n        /* \"#utility.yul\":7414:7415   */\n      0x00\n        /* \"#utility.yul\":7407:7422   */\n      revert\n        /* \"#utility.yul\":7557:7674   */\n    tag_153:\n        /* \"#utility.yul\":7666:7667   */\n      0x00\n        /* \"#utility.yul\":7663:7664   */\n      dup1\n        /* \"#utility.yul\":7656:7668   */\n      revert\n        /* \"#utility.yul\":7680:7782   */\n    tag_186:\n        /* \"#utility.yul\":7721:7727   */\n      0x00\n        /* \"#utility.yul\":7772:7774   */\n      0x1f\n        /* \"#utility.yul\":7768:7775   */\n      not\n        /* \"#utility.yul\":7763:7765   */\n      0x1f\n        /* \"#utility.yul\":7756:7761   */\n      dup4\n        /* \"#utility.yul\":7752:7766   */\n      add\n        /* \"#utility.yul\":7748:7776   */\n      and\n        /* \"#utility.yul\":7738:7776   */\n      swap1\n      pop\n        /* \"#utility.yul\":7680:7782   */\n      swap2\n      swap1\n      pop\n      jump\t// out\n        /* \"#utility.yul\":7788:8010   */\n    tag_191:\n        /* \"#utility.yul\":7928:7962   */\n      0x506c65617365207761697420756e74696c207468652061756374696f6e207374\n        /* \"#utility.yul\":7924:7925   */\n      0x00\n        /* \"#utility.yul\":7916:7922   */\n      dup3\n        /* \"#utility.yul\":7912:7926   */\n      add\n        /* \"#utility.yul\":7905:7963   */\n      mstore\n        /* \"#utility.yul\":7997:8002   */\n      0x6172740000000000000000000000000000000000000000000000000000000000\n        /* \"#utility.yul\":7992:7994   */\n      0x20\n        /* \"#utility.yul\":7984:7990   */\n      dup3\n        /* \"#utility.yul\":7980:7995   */\n      add\n        /* \"#utility.yul\":7973:8003   */\n      mstore\n        /* \"#utility.yul\":7788:8010   */\n      pop\n      jump\t// out\n        /* \"#utility.yul\":8016:8129   */\n    tag_230:\n        /* \"#utility.yul\":8097:8098   */\n      0x04\n        /* \"#utility.yul\":8090:8095   */\n      dup2\n        /* \"#utility.yul\":8087:8099   */\n      lt\n        /* \"#utility.yul\":8077:8123   */\n      tag_254\n      jumpi\n        /* \"#utility.yul\":8103:8121   */\n      tag_255\n      tag_82\n      jump\t// in\n    tag_255:\n        /* \"#utility.yul\":8077:8123   */\n    tag_254:\n        /* \"#utility.yul\":8016:8129   */\n      pop\n      jump\t// out\n        /* \"#utility.yul\":8135:8257   */\n    tag_145:\n        /* \"#utility.yul\":8208:8232   */\n      tag_257\n        /* \"#utility.yul\":8226:8231   */\n      dup2\n        /* \"#utility.yul\":8208:8232   */\n      tag_168\n      jump\t// in\n    tag_257:\n        /* \"#utility.yul\":8201:8206   */\n      dup2\n        /* \"#utility.yul\":8198:8233   */\n      eq\n        /* \"#utility.yul\":8188:8251   */\n      tag_258\n      jumpi\n        /* \"#utility.yul\":8247:8248   */\n      0x00\n        /* \"#utility.yul\":8244:8245   */\n      dup1\n        /* \"#utility.yul\":8237:8249   */\n      revert\n        /* \"#utility.yul\":8188:8251   */\n    tag_258:\n        /* \"#utility.yul\":8135:8257   */\n      pop\n      jump\t// out\n        /* \"#utility.yul\":8263:8385   */\n    tag_149:\n        /* \"#utility.yul\":8336:8360   */\n      tag_260\n        /* \"#utility.yul\":8354:8359   */\n      dup2\n        /* \"#utility.yul\":8336:8360   */\n      tag_195\n      jump\t// in\n    tag_260:\n        /* \"#utility.yul\":8329:8334   */\n      dup2\n        /* \"#utility.yul\":8326:8361   */\n      eq\n        /* \"#utility.yul\":8316:8379   */\n      tag_261\n      jumpi\n        /* \"#utility.yul\":8375:8376   */\n      0x00\n        /* \"#utility.yul\":8372:8373   */\n      dup1\n        /* \"#utility.yul\":8365:8377   */\n      revert\n        /* \"#utility.yul\":8316:8379   */\n    tag_261:\n        /* \"#utility.yul\":8263:8385   */\n      pop\n      jump\t// out\n\n    auxdata: 0xa264697066735822122050bbac53f3b62d7834ab6e87bf65c120680bb67377cfda27748125ffae4f40bf64736f6c63430008070033\n}\n",
				"bytecode": {
					"linkReferences": {},
					"object": "60806040523480156200001157600080fd5b506040516200108938038062001089833981810160405281019062000037919062000104565b336000806101000a81548173ffffffffffffffffffffffffffffffffffffffff021916908373ffffffffffffffffffffffffffffffffffffffff16021790555080600160006101000a81548173ffffffffffffffffffffffffffffffffffffffff021916908373ffffffffffffffffffffffffffffffffffffffff1602179055506002600660006101000a81548160ff02191690836003811115620000e157620000e06200016a565b5b021790555050620001b8565b600081519050620000fe816200019e565b92915050565b6000602082840312156200011d576200011c62000199565b5b60006200012d84828501620000ed565b91505092915050565b600062000143826200014a565b9050919050565b600073ffffffffffffffffffffffffffffffffffffffff82169050919050565b7f4e487b7100000000000000000000000000000000000000000000000000000000600052602160045260246000fd5b600080fd5b620001a98162000136565b8114620001b557600080fd5b50565b610ec180620001c86000396000f3fe6080604052600436106100c25760003560e01c80638da5cb5b1161007f578063c623674f11610059578063c623674f1461026d578063d5f8418914610298578063ecfc7ecc146102c3578063f5b56c56146102cd576100c2565b80638da5cb5b146101d957806391f9015714610204578063bde97e091461022f576100c2565b8063083c6323146100c7578063341175d5146100f257806338af3eed1461011b57806348cd4cb11461014657806362ea82db146101715780637fb45099146101ae575b600080fd5b3480156100d357600080fd5b506100dc6102f8565b6040516100e99190610be6565b60405180910390f35b3480156100fe57600080fd5b5061011960048036038101906101149190610a29565b6102fe565b005b34801561012757600080fd5b50610130610415565b60405161013d9190610b3e565b60405180910390f35b34801561015257600080fd5b5061015b61043b565b6040516101689190610be6565b60405180910390f35b34801561017d57600080fd5b50610198600480360381019061019391906109fc565b610441565b6040516101a59190610be6565b60405180910390f35b3480156101ba57600080fd5b506101c3610459565b6040516101d09190610b59565b60405180910390f35b3480156101e557600080fd5b506101ee61046c565b6040516101fb9190610b23565b60405180910390f35b34801561021057600080fd5b50610219610490565b6040516102269190610b3e565b60405180910390f35b34801561023b57600080fd5b50610256600480360381019061025191906109fc565b6104b6565b604051610264929190610b96565b60405180910390f35b34801561027957600080fd5b5061028261056f565b60405161028f9190610b74565b60405180910390f35b3480156102a457600080fd5b506102ad6105fd565b6040516102ba9190610be6565b60405180910390f35b6102cb610603565b005b3480156102d957600080fd5b506102e261090e565b6040516102ef9190610be6565b60405180910390f35b60035481565b60008054906101000a900473ffffffffffffffffffffffffffffffffffffffff1673ffffffffffffffffffffffffffffffffffffffff163373ffffffffffffffffffffffffffffffffffffffff161461035657600080fd5b6002600381111561036a57610369610d86565b5b600660009054906101000a900460ff16600381111561038c5761038b610d86565b5b1461039657600080fd5b43600281905550826002546103ab9190610c1d565b6003819055506000600660006101000a81548160ff021916908360038111156103d7576103d6610d86565b5b0217905550604051806020016040528060008152506005908051906020019061040192919061092f565b5081600a8190555080600481905550505050565b600160009054906101000a900473ffffffffffffffffffffffffffffffffffffffff1681565b60025481565b60096020528060005260406000206000915090505481565b600660009054906101000a900460ff1681565b60008054906101000a900473ffffffffffffffffffffffffffffffffffffffff1681565b600860009054906101000a900473ffffffffffffffffffffffffffffffffffffffff1681565b600b6020528060005260406000206000915090508060000180546104d990610d25565b80601f016020809104026020016040519081016040528092919081815260200182805461050590610d25565b80156105525780601f1061052757610100808354040283529160200191610552565b820191906000526020600020905b81548152906001019060200180831161053557829003601f168201915b5050505050908060010160009054906101000a900460ff16905082565b6005805461057c90610d25565b80601f01602080910402602001604051908101604052809291908181526020018280546105a890610d25565b80156105f55780601f106105ca576101008083540402835291602001916105f5565b820191906000526020600020905b8154815290600101906020018083116105d857829003601f168201915b505050505081565b60045481565b60008054906101000a900473ffffffffffffffffffffffffffffffffffffffff1673ffffffffffffffffffffffffffffffffffffffff163373ffffffffffffffffffffffffffffffffffffffff16141561065c57600080fd5b60025443101561066b57600080fd5b60035443111561067a57600080fd5b6000600381111561068e5761068d610d86565b5b600660009054906101000a900460ff1660038111156106b0576106af610d86565b5b146106f0576040517f08c379a00000000000000000000000000000000000000000000000000000000081526004016106e790610bc6565b60405180910390fd5b6004543410156106ff57600080fd5b600034600960003373ffffffffffffffffffffffffffffffffffffffff1673ffffffffffffffffffffffffffffffffffffffff1681526020019081526020016000205461074c9190610c1d565b905060075481101561075d57600080fd5b80600960003373ffffffffffffffffffffffffffffffffffffffff1673ffffffffffffffffffffffffffffffffffffffff1681526020019081526020016000208190555060096000600860009054906101000a900473ffffffffffffffffffffffffffffffffffffffff1673ffffffffffffffffffffffffffffffffffffffff1673ffffffffffffffffffffffffffffffffffffffff16815260200190815260200160002054811161088c57610881600a548261081a9190610c1d565b60096000600860009054906101000a900473ffffffffffffffffffffffffffffffffffffffff1673ffffffffffffffffffffffffffffffffffffffff1673ffffffffffffffffffffffffffffffffffffffff16815260200190815260200160002054610914565b60078190555061090b565b61090481600a5460096000600860009054906101000a900473ffffffffffffffffffffffffffffffffffffffff1673ffffffffffffffffffffffffffffffffffffffff1673ffffffffffffffffffffffffffffffffffffffff168152602001908152602001600020546108ff9190610c1d565b610914565b6007819055505b50565b60075481565b600081831161092557829050610929565b8190505b92915050565b82805461093b90610d25565b90600052602060002090601f01602090048101928261095d57600085556109a4565b82601f1061097657805160ff19168380011785556109a4565b828001600101855582156109a4579182015b828111156109a3578251825591602001919060010190610988565b5b5090506109b191906109b5565b5090565b5b808211156109ce5760008160009055506001016109b6565b5090565b6000813590506109e181610e5d565b92915050565b6000813590506109f681610e74565b92915050565b600060208284031215610a1257610a11610de4565b5b6000610a20848285016109d2565b91505092915050565b600080600060608486031215610a4257610a41610de4565b5b6000610a50868287016109e7565b9350506020610a61868287016109e7565b9250506040610a72868287016109e7565b9150509250925092565b610a8581610c85565b82525050565b610a9481610c73565b82525050565b610aa381610c97565b82525050565b610ab281610ce0565b82525050565b6000610ac382610c01565b610acd8185610c0c565b9350610add818560208601610cf2565b610ae681610de9565b840191505092915050565b6000610afe602383610c0c565b9150610b0982610dfa565b604082019050919050565b610b1d81610cd6565b82525050565b6000602082019050610b386000830184610a8b565b92915050565b6000602082019050610b536000830184610a7c565b92915050565b6000602082019050610b6e6000830184610aa9565b92915050565b60006020820190508181036000830152610b8e8184610ab8565b905092915050565b60006040820190508181036000830152610bb08185610ab8565b9050610bbf6020830184610a9a565b9392505050565b60006020820190508181036000830152610bdf81610af1565b9050919050565b6000602082019050610bfb6000830184610b14565b92915050565b600081519050919050565b600082825260208201905092915050565b6000610c2882610cd6565b9150610c3383610cd6565b9250827fffffffffffffffffffffffffffffffffffffffffffffffffffffffffffffffff03821115610c6857610c67610d57565b5b828201905092915050565b6000610c7e82610cb6565b9050919050565b6000610c9082610cb6565b9050919050565b60008115159050919050565b6000819050610cb182610e49565b919050565b600073ffffffffffffffffffffffffffffffffffffffff82169050919050565b6000819050919050565b6000610ceb82610ca3565b9050919050565b60005b83811015610d10578082015181840152602081019050610cf5565b83811115610d1f576000848401525b50505050565b60006002820490506001821680610d3d57607f821691505b60208210811415610d5157610d50610db5565b5b50919050565b7f4e487b7100000000000000000000000000000000000000000000000000000000600052601160045260246000fd5b7f4e487b7100000000000000000000000000000000000000000000000000000000600052602160045260246000fd5b7f4e487b7100000000000000000000000000000000000000000000000000000000600052602260045260246000fd5b600080fd5b6000601f19601f8301169050919050565b7f506c65617365207761697420756e74696c207468652061756374696f6e20737460008201527f6172740000000000000000000000000000000000000000000000000000000000602082015250565b60048110610e5a57610e59610d86565b5b50565b610e6681610c73565b8114610e7157600080fd5b50565b610e7d81610cd6565b8114610e8857600080fd5b5056fea264697066735822122050bbac53f3b62d7834ab6e87bf65c120680bb67377cfda27748125ffae4f40bf64736f6c63430008070033",
					"opcodes": "PUSH1 0x80 PUSH1 0x40 MSTORE CALLVALUE DUP1 ISZERO PUSH3 0x11 JUMPI PUSH1 0x0 DUP1 REVERT JUMPDEST POP PUSH1 0x40 MLOAD PUSH3 0x1089 CODESIZE SUB DUP1 PUSH3 0x1089 DUP4 CODECOPY DUP2 DUP2 ADD PUSH1 0x40 MSTORE DUP2 ADD SWAP1 PUSH3 0x37 SWAP2 SWAP1 PUSH3 0x104 JUMP JUMPDEST CALLER PUSH1 0x0 DUP1 PUSH2 0x100 EXP DUP2 SLOAD DUP2 PUSH20 0xFFFFFFFFFFFFFFFFFFFFFFFFFFFFFFFFFFFFFFFF MUL NOT AND SWAP1 DUP4 PUSH20 0xFFFFFFFFFFFFFFFFFFFFFFFFFFFFFFFFFFFFFFFF AND MUL OR SWAP1 SSTORE POP DUP1 PUSH1 0x1 PUSH1 0x0 PUSH2 0x100 EXP DUP2 SLOAD DUP2 PUSH20 0xFFFFFFFFFFFFFFFFFFFFFFFFFFFFFFFFFFFFFFFF MUL NOT AND SWAP1 DUP4 PUSH20 0xFFFFFFFFFFFFFFFFFFFFFFFFFFFFFFFFFFFFFFFF AND MUL OR SWAP1 SSTORE POP PUSH1 0x2 PUSH1 0x6 PUSH1 0x0 PUSH2 0x100 EXP DUP2 SLOAD DUP2 PUSH1 0xFF MUL NOT AND SWAP1 DUP4 PUSH1 0x3 DUP2 GT ISZERO PUSH3 0xE1 JUMPI PUSH3 0xE0 PUSH3 0x16A JUMP JUMPDEST JUMPDEST MUL OR SWAP1 SSTORE POP POP PUSH3 0x1B8 JUMP JUMPDEST PUSH1 0x0 DUP2 MLOAD SWAP1 POP PUSH3 0xFE DUP2 PUSH3 0x19E JUMP JUMPDEST SWAP3 SWAP2 POP POP JUMP JUMPDEST PUSH1 0x0 PUSH1 0x20 DUP3 DUP5 SUB SLT ISZERO PUSH3 0x11D JUMPI PUSH3 0x11C PUSH3 0x199 JUMP JUMPDEST JUMPDEST PUSH1 0x0 PUSH3 0x12D DUP5 DUP3 DUP6 ADD PUSH3 0xED JUMP JUMPDEST SWAP2 POP POP SWAP3 SWAP2 POP POP JUMP JUMPDEST PUSH1 0x0 PUSH3 0x143 DUP3 PUSH3 0x14A JUMP JUMPDEST SWAP1 POP SWAP2 SWAP1 POP JUMP JUMPDEST PUSH1 0x0 PUSH20 0xFFFFFFFFFFFFFFFFFFFFFFFFFFFFFFFFFFFFFFFF DUP3 AND SWAP1 POP SWAP2 SWAP1 POP JUMP JUMPDEST PUSH32 0x4E487B7100000000000000000000000000000000000000000000000000000000 PUSH1 0x0 MSTORE PUSH1 0x21 PUSH1 0x4 MSTORE PUSH1 0x24 PUSH1 0x0 REVERT JUMPDEST PUSH1 0x0 DUP1 REVERT JUMPDEST PUSH3 0x1A9 DUP2 PUSH3 0x136 JUMP JUMPDEST DUP2 EQ PUSH3 0x1B5 JUMPI PUSH1 0x0 DUP1 REVERT JUMPDEST POP JUMP JUMPDEST PUSH2 0xEC1 DUP1 PUSH3 0x1C8 PUSH1 0x0 CODECOPY PUSH1 0x0 RETURN INVALID PUSH1 0x80 PUSH1 0x40 MSTORE PUSH1 0x4 CALLDATASIZE LT PUSH2 0xC2 JUMPI PUSH1 0x0 CALLDATALOAD PUSH1 0xE0 SHR DUP1 PUSH4 0x8DA5CB5B GT PUSH2 0x7F JUMPI DUP1 PUSH4 0xC623674F GT PUSH2 0x59 JUMPI DUP1 PUSH4 0xC623674F EQ PUSH2 0x26D JUMPI DUP1 PUSH4 0xD5F84189 EQ PUSH2 0x298 JUMPI DUP1 PUSH4 0xECFC7ECC EQ PUSH2 0x2C3 JUMPI DUP1 PUSH4 0xF5B56C56 EQ PUSH2 0x2CD JUMPI PUSH2 0xC2 JUMP JUMPDEST DUP1 PUSH4 0x8DA5CB5B EQ PUSH2 0x1D9 JUMPI DUP1 PUSH4 0x91F90157 EQ PUSH2 0x204 JUMPI DUP1 PUSH4 0xBDE97E09 EQ PUSH2 0x22F JUMPI PUSH2 0xC2 JUMP JUMPDEST DUP1 PUSH4 0x83C6323 EQ PUSH2 0xC7 JUMPI DUP1 PUSH4 0x341175D5 EQ PUSH2 0xF2 JUMPI DUP1 PUSH4 0x38AF3EED EQ PUSH2 0x11B JUMPI DUP1 PUSH4 0x48CD4CB1 EQ PUSH2 0x146 JUMPI DUP1 PUSH4 0x62EA82DB EQ PUSH2 0x171 JUMPI DUP1 PUSH4 0x7FB45099 EQ PUSH2 0x1AE JUMPI JUMPDEST PUSH1 0x0 DUP1 REVERT JUMPDEST CALLVALUE DUP1 ISZERO PUSH2 0xD3 JUMPI PUSH1 0x0 DUP1 REVERT JUMPDEST POP PUSH2 0xDC PUSH2 0x2F8 JUMP JUMPDEST PUSH1 0x40 MLOAD PUSH2 0xE9 SWAP2 SWAP1 PUSH2 0xBE6 JUMP JUMPDEST PUSH1 0x40 MLOAD DUP1 SWAP2 SUB SWAP1 RETURN JUMPDEST CALLVALUE DUP1 ISZERO PUSH2 0xFE JUMPI PUSH1 0x0 DUP1 REVERT JUMPDEST POP PUSH2 0x119 PUSH1 0x4 DUP1 CALLDATASIZE SUB DUP2 ADD SWAP1 PUSH2 0x114 SWAP2 SWAP1 PUSH2 0xA29 JUMP JUMPDEST PUSH2 0x2FE JUMP JUMPDEST STOP JUMPDEST CALLVALUE DUP1 ISZERO PUSH2 0x127 JUMPI PUSH1 0x0 DUP1 REVERT JUMPDEST POP PUSH2 0x130 PUSH2 0x415 JUMP JUMPDEST PUSH1 0x40 MLOAD PUSH2 0x13D SWAP2 SWAP1 PUSH2 0xB3E JUMP JUMPDEST PUSH1 0x40 MLOAD DUP1 SWAP2 SUB SWAP1 RETURN JUMPDEST CALLVALUE DUP1 ISZERO PUSH2 0x152 JUMPI PUSH1 0x0 DUP1 REVERT JUMPDEST POP PUSH2 0x15B PUSH2 0x43B JUMP JUMPDEST PUSH1 0x40 MLOAD PUSH2 0x168 SWAP2 SWAP1 PUSH2 0xBE6 JUMP JUMPDEST PUSH1 0x40 MLOAD DUP1 SWAP2 SUB SWAP1 RETURN JUMPDEST CALLVALUE DUP1 ISZERO PUSH2 0x17D JUMPI PUSH1 0x0 DUP1 REVERT JUMPDEST POP PUSH2 0x198 PUSH1 0x4 DUP1 CALLDATASIZE SUB DUP2 ADD SWAP1 PUSH2 0x193 SWAP2 SWAP1 PUSH2 0x9FC JUMP JUMPDEST PUSH2 0x441 JUMP JUMPDEST PUSH1 0x40 MLOAD PUSH2 0x1A5 SWAP2 SWAP1 PUSH2 0xBE6 JUMP JUMPDEST PUSH1 0x40 MLOAD DUP1 SWAP2 SUB SWAP1 RETURN JUMPDEST CALLVALUE DUP1 ISZERO PUSH2 0x1BA JUMPI PUSH1 0x0 DUP1 REVERT JUMPDEST POP PUSH2 0x1C3 PUSH2 0x459 JUMP JUMPDEST PUSH1 0x40 MLOAD PUSH2 0x1D0 SWAP2 SWAP1 PUSH2 0xB59 JUMP JUMPDEST PUSH1 0x40 MLOAD DUP1 SWAP2 SUB SWAP1 RETURN JUMPDEST CALLVALUE DUP1 ISZERO PUSH2 0x1E5 JUMPI PUSH1 0x0 DUP1 REVERT JUMPDEST POP PUSH2 0x1EE PUSH2 0x46C JUMP JUMPDEST PUSH1 0x40 MLOAD PUSH2 0x1FB SWAP2 SWAP1 PUSH2 0xB23 JUMP JUMPDEST PUSH1 0x40 MLOAD DUP1 SWAP2 SUB SWAP1 RETURN JUMPDEST CALLVALUE DUP1 ISZERO PUSH2 0x210 JUMPI PUSH1 0x0 DUP1 REVERT JUMPDEST POP PUSH2 0x219 PUSH2 0x490 JUMP JUMPDEST PUSH1 0x40 MLOAD PUSH2 0x226 SWAP2 SWAP1 PUSH2 0xB3E JUMP JUMPDEST PUSH1 0x40 MLOAD DUP1 SWAP2 SUB SWAP1 RETURN JUMPDEST CALLVALUE DUP1 ISZERO PUSH2 0x23B JUMPI PUSH1 0x0 DUP1 REVERT JUMPDEST POP PUSH2 0x256 PUSH1 0x4 DUP1 CALLDATASIZE SUB DUP2 ADD SWAP1 PUSH2 0x251 SWAP2 SWAP1 PUSH2 0x9FC JUMP JUMPDEST PUSH2 0x4B6 JUMP JUMPDEST PUSH1 0x40 MLOAD PUSH2 0x264 SWAP3 SWAP2 SWAP1 PUSH2 0xB96 JUMP JUMPDEST PUSH1 0x40 MLOAD DUP1 SWAP2 SUB SWAP1 RETURN JUMPDEST CALLVALUE DUP1 ISZERO PUSH2 0x279 JUMPI PUSH1 0x0 DUP1 REVERT JUMPDEST POP PUSH2 0x282 PUSH2 0x56F JUMP JUMPDEST PUSH1 0x40 MLOAD PUSH2 0x28F SWAP2 SWAP1 PUSH2 0xB74 JUMP JUMPDEST PUSH1 0x40 MLOAD DUP1 SWAP2 SUB SWAP1 RETURN JUMPDEST CALLVALUE DUP1 ISZERO PUSH2 0x2A4 JUMPI PUSH1 0x0 DUP1 REVERT JUMPDEST POP PUSH2 0x2AD PUSH2 0x5FD JUMP JUMPDEST PUSH1 0x40 MLOAD PUSH2 0x2BA SWAP2 SWAP1 PUSH2 0xBE6 JUMP JUMPDEST PUSH1 0x40 MLOAD DUP1 SWAP2 SUB SWAP1 RETURN JUMPDEST PUSH2 0x2CB PUSH2 0x603 JUMP JUMPDEST STOP JUMPDEST CALLVALUE DUP1 ISZERO PUSH2 0x2D9 JUMPI PUSH1 0x0 DUP1 REVERT JUMPDEST POP PUSH2 0x2E2 PUSH2 0x90E JUMP JUMPDEST PUSH1 0x40 MLOAD PUSH2 0x2EF SWAP2 SWAP1 PUSH2 0xBE6 JUMP JUMPDEST PUSH1 0x40 MLOAD DUP1 SWAP2 SUB SWAP1 RETURN JUMPDEST PUSH1 0x3 SLOAD DUP2 JUMP JUMPDEST PUSH1 0x0 DUP1 SLOAD SWAP1 PUSH2 0x100 EXP SWAP1 DIV PUSH20 0xFFFFFFFFFFFFFFFFFFFFFFFFFFFFFFFFFFFFFFFF AND PUSH20 0xFFFFFFFFFFFFFFFFFFFFFFFFFFFFFFFFFFFFFFFF AND CALLER PUSH20 0xFFFFFFFFFFFFFFFFFFFFFFFFFFFFFFFFFFFFFFFF AND EQ PUSH2 0x356 JUMPI PUSH1 0x0 DUP1 REVERT JUMPDEST PUSH1 0x2 PUSH1 0x3 DUP2 GT ISZERO PUSH2 0x36A JUMPI PUSH2 0x369 PUSH2 0xD86 JUMP JUMPDEST JUMPDEST PUSH1 0x6 PUSH1 0x0 SWAP1 SLOAD SWAP1 PUSH2 0x100 EXP SWAP1 DIV PUSH1 0xFF AND PUSH1 0x3 DUP2 GT ISZERO PUSH2 0x38C JUMPI PUSH2 0x38B PUSH2 0xD86 JUMP JUMPDEST JUMPDEST EQ PUSH2 0x396 JUMPI PUSH1 0x0 DUP1 REVERT JUMPDEST NUMBER PUSH1 0x2 DUP2 SWAP1 SSTORE POP DUP3 PUSH1 0x2 SLOAD PUSH2 0x3AB SWAP2 SWAP1 PUSH2 0xC1D JUMP JUMPDEST PUSH1 0x3 DUP2 SWAP1 SSTORE POP PUSH1 0x0 PUSH1 0x6 PUSH1 0x0 PUSH2 0x100 EXP DUP2 SLOAD DUP2 PUSH1 0xFF MUL NOT AND SWAP1 DUP4 PUSH1 0x3 DUP2 GT ISZERO PUSH2 0x3D7 JUMPI PUSH2 0x3D6 PUSH2 0xD86 JUMP JUMPDEST JUMPDEST MUL OR SWAP1 SSTORE POP PUSH1 0x40 MLOAD DUP1 PUSH1 0x20 ADD PUSH1 0x40 MSTORE DUP1 PUSH1 0x0 DUP2 MSTORE POP PUSH1 0x5 SWAP1 DUP1 MLOAD SWAP1 PUSH1 0x20 ADD SWAP1 PUSH2 0x401 SWAP3 SWAP2 SWAP1 PUSH2 0x92F JUMP JUMPDEST POP DUP2 PUSH1 0xA DUP2 SWAP1 SSTORE POP DUP1 PUSH1 0x4 DUP2 SWAP1 SSTORE POP POP POP POP JUMP JUMPDEST PUSH1 0x1 PUSH1 0x0 SWAP1 SLOAD SWAP1 PUSH2 0x100 EXP SWAP1 DIV PUSH20 0xFFFFFFFFFFFFFFFFFFFFFFFFFFFFFFFFFFFFFFFF AND DUP2 JUMP JUMPDEST PUSH1 0x2 SLOAD DUP2 JUMP JUMPDEST PUSH1 0x9 PUSH1 0x20 MSTORE DUP1 PUSH1 0x0 MSTORE PUSH1 0x40 PUSH1 0x0 KECCAK256 PUSH1 0x0 SWAP2 POP SWAP1 POP SLOAD DUP2 JUMP JUMPDEST PUSH1 0x6 PUSH1 0x0 SWAP1 SLOAD SWAP1 PUSH2 0x100 EXP SWAP1 DIV PUSH1 0xFF AND DUP2 JUMP JUMPDEST PUSH1 0x0 DUP1 SLOAD SWAP1 PUSH2 0x100 EXP SWAP1 DIV PUSH20 0xFFFFFFFFFFFFFFFFFFFFFFFFFFFFFFFFFFFFFFFF AND DUP2 JUMP JUMPDEST PUSH1 0x8 PUSH1 0x0 SWAP1 SLOAD SWAP1 PUSH2 0x100 EXP SWAP1 DIV PUSH20 0xFFFFFFFFFFFFFFFFFFFFFFFFFFFFFFFFFFFFFFFF AND DUP2 JUMP JUMPDEST PUSH1 0xB PUSH1 0x20 MSTORE DUP1 PUSH1 0x0 MSTORE PUSH1 0x40 PUSH1 0x0 KECCAK256 PUSH1 0x0 SWAP2 POP SWAP1 POP DUP1 PUSH1 0x0 ADD DUP1 SLOAD PUSH2 0x4D9 SWAP1 PUSH2 0xD25 JUMP JUMPDEST DUP1 PUSH1 0x1F ADD PUSH1 0x20 DUP1 SWAP2 DIV MUL PUSH1 0x20 ADD PUSH1 0x40 MLOAD SWAP1 DUP2 ADD PUSH1 0x40 MSTORE DUP1 SWAP3 SWAP2 SWAP1 DUP2 DUP2 MSTORE PUSH1 0x20 ADD DUP3 DUP1 SLOAD PUSH2 0x505 SWAP1 PUSH2 0xD25 JUMP JUMPDEST DUP1 ISZERO PUSH2 0x552 JUMPI DUP1 PUSH1 0x1F LT PUSH2 0x527 JUMPI PUSH2 0x100 DUP1 DUP4 SLOAD DIV MUL DUP4 MSTORE SWAP2 PUSH1 0x20 ADD SWAP2 PUSH2 0x552 JUMP JUMPDEST DUP3 ADD SWAP2 SWAP1 PUSH1 0x0 MSTORE PUSH1 0x20 PUSH1 0x0 KECCAK256 SWAP1 JUMPDEST DUP2 SLOAD DUP2 MSTORE SWAP1 PUSH1 0x1 ADD SWAP1 PUSH1 0x20 ADD DUP1 DUP4 GT PUSH2 0x535 JUMPI DUP3 SWAP1 SUB PUSH1 0x1F AND DUP3 ADD SWAP2 JUMPDEST POP POP POP POP POP SWAP1 DUP1 PUSH1 0x1 ADD PUSH1 0x0 SWAP1 SLOAD SWAP1 PUSH2 0x100 EXP SWAP1 DIV PUSH1 0xFF AND SWAP1 POP DUP3 JUMP JUMPDEST PUSH1 0x5 DUP1 SLOAD PUSH2 0x57C SWAP1 PUSH2 0xD25 JUMP JUMPDEST DUP1 PUSH1 0x1F ADD PUSH1 0x20 DUP1 SWAP2 DIV MUL PUSH1 0x20 ADD PUSH1 0x40 MLOAD SWAP1 DUP2 ADD PUSH1 0x40 MSTORE DUP1 SWAP3 SWAP2 SWAP1 DUP2 DUP2 MSTORE PUSH1 0x20 ADD DUP3 DUP1 SLOAD PUSH2 0x5A8 SWAP1 PUSH2 0xD25 JUMP JUMPDEST DUP1 ISZERO PUSH2 0x5F5 JUMPI DUP1 PUSH1 0x1F LT PUSH2 0x5CA JUMPI PUSH2 0x100 DUP1 DUP4 SLOAD DIV MUL DUP4 MSTORE SWAP2 PUSH1 0x20 ADD SWAP2 PUSH2 0x5F5 JUMP JUMPDEST DUP3 ADD SWAP2 SWAP1 PUSH1 0x0 MSTORE PUSH1 0x20 PUSH1 0x0 KECCAK256 SWAP1 JUMPDEST DUP2 SLOAD DUP2 MSTORE SWAP1 PUSH1 0x1 ADD SWAP1 PUSH1 0x20 ADD DUP1 DUP4 GT PUSH2 0x5D8 JUMPI DUP3 SWAP1 SUB PUSH1 0x1F AND DUP3 ADD SWAP2 JUMPDEST POP POP POP POP POP DUP2 JUMP JUMPDEST PUSH1 0x4 SLOAD DUP2 JUMP JUMPDEST PUSH1 0x0 DUP1 SLOAD SWAP1 PUSH2 0x100 EXP SWAP1 DIV PUSH20 0xFFFFFFFFFFFFFFFFFFFFFFFFFFFFFFFFFFFFFFFF AND PUSH20 0xFFFFFFFFFFFFFFFFFFFFFFFFFFFFFFFFFFFFFFFF AND CALLER PUSH20 0xFFFFFFFFFFFFFFFFFFFFFFFFFFFFFFFFFFFFFFFF AND EQ ISZERO PUSH2 0x65C JUMPI PUSH1 0x0 DUP1 REVERT JUMPDEST PUSH1 0x2 SLOAD NUMBER LT ISZERO PUSH2 0x66B JUMPI PUSH1 0x0 DUP1 REVERT JUMPDEST PUSH1 0x3 SLOAD NUMBER GT ISZERO PUSH2 0x67A JUMPI PUSH1 0x0 DUP1 REVERT JUMPDEST PUSH1 0x0 PUSH1 0x3 DUP2 GT ISZERO PUSH2 0x68E JUMPI PUSH2 0x68D PUSH2 0xD86 JUMP JUMPDEST JUMPDEST PUSH1 0x6 PUSH1 0x0 SWAP1 SLOAD SWAP1 PUSH2 0x100 EXP SWAP1 DIV PUSH1 0xFF AND PUSH1 0x3 DUP2 GT ISZERO PUSH2 0x6B0 JUMPI PUSH2 0x6AF PUSH2 0xD86 JUMP JUMPDEST JUMPDEST EQ PUSH2 0x6F0 JUMPI PUSH1 0x40 MLOAD PUSH32 0x8C379A000000000000000000000000000000000000000000000000000000000 DUP2 MSTORE PUSH1 0x4 ADD PUSH2 0x6E7 SWAP1 PUSH2 0xBC6 JUMP JUMPDEST PUSH1 0x40 MLOAD DUP1 SWAP2 SUB SWAP1 REVERT JUMPDEST PUSH1 0x4 SLOAD CALLVALUE LT ISZERO PUSH2 0x6FF JUMPI PUSH1 0x0 DUP1 REVERT JUMPDEST PUSH1 0x0 CALLVALUE PUSH1 0x9 PUSH1 0x0 CALLER PUSH20 0xFFFFFFFFFFFFFFFFFFFFFFFFFFFFFFFFFFFFFFFF AND PUSH20 0xFFFFFFFFFFFFFFFFFFFFFFFFFFFFFFFFFFFFFFFF AND DUP2 MSTORE PUSH1 0x20 ADD SWAP1 DUP2 MSTORE PUSH1 0x20 ADD PUSH1 0x0 KECCAK256 SLOAD PUSH2 0x74C SWAP2 SWAP1 PUSH2 0xC1D JUMP JUMPDEST SWAP1 POP PUSH1 0x7 SLOAD DUP2 LT ISZERO PUSH2 0x75D JUMPI PUSH1 0x0 DUP1 REVERT JUMPDEST DUP1 PUSH1 0x9 PUSH1 0x0 CALLER PUSH20 0xFFFFFFFFFFFFFFFFFFFFFFFFFFFFFFFFFFFFFFFF AND PUSH20 0xFFFFFFFFFFFFFFFFFFFFFFFFFFFFFFFFFFFFFFFF AND DUP2 MSTORE PUSH1 0x20 ADD SWAP1 DUP2 MSTORE PUSH1 0x20 ADD PUSH1 0x0 KECCAK256 DUP2 SWAP1 SSTORE POP PUSH1 0x9 PUSH1 0x0 PUSH1 0x8 PUSH1 0x0 SWAP1 SLOAD SWAP1 PUSH2 0x100 EXP SWAP1 DIV PUSH20 0xFFFFFFFFFFFFFFFFFFFFFFFFFFFFFFFFFFFFFFFF AND PUSH20 0xFFFFFFFFFFFFFFFFFFFFFFFFFFFFFFFFFFFFFFFF AND PUSH20 0xFFFFFFFFFFFFFFFFFFFFFFFFFFFFFFFFFFFFFFFF AND DUP2 MSTORE PUSH1 0x20 ADD SWAP1 DUP2 MSTORE PUSH1 0x20 ADD PUSH1 0x0 KECCAK256 SLOAD DUP2 GT PUSH2 0x88C JUMPI PUSH2 0x881 PUSH1 0xA SLOAD DUP3 PUSH2 0x81A SWAP2 SWAP1 PUSH2 0xC1D JUMP JUMPDEST PUSH1 0x9 PUSH1 0x0 PUSH1 0x8 PUSH1 0x0 SWAP1 SLOAD SWAP1 PUSH2 0x100 EXP SWAP1 DIV PUSH20 0xFFFFFFFFFFFFFFFFFFFFFFFFFFFFFFFFFFFFFFFF AND PUSH20 0xFFFFFFFFFFFFFFFFFFFFFFFFFFFFFFFFFFFFFFFF AND PUSH20 0xFFFFFFFFFFFFFFFFFFFFFFFFFFFFFFFFFFFFFFFF AND DUP2 MSTORE PUSH1 0x20 ADD SWAP1 DUP2 MSTORE PUSH1 0x20 ADD PUSH1 0x0 KECCAK256 SLOAD PUSH2 0x914 JUMP JUMPDEST PUSH1 0x7 DUP2 SWAP1 SSTORE POP PUSH2 0x90B JUMP JUMPDEST PUSH2 0x904 DUP2 PUSH1 0xA SLOAD PUSH1 0x9 PUSH1 0x0 PUSH1 0x8 PUSH1 0x0 SWAP1 SLOAD SWAP1 PUSH2 0x100 EXP SWAP1 DIV PUSH20 0xFFFFFFFFFFFFFFFFFFFFFFFFFFFFFFFFFFFFFFFF AND PUSH20 0xFFFFFFFFFFFFFFFFFFFFFFFFFFFFFFFFFFFFFFFF AND PUSH20 0xFFFFFFFFFFFFFFFFFFFFFFFFFFFFFFFFFFFFFFFF AND DUP2 MSTORE PUSH1 0x20 ADD SWAP1 DUP2 MSTORE PUSH1 0x20 ADD PUSH1 0x0 KECCAK256 SLOAD PUSH2 0x8FF SWAP2 SWAP1 PUSH2 0xC1D JUMP JUMPDEST PUSH2 0x914 JUMP JUMPDEST PUSH1 0x7 DUP2 SWAP1 SSTORE POP JUMPDEST POP JUMP JUMPDEST PUSH1 0x7 SLOAD DUP2 JUMP JUMPDEST PUSH1 0x0 DUP2 DUP4 GT PUSH2 0x925 JUMPI DUP3 SWAP1 POP PUSH2 0x929 JUMP JUMPDEST DUP2 SWAP1 POP JUMPDEST SWAP3 SWAP2 POP POP JUMP JUMPDEST DUP3 DUP1 SLOAD PUSH2 0x93B SWAP1 PUSH2 0xD25 JUMP JUMPDEST SWAP1 PUSH1 0x0 MSTORE PUSH1 0x20 PUSH1 0x0 KECCAK256 SWAP1 PUSH1 0x1F ADD PUSH1 0x20 SWAP1 DIV DUP2 ADD SWAP3 DUP3 PUSH2 0x95D JUMPI PUSH1 0x0 DUP6 SSTORE PUSH2 0x9A4 JUMP JUMPDEST DUP3 PUSH1 0x1F LT PUSH2 0x976 JUMPI DUP1 MLOAD PUSH1 0xFF NOT AND DUP4 DUP1 ADD OR DUP6 SSTORE PUSH2 0x9A4 JUMP JUMPDEST DUP3 DUP1 ADD PUSH1 0x1 ADD DUP6 SSTORE DUP3 ISZERO PUSH2 0x9A4 JUMPI SWAP2 DUP3 ADD JUMPDEST DUP3 DUP2 GT ISZERO PUSH2 0x9A3 JUMPI DUP3 MLOAD DUP3 SSTORE SWAP2 PUSH1 0x20 ADD SWAP2 SWAP1 PUSH1 0x1 ADD SWAP1 PUSH2 0x988 JUMP JUMPDEST JUMPDEST POP SWAP1 POP PUSH2 0x9B1 SWAP2 SWAP1 PUSH2 0x9B5 JUMP JUMPDEST POP SWAP1 JUMP JUMPDEST JUMPDEST DUP1 DUP3 GT ISZERO PUSH2 0x9CE JUMPI PUSH1 0x0 DUP2 PUSH1 0x0 SWAP1 SSTORE POP PUSH1 0x1 ADD PUSH2 0x9B6 JUMP JUMPDEST POP SWAP1 JUMP JUMPDEST PUSH1 0x0 DUP2 CALLDATALOAD SWAP1 POP PUSH2 0x9E1 DUP2 PUSH2 0xE5D JUMP JUMPDEST SWAP3 SWAP2 POP POP JUMP JUMPDEST PUSH1 0x0 DUP2 CALLDATALOAD SWAP1 POP PUSH2 0x9F6 DUP2 PUSH2 0xE74 JUMP JUMPDEST SWAP3 SWAP2 POP POP JUMP JUMPDEST PUSH1 0x0 PUSH1 0x20 DUP3 DUP5 SUB SLT ISZERO PUSH2 0xA12 JUMPI PUSH2 0xA11 PUSH2 0xDE4 JUMP JUMPDEST JUMPDEST PUSH1 0x0 PUSH2 0xA20 DUP5 DUP3 DUP6 ADD PUSH2 0x9D2 JUMP JUMPDEST SWAP2 POP POP SWAP3 SWAP2 POP POP JUMP JUMPDEST PUSH1 0x0 DUP1 PUSH1 0x0 PUSH1 0x60 DUP5 DUP7 SUB SLT ISZERO PUSH2 0xA42 JUMPI PUSH2 0xA41 PUSH2 0xDE4 JUMP JUMPDEST JUMPDEST PUSH1 0x0 PUSH2 0xA50 DUP7 DUP3 DUP8 ADD PUSH2 0x9E7 JUMP JUMPDEST SWAP4 POP POP PUSH1 0x20 PUSH2 0xA61 DUP7 DUP3 DUP8 ADD PUSH2 0x9E7 JUMP JUMPDEST SWAP3 POP POP PUSH1 0x40 PUSH2 0xA72 DUP7 DUP3 DUP8 ADD PUSH2 0x9E7 JUMP JUMPDEST SWAP2 POP POP SWAP3 POP SWAP3 POP SWAP3 JUMP JUMPDEST PUSH2 0xA85 DUP2 PUSH2 0xC85 JUMP JUMPDEST DUP3 MSTORE POP POP JUMP JUMPDEST PUSH2 0xA94 DUP2 PUSH2 0xC73 JUMP JUMPDEST DUP3 MSTORE POP POP JUMP JUMPDEST PUSH2 0xAA3 DUP2 PUSH2 0xC97 JUMP JUMPDEST DUP3 MSTORE POP POP JUMP JUMPDEST PUSH2 0xAB2 DUP2 PUSH2 0xCE0 JUMP JUMPDEST DUP3 MSTORE POP POP JUMP JUMPDEST PUSH1 0x0 PUSH2 0xAC3 DUP3 PUSH2 0xC01 JUMP JUMPDEST PUSH2 0xACD DUP2 DUP6 PUSH2 0xC0C JUMP JUMPDEST SWAP4 POP PUSH2 0xADD DUP2 DUP6 PUSH1 0x20 DUP7 ADD PUSH2 0xCF2 JUMP JUMPDEST PUSH2 0xAE6 DUP2 PUSH2 0xDE9 JUMP JUMPDEST DUP5 ADD SWAP2 POP POP SWAP3 SWAP2 POP POP JUMP JUMPDEST PUSH1 0x0 PUSH2 0xAFE PUSH1 0x23 DUP4 PUSH2 0xC0C JUMP JUMPDEST SWAP2 POP PUSH2 0xB09 DUP3 PUSH2 0xDFA JUMP JUMPDEST PUSH1 0x40 DUP3 ADD SWAP1 POP SWAP2 SWAP1 POP JUMP JUMPDEST PUSH2 0xB1D DUP2 PUSH2 0xCD6 JUMP JUMPDEST DUP3 MSTORE POP POP JUMP JUMPDEST PUSH1 0x0 PUSH1 0x20 DUP3 ADD SWAP1 POP PUSH2 0xB38 PUSH1 0x0 DUP4 ADD DUP5 PUSH2 0xA8B JUMP JUMPDEST SWAP3 SWAP2 POP POP JUMP JUMPDEST PUSH1 0x0 PUSH1 0x20 DUP3 ADD SWAP1 POP PUSH2 0xB53 PUSH1 0x0 DUP4 ADD DUP5 PUSH2 0xA7C JUMP JUMPDEST SWAP3 SWAP2 POP POP JUMP JUMPDEST PUSH1 0x0 PUSH1 0x20 DUP3 ADD SWAP1 POP PUSH2 0xB6E PUSH1 0x0 DUP4 ADD DUP5 PUSH2 0xAA9 JUMP JUMPDEST SWAP3 SWAP2 POP POP JUMP JUMPDEST PUSH1 0x0 PUSH1 0x20 DUP3 ADD SWAP1 POP DUP2 DUP2 SUB PUSH1 0x0 DUP4 ADD MSTORE PUSH2 0xB8E DUP2 DUP5 PUSH2 0xAB8 JUMP JUMPDEST SWAP1 POP SWAP3 SWAP2 POP POP JUMP JUMPDEST PUSH1 0x0 PUSH1 0x40 DUP3 ADD SWAP1 POP DUP2 DUP2 SUB PUSH1 0x0 DUP4 ADD MSTORE PUSH2 0xBB0 DUP2 DUP6 PUSH2 0xAB8 JUMP JUMPDEST SWAP1 POP PUSH2 0xBBF PUSH1 0x20 DUP4 ADD DUP5 PUSH2 0xA9A JUMP JUMPDEST SWAP4 SWAP3 POP POP POP JUMP JUMPDEST PUSH1 0x0 PUSH1 0x20 DUP3 ADD SWAP1 POP DUP2 DUP2 SUB PUSH1 0x0 DUP4 ADD MSTORE PUSH2 0xBDF DUP2 PUSH2 0xAF1 JUMP JUMPDEST SWAP1 POP SWAP2 SWAP1 POP JUMP JUMPDEST PUSH1 0x0 PUSH1 0x20 DUP3 ADD SWAP1 POP PUSH2 0xBFB PUSH1 0x0 DUP4 ADD DUP5 PUSH2 0xB14 JUMP JUMPDEST SWAP3 SWAP2 POP POP JUMP JUMPDEST PUSH1 0x0 DUP2 MLOAD SWAP1 POP SWAP2 SWAP1 POP JUMP JUMPDEST PUSH1 0x0 DUP3 DUP3 MSTORE PUSH1 0x20 DUP3 ADD SWAP1 POP SWAP3 SWAP2 POP POP JUMP JUMPDEST PUSH1 0x0 PUSH2 0xC28 DUP3 PUSH2 0xCD6 JUMP JUMPDEST SWAP2 POP PUSH2 0xC33 DUP4 PUSH2 0xCD6 JUMP JUMPDEST SWAP3 POP DUP3 PUSH32 0xFFFFFFFFFFFFFFFFFFFFFFFFFFFFFFFFFFFFFFFFFFFFFFFFFFFFFFFFFFFFFFFF SUB DUP3 GT ISZERO PUSH2 0xC68 JUMPI PUSH2 0xC67 PUSH2 0xD57 JUMP JUMPDEST JUMPDEST DUP3 DUP3 ADD SWAP1 POP SWAP3 SWAP2 POP POP JUMP JUMPDEST PUSH1 0x0 PUSH2 0xC7E DUP3 PUSH2 0xCB6 JUMP JUMPDEST SWAP1 POP SWAP2 SWAP1 POP JUMP JUMPDEST PUSH1 0x0 PUSH2 0xC90 DUP3 PUSH2 0xCB6 JUMP JUMPDEST SWAP1 POP SWAP2 SWAP1 POP JUMP JUMPDEST PUSH1 0x0 DUP2 ISZERO ISZERO SWAP1 POP SWAP2 SWAP1 POP JUMP JUMPDEST PUSH1 0x0 DUP2 SWAP1 POP PUSH2 0xCB1 DUP3 PUSH2 0xE49 JUMP JUMPDEST SWAP2 SWAP1 POP JUMP JUMPDEST PUSH1 0x0 PUSH20 0xFFFFFFFFFFFFFFFFFFFFFFFFFFFFFFFFFFFFFFFF DUP3 AND SWAP1 POP SWAP2 SWAP1 POP JUMP JUMPDEST PUSH1 0x0 DUP2 SWAP1 POP SWAP2 SWAP1 POP JUMP JUMPDEST PUSH1 0x0 PUSH2 0xCEB DUP3 PUSH2 0xCA3 JUMP JUMPDEST SWAP1 POP SWAP2 SWAP1 POP JUMP JUMPDEST PUSH1 0x0 JUMPDEST DUP4 DUP2 LT ISZERO PUSH2 0xD10 JUMPI DUP1 DUP3 ADD MLOAD DUP2 DUP5 ADD MSTORE PUSH1 0x20 DUP2 ADD SWAP1 POP PUSH2 0xCF5 JUMP JUMPDEST DUP4 DUP2 GT ISZERO PUSH2 0xD1F JUMPI PUSH1 0x0 DUP5 DUP5 ADD MSTORE JUMPDEST POP POP POP POP JUMP JUMPDEST PUSH1 0x0 PUSH1 0x2 DUP3 DIV SWAP1 POP PUSH1 0x1 DUP3 AND DUP1 PUSH2 0xD3D JUMPI PUSH1 0x7F DUP3 AND SWAP2 POP JUMPDEST PUSH1 0x20 DUP3 LT DUP2 EQ ISZERO PUSH2 0xD51 JUMPI PUSH2 0xD50 PUSH2 0xDB5 JUMP JUMPDEST JUMPDEST POP SWAP2 SWAP1 POP JUMP JUMPDEST PUSH32 0x4E487B7100000000000000000000000000000000000000000000000000000000 PUSH1 0x0 MSTORE PUSH1 0x11 PUSH1 0x4 MSTORE PUSH1 0x24 PUSH1 0x0 REVERT JUMPDEST PUSH32 0x4E487B7100000000000000000000000000000000000000000000000000000000 PUSH1 0x0 MSTORE PUSH1 0x21 PUSH1 0x4 MSTORE PUSH1 0x24 PUSH1 0x0 REVERT JUMPDEST PUSH32 0x4E487B7100000000000000000000000000000000000000000000000000000000 PUSH1 0x0 MSTORE PUSH1 0x22 PUSH1 0x4 MSTORE PUSH1 0x24 PUSH1 0x0 REVERT JUMPDEST PUSH1 0x0 DUP1 REVERT JUMPDEST PUSH1 0x0 PUSH1 0x1F NOT PUSH1 0x1F DUP4 ADD AND SWAP1 POP SWAP2 SWAP1 POP JUMP JUMPDEST PUSH32 0x506C65617365207761697420756E74696C207468652061756374696F6E207374 PUSH1 0x0 DUP3 ADD MSTORE PUSH32 0x6172740000000000000000000000000000000000000000000000000000000000 PUSH1 0x20 DUP3 ADD MSTORE POP JUMP JUMPDEST PUSH1 0x4 DUP2 LT PUSH2 0xE5A JUMPI PUSH2 0xE59 PUSH2 0xD86 JUMP JUMPDEST JUMPDEST POP JUMP JUMPDEST PUSH2 0xE66 DUP2 PUSH2 0xC73 JUMP JUMPDEST DUP2 EQ PUSH2 0xE71 JUMPI PUSH1 0x0 DUP1 REVERT JUMPDEST POP JUMP JUMPDEST PUSH2 0xE7D DUP2 PUSH2 0xCD6 JUMP JUMPDEST DUP2 EQ PUSH2 0xE88 JUMPI PUSH1 0x0 DUP1 REVERT JUMPDEST POP JUMP INVALID LOG2 PUSH5 0x6970667358 0x22 SLT KECCAK256 POP 0xBB 0xAC MSTORE8 RETURN 0xB6 0x2D PUSH25 0x34AB6E87BF65C120680BB67377CFDA27748125FFAE4F40BF64 PUSH20 0x6F6C634300080700330000000000000000000000 "
				},
				"gasEstimates": {
					"creation": {
						"codeDepositCost": "755400",
						"executionCost": "infinite",
						"totalCost": "infinite"
					},
					"external": {
						"MinimumBidValue()": "2473",
						"UsersCart(address)": "infinite",
						"auctionState()": "2671",
						"beneficiary()": "2559",
						"bids(address)": "2903",
						"endBlock()": "2430",
						"highestBidder()": "2559",
						"highestBindingBid()": "2517",
						"ipfsHash()": "infinite",
						"owner()": "2534",
						"placeBid()": "infinite",
						"startBlock()": "2496",
						"startNewBid(uint256,uint256,uint256)": "infinite"
					},
					"internal": {
						"min(uint256,uint256)": "64"
					}
				},
				"methodIdentifiers": {
					"MinimumBidValue()": "d5f84189",
					"UsersCart(address)": "bde97e09",
					"auctionState()": "7fb45099",
					"beneficiary()": "38af3eed",
					"bids(address)": "62ea82db",
					"endBlock()": "083c6323",
					"highestBidder()": "91f90157",
					"highestBindingBid()": "f5b56c56",
					"ipfsHash()": "c623674f",
					"owner()": "8da5cb5b",
					"placeBid()": "ecfc7ecc",
					"startBlock()": "48cd4cb1",
					"startNewBid(uint256,uint256,uint256)": "341175d5"
				}
			},
			"storageLayout": {
				"storage": [
					{
						"astId": 3,
						"contract": "SmartContract-Auction/Auction.sol:Auction",
						"label": "owner",
						"offset": 0,
						"slot": "0",
						"type": "t_address"
					},
					{
						"astId": 5,
						"contract": "SmartContract-Auction/Auction.sol:Auction",
						"label": "beneficiary",
						"offset": 0,
						"slot": "1",
						"type": "t_address_payable"
					},
					{
						"astId": 7,
						"contract": "SmartContract-Auction/Auction.sol:Auction",
						"label": "startBlock",
						"offset": 0,
						"slot": "2",
						"type": "t_uint256"
					},
					{
						"astId": 9,
						"contract": "SmartContract-Auction/Auction.sol:Auction",
						"label": "endBlock",
						"offset": 0,
						"slot": "3",
						"type": "t_uint256"
					},
					{
						"astId": 11,
						"contract": "SmartContract-Auction/Auction.sol:Auction",
						"label": "MinimumBidValue",
						"offset": 0,
						"slot": "4",
						"type": "t_uint256"
					},
					{
						"astId": 13,
						"contract": "SmartContract-Auction/Auction.sol:Auction",
						"label": "ipfsHash",
						"offset": 0,
						"slot": "5",
						"type": "t_string_storage"
					},
					{
						"astId": 21,
						"contract": "SmartContract-Auction/Auction.sol:Auction",
						"label": "auctionState",
						"offset": 0,
						"slot": "6",
						"type": "t_enum(State)18"
					},
					{
						"astId": 23,
						"contract": "SmartContract-Auction/Auction.sol:Auction",
						"label": "highestBindingBid",
						"offset": 0,
						"slot": "7",
						"type": "t_uint256"
					},
					{
						"astId": 25,
						"contract": "SmartContract-Auction/Auction.sol:Auction",
						"label": "highestBidder",
						"offset": 0,
						"slot": "8",
						"type": "t_address_payable"
					},
					{
						"astId": 29,
						"contract": "SmartContract-Auction/Auction.sol:Auction",
						"label": "bids",
						"offset": 0,
						"slot": "9",
						"type": "t_mapping(t_address,t_uint256)"
					},
					{
						"astId": 31,
						"contract": "SmartContract-Auction/Auction.sol:Auction",
						"label": "bidIncrement",
						"offset": 0,
						"slot": "10",
						"type": "t_uint256"
					},
					{
						"astId": 269,
						"contract": "SmartContract-Auction/Auction.sol:Auction",
						"label": "UsersCart",
						"offset": 0,
						"slot": "11",
						"type": "t_mapping(t_address,t_struct(User)264_storage)"
					}
				],
				"types": {
					"t_address": {
						"encoding": "inplace",
						"label": "address",
						"numberOfBytes": "20"
					},
					"t_address_payable": {
						"encoding": "inplace",
						"label": "address payable",
						"numberOfBytes": "20"
					},
					"t_array(t_struct(Item)255_storage)dyn_storage": {
						"base": "t_struct(Item)255_storage",
						"encoding": "dynamic_array",
						"label": "struct Auction.Item[]",
						"numberOfBytes": "32"
					},
					"t_bool": {
						"encoding": "inplace",
						"label": "bool",
						"numberOfBytes": "1"
					},
					"t_enum(State)18": {
						"encoding": "inplace",
						"label": "enum Auction.State",
						"numberOfBytes": "1"
					},
					"t_mapping(t_address,t_struct(User)264_storage)": {
						"encoding": "mapping",
						"key": "t_address",
						"label": "mapping(address => struct Auction.User)",
						"numberOfBytes": "32",
						"value": "t_struct(User)264_storage"
					},
					"t_mapping(t_address,t_uint256)": {
						"encoding": "mapping",
						"key": "t_address",
						"label": "mapping(address => uint256)",
						"numberOfBytes": "32",
						"value": "t_uint256"
					},
					"t_string_storage": {
						"encoding": "bytes",
						"label": "string",
						"numberOfBytes": "32"
					},
					"t_struct(Item)255_storage": {
						"encoding": "inplace",
						"label": "struct Auction.Item",
						"members": [
							{
								"astId": 248,
								"contract": "SmartContract-Auction/Auction.sol:Auction",
								"label": "id",
								"offset": 0,
								"slot": "0",
								"type": "t_string_storage"
							},
							{
								"astId": 250,
								"contract": "SmartContract-Auction/Auction.sol:Auction",
								"label": "iName",
								"offset": 0,
								"slot": "1",
								"type": "t_string_storage"
							},
							{
								"astId": 252,
								"contract": "SmartContract-Auction/Auction.sol:Auction",
								"label": "iPrice",
								"offset": 0,
								"slot": "2",
								"type": "t_uint256"
							},
							{
								"astId": 254,
								"contract": "SmartContract-Auction/Auction.sol:Auction",
								"label": "iQty",
								"offset": 0,
								"slot": "3",
								"type": "t_uint256"
							}
						],
						"numberOfBytes": "128"
					},
					"t_struct(User)264_storage": {
						"encoding": "inplace",
						"label": "struct Auction.User",
						"members": [
							{
								"astId": 257,
								"contract": "SmartContract-Auction/Auction.sol:Auction",
								"label": "Name",
								"offset": 0,
								"slot": "0",
								"type": "t_string_storage"
							},
							{
								"astId": 259,
								"contract": "SmartContract-Auction/Auction.sol:Auction",
								"label": "active",
								"offset": 0,
								"slot": "1",
								"type": "t_bool"
							},
							{
								"astId": 263,
								"contract": "SmartContract-Auction/Auction.sol:Auction",
								"label": "cart",
								"offset": 0,
								"slot": "2",
								"type": "t_array(t_struct(Item)255_storage)dyn_storage"
							}
						],
						"numberOfBytes": "96"
					},
					"t_uint256": {
						"encoding": "inplace",
						"label": "uint256",
						"numberOfBytes": "32"
					}
				}
			},
			"userdoc": {
				"kind": "user",
				"methods": {},
				"version": 1
			}
		}
	}
}