{
	"SmartContract-Auction/Auction.sol": {
		"Auction": {
			"abi": [
				{
					"inputs": [
						{
							"internalType": "uint256",
							"name": "blocksGenerated",
							"type": "uint256"
						},
						{
							"internalType": "uint256",
							"name": "BidIncrementWei",
							"type": "uint256"
						},
						{
							"internalType": "uint256",
							"name": "_MinimumBidValue",
							"type": "uint256"
						}
					],
					"stateMutability": "nonpayable",
					"type": "constructor"
				},
				{
					"inputs": [],
					"name": "MinimumBidValue",
					"outputs": [
						{
							"internalType": "uint256",
							"name": "",
							"type": "uint256"
						}
					],
					"stateMutability": "view",
					"type": "function"
				},
				{
					"inputs": [],
					"name": "auctionState",
					"outputs": [
						{
							"internalType": "enum Auction.State",
							"name": "",
							"type": "uint8"
						}
					],
					"stateMutability": "view",
					"type": "function"
				},
				{
					"inputs": [
						{
							"internalType": "address",
							"name": "",
							"type": "address"
						}
					],
					"name": "bids",
					"outputs": [
						{
							"internalType": "uint256",
							"name": "",
							"type": "uint256"
						}
					],
					"stateMutability": "view",
					"type": "function"
				},
				{
					"inputs": [],
					"name": "cancelAuction",
					"outputs": [],
					"stateMutability": "nonpayable",
					"type": "function"
				},
				{
					"inputs": [],
					"name": "endBlock",
					"outputs": [
						{
							"internalType": "uint256",
							"name": "",
							"type": "uint256"
						}
					],
					"stateMutability": "view",
					"type": "function"
				},
				{
					"inputs": [],
					"name": "finalizeAuction",
					"outputs": [],
					"stateMutability": "nonpayable",
					"type": "function"
				},
				{
					"inputs": [],
					"name": "highestBidder",
					"outputs": [
						{
							"internalType": "address payable",
							"name": "",
							"type": "address"
						}
					],
					"stateMutability": "view",
					"type": "function"
				},
				{
					"inputs": [],
					"name": "highestBindingBid",
					"outputs": [
						{
							"internalType": "uint256",
							"name": "",
							"type": "uint256"
						}
					],
					"stateMutability": "view",
					"type": "function"
				},
				{
					"inputs": [],
					"name": "ipfsHash",
					"outputs": [
						{
							"internalType": "string",
							"name": "",
							"type": "string"
						}
					],
					"stateMutability": "view",
					"type": "function"
				},
				{
					"inputs": [],
					"name": "owner",
					"outputs": [
						{
							"internalType": "address",
							"name": "",
							"type": "address"
						}
					],
					"stateMutability": "view",
					"type": "function"
				},
				{
					"inputs": [],
					"name": "placeBid",
					"outputs": [],
					"stateMutability": "payable",
					"type": "function"
				},
				{
					"inputs": [],
					"name": "startBlock",
					"outputs": [
						{
							"internalType": "uint256",
							"name": "",
							"type": "uint256"
						}
					],
					"stateMutability": "view",
					"type": "function"
				},
				{
					"inputs": [],
					"name": "startNewBid",
					"outputs": [],
					"stateMutability": "nonpayable",
					"type": "function"
				}
			],
			"devdoc": {
				"kind": "dev",
				"methods": {},
				"version": 1
			},
			"evm": {
				"assembly": "    /* \"SmartContract-Auction/Auction.sol\":68:4049  contract Auction {... */\n  mstore(0x40, 0x80)\n    /* \"SmartContract-Auction/Auction.sol\":655:1036  constructor(uint blocksGenerated, uint BidIncrementWei, uint _MinimumBidValue){... */\n  callvalue\n  dup1\n  iszero\n  tag_1\n  jumpi\n  0x00\n  dup1\n  revert\ntag_1:\n  pop\n  mload(0x40)\n  sub(codesize, bytecodeSize)\n  dup1\n  bytecodeSize\n  dup4\n  codecopy\n  dup2\n  dup2\n  add\n  0x40\n  mstore\n  dup2\n  add\n  swap1\n  tag_2\n  swap2\n  swap1\n  tag_3\n  jump\t// in\ntag_2:\n    /* \"SmartContract-Auction/Auction.sol\":751:761  msg.sender */\n  caller\n    /* \"SmartContract-Auction/Auction.sol\":743:748  owner */\n  0x00\n  dup1\n    /* \"SmartContract-Auction/Auction.sol\":743:761  owner = msg.sender */\n  0x0100\n  exp\n  dup2\n  sload\n  dup2\n  0xffffffffffffffffffffffffffffffffffffffff\n  mul\n  not\n  and\n  swap1\n  dup4\n  0xffffffffffffffffffffffffffffffffffffffff\n  and\n  mul\n  or\n  swap1\n  sstore\n  pop\n    /* \"SmartContract-Auction/Auction.sol\":786:799  State.Started */\n  0x00\n    /* \"SmartContract-Auction/Auction.sol\":771:783  auctionState */\n  0x05\n  0x00\n    /* \"SmartContract-Auction/Auction.sol\":771:799  auctionState = State.Started */\n  0x0100\n  exp\n  dup2\n  sload\n  dup2\n  0xff\n  mul\n  not\n  and\n  swap1\n  dup4\n  0x03\n  dup2\n  gt\n  iszero\n  tag_6\n  jumpi\n  tag_7\n  tag_8\n  jump\t// in\ntag_7:\ntag_6:\n  mul\n  or\n  swap1\n  sstore\n  pop\n    /* \"SmartContract-Auction/Auction.sol\":823:835  block.number */\n  number\n    /* \"SmartContract-Auction/Auction.sol\":810:820  startBlock */\n  0x01\n    /* \"SmartContract-Auction/Auction.sol\":810:835  startBlock = block.number */\n  dup2\n  swap1\n  sstore\n  pop\n    /* \"SmartContract-Auction/Auction.sol\":869:884  blocksGenerated */\n  dup3\n    /* \"SmartContract-Auction/Auction.sol\":856:866  startBlock */\n  sload(0x01)\n    /* \"SmartContract-Auction/Auction.sol\":856:884  startBlock + blocksGenerated */\n  tag_9\n  swap2\n  swap1\n  tag_10\n  jump\t// in\ntag_9:\n    /* \"SmartContract-Auction/Auction.sol\":845:853  endBlock */\n  0x02\n    /* \"SmartContract-Auction/Auction.sol\":845:884  endBlock = startBlock + blocksGenerated */\n  dup2\n  swap1\n  sstore\n  pop\n    /* \"SmartContract-Auction/Auction.sol\":909:922  State.Running */\n  0x01\n    /* \"SmartContract-Auction/Auction.sol\":894:906  auctionState */\n  0x05\n  0x00\n    /* \"SmartContract-Auction/Auction.sol\":894:922  auctionState = State.Running */\n  0x0100\n  exp\n  dup2\n  sload\n  dup2\n  0xff\n  mul\n  not\n  and\n  swap1\n  dup4\n  0x03\n  dup2\n  gt\n  iszero\n  tag_11\n  jumpi\n  tag_12\n  tag_8\n  jump\t// in\ntag_12:\ntag_11:\n  mul\n  or\n  swap1\n  sstore\n  pop\n    /* \"SmartContract-Auction/Auction.sol\":932:945  ipfsHash = \"\" */\n  mload(0x40)\n  dup1\n  0x20\n  add\n  0x40\n  mstore\n  dup1\n  0x00\n  dup2\n  mstore\n  pop\n    /* \"SmartContract-Auction/Auction.sol\":932:940  ipfsHash */\n  0x04\n    /* \"SmartContract-Auction/Auction.sol\":932:945  ipfsHash = \"\" */\n  swap1\n  dup1\n  mload\n  swap1\n  0x20\n  add\n  swap1\n  tag_13\n  swap3\n  swap2\n  swap1\n  tag_14\n  jump\t// in\ntag_13:\n  pop\n    /* \"SmartContract-Auction/Auction.sol\":970:985  BidIncrementWei */\n  dup2\n    /* \"SmartContract-Auction/Auction.sol\":955:967  bidIncrement */\n  0x09\n    /* \"SmartContract-Auction/Auction.sol\":955:985  bidIncrement = BidIncrementWei */\n  dup2\n  swap1\n  sstore\n  pop\n    /* \"SmartContract-Auction/Auction.sol\":1013:1029  _MinimumBidValue */\n  dup1\n    /* \"SmartContract-Auction/Auction.sol\":995:1010  MinimumBidValue */\n  0x03\n    /* \"SmartContract-Auction/Auction.sol\":995:1029  MinimumBidValue = _MinimumBidValue */\n  dup2\n  swap1\n  sstore\n  pop\n    /* \"SmartContract-Auction/Auction.sol\":655:1036  constructor(uint blocksGenerated, uint BidIncrementWei, uint _MinimumBidValue){... */\n  pop\n  pop\n  pop\n    /* \"SmartContract-Auction/Auction.sol\":68:4049  contract Auction {... */\n  jump(tag_15)\ntag_14:\n  dup3\n  dup1\n  sload\n  tag_16\n  swap1\n  tag_17\n  jump\t// in\ntag_16:\n  swap1\n  0x00\n  mstore\n  keccak256(0x00, 0x20)\n  swap1\n  0x1f\n  add\n  0x20\n  swap1\n  div\n  dup2\n  add\n  swap3\n  dup3\n  tag_19\n  jumpi\n  0x00\n  dup6\n  sstore\n  jump(tag_18)\ntag_19:\n  dup3\n  0x1f\n  lt\n  tag_20\n  jumpi\n  dup1\n  mload\n  not(0xff)\n  and\n  dup4\n  dup1\n  add\n  or\n  dup6\n  sstore\n  jump(tag_18)\ntag_20:\n  dup3\n  dup1\n  add\n  0x01\n  add\n  dup6\n  sstore\n  dup3\n  iszero\n  tag_18\n  jumpi\n  swap2\n  dup3\n  add\ntag_21:\n  dup3\n  dup2\n  gt\n  iszero\n  tag_22\n  jumpi\n  dup3\n  mload\n  dup3\n  sstore\n  swap2\n  0x20\n  add\n  swap2\n  swap1\n  0x01\n  add\n  swap1\n  jump(tag_21)\ntag_22:\ntag_18:\n  pop\n  swap1\n  pop\n  tag_23\n  swap2\n  swap1\n  tag_24\n  jump\t// in\ntag_23:\n  pop\n  swap1\n  jump\t// out\ntag_24:\ntag_25:\n  dup1\n  dup3\n  gt\n  iszero\n  tag_26\n  jumpi\n  0x00\n  dup2\n  0x00\n  swap1\n  sstore\n  pop\n  0x01\n  add\n  jump(tag_25)\ntag_26:\n  pop\n  swap1\n  jump\t// out\n    /* \"#utility.yul\":7:150   */\ntag_28:\n    /* \"#utility.yul\":64:69   */\n  0x00\n    /* \"#utility.yul\":95:101   */\n  dup2\n    /* \"#utility.yul\":89:102   */\n  mload\n    /* \"#utility.yul\":80:102   */\n  swap1\n  pop\n    /* \"#utility.yul\":111:144   */\n  tag_30\n    /* \"#utility.yul\":138:143   */\n  dup2\n    /* \"#utility.yul\":111:144   */\n  tag_31\n  jump\t// in\ntag_30:\n    /* \"#utility.yul\":7:150   */\n  swap3\n  swap2\n  pop\n  pop\n  jump\t// out\n    /* \"#utility.yul\":156:819   */\ntag_3:\n    /* \"#utility.yul\":244:250   */\n  0x00\n    /* \"#utility.yul\":252:258   */\n  dup1\n    /* \"#utility.yul\":260:266   */\n  0x00\n    /* \"#utility.yul\":309:311   */\n  0x60\n    /* \"#utility.yul\":297:306   */\n  dup5\n    /* \"#utility.yul\":288:295   */\n  dup7\n    /* \"#utility.yul\":284:307   */\n  sub\n    /* \"#utility.yul\":280:312   */\n  slt\n    /* \"#utility.yul\":277:396   */\n  iszero\n  tag_33\n  jumpi\n    /* \"#utility.yul\":315:394   */\n  tag_34\n  tag_35\n  jump\t// in\ntag_34:\n    /* \"#utility.yul\":277:396   */\ntag_33:\n    /* \"#utility.yul\":435:436   */\n  0x00\n    /* \"#utility.yul\":460:524   */\n  tag_36\n    /* \"#utility.yul\":516:523   */\n  dup7\n    /* \"#utility.yul\":507:513   */\n  dup3\n    /* \"#utility.yul\":496:505   */\n  dup8\n    /* \"#utility.yul\":492:514   */\n  add\n    /* \"#utility.yul\":460:524   */\n  tag_28\n  jump\t// in\ntag_36:\n    /* \"#utility.yul\":450:524   */\n  swap4\n  pop\n    /* \"#utility.yul\":406:534   */\n  pop\n    /* \"#utility.yul\":573:575   */\n  0x20\n    /* \"#utility.yul\":599:663   */\n  tag_37\n    /* \"#utility.yul\":655:662   */\n  dup7\n    /* \"#utility.yul\":646:652   */\n  dup3\n    /* \"#utility.yul\":635:644   */\n  dup8\n    /* \"#utility.yul\":631:653   */\n  add\n    /* \"#utility.yul\":599:663   */\n  tag_28\n  jump\t// in\ntag_37:\n    /* \"#utility.yul\":589:663   */\n  swap3\n  pop\n    /* \"#utility.yul\":544:673   */\n  pop\n    /* \"#utility.yul\":712:714   */\n  0x40\n    /* \"#utility.yul\":738:802   */\n  tag_38\n    /* \"#utility.yul\":794:801   */\n  dup7\n    /* \"#utility.yul\":785:791   */\n  dup3\n    /* \"#utility.yul\":774:783   */\n  dup8\n    /* \"#utility.yul\":770:792   */\n  add\n    /* \"#utility.yul\":738:802   */\n  tag_28\n  jump\t// in\ntag_38:\n    /* \"#utility.yul\":728:802   */\n  swap2\n  pop\n    /* \"#utility.yul\":683:812   */\n  pop\n    /* \"#utility.yul\":156:819   */\n  swap3\n  pop\n  swap3\n  pop\n  swap3\n  jump\t// out\n    /* \"#utility.yul\":906:1211   */\ntag_10:\n    /* \"#utility.yul\":946:949   */\n  0x00\n    /* \"#utility.yul\":965:985   */\n  tag_42\n    /* \"#utility.yul\":983:984   */\n  dup3\n    /* \"#utility.yul\":965:985   */\n  tag_43\n  jump\t// in\ntag_42:\n    /* \"#utility.yul\":960:985   */\n  swap2\n  pop\n    /* \"#utility.yul\":999:1019   */\n  tag_44\n    /* \"#utility.yul\":1017:1018   */\n  dup4\n    /* \"#utility.yul\":999:1019   */\n  tag_43\n  jump\t// in\ntag_44:\n    /* \"#utility.yul\":994:1019   */\n  swap3\n  pop\n    /* \"#utility.yul\":1153:1154   */\n  dup3\n    /* \"#utility.yul\":1085:1151   */\n  0xffffffffffffffffffffffffffffffffffffffffffffffffffffffffffffffff\n    /* \"#utility.yul\":1081:1155   */\n  sub\n    /* \"#utility.yul\":1078:1079   */\n  dup3\n    /* \"#utility.yul\":1075:1156   */\n  gt\n    /* \"#utility.yul\":1072:1179   */\n  iszero\n  tag_45\n  jumpi\n    /* \"#utility.yul\":1159:1177   */\n  tag_46\n  tag_47\n  jump\t// in\ntag_46:\n    /* \"#utility.yul\":1072:1179   */\ntag_45:\n    /* \"#utility.yul\":1203:1204   */\n  dup3\n    /* \"#utility.yul\":1200:1201   */\n  dup3\n    /* \"#utility.yul\":1196:1205   */\n  add\n    /* \"#utility.yul\":1189:1205   */\n  swap1\n  pop\n    /* \"#utility.yul\":906:1211   */\n  swap3\n  swap2\n  pop\n  pop\n  jump\t// out\n    /* \"#utility.yul\":1217:1294   */\ntag_43:\n    /* \"#utility.yul\":1254:1261   */\n  0x00\n    /* \"#utility.yul\":1283:1288   */\n  dup2\n    /* \"#utility.yul\":1272:1288   */\n  swap1\n  pop\n    /* \"#utility.yul\":1217:1294   */\n  swap2\n  swap1\n  pop\n  jump\t// out\n    /* \"#utility.yul\":1300:1620   */\ntag_17:\n    /* \"#utility.yul\":1344:1350   */\n  0x00\n    /* \"#utility.yul\":1381:1382   */\n  0x02\n    /* \"#utility.yul\":1375:1379   */\n  dup3\n    /* \"#utility.yul\":1371:1383   */\n  div\n    /* \"#utility.yul\":1361:1383   */\n  swap1\n  pop\n    /* \"#utility.yul\":1428:1429   */\n  0x01\n    /* \"#utility.yul\":1422:1426   */\n  dup3\n    /* \"#utility.yul\":1418:1430   */\n  and\n    /* \"#utility.yul\":1449:1467   */\n  dup1\n    /* \"#utility.yul\":1439:1520   */\n  tag_50\n  jumpi\n    /* \"#utility.yul\":1505:1509   */\n  0x7f\n    /* \"#utility.yul\":1497:1503   */\n  dup3\n    /* \"#utility.yul\":1493:1510   */\n  and\n    /* \"#utility.yul\":1483:1510   */\n  swap2\n  pop\n    /* \"#utility.yul\":1439:1520   */\ntag_50:\n    /* \"#utility.yul\":1567:1569   */\n  0x20\n    /* \"#utility.yul\":1559:1565   */\n  dup3\n    /* \"#utility.yul\":1556:1570   */\n  lt\n    /* \"#utility.yul\":1536:1554   */\n  dup2\n    /* \"#utility.yul\":1533:1571   */\n  eq\n    /* \"#utility.yul\":1530:1614   */\n  iszero\n  tag_51\n  jumpi\n    /* \"#utility.yul\":1586:1604   */\n  tag_52\n  tag_53\n  jump\t// in\ntag_52:\n    /* \"#utility.yul\":1530:1614   */\ntag_51:\n    /* \"#utility.yul\":1351:1620   */\n  pop\n    /* \"#utility.yul\":1300:1620   */\n  swap2\n  swap1\n  pop\n  jump\t// out\n    /* \"#utility.yul\":1626:1806   */\ntag_47:\n    /* \"#utility.yul\":1674:1751   */\n  0x4e487b7100000000000000000000000000000000000000000000000000000000\n    /* \"#utility.yul\":1671:1672   */\n  0x00\n    /* \"#utility.yul\":1664:1752   */\n  mstore\n    /* \"#utility.yul\":1771:1775   */\n  0x11\n    /* \"#utility.yul\":1768:1769   */\n  0x04\n    /* \"#utility.yul\":1761:1776   */\n  mstore\n    /* \"#utility.yul\":1795:1799   */\n  0x24\n    /* \"#utility.yul\":1792:1793   */\n  0x00\n    /* \"#utility.yul\":1785:1800   */\n  revert\n    /* \"#utility.yul\":1812:1992   */\ntag_8:\n    /* \"#utility.yul\":1860:1937   */\n  0x4e487b7100000000000000000000000000000000000000000000000000000000\n    /* \"#utility.yul\":1857:1858   */\n  0x00\n    /* \"#utility.yul\":1850:1938   */\n  mstore\n    /* \"#utility.yul\":1957:1961   */\n  0x21\n    /* \"#utility.yul\":1954:1955   */\n  0x04\n    /* \"#utility.yul\":1947:1962   */\n  mstore\n    /* \"#utility.yul\":1981:1985   */\n  0x24\n    /* \"#utility.yul\":1978:1979   */\n  0x00\n    /* \"#utility.yul\":1971:1986   */\n  revert\n    /* \"#utility.yul\":1998:2178   */\ntag_53:\n    /* \"#utility.yul\":2046:2123   */\n  0x4e487b7100000000000000000000000000000000000000000000000000000000\n    /* \"#utility.yul\":2043:2044   */\n  0x00\n    /* \"#utility.yul\":2036:2124   */\n  mstore\n    /* \"#utility.yul\":2143:2147   */\n  0x22\n    /* \"#utility.yul\":2140:2141   */\n  0x04\n    /* \"#utility.yul\":2133:2148   */\n  mstore\n    /* \"#utility.yul\":2167:2171   */\n  0x24\n    /* \"#utility.yul\":2164:2165   */\n  0x00\n    /* \"#utility.yul\":2157:2172   */\n  revert\n    /* \"#utility.yul\":2307:2424   */\ntag_35:\n    /* \"#utility.yul\":2416:2417   */\n  0x00\n    /* \"#utility.yul\":2413:2414   */\n  dup1\n    /* \"#utility.yul\":2406:2418   */\n  revert\n    /* \"#utility.yul\":2430:2552   */\ntag_31:\n    /* \"#utility.yul\":2503:2527   */\n  tag_61\n    /* \"#utility.yul\":2521:2526   */\n  dup2\n    /* \"#utility.yul\":2503:2527   */\n  tag_43\n  jump\t// in\ntag_61:\n    /* \"#utility.yul\":2496:2501   */\n  dup2\n    /* \"#utility.yul\":2493:2528   */\n  eq\n    /* \"#utility.yul\":2483:2546   */\n  tag_62\n  jumpi\n    /* \"#utility.yul\":2542:2543   */\n  0x00\n    /* \"#utility.yul\":2539:2540   */\n  dup1\n    /* \"#utility.yul\":2532:2544   */\n  revert\n    /* \"#utility.yul\":2483:2546   */\ntag_62:\n    /* \"#utility.yul\":2430:2552   */\n  pop\n  jump\t// out\n    /* \"SmartContract-Auction/Auction.sol\":68:4049  contract Auction {... */\ntag_15:\n  dataSize(sub_0)\n  dup1\n  dataOffset(sub_0)\n  0x00\n  codecopy\n  0x00\n  return\nstop\n\nsub_0: assembly {\n        /* \"SmartContract-Auction/Auction.sol\":68:4049  contract Auction {... */\n      mstore(0x40, 0x80)\n      jumpi(tag_1, lt(calldatasize, 0x04))\n      shr(0xe0, calldataload(0x00))\n      dup1\n      0x91f90157\n      gt\n      tag_15\n      jumpi\n      dup1\n      0xecfc7ecc\n      gt\n      tag_16\n      jumpi\n      dup1\n      0xecfc7ecc\n      eq\n      tag_11\n      jumpi\n      dup1\n      0xf5b56c56\n      eq\n      tag_12\n      jumpi\n      dup1\n      0xf77282ab\n      eq\n      tag_13\n      jumpi\n      dup1\n      0xfc8c3114\n      eq\n      tag_14\n      jumpi\n      jump(tag_1)\n    tag_16:\n      dup1\n      0x91f90157\n      eq\n      tag_8\n      jumpi\n      dup1\n      0xc623674f\n      eq\n      tag_9\n      jumpi\n      dup1\n      0xd5f84189\n      eq\n      tag_10\n      jumpi\n      jump(tag_1)\n    tag_15:\n      dup1\n      0x083c6323\n      eq\n      tag_2\n      jumpi\n      dup1\n      0x48cd4cb1\n      eq\n      tag_3\n      jumpi\n      dup1\n      0x62ea82db\n      eq\n      tag_4\n      jumpi\n      dup1\n      0x7fb45099\n      eq\n      tag_5\n      jumpi\n      dup1\n      0x8da5cb5b\n      eq\n      tag_6\n      jumpi\n      dup1\n      0x8fa8b790\n      eq\n      tag_7\n      jumpi\n    tag_1:\n      0x00\n      dup1\n      revert\n        /* \"SmartContract-Auction/Auction.sol\":244:264  uint public endBlock */\n    tag_2:\n      callvalue\n      dup1\n      iszero\n      tag_17\n      jumpi\n      0x00\n      dup1\n      revert\n    tag_17:\n      pop\n      tag_18\n      tag_19\n      jump\t// in\n    tag_18:\n      mload(0x40)\n      tag_20\n      swap2\n      swap1\n      tag_21\n      jump\t// in\n    tag_20:\n      mload(0x40)\n      dup1\n      swap2\n      sub\n      swap1\n      return\n        /* \"SmartContract-Auction/Auction.sol\":216:238  uint public startBlock */\n    tag_3:\n      callvalue\n      dup1\n      iszero\n      tag_22\n      jumpi\n      0x00\n      dup1\n      revert\n    tag_22:\n      pop\n      tag_23\n      tag_24\n      jump\t// in\n    tag_23:\n      mload(0x40)\n      tag_25\n      swap2\n      swap1\n      tag_21\n      jump\t// in\n    tag_25:\n      mload(0x40)\n      dup1\n      swap2\n      sub\n      swap1\n      return\n        /* \"SmartContract-Auction/Auction.sol\":531:567  mapping(address => uint) public bids */\n    tag_4:\n      callvalue\n      dup1\n      iszero\n      tag_26\n      jumpi\n      0x00\n      dup1\n      revert\n    tag_26:\n      pop\n      tag_27\n      0x04\n      dup1\n      calldatasize\n      sub\n      dup2\n      add\n      swap1\n      tag_28\n      swap2\n      swap1\n      tag_29\n      jump\t// in\n    tag_28:\n      tag_30\n      jump\t// in\n    tag_27:\n      mload(0x40)\n      tag_31\n      swap2\n      swap1\n      tag_21\n      jump\t// in\n    tag_31:\n      mload(0x40)\n      dup1\n      swap2\n      sub\n      swap1\n      return\n        /* \"SmartContract-Auction/Auction.sol\":421:446  State public auctionState */\n    tag_5:\n      callvalue\n      dup1\n      iszero\n      tag_32\n      jumpi\n      0x00\n      dup1\n      revert\n    tag_32:\n      pop\n      tag_33\n      tag_34\n      jump\t// in\n    tag_33:\n      mload(0x40)\n      tag_35\n      swap2\n      swap1\n      tag_36\n      jump\t// in\n    tag_35:\n      mload(0x40)\n      dup1\n      swap2\n      sub\n      swap1\n      return\n        /* \"SmartContract-Auction/Auction.sol\":91:111  address public owner */\n    tag_6:\n      callvalue\n      dup1\n      iszero\n      tag_37\n      jumpi\n      0x00\n      dup1\n      revert\n    tag_37:\n      pop\n      tag_38\n      tag_39\n      jump\t// in\n    tag_38:\n      mload(0x40)\n      tag_40\n      swap2\n      swap1\n      tag_41\n      jump\t// in\n    tag_40:\n      mload(0x40)\n      dup1\n      swap2\n      sub\n      swap1\n      return\n        /* \"SmartContract-Auction/Auction.sol\":1604:1693  function cancelAuction() public onlyOwner {... */\n    tag_7:\n      callvalue\n      dup1\n      iszero\n      tag_42\n      jumpi\n      0x00\n      dup1\n      revert\n    tag_42:\n      pop\n      tag_43\n      tag_44\n      jump\t// in\n    tag_43:\n      stop\n        /* \"SmartContract-Auction/Auction.sol\":488:524  address payable public highestBidder */\n    tag_8:\n      callvalue\n      dup1\n      iszero\n      tag_45\n      jumpi\n      0x00\n      dup1\n      revert\n    tag_45:\n      pop\n      tag_46\n      tag_47\n      jump\t// in\n    tag_46:\n      mload(0x40)\n      tag_48\n      swap2\n      swap1\n      tag_49\n      jump\t// in\n    tag_48:\n      mload(0x40)\n      dup1\n      swap2\n      sub\n      swap1\n      return\n        /* \"SmartContract-Auction/Auction.sol\":303:325  string public ipfsHash */\n    tag_9:\n      callvalue\n      dup1\n      iszero\n      tag_50\n      jumpi\n      0x00\n      dup1\n      revert\n    tag_50:\n      pop\n      tag_51\n      tag_52\n      jump\t// in\n    tag_51:\n      mload(0x40)\n      tag_53\n      swap2\n      swap1\n      tag_54\n      jump\t// in\n    tag_53:\n      mload(0x40)\n      dup1\n      swap2\n      sub\n      swap1\n      return\n        /* \"SmartContract-Auction/Auction.sol\":270:297  uint public MinimumBidValue */\n    tag_10:\n      callvalue\n      dup1\n      iszero\n      tag_55\n      jumpi\n      0x00\n      dup1\n      revert\n    tag_55:\n      pop\n      tag_56\n      tag_57\n      jump\t// in\n    tag_56:\n      mload(0x40)\n      tag_58\n      swap2\n      swap1\n      tag_21\n      jump\t// in\n    tag_58:\n      mload(0x40)\n      dup1\n      swap2\n      sub\n      swap1\n      return\n        /* \"SmartContract-Auction/Auction.sol\":1761:2419  function placeBid() public payable notOwnerOrBeneficiary afterStart beforeEnd{... */\n    tag_11:\n      tag_59\n      tag_60\n      jump\t// in\n    tag_59:\n      stop\n        /* \"SmartContract-Auction/Auction.sol\":453:482  uint public highestBindingBid */\n    tag_12:\n      callvalue\n      dup1\n      iszero\n      tag_61\n      jumpi\n      0x00\n      dup1\n      revert\n    tag_61:\n      pop\n      tag_62\n      tag_63\n      jump\t// in\n    tag_62:\n      mload(0x40)\n      tag_64\n      swap2\n      swap1\n      tag_21\n      jump\t// in\n    tag_64:\n      mload(0x40)\n      dup1\n      swap2\n      sub\n      swap1\n      return\n        /* \"SmartContract-Auction/Auction.sol\":2425:3455  function finalizeAuction() public{... */\n    tag_13:\n      callvalue\n      dup1\n      iszero\n      tag_65\n      jumpi\n      0x00\n      dup1\n      revert\n    tag_65:\n      pop\n      tag_66\n      tag_67\n      jump\t// in\n    tag_66:\n      stop\n        /* \"SmartContract-Auction/Auction.sol\":1375:1441  function startNewBid() public onlyOwner NotRunning{... */\n    tag_14:\n      callvalue\n      dup1\n      iszero\n      tag_68\n      jumpi\n      0x00\n      dup1\n      revert\n    tag_68:\n      pop\n      tag_69\n      tag_70\n      jump\t// in\n    tag_69:\n      stop\n        /* \"SmartContract-Auction/Auction.sol\":244:264  uint public endBlock */\n    tag_19:\n      sload(0x02)\n      dup2\n      jump\t// out\n        /* \"SmartContract-Auction/Auction.sol\":216:238  uint public startBlock */\n    tag_24:\n      sload(0x01)\n      dup2\n      jump\t// out\n        /* \"SmartContract-Auction/Auction.sol\":531:567  mapping(address => uint) public bids */\n    tag_30:\n      mstore(0x20, 0x08)\n      dup1\n      0x00\n      mstore\n      keccak256(0x00, 0x40)\n      0x00\n      swap2\n      pop\n      swap1\n      pop\n      sload\n      dup2\n      jump\t// out\n        /* \"SmartContract-Auction/Auction.sol\":421:446  State public auctionState */\n    tag_34:\n      0x05\n      0x00\n      swap1\n      sload\n      swap1\n      0x0100\n      exp\n      swap1\n      div\n      0xff\n      and\n      dup2\n      jump\t// out\n        /* \"SmartContract-Auction/Auction.sol\":91:111  address public owner */\n    tag_39:\n      0x00\n      dup1\n      sload\n      swap1\n      0x0100\n      exp\n      swap1\n      div\n      0xffffffffffffffffffffffffffffffffffffffff\n      and\n      dup2\n      jump\t// out\n        /* \"SmartContract-Auction/Auction.sol\":1604:1693  function cancelAuction() public onlyOwner {... */\n    tag_44:\n        /* \"SmartContract-Auction/Auction.sol\":3930:3935  owner */\n      0x00\n      dup1\n      sload\n      swap1\n      0x0100\n      exp\n      swap1\n      div\n      0xffffffffffffffffffffffffffffffffffffffff\n      and\n        /* \"SmartContract-Auction/Auction.sol\":3916:3935  msg.sender == owner */\n      0xffffffffffffffffffffffffffffffffffffffff\n      and\n        /* \"SmartContract-Auction/Auction.sol\":3916:3926  msg.sender */\n      caller\n        /* \"SmartContract-Auction/Auction.sol\":3916:3935  msg.sender == owner */\n      0xffffffffffffffffffffffffffffffffffffffff\n      and\n      eq\n        /* \"SmartContract-Auction/Auction.sol\":3908:3936  require(msg.sender == owner) */\n      tag_72\n      jumpi\n      0x00\n      dup1\n      revert\n    tag_72:\n        /* \"SmartContract-Auction/Auction.sol\":1671:1685  State.Canceled */\n      0x03\n        /* \"SmartContract-Auction/Auction.sol\":1656:1668  auctionState */\n      0x05\n      0x00\n        /* \"SmartContract-Auction/Auction.sol\":1656:1685  auctionState = State.Canceled */\n      0x0100\n      exp\n      dup2\n      sload\n      dup2\n      0xff\n      mul\n      not\n      and\n      swap1\n      dup4\n      0x03\n      dup2\n      gt\n      iszero\n      tag_74\n      jumpi\n      tag_75\n      tag_76\n      jump\t// in\n    tag_75:\n    tag_74:\n      mul\n      or\n      swap1\n      sstore\n      pop\n        /* \"SmartContract-Auction/Auction.sol\":1604:1693  function cancelAuction() public onlyOwner {... */\n      jump\t// out\n        /* \"SmartContract-Auction/Auction.sol\":488:524  address payable public highestBidder */\n    tag_47:\n      0x07\n      0x00\n      swap1\n      sload\n      swap1\n      0x0100\n      exp\n      swap1\n      div\n      0xffffffffffffffffffffffffffffffffffffffff\n      and\n      dup2\n      jump\t// out\n        /* \"SmartContract-Auction/Auction.sol\":303:325  string public ipfsHash */\n    tag_52:\n      0x04\n      dup1\n      sload\n      tag_77\n      swap1\n      tag_78\n      jump\t// in\n    tag_77:\n      dup1\n      0x1f\n      add\n      0x20\n      dup1\n      swap2\n      div\n      mul\n      0x20\n      add\n      mload(0x40)\n      swap1\n      dup2\n      add\n      0x40\n      mstore\n      dup1\n      swap3\n      swap2\n      swap1\n      dup2\n      dup2\n      mstore\n      0x20\n      add\n      dup3\n      dup1\n      sload\n      tag_79\n      swap1\n      tag_78\n      jump\t// in\n    tag_79:\n      dup1\n      iszero\n      tag_80\n      jumpi\n      dup1\n      0x1f\n      lt\n      tag_81\n      jumpi\n      0x0100\n      dup1\n      dup4\n      sload\n      div\n      mul\n      dup4\n      mstore\n      swap2\n      0x20\n      add\n      swap2\n      jump(tag_80)\n    tag_81:\n      dup3\n      add\n      swap2\n      swap1\n      0x00\n      mstore\n      keccak256(0x00, 0x20)\n      swap1\n    tag_82:\n      dup2\n      sload\n      dup2\n      mstore\n      swap1\n      0x01\n      add\n      swap1\n      0x20\n      add\n      dup1\n      dup4\n      gt\n      tag_82\n      jumpi\n      dup3\n      swap1\n      sub\n      0x1f\n      and\n      dup3\n      add\n      swap2\n    tag_80:\n      pop\n      pop\n      pop\n      pop\n      pop\n      dup2\n      jump\t// out\n        /* \"SmartContract-Auction/Auction.sol\":270:297  uint public MinimumBidValue */\n    tag_57:\n      sload(0x03)\n      dup2\n      jump\t// out\n        /* \"SmartContract-Auction/Auction.sol\":1761:2419  function placeBid() public payable notOwnerOrBeneficiary afterStart beforeEnd{... */\n    tag_60:\n        /* \"SmartContract-Auction/Auction.sol\":3754:3759  owner */\n      0x00\n      dup1\n      sload\n      swap1\n      0x0100\n      exp\n      swap1\n      div\n      0xffffffffffffffffffffffffffffffffffffffff\n      and\n        /* \"SmartContract-Auction/Auction.sol\":3740:3759  msg.sender != owner */\n      0xffffffffffffffffffffffffffffffffffffffff\n      and\n        /* \"SmartContract-Auction/Auction.sol\":3740:3750  msg.sender */\n      caller\n        /* \"SmartContract-Auction/Auction.sol\":3740:3759  msg.sender != owner */\n      0xffffffffffffffffffffffffffffffffffffffff\n      and\n      eq\n      iszero\n        /* \"SmartContract-Auction/Auction.sol\":3732:3760  require(msg.sender != owner) */\n      tag_84\n      jumpi\n      0x00\n      dup1\n      revert\n    tag_84:\n        /* \"SmartContract-Auction/Auction.sol\":3516:3526  startBlock */\n      sload(0x01)\n        /* \"SmartContract-Auction/Auction.sol\":3500:3512  block.number */\n      number\n        /* \"SmartContract-Auction/Auction.sol\":3500:3526  block.number >= startBlock */\n      lt\n      iszero\n        /* \"SmartContract-Auction/Auction.sol\":3492:3527  require(block.number >= startBlock) */\n      tag_86\n      jumpi\n      0x00\n      dup1\n      revert\n    tag_86:\n        /* \"SmartContract-Auction/Auction.sol\":3605:3613  endBlock */\n      sload(0x02)\n        /* \"SmartContract-Auction/Auction.sol\":3589:3601  block.number */\n      number\n        /* \"SmartContract-Auction/Auction.sol\":3589:3613  block.number <= endBlock */\n      gt\n      iszero\n        /* \"SmartContract-Auction/Auction.sol\":3581:3614  require(block.number <= endBlock) */\n      tag_88\n      jumpi\n      0x00\n      dup1\n      revert\n    tag_88:\n        /* \"SmartContract-Auction/Auction.sol\":1872:1885  State.Running */\n      0x01\n        /* \"SmartContract-Auction/Auction.sol\":1856:1885  auctionState == State.Running */\n      0x03\n      dup2\n      gt\n      iszero\n      tag_90\n      jumpi\n      tag_91\n      tag_76\n      jump\t// in\n    tag_91:\n    tag_90:\n        /* \"SmartContract-Auction/Auction.sol\":1856:1868  auctionState */\n      0x05\n      0x00\n      swap1\n      sload\n      swap1\n      0x0100\n      exp\n      swap1\n      div\n      0xff\n      and\n        /* \"SmartContract-Auction/Auction.sol\":1856:1885  auctionState == State.Running */\n      0x03\n      dup2\n      gt\n      iszero\n      tag_92\n      jumpi\n      tag_93\n      tag_76\n      jump\t// in\n    tag_93:\n    tag_92:\n      eq\n        /* \"SmartContract-Auction/Auction.sol\":1848:1925  require(auctionState == State.Running, \"Please wait until the auction start\") */\n      tag_94\n      jumpi\n      mload(0x40)\n      0x08c379a000000000000000000000000000000000000000000000000000000000\n      dup2\n      mstore\n      0x04\n      add\n      tag_95\n      swap1\n      tag_96\n      jump\t// in\n    tag_95:\n      mload(0x40)\n      dup1\n      swap2\n      sub\n      swap1\n      revert\n    tag_94:\n        /* \"SmartContract-Auction/Auction.sol\":1956:1971  MinimumBidValue */\n      sload(0x03)\n        /* \"SmartContract-Auction/Auction.sol\":1943:1952  msg.value */\n      callvalue\n        /* \"SmartContract-Auction/Auction.sol\":1943:1971  msg.value >= MinimumBidValue */\n      lt\n      iszero\n        /* \"SmartContract-Auction/Auction.sol\":1935:1972  require(msg.value >= MinimumBidValue) */\n      tag_97\n      jumpi\n      0x00\n      dup1\n      revert\n    tag_97:\n        /* \"SmartContract-Auction/Auction.sol\":1983:1998  uint currentBid */\n      0x00\n        /* \"SmartContract-Auction/Auction.sol\":2020:2029  msg.value */\n      callvalue\n        /* \"SmartContract-Auction/Auction.sol\":2001:2005  bids */\n      0x08\n        /* \"SmartContract-Auction/Auction.sol\":2001:2017  bids[msg.sender] */\n      0x00\n        /* \"SmartContract-Auction/Auction.sol\":2006:2016  msg.sender */\n      caller\n        /* \"SmartContract-Auction/Auction.sol\":2001:2017  bids[msg.sender] */\n      0xffffffffffffffffffffffffffffffffffffffff\n      and\n      0xffffffffffffffffffffffffffffffffffffffff\n      and\n      dup2\n      mstore\n      0x20\n      add\n      swap1\n      dup2\n      mstore\n      0x20\n      add\n      0x00\n      keccak256\n      sload\n        /* \"SmartContract-Auction/Auction.sol\":2001:2029  bids[msg.sender] + msg.value */\n      tag_98\n      swap2\n      swap1\n      tag_99\n      jump\t// in\n    tag_98:\n        /* \"SmartContract-Auction/Auction.sol\":1983:2029  uint currentBid = bids[msg.sender] + msg.value */\n      swap1\n      pop\n        /* \"SmartContract-Auction/Auction.sol\":2062:2079  highestBindingBid */\n      sload(0x06)\n        /* \"SmartContract-Auction/Auction.sol\":2048:2058  currentBid */\n      dup2\n        /* \"SmartContract-Auction/Auction.sol\":2048:2079  currentBid >= highestBindingBid */\n      lt\n      iszero\n        /* \"SmartContract-Auction/Auction.sol\":2040:2080  require(currentBid >= highestBindingBid) */\n      tag_100\n      jumpi\n      0x00\n      dup1\n      revert\n    tag_100:\n        /* \"SmartContract-Auction/Auction.sol\":2110:2120  currentBid */\n      dup1\n        /* \"SmartContract-Auction/Auction.sol\":2091:2095  bids */\n      0x08\n        /* \"SmartContract-Auction/Auction.sol\":2091:2107  bids[msg.sender] */\n      0x00\n        /* \"SmartContract-Auction/Auction.sol\":2096:2106  msg.sender */\n      caller\n        /* \"SmartContract-Auction/Auction.sol\":2091:2107  bids[msg.sender] */\n      0xffffffffffffffffffffffffffffffffffffffff\n      and\n      0xffffffffffffffffffffffffffffffffffffffff\n      and\n      dup2\n      mstore\n      0x20\n      add\n      swap1\n      dup2\n      mstore\n      0x20\n      add\n      0x00\n      keccak256\n        /* \"SmartContract-Auction/Auction.sol\":2091:2120  bids[msg.sender] = currentBid */\n      dup2\n      swap1\n      sstore\n      pop\n        /* \"SmartContract-Auction/Auction.sol\":2148:2152  bids */\n      0x08\n        /* \"SmartContract-Auction/Auction.sol\":2148:2167  bids[highestBidder] */\n      0x00\n        /* \"SmartContract-Auction/Auction.sol\":2153:2166  highestBidder */\n      0x07\n      0x00\n      swap1\n      sload\n      swap1\n      0x0100\n      exp\n      swap1\n      div\n      0xffffffffffffffffffffffffffffffffffffffff\n      and\n        /* \"SmartContract-Auction/Auction.sol\":2148:2167  bids[highestBidder] */\n      0xffffffffffffffffffffffffffffffffffffffff\n      and\n      0xffffffffffffffffffffffffffffffffffffffff\n      and\n      dup2\n      mstore\n      0x20\n      add\n      swap1\n      dup2\n      mstore\n      0x20\n      add\n      0x00\n      keccak256\n      sload\n        /* \"SmartContract-Auction/Auction.sol\":2134:2144  currentBid */\n      dup2\n        /* \"SmartContract-Auction/Auction.sol\":2134:2167  currentBid <= bids[highestBidder] */\n      gt\n        /* \"SmartContract-Auction/Auction.sol\":2131:2413  if(currentBid <= bids[highestBidder]){... */\n      tag_101\n      jumpi\n        /* \"SmartContract-Auction/Auction.sol\":2202:2253  min(currentBid + bidIncrement, bids[highestBidder]) */\n      tag_102\n        /* \"SmartContract-Auction/Auction.sol\":2219:2231  bidIncrement */\n      sload(0x09)\n        /* \"SmartContract-Auction/Auction.sol\":2206:2216  currentBid */\n      dup3\n        /* \"SmartContract-Auction/Auction.sol\":2206:2231  currentBid + bidIncrement */\n      tag_103\n      swap2\n      swap1\n      tag_99\n      jump\t// in\n    tag_103:\n        /* \"SmartContract-Auction/Auction.sol\":2233:2237  bids */\n      0x08\n        /* \"SmartContract-Auction/Auction.sol\":2233:2252  bids[highestBidder] */\n      0x00\n        /* \"SmartContract-Auction/Auction.sol\":2238:2251  highestBidder */\n      0x07\n      0x00\n      swap1\n      sload\n      swap1\n      0x0100\n      exp\n      swap1\n      div\n      0xffffffffffffffffffffffffffffffffffffffff\n      and\n        /* \"SmartContract-Auction/Auction.sol\":2233:2252  bids[highestBidder] */\n      0xffffffffffffffffffffffffffffffffffffffff\n      and\n      0xffffffffffffffffffffffffffffffffffffffff\n      and\n      dup2\n      mstore\n      0x20\n      add\n      swap1\n      dup2\n      mstore\n      0x20\n      add\n      0x00\n      keccak256\n      sload\n        /* \"SmartContract-Auction/Auction.sol\":2202:2205  min */\n      tag_104\n        /* \"SmartContract-Auction/Auction.sol\":2202:2253  min(currentBid + bidIncrement, bids[highestBidder]) */\n      jump\t// in\n    tag_102:\n        /* \"SmartContract-Auction/Auction.sol\":2182:2199  highestBindingBid */\n      0x06\n        /* \"SmartContract-Auction/Auction.sol\":2182:2253  highestBindingBid = min(currentBid + bidIncrement, bids[highestBidder]) */\n      dup2\n      swap1\n      sstore\n      pop\n        /* \"SmartContract-Auction/Auction.sol\":2131:2413  if(currentBid <= bids[highestBidder]){... */\n      jump(tag_105)\n    tag_101:\n        /* \"SmartContract-Auction/Auction.sol\":2302:2353  min(currentBid, bids[highestBidder] + bidIncrement) */\n      tag_106\n        /* \"SmartContract-Auction/Auction.sol\":2306:2316  currentBid */\n      dup2\n        /* \"SmartContract-Auction/Auction.sol\":2340:2352  bidIncrement */\n      sload(0x09)\n        /* \"SmartContract-Auction/Auction.sol\":2318:2322  bids */\n      0x08\n        /* \"SmartContract-Auction/Auction.sol\":2318:2337  bids[highestBidder] */\n      0x00\n        /* \"SmartContract-Auction/Auction.sol\":2323:2336  highestBidder */\n      0x07\n      0x00\n      swap1\n      sload\n      swap1\n      0x0100\n      exp\n      swap1\n      div\n      0xffffffffffffffffffffffffffffffffffffffff\n      and\n        /* \"SmartContract-Auction/Auction.sol\":2318:2337  bids[highestBidder] */\n      0xffffffffffffffffffffffffffffffffffffffff\n      and\n      0xffffffffffffffffffffffffffffffffffffffff\n      and\n      dup2\n      mstore\n      0x20\n      add\n      swap1\n      dup2\n      mstore\n      0x20\n      add\n      0x00\n      keccak256\n      sload\n        /* \"SmartContract-Auction/Auction.sol\":2318:2352  bids[highestBidder] + bidIncrement */\n      tag_107\n      swap2\n      swap1\n      tag_99\n      jump\t// in\n    tag_107:\n        /* \"SmartContract-Auction/Auction.sol\":2302:2305  min */\n      tag_104\n        /* \"SmartContract-Auction/Auction.sol\":2302:2353  min(currentBid, bids[highestBidder] + bidIncrement) */\n      jump\t// in\n    tag_106:\n        /* \"SmartContract-Auction/Auction.sol\":2282:2299  highestBindingBid */\n      0x06\n        /* \"SmartContract-Auction/Auction.sol\":2282:2353  highestBindingBid = min(currentBid, bids[highestBidder] + bidIncrement) */\n      dup2\n      swap1\n      sstore\n      pop\n        /* \"SmartContract-Auction/Auction.sol\":2391:2401  msg.sender */\n      caller\n        /* \"SmartContract-Auction/Auction.sol\":2367:2380  highestBidder */\n      0x07\n      0x00\n        /* \"SmartContract-Auction/Auction.sol\":2367:2402  highestBidder = payable(msg.sender) */\n      0x0100\n      exp\n      dup2\n      sload\n      dup2\n      0xffffffffffffffffffffffffffffffffffffffff\n      mul\n      not\n      and\n      swap1\n      dup4\n      0xffffffffffffffffffffffffffffffffffffffff\n      and\n      mul\n      or\n      swap1\n      sstore\n      pop\n        /* \"SmartContract-Auction/Auction.sol\":2131:2413  if(currentBid <= bids[highestBidder]){... */\n    tag_105:\n        /* \"SmartContract-Auction/Auction.sol\":1838:2419  {... */\n      pop\n        /* \"SmartContract-Auction/Auction.sol\":1761:2419  function placeBid() public payable notOwnerOrBeneficiary afterStart beforeEnd{... */\n      jump\t// out\n        /* \"SmartContract-Auction/Auction.sol\":453:482  uint public highestBindingBid */\n    tag_63:\n      sload(0x06)\n      dup2\n      jump\t// out\n        /* \"SmartContract-Auction/Auction.sol\":2425:3455  function finalizeAuction() public{... */\n    tag_67:\n        /* \"SmartContract-Auction/Auction.sol\":2492:2506  State.Canceled */\n      0x03\n        /* \"SmartContract-Auction/Auction.sol\":2476:2506  auctionState == State.Canceled */\n      dup1\n      dup2\n      gt\n      iszero\n      tag_109\n      jumpi\n      tag_110\n      tag_76\n      jump\t// in\n    tag_110:\n    tag_109:\n        /* \"SmartContract-Auction/Auction.sol\":2476:2488  auctionState */\n      0x05\n      0x00\n      swap1\n      sload\n      swap1\n      0x0100\n      exp\n      swap1\n      div\n      0xff\n      and\n        /* \"SmartContract-Auction/Auction.sol\":2476:2506  auctionState == State.Canceled */\n      0x03\n      dup2\n      gt\n      iszero\n      tag_111\n      jumpi\n      tag_112\n      tag_76\n      jump\t// in\n    tag_112:\n    tag_111:\n      eq\n        /* \"SmartContract-Auction/Auction.sol\":2476:2534  auctionState == State.Canceled || block.number >= endBlock */\n      dup1\n      tag_113\n      jumpi\n      pop\n        /* \"SmartContract-Auction/Auction.sol\":2526:2534  endBlock */\n      sload(0x02)\n        /* \"SmartContract-Auction/Auction.sol\":2510:2522  block.number */\n      number\n        /* \"SmartContract-Auction/Auction.sol\":2510:2534  block.number >= endBlock */\n      lt\n      iszero\n        /* \"SmartContract-Auction/Auction.sol\":2476:2534  auctionState == State.Canceled || block.number >= endBlock */\n    tag_113:\n        /* \"SmartContract-Auction/Auction.sol\":2468:2535  require(auctionState == State.Canceled || block.number >= endBlock) */\n      tag_114\n      jumpi\n      0x00\n      dup1\n      revert\n    tag_114:\n        /* \"SmartContract-Auction/Auction.sol\":2553:2572  isOwner(msg.sender) */\n      tag_115\n        /* \"SmartContract-Auction/Auction.sol\":2561:2571  msg.sender */\n      caller\n        /* \"SmartContract-Auction/Auction.sol\":2553:2560  isOwner */\n      tag_116\n        /* \"SmartContract-Auction/Auction.sol\":2553:2572  isOwner(msg.sender) */\n      jump\t// in\n    tag_115:\n        /* \"SmartContract-Auction/Auction.sol\":2553:2596  isOwner(msg.sender) || bids[msg.sender] > 0 */\n      dup1\n      tag_117\n      jumpi\n      pop\n        /* \"SmartContract-Auction/Auction.sol\":2595:2596  0 */\n      0x00\n        /* \"SmartContract-Auction/Auction.sol\":2576:2580  bids */\n      0x08\n        /* \"SmartContract-Auction/Auction.sol\":2576:2592  bids[msg.sender] */\n      0x00\n        /* \"SmartContract-Auction/Auction.sol\":2581:2591  msg.sender */\n      caller\n        /* \"SmartContract-Auction/Auction.sol\":2576:2592  bids[msg.sender] */\n      0xffffffffffffffffffffffffffffffffffffffff\n      and\n      0xffffffffffffffffffffffffffffffffffffffff\n      and\n      dup2\n      mstore\n      0x20\n      add\n      swap1\n      dup2\n      mstore\n      0x20\n      add\n      0x00\n      keccak256\n      sload\n        /* \"SmartContract-Auction/Auction.sol\":2576:2596  bids[msg.sender] > 0 */\n      gt\n        /* \"SmartContract-Auction/Auction.sol\":2553:2596  isOwner(msg.sender) || bids[msg.sender] > 0 */\n    tag_117:\n        /* \"SmartContract-Auction/Auction.sol\":2545:2597  require(isOwner(msg.sender) || bids[msg.sender] > 0) */\n      tag_118\n      jumpi\n      0x00\n      dup1\n      revert\n    tag_118:\n        /* \"SmartContract-Auction/Auction.sol\":2608:2633  address payable recipient */\n      0x00\n        /* \"SmartContract-Auction/Auction.sol\":2643:2653  uint value */\n      dup1\n        /* \"SmartContract-Auction/Auction.sol\":2683:2697  State.Canceled */\n      0x03\n        /* \"SmartContract-Auction/Auction.sol\":2667:2697  auctionState == State.Canceled */\n      dup1\n      dup2\n      gt\n      iszero\n      tag_119\n      jumpi\n      tag_120\n      tag_76\n      jump\t// in\n    tag_120:\n    tag_119:\n        /* \"SmartContract-Auction/Auction.sol\":2667:2679  auctionState */\n      0x05\n      0x00\n      swap1\n      sload\n      swap1\n      0x0100\n      exp\n      swap1\n      div\n      0xff\n      and\n        /* \"SmartContract-Auction/Auction.sol\":2667:2697  auctionState == State.Canceled */\n      0x03\n      dup2\n      gt\n      iszero\n      tag_121\n      jumpi\n      tag_122\n      tag_76\n      jump\t// in\n    tag_122:\n    tag_121:\n      eq\n        /* \"SmartContract-Auction/Auction.sol\":2664:3384  if(auctionState == State.Canceled){ //auction canceled... */\n      iszero\n      tag_123\n      jumpi\n        /* \"SmartContract-Auction/Auction.sol\":2751:2761  msg.sender */\n      caller\n        /* \"SmartContract-Auction/Auction.sol\":2731:2762  recipient = payable(msg.sender) */\n      swap2\n      pop\n        /* \"SmartContract-Auction/Auction.sol\":2784:2788  bids */\n      0x08\n        /* \"SmartContract-Auction/Auction.sol\":2784:2800  bids[msg.sender] */\n      0x00\n        /* \"SmartContract-Auction/Auction.sol\":2789:2799  msg.sender */\n      caller\n        /* \"SmartContract-Auction/Auction.sol\":2784:2800  bids[msg.sender] */\n      0xffffffffffffffffffffffffffffffffffffffff\n      and\n      0xffffffffffffffffffffffffffffffffffffffff\n      and\n      dup2\n      mstore\n      0x20\n      add\n      swap1\n      dup2\n      mstore\n      0x20\n      add\n      0x00\n      keccak256\n      sload\n        /* \"SmartContract-Auction/Auction.sol\":2776:2800  value = bids[msg.sender] */\n      swap1\n      pop\n        /* \"SmartContract-Auction/Auction.sol\":2664:3384  if(auctionState == State.Canceled){ //auction canceled... */\n      jump(tag_124)\n    tag_123:\n        /* \"SmartContract-Auction/Auction.sol\":2862:2881  isOwner(msg.sender) */\n      tag_125\n        /* \"SmartContract-Auction/Auction.sol\":2870:2880  msg.sender */\n      caller\n        /* \"SmartContract-Auction/Auction.sol\":2862:2869  isOwner */\n      tag_116\n        /* \"SmartContract-Auction/Auction.sol\":2862:2881  isOwner(msg.sender) */\n      jump\t// in\n    tag_125:\n        /* \"SmartContract-Auction/Auction.sol\":2859:3374  if(isOwner(msg.sender)){... */\n      iszero\n      tag_126\n      jumpi\n        /* \"SmartContract-Auction/Auction.sol\":2920:2925  owner */\n      0x00\n      dup1\n      sload\n      swap1\n      0x0100\n      exp\n      swap1\n      div\n      0xffffffffffffffffffffffffffffffffffffffff\n      and\n        /* \"SmartContract-Auction/Auction.sol\":2900:2926  recipient = payable(owner) */\n      swap2\n      pop\n        /* \"SmartContract-Auction/Auction.sol\":2952:2969  highestBindingBid */\n      sload(0x06)\n        /* \"SmartContract-Auction/Auction.sol\":2944:2969  value = highestBindingBid */\n      swap1\n      pop\n        /* \"SmartContract-Auction/Auction.sol\":2859:3374  if(isOwner(msg.sender)){... */\n      jump(tag_127)\n    tag_126:\n        /* \"SmartContract-Auction/Auction.sol\":3034:3047  highestBidder */\n      0x07\n      0x00\n      swap1\n      sload\n      swap1\n      0x0100\n      exp\n      swap1\n      div\n      0xffffffffffffffffffffffffffffffffffffffff\n      and\n        /* \"SmartContract-Auction/Auction.sol\":3020:3047  msg.sender == highestBidder */\n      0xffffffffffffffffffffffffffffffffffffffff\n      and\n        /* \"SmartContract-Auction/Auction.sol\":3020:3030  msg.sender */\n      caller\n        /* \"SmartContract-Auction/Auction.sol\":3020:3047  msg.sender == highestBidder */\n      0xffffffffffffffffffffffffffffffffffffffff\n      and\n      eq\n        /* \"SmartContract-Auction/Auction.sol\":3017:3360  if(msg.sender == highestBidder){ //when highest bidder ... */\n      iszero\n      tag_128\n      jumpi\n        /* \"SmartContract-Auction/Auction.sol\":3113:3126  highestBidder */\n      0x07\n      0x00\n      swap1\n      sload\n      swap1\n      0x0100\n      exp\n      swap1\n      div\n      0xffffffffffffffffffffffffffffffffffffffff\n      and\n        /* \"SmartContract-Auction/Auction.sol\":3093:3127  recipient = payable(highestBidder) */\n      swap2\n      pop\n        /* \"SmartContract-Auction/Auction.sol\":3176:3193  highestBindingBid */\n      sload(0x06)\n        /* \"SmartContract-Auction/Auction.sol\":3157:3161  bids */\n      0x08\n        /* \"SmartContract-Auction/Auction.sol\":3157:3173  bids[msg.sender] */\n      0x00\n        /* \"SmartContract-Auction/Auction.sol\":3162:3172  msg.sender */\n      caller\n        /* \"SmartContract-Auction/Auction.sol\":3157:3173  bids[msg.sender] */\n      0xffffffffffffffffffffffffffffffffffffffff\n      and\n      0xffffffffffffffffffffffffffffffffffffffff\n      and\n      dup2\n      mstore\n      0x20\n      add\n      swap1\n      dup2\n      mstore\n      0x20\n      add\n      0x00\n      keccak256\n      sload\n        /* \"SmartContract-Auction/Auction.sol\":3157:3193  bids[msg.sender] - highestBindingBid */\n      tag_129\n      swap2\n      swap1\n      tag_130\n      jump\t// in\n    tag_129:\n        /* \"SmartContract-Auction/Auction.sol\":3149:3193  value = bids[msg.sender] - highestBindingBid */\n      swap1\n      pop\n        /* \"SmartContract-Auction/Auction.sol\":3017:3360  if(msg.sender == highestBidder){ //when highest bidder ... */\n      jump(tag_131)\n    tag_128:\n        /* \"SmartContract-Auction/Auction.sol\":3284:3294  msg.sender */\n      caller\n        /* \"SmartContract-Auction/Auction.sol\":3264:3295  recipient = payable(msg.sender) */\n      swap2\n      pop\n        /* \"SmartContract-Auction/Auction.sol\":3325:3329  bids */\n      0x08\n        /* \"SmartContract-Auction/Auction.sol\":3325:3341  bids[msg.sender] */\n      0x00\n        /* \"SmartContract-Auction/Auction.sol\":3330:3340  msg.sender */\n      caller\n        /* \"SmartContract-Auction/Auction.sol\":3325:3341  bids[msg.sender] */\n      0xffffffffffffffffffffffffffffffffffffffff\n      and\n      0xffffffffffffffffffffffffffffffffffffffff\n      and\n      dup2\n      mstore\n      0x20\n      add\n      swap1\n      dup2\n      mstore\n      0x20\n      add\n      0x00\n      keccak256\n      sload\n        /* \"SmartContract-Auction/Auction.sol\":3317:3341  value = bids[msg.sender] */\n      swap1\n      pop\n        /* \"SmartContract-Auction/Auction.sol\":3017:3360  if(msg.sender == highestBidder){ //when highest bidder ... */\n    tag_131:\n        /* \"SmartContract-Auction/Auction.sol\":2859:3374  if(isOwner(msg.sender)){... */\n    tag_127:\n        /* \"SmartContract-Auction/Auction.sol\":2664:3384  if(auctionState == State.Canceled){ //auction canceled... */\n    tag_124:\n        /* \"SmartContract-Auction/Auction.sol\":3412:3413  0 */\n      0x00\n        /* \"SmartContract-Auction/Auction.sol\":3394:3398  bids */\n      0x08\n        /* \"SmartContract-Auction/Auction.sol\":3394:3409  bids[recipient] */\n      0x00\n        /* \"SmartContract-Auction/Auction.sol\":3399:3408  recipient */\n      dup5\n        /* \"SmartContract-Auction/Auction.sol\":3394:3409  bids[recipient] */\n      0xffffffffffffffffffffffffffffffffffffffff\n      and\n      0xffffffffffffffffffffffffffffffffffffffff\n      and\n      dup2\n      mstore\n      0x20\n      add\n      swap1\n      dup2\n      mstore\n      0x20\n      add\n      0x00\n      keccak256\n        /* \"SmartContract-Auction/Auction.sol\":3394:3413  bids[recipient] = 0 */\n      dup2\n      swap1\n      sstore\n      pop\n        /* \"SmartContract-Auction/Auction.sol\":3423:3432  recipient */\n      dup2\n        /* \"SmartContract-Auction/Auction.sol\":3423:3441  recipient.transfer */\n      0xffffffffffffffffffffffffffffffffffffffff\n      and\n        /* \"SmartContract-Auction/Auction.sol\":3423:3448  recipient.transfer(value) */\n      0x08fc\n        /* \"SmartContract-Auction/Auction.sol\":3442:3447  value */\n      dup3\n        /* \"SmartContract-Auction/Auction.sol\":3423:3448  recipient.transfer(value) */\n      swap1\n      dup2\n      iszero\n      mul\n      swap1\n      mload(0x40)\n      0x00\n      mload(0x40)\n      dup1\n      dup4\n      sub\n      dup2\n      dup6\n      dup9\n      dup9\n      call\n      swap4\n      pop\n      pop\n      pop\n      pop\n      iszero\n      dup1\n      iszero\n      tag_133\n      jumpi\n      returndatasize\n      0x00\n      dup1\n      returndatacopy\n      revert(0x00, returndatasize)\n    tag_133:\n      pop\n        /* \"SmartContract-Auction/Auction.sol\":2458:3455  {... */\n      pop\n      pop\n        /* \"SmartContract-Auction/Auction.sol\":2425:3455  function finalizeAuction() public{... */\n      jump\t// out\n        /* \"SmartContract-Auction/Auction.sol\":1375:1441  function startNewBid() public onlyOwner NotRunning{... */\n    tag_70:\n        /* \"SmartContract-Auction/Auction.sol\":3930:3935  owner */\n      0x00\n      dup1\n      sload\n      swap1\n      0x0100\n      exp\n      swap1\n      div\n      0xffffffffffffffffffffffffffffffffffffffff\n      and\n        /* \"SmartContract-Auction/Auction.sol\":3916:3935  msg.sender == owner */\n      0xffffffffffffffffffffffffffffffffffffffff\n      and\n        /* \"SmartContract-Auction/Auction.sol\":3916:3926  msg.sender */\n      caller\n        /* \"SmartContract-Auction/Auction.sol\":3916:3935  msg.sender == owner */\n      0xffffffffffffffffffffffffffffffffffffffff\n      and\n      eq\n        /* \"SmartContract-Auction/Auction.sol\":3908:3936  require(msg.sender == owner) */\n      tag_135\n      jumpi\n      0x00\n      dup1\n      revert\n    tag_135:\n        /* \"SmartContract-Auction/Auction.sol\":3840:3853  State.Running */\n      0x01\n        /* \"SmartContract-Auction/Auction.sol\":3824:3853  auctionState != State.Running */\n      0x03\n      dup2\n      gt\n      iszero\n      tag_137\n      jumpi\n      tag_138\n      tag_76\n      jump\t// in\n    tag_138:\n    tag_137:\n        /* \"SmartContract-Auction/Auction.sol\":3824:3836  auctionState */\n      0x05\n      0x00\n      swap1\n      sload\n      swap1\n      0x0100\n      exp\n      swap1\n      div\n      0xff\n      and\n        /* \"SmartContract-Auction/Auction.sol\":3824:3853  auctionState != State.Running */\n      0x03\n      dup2\n      gt\n      iszero\n      tag_139\n      jumpi\n      tag_140\n      tag_76\n      jump\t// in\n    tag_140:\n    tag_139:\n      eq\n      iszero\n        /* \"SmartContract-Auction/Auction.sol\":3815:3854  require (auctionState != State.Running) */\n      tag_141\n      jumpi\n      0x00\n      dup1\n      revert\n    tag_141:\n        /* \"SmartContract-Auction/Auction.sol\":1375:1441  function startNewBid() public onlyOwner NotRunning{... */\n      jump\t// out\n        /* \"SmartContract-Auction/Auction.sol\":1447:1598  function min(uint a, uint b) internal pure returns(uint){... */\n    tag_104:\n        /* \"SmartContract-Auction/Auction.sol\":1498:1502  uint */\n      0x00\n        /* \"SmartContract-Auction/Auction.sol\":1519:1520  b */\n      dup2\n        /* \"SmartContract-Auction/Auction.sol\":1516:1517  a */\n      dup4\n        /* \"SmartContract-Auction/Auction.sol\":1516:1520  a<=b */\n      gt\n        /* \"SmartContract-Auction/Auction.sol\":1513:1592  if(a<=b){... */\n      tag_144\n      jumpi\n        /* \"SmartContract-Auction/Auction.sol\":1542:1543  a */\n      dup3\n        /* \"SmartContract-Auction/Auction.sol\":1535:1543  return a */\n      swap1\n      pop\n      jump(tag_143)\n        /* \"SmartContract-Auction/Auction.sol\":1513:1592  if(a<=b){... */\n    tag_144:\n        /* \"SmartContract-Auction/Auction.sol\":1580:1581  b */\n      dup2\n        /* \"SmartContract-Auction/Auction.sol\":1573:1581  return b */\n      swap1\n      pop\n        /* \"SmartContract-Auction/Auction.sol\":1447:1598  function min(uint a, uint b) internal pure returns(uint){... */\n    tag_143:\n      swap3\n      swap2\n      pop\n      pop\n      jump\t// out\n        /* \"SmartContract-Auction/Auction.sol\":1042:1145  function isOwner(address _address) internal view returns(bool){... */\n    tag_116:\n        /* \"SmartContract-Auction/Auction.sol\":1099:1103  bool */\n      0x00\n        /* \"SmartContract-Auction/Auction.sol\":1133:1138  owner */\n      dup1\n      0x00\n      swap1\n      sload\n      swap1\n      0x0100\n      exp\n      swap1\n      div\n      0xffffffffffffffffffffffffffffffffffffffff\n      and\n        /* \"SmartContract-Auction/Auction.sol\":1121:1138  _address == owner */\n      0xffffffffffffffffffffffffffffffffffffffff\n      and\n        /* \"SmartContract-Auction/Auction.sol\":1121:1129  _address */\n      dup3\n        /* \"SmartContract-Auction/Auction.sol\":1121:1138  _address == owner */\n      0xffffffffffffffffffffffffffffffffffffffff\n      and\n      eq\n        /* \"SmartContract-Auction/Auction.sol\":1114:1138  return _address == owner */\n      swap1\n      pop\n        /* \"SmartContract-Auction/Auction.sol\":1042:1145  function isOwner(address _address) internal view returns(bool){... */\n      swap2\n      swap1\n      pop\n      jump\t// out\n        /* \"#utility.yul\":7:146   */\n    tag_148:\n        /* \"#utility.yul\":53:58   */\n      0x00\n        /* \"#utility.yul\":91:97   */\n      dup2\n        /* \"#utility.yul\":78:98   */\n      calldataload\n        /* \"#utility.yul\":69:98   */\n      swap1\n      pop\n        /* \"#utility.yul\":107:140   */\n      tag_150\n        /* \"#utility.yul\":134:139   */\n      dup2\n        /* \"#utility.yul\":107:140   */\n      tag_151\n      jump\t// in\n    tag_150:\n        /* \"#utility.yul\":7:146   */\n      swap3\n      swap2\n      pop\n      pop\n      jump\t// out\n        /* \"#utility.yul\":152:481   */\n    tag_29:\n        /* \"#utility.yul\":211:217   */\n      0x00\n        /* \"#utility.yul\":260:262   */\n      0x20\n        /* \"#utility.yul\":248:257   */\n      dup3\n        /* \"#utility.yul\":239:246   */\n      dup5\n        /* \"#utility.yul\":235:258   */\n      sub\n        /* \"#utility.yul\":231:263   */\n      slt\n        /* \"#utility.yul\":228:347   */\n      iszero\n      tag_153\n      jumpi\n        /* \"#utility.yul\":266:345   */\n      tag_154\n      tag_155\n      jump\t// in\n    tag_154:\n        /* \"#utility.yul\":228:347   */\n    tag_153:\n        /* \"#utility.yul\":386:387   */\n      0x00\n        /* \"#utility.yul\":411:464   */\n      tag_156\n        /* \"#utility.yul\":456:463   */\n      dup5\n        /* \"#utility.yul\":447:453   */\n      dup3\n        /* \"#utility.yul\":436:445   */\n      dup6\n        /* \"#utility.yul\":432:454   */\n      add\n        /* \"#utility.yul\":411:464   */\n      tag_148\n      jump\t// in\n    tag_156:\n        /* \"#utility.yul\":401:464   */\n      swap2\n      pop\n        /* \"#utility.yul\":357:474   */\n      pop\n        /* \"#utility.yul\":152:481   */\n      swap3\n      swap2\n      pop\n      pop\n      jump\t// out\n        /* \"#utility.yul\":487:629   */\n    tag_157:\n        /* \"#utility.yul\":590:622   */\n      tag_159\n        /* \"#utility.yul\":616:621   */\n      dup2\n        /* \"#utility.yul\":590:622   */\n      tag_160\n      jump\t// in\n    tag_159:\n        /* \"#utility.yul\":585:588   */\n      dup3\n        /* \"#utility.yul\":578:623   */\n      mstore\n        /* \"#utility.yul\":487:629   */\n      pop\n      pop\n      jump\t// out\n        /* \"#utility.yul\":635:753   */\n    tag_161:\n        /* \"#utility.yul\":722:746   */\n      tag_163\n        /* \"#utility.yul\":740:745   */\n      dup2\n        /* \"#utility.yul\":722:746   */\n      tag_164\n      jump\t// in\n    tag_163:\n        /* \"#utility.yul\":717:720   */\n      dup3\n        /* \"#utility.yul\":710:747   */\n      mstore\n        /* \"#utility.yul\":635:753   */\n      pop\n      pop\n      jump\t// out\n        /* \"#utility.yul\":759:902   */\n    tag_165:\n        /* \"#utility.yul\":852:895   */\n      tag_167\n        /* \"#utility.yul\":889:894   */\n      dup2\n        /* \"#utility.yul\":852:895   */\n      tag_168\n      jump\t// in\n    tag_167:\n        /* \"#utility.yul\":847:850   */\n      dup3\n        /* \"#utility.yul\":840:896   */\n      mstore\n        /* \"#utility.yul\":759:902   */\n      pop\n      pop\n      jump\t// out\n        /* \"#utility.yul\":908:1272   */\n    tag_169:\n        /* \"#utility.yul\":996:999   */\n      0x00\n        /* \"#utility.yul\":1024:1063   */\n      tag_171\n        /* \"#utility.yul\":1057:1062   */\n      dup3\n        /* \"#utility.yul\":1024:1063   */\n      tag_172\n      jump\t// in\n    tag_171:\n        /* \"#utility.yul\":1079:1150   */\n      tag_173\n        /* \"#utility.yul\":1143:1149   */\n      dup2\n        /* \"#utility.yul\":1138:1141   */\n      dup6\n        /* \"#utility.yul\":1079:1150   */\n      tag_174\n      jump\t// in\n    tag_173:\n        /* \"#utility.yul\":1072:1150   */\n      swap4\n      pop\n        /* \"#utility.yul\":1159:1211   */\n      tag_175\n        /* \"#utility.yul\":1204:1210   */\n      dup2\n        /* \"#utility.yul\":1199:1202   */\n      dup6\n        /* \"#utility.yul\":1192:1196   */\n      0x20\n        /* \"#utility.yul\":1185:1190   */\n      dup7\n        /* \"#utility.yul\":1181:1197   */\n      add\n        /* \"#utility.yul\":1159:1211   */\n      tag_176\n      jump\t// in\n    tag_175:\n        /* \"#utility.yul\":1236:1265   */\n      tag_177\n        /* \"#utility.yul\":1258:1264   */\n      dup2\n        /* \"#utility.yul\":1236:1265   */\n      tag_178\n      jump\t// in\n    tag_177:\n        /* \"#utility.yul\":1231:1234   */\n      dup5\n        /* \"#utility.yul\":1227:1266   */\n      add\n        /* \"#utility.yul\":1220:1266   */\n      swap2\n      pop\n        /* \"#utility.yul\":1000:1272   */\n      pop\n        /* \"#utility.yul\":908:1272   */\n      swap3\n      swap2\n      pop\n      pop\n      jump\t// out\n        /* \"#utility.yul\":1278:1644   */\n    tag_179:\n        /* \"#utility.yul\":1420:1423   */\n      0x00\n        /* \"#utility.yul\":1441:1508   */\n      tag_181\n        /* \"#utility.yul\":1505:1507   */\n      0x23\n        /* \"#utility.yul\":1500:1503   */\n      dup4\n        /* \"#utility.yul\":1441:1508   */\n      tag_174\n      jump\t// in\n    tag_181:\n        /* \"#utility.yul\":1434:1508   */\n      swap2\n      pop\n        /* \"#utility.yul\":1517:1610   */\n      tag_182\n        /* \"#utility.yul\":1606:1609   */\n      dup3\n        /* \"#utility.yul\":1517:1610   */\n      tag_183\n      jump\t// in\n    tag_182:\n        /* \"#utility.yul\":1635:1637   */\n      0x40\n        /* \"#utility.yul\":1630:1633   */\n      dup3\n        /* \"#utility.yul\":1626:1638   */\n      add\n        /* \"#utility.yul\":1619:1638   */\n      swap1\n      pop\n        /* \"#utility.yul\":1278:1644   */\n      swap2\n      swap1\n      pop\n      jump\t// out\n        /* \"#utility.yul\":1650:1768   */\n    tag_184:\n        /* \"#utility.yul\":1737:1761   */\n      tag_186\n        /* \"#utility.yul\":1755:1760   */\n      dup2\n        /* \"#utility.yul\":1737:1761   */\n      tag_187\n      jump\t// in\n    tag_186:\n        /* \"#utility.yul\":1732:1735   */\n      dup3\n        /* \"#utility.yul\":1725:1762   */\n      mstore\n        /* \"#utility.yul\":1650:1768   */\n      pop\n      pop\n      jump\t// out\n        /* \"#utility.yul\":1774:1996   */\n    tag_41:\n        /* \"#utility.yul\":1867:1871   */\n      0x00\n        /* \"#utility.yul\":1905:1907   */\n      0x20\n        /* \"#utility.yul\":1894:1903   */\n      dup3\n        /* \"#utility.yul\":1890:1908   */\n      add\n        /* \"#utility.yul\":1882:1908   */\n      swap1\n      pop\n        /* \"#utility.yul\":1918:1989   */\n      tag_189\n        /* \"#utility.yul\":1986:1987   */\n      0x00\n        /* \"#utility.yul\":1975:1984   */\n      dup4\n        /* \"#utility.yul\":1971:1988   */\n      add\n        /* \"#utility.yul\":1962:1968   */\n      dup5\n        /* \"#utility.yul\":1918:1989   */\n      tag_161\n      jump\t// in\n    tag_189:\n        /* \"#utility.yul\":1774:1996   */\n      swap3\n      swap2\n      pop\n      pop\n      jump\t// out\n        /* \"#utility.yul\":2002:2256   */\n    tag_49:\n        /* \"#utility.yul\":2111:2115   */\n      0x00\n        /* \"#utility.yul\":2149:2151   */\n      0x20\n        /* \"#utility.yul\":2138:2147   */\n      dup3\n        /* \"#utility.yul\":2134:2152   */\n      add\n        /* \"#utility.yul\":2126:2152   */\n      swap1\n      pop\n        /* \"#utility.yul\":2162:2249   */\n      tag_191\n        /* \"#utility.yul\":2246:2247   */\n      0x00\n        /* \"#utility.yul\":2235:2244   */\n      dup4\n        /* \"#utility.yul\":2231:2248   */\n      add\n        /* \"#utility.yul\":2222:2228   */\n      dup5\n        /* \"#utility.yul\":2162:2249   */\n      tag_157\n      jump\t// in\n    tag_191:\n        /* \"#utility.yul\":2002:2256   */\n      swap3\n      swap2\n      pop\n      pop\n      jump\t// out\n        /* \"#utility.yul\":2262:2496   */\n    tag_36:\n        /* \"#utility.yul\":2361:2365   */\n      0x00\n        /* \"#utility.yul\":2399:2401   */\n      0x20\n        /* \"#utility.yul\":2388:2397   */\n      dup3\n        /* \"#utility.yul\":2384:2402   */\n      add\n        /* \"#utility.yul\":2376:2402   */\n      swap1\n      pop\n        /* \"#utility.yul\":2412:2489   */\n      tag_193\n        /* \"#utility.yul\":2486:2487   */\n      0x00\n        /* \"#utility.yul\":2475:2484   */\n      dup4\n        /* \"#utility.yul\":2471:2488   */\n      add\n        /* \"#utility.yul\":2462:2468   */\n      dup5\n        /* \"#utility.yul\":2412:2489   */\n      tag_165\n      jump\t// in\n    tag_193:\n        /* \"#utility.yul\":2262:2496   */\n      swap3\n      swap2\n      pop\n      pop\n      jump\t// out\n        /* \"#utility.yul\":2502:2815   */\n    tag_54:\n        /* \"#utility.yul\":2615:2619   */\n      0x00\n        /* \"#utility.yul\":2653:2655   */\n      0x20\n        /* \"#utility.yul\":2642:2651   */\n      dup3\n        /* \"#utility.yul\":2638:2656   */\n      add\n        /* \"#utility.yul\":2630:2656   */\n      swap1\n      pop\n        /* \"#utility.yul\":2702:2711   */\n      dup2\n        /* \"#utility.yul\":2696:2700   */\n      dup2\n        /* \"#utility.yul\":2692:2712   */\n      sub\n        /* \"#utility.yul\":2688:2689   */\n      0x00\n        /* \"#utility.yul\":2677:2686   */\n      dup4\n        /* \"#utility.yul\":2673:2690   */\n      add\n        /* \"#utility.yul\":2666:2713   */\n      mstore\n        /* \"#utility.yul\":2730:2808   */\n      tag_195\n        /* \"#utility.yul\":2803:2807   */\n      dup2\n        /* \"#utility.yul\":2794:2800   */\n      dup5\n        /* \"#utility.yul\":2730:2808   */\n      tag_169\n      jump\t// in\n    tag_195:\n        /* \"#utility.yul\":2722:2808   */\n      swap1\n      pop\n        /* \"#utility.yul\":2502:2815   */\n      swap3\n      swap2\n      pop\n      pop\n      jump\t// out\n        /* \"#utility.yul\":2821:3240   */\n    tag_96:\n        /* \"#utility.yul\":2987:2991   */\n      0x00\n        /* \"#utility.yul\":3025:3027   */\n      0x20\n        /* \"#utility.yul\":3014:3023   */\n      dup3\n        /* \"#utility.yul\":3010:3028   */\n      add\n        /* \"#utility.yul\":3002:3028   */\n      swap1\n      pop\n        /* \"#utility.yul\":3074:3083   */\n      dup2\n        /* \"#utility.yul\":3068:3072   */\n      dup2\n        /* \"#utility.yul\":3064:3084   */\n      sub\n        /* \"#utility.yul\":3060:3061   */\n      0x00\n        /* \"#utility.yul\":3049:3058   */\n      dup4\n        /* \"#utility.yul\":3045:3062   */\n      add\n        /* \"#utility.yul\":3038:3085   */\n      mstore\n        /* \"#utility.yul\":3102:3233   */\n      tag_197\n        /* \"#utility.yul\":3228:3232   */\n      dup2\n        /* \"#utility.yul\":3102:3233   */\n      tag_179\n      jump\t// in\n    tag_197:\n        /* \"#utility.yul\":3094:3233   */\n      swap1\n      pop\n        /* \"#utility.yul\":2821:3240   */\n      swap2\n      swap1\n      pop\n      jump\t// out\n        /* \"#utility.yul\":3246:3468   */\n    tag_21:\n        /* \"#utility.yul\":3339:3343   */\n      0x00\n        /* \"#utility.yul\":3377:3379   */\n      0x20\n        /* \"#utility.yul\":3366:3375   */\n      dup3\n        /* \"#utility.yul\":3362:3380   */\n      add\n        /* \"#utility.yul\":3354:3380   */\n      swap1\n      pop\n        /* \"#utility.yul\":3390:3461   */\n      tag_199\n        /* \"#utility.yul\":3458:3459   */\n      0x00\n        /* \"#utility.yul\":3447:3456   */\n      dup4\n        /* \"#utility.yul\":3443:3460   */\n      add\n        /* \"#utility.yul\":3434:3440   */\n      dup5\n        /* \"#utility.yul\":3390:3461   */\n      tag_184\n      jump\t// in\n    tag_199:\n        /* \"#utility.yul\":3246:3468   */\n      swap3\n      swap2\n      pop\n      pop\n      jump\t// out\n        /* \"#utility.yul\":3555:3654   */\n    tag_172:\n        /* \"#utility.yul\":3607:3613   */\n      0x00\n        /* \"#utility.yul\":3641:3646   */\n      dup2\n        /* \"#utility.yul\":3635:3647   */\n      mload\n        /* \"#utility.yul\":3625:3647   */\n      swap1\n      pop\n        /* \"#utility.yul\":3555:3654   */\n      swap2\n      swap1\n      pop\n      jump\t// out\n        /* \"#utility.yul\":3660:3829   */\n    tag_174:\n        /* \"#utility.yul\":3744:3755   */\n      0x00\n        /* \"#utility.yul\":3778:3784   */\n      dup3\n        /* \"#utility.yul\":3773:3776   */\n      dup3\n        /* \"#utility.yul\":3766:3785   */\n      mstore\n        /* \"#utility.yul\":3818:3822   */\n      0x20\n        /* \"#utility.yul\":3813:3816   */\n      dup3\n        /* \"#utility.yul\":3809:3823   */\n      add\n        /* \"#utility.yul\":3794:3823   */\n      swap1\n      pop\n        /* \"#utility.yul\":3660:3829   */\n      swap3\n      swap2\n      pop\n      pop\n      jump\t// out\n        /* \"#utility.yul\":3835:4140   */\n    tag_99:\n        /* \"#utility.yul\":3875:3878   */\n      0x00\n        /* \"#utility.yul\":3894:3914   */\n      tag_205\n        /* \"#utility.yul\":3912:3913   */\n      dup3\n        /* \"#utility.yul\":3894:3914   */\n      tag_187\n      jump\t// in\n    tag_205:\n        /* \"#utility.yul\":3889:3914   */\n      swap2\n      pop\n        /* \"#utility.yul\":3928:3948   */\n      tag_206\n        /* \"#utility.yul\":3946:3947   */\n      dup4\n        /* \"#utility.yul\":3928:3948   */\n      tag_187\n      jump\t// in\n    tag_206:\n        /* \"#utility.yul\":3923:3948   */\n      swap3\n      pop\n        /* \"#utility.yul\":4082:4083   */\n      dup3\n        /* \"#utility.yul\":4014:4080   */\n      0xffffffffffffffffffffffffffffffffffffffffffffffffffffffffffffffff\n        /* \"#utility.yul\":4010:4084   */\n      sub\n        /* \"#utility.yul\":4007:4008   */\n      dup3\n        /* \"#utility.yul\":4004:4085   */\n      gt\n        /* \"#utility.yul\":4001:4108   */\n      iszero\n      tag_207\n      jumpi\n        /* \"#utility.yul\":4088:4106   */\n      tag_208\n      tag_209\n      jump\t// in\n    tag_208:\n        /* \"#utility.yul\":4001:4108   */\n    tag_207:\n        /* \"#utility.yul\":4132:4133   */\n      dup3\n        /* \"#utility.yul\":4129:4130   */\n      dup3\n        /* \"#utility.yul\":4125:4134   */\n      add\n        /* \"#utility.yul\":4118:4134   */\n      swap1\n      pop\n        /* \"#utility.yul\":3835:4140   */\n      swap3\n      swap2\n      pop\n      pop\n      jump\t// out\n        /* \"#utility.yul\":4146:4337   */\n    tag_130:\n        /* \"#utility.yul\":4186:4190   */\n      0x00\n        /* \"#utility.yul\":4206:4226   */\n      tag_211\n        /* \"#utility.yul\":4224:4225   */\n      dup3\n        /* \"#utility.yul\":4206:4226   */\n      tag_187\n      jump\t// in\n    tag_211:\n        /* \"#utility.yul\":4201:4226   */\n      swap2\n      pop\n        /* \"#utility.yul\":4240:4260   */\n      tag_212\n        /* \"#utility.yul\":4258:4259   */\n      dup4\n        /* \"#utility.yul\":4240:4260   */\n      tag_187\n      jump\t// in\n    tag_212:\n        /* \"#utility.yul\":4235:4260   */\n      swap3\n      pop\n        /* \"#utility.yul\":4279:4280   */\n      dup3\n        /* \"#utility.yul\":4276:4277   */\n      dup3\n        /* \"#utility.yul\":4273:4281   */\n      lt\n        /* \"#utility.yul\":4270:4304   */\n      iszero\n      tag_213\n      jumpi\n        /* \"#utility.yul\":4284:4302   */\n      tag_214\n      tag_209\n      jump\t// in\n    tag_214:\n        /* \"#utility.yul\":4270:4304   */\n    tag_213:\n        /* \"#utility.yul\":4329:4330   */\n      dup3\n        /* \"#utility.yul\":4326:4327   */\n      dup3\n        /* \"#utility.yul\":4322:4331   */\n      sub\n        /* \"#utility.yul\":4314:4331   */\n      swap1\n      pop\n        /* \"#utility.yul\":4146:4337   */\n      swap3\n      swap2\n      pop\n      pop\n      jump\t// out\n        /* \"#utility.yul\":4343:4439   */\n    tag_164:\n        /* \"#utility.yul\":4380:4387   */\n      0x00\n        /* \"#utility.yul\":4409:4433   */\n      tag_216\n        /* \"#utility.yul\":4427:4432   */\n      dup3\n        /* \"#utility.yul\":4409:4433   */\n      tag_217\n      jump\t// in\n    tag_216:\n        /* \"#utility.yul\":4398:4433   */\n      swap1\n      pop\n        /* \"#utility.yul\":4343:4439   */\n      swap2\n      swap1\n      pop\n      jump\t// out\n        /* \"#utility.yul\":4445:4549   */\n    tag_160:\n        /* \"#utility.yul\":4490:4497   */\n      0x00\n        /* \"#utility.yul\":4519:4543   */\n      tag_219\n        /* \"#utility.yul\":4537:4542   */\n      dup3\n        /* \"#utility.yul\":4519:4543   */\n      tag_217\n      jump\t// in\n    tag_219:\n        /* \"#utility.yul\":4508:4543   */\n      swap1\n      pop\n        /* \"#utility.yul\":4445:4549   */\n      swap2\n      swap1\n      pop\n      jump\t// out\n        /* \"#utility.yul\":4555:4682   */\n    tag_220:\n        /* \"#utility.yul\":4600:4607   */\n      0x00\n        /* \"#utility.yul\":4629:4634   */\n      dup2\n        /* \"#utility.yul\":4618:4634   */\n      swap1\n      pop\n        /* \"#utility.yul\":4635:4676   */\n      tag_222\n        /* \"#utility.yul\":4670:4675   */\n      dup3\n        /* \"#utility.yul\":4635:4676   */\n      tag_223\n      jump\t// in\n    tag_222:\n        /* \"#utility.yul\":4555:4682   */\n      swap2\n      swap1\n      pop\n      jump\t// out\n        /* \"#utility.yul\":4688:4814   */\n    tag_217:\n        /* \"#utility.yul\":4725:4732   */\n      0x00\n        /* \"#utility.yul\":4765:4807   */\n      0xffffffffffffffffffffffffffffffffffffffff\n        /* \"#utility.yul\":4758:4763   */\n      dup3\n        /* \"#utility.yul\":4754:4808   */\n      and\n        /* \"#utility.yul\":4743:4808   */\n      swap1\n      pop\n        /* \"#utility.yul\":4688:4814   */\n      swap2\n      swap1\n      pop\n      jump\t// out\n        /* \"#utility.yul\":4820:4897   */\n    tag_187:\n        /* \"#utility.yul\":4857:4864   */\n      0x00\n        /* \"#utility.yul\":4886:4891   */\n      dup2\n        /* \"#utility.yul\":4875:4891   */\n      swap1\n      pop\n        /* \"#utility.yul\":4820:4897   */\n      swap2\n      swap1\n      pop\n      jump\t// out\n        /* \"#utility.yul\":4903:5030   */\n    tag_168:\n        /* \"#utility.yul\":4959:4968   */\n      0x00\n        /* \"#utility.yul\":4992:5024   */\n      tag_227\n        /* \"#utility.yul\":5018:5023   */\n      dup3\n        /* \"#utility.yul\":4992:5024   */\n      tag_220\n      jump\t// in\n    tag_227:\n        /* \"#utility.yul\":4979:5024   */\n      swap1\n      pop\n        /* \"#utility.yul\":4903:5030   */\n      swap2\n      swap1\n      pop\n      jump\t// out\n        /* \"#utility.yul\":5036:5343   */\n    tag_176:\n        /* \"#utility.yul\":5104:5105   */\n      0x00\n        /* \"#utility.yul\":5114:5227   */\n    tag_229:\n        /* \"#utility.yul\":5128:5134   */\n      dup4\n        /* \"#utility.yul\":5125:5126   */\n      dup2\n        /* \"#utility.yul\":5122:5135   */\n      lt\n        /* \"#utility.yul\":5114:5227   */\n      iszero\n      tag_231\n      jumpi\n        /* \"#utility.yul\":5213:5214   */\n      dup1\n        /* \"#utility.yul\":5208:5211   */\n      dup3\n        /* \"#utility.yul\":5204:5215   */\n      add\n        /* \"#utility.yul\":5198:5216   */\n      mload\n        /* \"#utility.yul\":5194:5195   */\n      dup2\n        /* \"#utility.yul\":5189:5192   */\n      dup5\n        /* \"#utility.yul\":5185:5196   */\n      add\n        /* \"#utility.yul\":5178:5217   */\n      mstore\n        /* \"#utility.yul\":5150:5152   */\n      0x20\n        /* \"#utility.yul\":5147:5148   */\n      dup2\n        /* \"#utility.yul\":5143:5153   */\n      add\n        /* \"#utility.yul\":5138:5153   */\n      swap1\n      pop\n        /* \"#utility.yul\":5114:5227   */\n      jump(tag_229)\n    tag_231:\n        /* \"#utility.yul\":5245:5251   */\n      dup4\n        /* \"#utility.yul\":5242:5243   */\n      dup2\n        /* \"#utility.yul\":5239:5252   */\n      gt\n        /* \"#utility.yul\":5236:5337   */\n      iszero\n      tag_232\n      jumpi\n        /* \"#utility.yul\":5325:5326   */\n      0x00\n        /* \"#utility.yul\":5316:5322   */\n      dup5\n        /* \"#utility.yul\":5311:5314   */\n      dup5\n        /* \"#utility.yul\":5307:5323   */\n      add\n        /* \"#utility.yul\":5300:5327   */\n      mstore\n        /* \"#utility.yul\":5236:5337   */\n    tag_232:\n        /* \"#utility.yul\":5085:5343   */\n      pop\n        /* \"#utility.yul\":5036:5343   */\n      pop\n      pop\n      pop\n      jump\t// out\n        /* \"#utility.yul\":5349:5669   */\n    tag_78:\n        /* \"#utility.yul\":5393:5399   */\n      0x00\n        /* \"#utility.yul\":5430:5431   */\n      0x02\n        /* \"#utility.yul\":5424:5428   */\n      dup3\n        /* \"#utility.yul\":5420:5432   */\n      div\n        /* \"#utility.yul\":5410:5432   */\n      swap1\n      pop\n        /* \"#utility.yul\":5477:5478   */\n      0x01\n        /* \"#utility.yul\":5471:5475   */\n      dup3\n        /* \"#utility.yul\":5467:5479   */\n      and\n        /* \"#utility.yul\":5498:5516   */\n      dup1\n        /* \"#utility.yul\":5488:5569   */\n      tag_234\n      jumpi\n        /* \"#utility.yul\":5554:5558   */\n      0x7f\n        /* \"#utility.yul\":5546:5552   */\n      dup3\n        /* \"#utility.yul\":5542:5559   */\n      and\n        /* \"#utility.yul\":5532:5559   */\n      swap2\n      pop\n        /* \"#utility.yul\":5488:5569   */\n    tag_234:\n        /* \"#utility.yul\":5616:5618   */\n      0x20\n        /* \"#utility.yul\":5608:5614   */\n      dup3\n        /* \"#utility.yul\":5605:5619   */\n      lt\n        /* \"#utility.yul\":5585:5603   */\n      dup2\n        /* \"#utility.yul\":5582:5620   */\n      eq\n        /* \"#utility.yul\":5579:5663   */\n      iszero\n      tag_235\n      jumpi\n        /* \"#utility.yul\":5635:5653   */\n      tag_236\n      tag_237\n      jump\t// in\n    tag_236:\n        /* \"#utility.yul\":5579:5663   */\n    tag_235:\n        /* \"#utility.yul\":5400:5669   */\n      pop\n        /* \"#utility.yul\":5349:5669   */\n      swap2\n      swap1\n      pop\n      jump\t// out\n        /* \"#utility.yul\":5675:5855   */\n    tag_209:\n        /* \"#utility.yul\":5723:5800   */\n      0x4e487b7100000000000000000000000000000000000000000000000000000000\n        /* \"#utility.yul\":5720:5721   */\n      0x00\n        /* \"#utility.yul\":5713:5801   */\n      mstore\n        /* \"#utility.yul\":5820:5824   */\n      0x11\n        /* \"#utility.yul\":5817:5818   */\n      0x04\n        /* \"#utility.yul\":5810:5825   */\n      mstore\n        /* \"#utility.yul\":5844:5848   */\n      0x24\n        /* \"#utility.yul\":5841:5842   */\n      0x00\n        /* \"#utility.yul\":5834:5849   */\n      revert\n        /* \"#utility.yul\":5861:6041   */\n    tag_76:\n        /* \"#utility.yul\":5909:5986   */\n      0x4e487b7100000000000000000000000000000000000000000000000000000000\n        /* \"#utility.yul\":5906:5907   */\n      0x00\n        /* \"#utility.yul\":5899:5987   */\n      mstore\n        /* \"#utility.yul\":6006:6010   */\n      0x21\n        /* \"#utility.yul\":6003:6004   */\n      0x04\n        /* \"#utility.yul\":5996:6011   */\n      mstore\n        /* \"#utility.yul\":6030:6034   */\n      0x24\n        /* \"#utility.yul\":6027:6028   */\n      0x00\n        /* \"#utility.yul\":6020:6035   */\n      revert\n        /* \"#utility.yul\":6047:6227   */\n    tag_237:\n        /* \"#utility.yul\":6095:6172   */\n      0x4e487b7100000000000000000000000000000000000000000000000000000000\n        /* \"#utility.yul\":6092:6093   */\n      0x00\n        /* \"#utility.yul\":6085:6173   */\n      mstore\n        /* \"#utility.yul\":6192:6196   */\n      0x22\n        /* \"#utility.yul\":6189:6190   */\n      0x04\n        /* \"#utility.yul\":6182:6197   */\n      mstore\n        /* \"#utility.yul\":6216:6220   */\n      0x24\n        /* \"#utility.yul\":6213:6214   */\n      0x00\n        /* \"#utility.yul\":6206:6221   */\n      revert\n        /* \"#utility.yul\":6356:6473   */\n    tag_155:\n        /* \"#utility.yul\":6465:6466   */\n      0x00\n        /* \"#utility.yul\":6462:6463   */\n      dup1\n        /* \"#utility.yul\":6455:6467   */\n      revert\n        /* \"#utility.yul\":6479:6581   */\n    tag_178:\n        /* \"#utility.yul\":6520:6526   */\n      0x00\n        /* \"#utility.yul\":6571:6573   */\n      0x1f\n        /* \"#utility.yul\":6567:6574   */\n      not\n        /* \"#utility.yul\":6562:6564   */\n      0x1f\n        /* \"#utility.yul\":6555:6560   */\n      dup4\n        /* \"#utility.yul\":6551:6565   */\n      add\n        /* \"#utility.yul\":6547:6575   */\n      and\n        /* \"#utility.yul\":6537:6575   */\n      swap1\n      pop\n        /* \"#utility.yul\":6479:6581   */\n      swap2\n      swap1\n      pop\n      jump\t// out\n        /* \"#utility.yul\":6587:6809   */\n    tag_183:\n        /* \"#utility.yul\":6727:6761   */\n      0x506c65617365207761697420756e74696c207468652061756374696f6e207374\n        /* \"#utility.yul\":6723:6724   */\n      0x00\n        /* \"#utility.yul\":6715:6721   */\n      dup3\n        /* \"#utility.yul\":6711:6725   */\n      add\n        /* \"#utility.yul\":6704:6762   */\n      mstore\n        /* \"#utility.yul\":6796:6801   */\n      0x6172740000000000000000000000000000000000000000000000000000000000\n        /* \"#utility.yul\":6791:6793   */\n      0x20\n        /* \"#utility.yul\":6783:6789   */\n      dup3\n        /* \"#utility.yul\":6779:6794   */\n      add\n        /* \"#utility.yul\":6772:6802   */\n      mstore\n        /* \"#utility.yul\":6587:6809   */\n      pop\n      jump\t// out\n        /* \"#utility.yul\":6815:6928   */\n    tag_223:\n        /* \"#utility.yul\":6896:6897   */\n      0x04\n        /* \"#utility.yul\":6889:6894   */\n      dup2\n        /* \"#utility.yul\":6886:6898   */\n      lt\n        /* \"#utility.yul\":6876:6922   */\n      tag_247\n      jumpi\n        /* \"#utility.yul\":6902:6920   */\n      tag_248\n      tag_76\n      jump\t// in\n    tag_248:\n        /* \"#utility.yul\":6876:6922   */\n    tag_247:\n        /* \"#utility.yul\":6815:6928   */\n      pop\n      jump\t// out\n        /* \"#utility.yul\":6934:7056   */\n    tag_151:\n        /* \"#utility.yul\":7007:7031   */\n      tag_250\n        /* \"#utility.yul\":7025:7030   */\n      dup2\n        /* \"#utility.yul\":7007:7031   */\n      tag_164\n      jump\t// in\n    tag_250:\n        /* \"#utility.yul\":7000:7005   */\n      dup2\n        /* \"#utility.yul\":6997:7032   */\n      eq\n        /* \"#utility.yul\":6987:7050   */\n      tag_251\n      jumpi\n        /* \"#utility.yul\":7046:7047   */\n      0x00\n        /* \"#utility.yul\":7043:7044   */\n      dup1\n        /* \"#utility.yul\":7036:7048   */\n      revert\n        /* \"#utility.yul\":6987:7050   */\n    tag_251:\n        /* \"#utility.yul\":6934:7056   */\n      pop\n      jump\t// out\n\n    auxdata: 0xa2646970667358221220c49ed00ab10583b3ed21204b6775fea21ab40226cd4c646dcb2172d930dbe86064736f6c63430008070033\n}\n",
				"bytecode": {
					"linkReferences": {},
					"object": "60806040523480156200001157600080fd5b50604051620013bc380380620013bc8339818101604052810190620000379190620001f6565b336000806101000a81548173ffffffffffffffffffffffffffffffffffffffff021916908373ffffffffffffffffffffffffffffffffffffffff1602179055506000600560006101000a81548160ff02191690836003811115620000a0576200009f6200031e565b5b02179055504360018190555082600154620000bc919062000252565b6002819055506001600560006101000a81548160ff02191690836003811115620000eb57620000ea6200031e565b5b02179055506040518060200160405280600081525060049080519060200190620001179291906200012f565b5081600981905550806003819055505050506200039b565b8280546200013d90620002b9565b90600052602060002090601f016020900481019282620001615760008555620001ad565b82601f106200017c57805160ff1916838001178555620001ad565b82800160010185558215620001ad579182015b82811115620001ac5782518255916020019190600101906200018f565b5b509050620001bc9190620001c0565b5090565b5b80821115620001db576000816000905550600101620001c1565b5090565b600081519050620001f08162000381565b92915050565b6000806000606084860312156200021257620002116200037c565b5b60006200022286828701620001df565b93505060206200023586828701620001df565b92505060406200024886828701620001df565b9150509250925092565b60006200025f82620002af565b91506200026c83620002af565b9250827fffffffffffffffffffffffffffffffffffffffffffffffffffffffffffffffff03821115620002a457620002a3620002ef565b5b828201905092915050565b6000819050919050565b60006002820490506001821680620002d257607f821691505b60208210811415620002e957620002e86200034d565b5b50919050565b7f4e487b7100000000000000000000000000000000000000000000000000000000600052601160045260246000fd5b7f4e487b7100000000000000000000000000000000000000000000000000000000600052602160045260246000fd5b7f4e487b7100000000000000000000000000000000000000000000000000000000600052602260045260246000fd5b600080fd5b6200038c81620002af565b81146200039857600080fd5b50565b61101180620003ab6000396000f3fe6080604052600436106100c25760003560e01c806391f901571161007f578063ecfc7ecc11610059578063ecfc7ecc14610248578063f5b56c5614610252578063f77282ab1461027d578063fc8c311414610294576100c2565b806391f90157146101c7578063c623674f146101f2578063d5f841891461021d576100c2565b8063083c6323146100c757806348cd4cb1146100f257806362ea82db1461011d5780637fb450991461015a5780638da5cb5b146101855780638fa8b790146101b0575b600080fd5b3480156100d357600080fd5b506100dc6102ab565b6040516100e99190610d25565b60405180910390f35b3480156100fe57600080fd5b506101076102b1565b6040516101149190610d25565b60405180910390f35b34801561012957600080fd5b50610144600480360381019061013f9190610bcd565b6102b7565b6040516101519190610d25565b60405180910390f35b34801561016657600080fd5b5061016f6102cf565b60405161017c9190610cc8565b60405180910390f35b34801561019157600080fd5b5061019a6102e2565b6040516101a79190610c92565b60405180910390f35b3480156101bc57600080fd5b506101c5610306565b005b3480156101d357600080fd5b506101dc61038b565b6040516101e99190610cad565b60405180910390f35b3480156101fe57600080fd5b506102076103b1565b6040516102149190610ce3565b60405180910390f35b34801561022957600080fd5b5061023261043f565b60405161023f9190610d25565b60405180910390f35b610250610445565b005b34801561025e57600080fd5b50610267610791565b6040516102749190610d25565b60405180910390f35b34801561028957600080fd5b50610292610797565b005b3480156102a057600080fd5b506102a9610aa9565b005b60025481565b60015481565b60086020528060005260406000206000915090505481565b600560009054906101000a900460ff1681565b60008054906101000a900473ffffffffffffffffffffffffffffffffffffffff1681565b60008054906101000a900473ffffffffffffffffffffffffffffffffffffffff1673ffffffffffffffffffffffffffffffffffffffff163373ffffffffffffffffffffffffffffffffffffffff161461035e57600080fd5b6003600560006101000a81548160ff0219169083600381111561038457610383610eed565b5b0217905550565b600760009054906101000a900473ffffffffffffffffffffffffffffffffffffffff1681565b600480546103be90610e8c565b80601f01602080910402602001604051908101604052809291908181526020018280546103ea90610e8c565b80156104375780601f1061040c57610100808354040283529160200191610437565b820191906000526020600020905b81548152906001019060200180831161041a57829003601f168201915b505050505081565b60035481565b60008054906101000a900473ffffffffffffffffffffffffffffffffffffffff1673ffffffffffffffffffffffffffffffffffffffff163373ffffffffffffffffffffffffffffffffffffffff16141561049e57600080fd5b6001544310156104ad57600080fd5b6002544311156104bc57600080fd5b600160038111156104d0576104cf610eed565b5b600560009054906101000a900460ff1660038111156104f2576104f1610eed565b5b14610532576040517f08c379a000000000000000000000000000000000000000000000000000000000815260040161052990610d05565b60405180910390fd5b60035434101561054157600080fd5b600034600860003373ffffffffffffffffffffffffffffffffffffffff1673ffffffffffffffffffffffffffffffffffffffff1681526020019081526020016000205461058e9190610d5c565b905060065481101561059f57600080fd5b80600860003373ffffffffffffffffffffffffffffffffffffffff1673ffffffffffffffffffffffffffffffffffffffff1681526020019081526020016000208190555060086000600760009054906101000a900473ffffffffffffffffffffffffffffffffffffffff1673ffffffffffffffffffffffffffffffffffffffff1673ffffffffffffffffffffffffffffffffffffffff1681526020019081526020016000205481116106ce576106c36009548261065c9190610d5c565b60086000600760009054906101000a900473ffffffffffffffffffffffffffffffffffffffff1673ffffffffffffffffffffffffffffffffffffffff1673ffffffffffffffffffffffffffffffffffffffff16815260200190815260200160002054610b44565b60068190555061078e565b6107468160095460086000600760009054906101000a900473ffffffffffffffffffffffffffffffffffffffff1673ffffffffffffffffffffffffffffffffffffffff1673ffffffffffffffffffffffffffffffffffffffff168152602001908152602001600020546107419190610d5c565b610b44565b60068190555033600760006101000a81548173ffffffffffffffffffffffffffffffffffffffff021916908373ffffffffffffffffffffffffffffffffffffffff1602179055505b50565b60065481565b6003808111156107aa576107a9610eed565b5b600560009054906101000a900460ff1660038111156107cc576107cb610eed565b5b14806107da57506002544310155b6107e357600080fd5b6107ec33610b5f565b8061083657506000600860003373ffffffffffffffffffffffffffffffffffffffff1673ffffffffffffffffffffffffffffffffffffffff16815260200190815260200160002054115b61083f57600080fd5b60008060038081111561085557610854610eed565b5b600560009054906101000a900460ff16600381111561087757610876610eed565b5b14156108c757339150600860003373ffffffffffffffffffffffffffffffffffffffff1673ffffffffffffffffffffffffffffffffffffffff168152602001908152602001600020549050610a19565b6108d033610b5f565b156109025760008054906101000a900473ffffffffffffffffffffffffffffffffffffffff1691506006549050610a18565b600760009054906101000a900473ffffffffffffffffffffffffffffffffffffffff1673ffffffffffffffffffffffffffffffffffffffff163373ffffffffffffffffffffffffffffffffffffffff1614156109d157600760009054906101000a900473ffffffffffffffffffffffffffffffffffffffff169150600654600860003373ffffffffffffffffffffffffffffffffffffffff1673ffffffffffffffffffffffffffffffffffffffff168152602001908152602001600020546109ca9190610db2565b9050610a17565b339150600860003373ffffffffffffffffffffffffffffffffffffffff1673ffffffffffffffffffffffffffffffffffffffff1681526020019081526020016000205490505b5b5b6000600860008473ffffffffffffffffffffffffffffffffffffffff1673ffffffffffffffffffffffffffffffffffffffff168152602001908152602001600020819055508173ffffffffffffffffffffffffffffffffffffffff166108fc829081150290604051600060405180830381858888f19350505050158015610aa4573d6000803e3d6000fd5b505050565b60008054906101000a900473ffffffffffffffffffffffffffffffffffffffff1673ffffffffffffffffffffffffffffffffffffffff163373ffffffffffffffffffffffffffffffffffffffff1614610b0157600080fd5b60016003811115610b1557610b14610eed565b5b600560009054906101000a900460ff166003811115610b3757610b36610eed565b5b1415610b4257600080fd5b565b6000818311610b5557829050610b59565b8190505b92915050565b60008060009054906101000a900473ffffffffffffffffffffffffffffffffffffffff1673ffffffffffffffffffffffffffffffffffffffff168273ffffffffffffffffffffffffffffffffffffffff16149050919050565b600081359050610bc781610fc4565b92915050565b600060208284031215610be357610be2610f4b565b5b6000610bf184828501610bb8565b91505092915050565b610c0381610df8565b82525050565b610c1281610de6565b82525050565b610c2181610e47565b82525050565b6000610c3282610d40565b610c3c8185610d4b565b9350610c4c818560208601610e59565b610c5581610f50565b840191505092915050565b6000610c6d602383610d4b565b9150610c7882610f61565b604082019050919050565b610c8c81610e3d565b82525050565b6000602082019050610ca76000830184610c09565b92915050565b6000602082019050610cc26000830184610bfa565b92915050565b6000602082019050610cdd6000830184610c18565b92915050565b60006020820190508181036000830152610cfd8184610c27565b905092915050565b60006020820190508181036000830152610d1e81610c60565b9050919050565b6000602082019050610d3a6000830184610c83565b92915050565b600081519050919050565b600082825260208201905092915050565b6000610d6782610e3d565b9150610d7283610e3d565b9250827fffffffffffffffffffffffffffffffffffffffffffffffffffffffffffffffff03821115610da757610da6610ebe565b5b828201905092915050565b6000610dbd82610e3d565b9150610dc883610e3d565b925082821015610ddb57610dda610ebe565b5b828203905092915050565b6000610df182610e1d565b9050919050565b6000610e0382610e1d565b9050919050565b6000819050610e1882610fb0565b919050565b600073ffffffffffffffffffffffffffffffffffffffff82169050919050565b6000819050919050565b6000610e5282610e0a565b9050919050565b60005b83811015610e77578082015181840152602081019050610e5c565b83811115610e86576000848401525b50505050565b60006002820490506001821680610ea457607f821691505b60208210811415610eb857610eb7610f1c565b5b50919050565b7f4e487b7100000000000000000000000000000000000000000000000000000000600052601160045260246000fd5b7f4e487b7100000000000000000000000000000000000000000000000000000000600052602160045260246000fd5b7f4e487b7100000000000000000000000000000000000000000000000000000000600052602260045260246000fd5b600080fd5b6000601f19601f8301169050919050565b7f506c65617365207761697420756e74696c207468652061756374696f6e20737460008201527f6172740000000000000000000000000000000000000000000000000000000000602082015250565b60048110610fc157610fc0610eed565b5b50565b610fcd81610de6565b8114610fd857600080fd5b5056fea2646970667358221220c49ed00ab10583b3ed21204b6775fea21ab40226cd4c646dcb2172d930dbe86064736f6c63430008070033",
					"opcodes": "PUSH1 0x80 PUSH1 0x40 MSTORE CALLVALUE DUP1 ISZERO PUSH3 0x11 JUMPI PUSH1 0x0 DUP1 REVERT JUMPDEST POP PUSH1 0x40 MLOAD PUSH3 0x13BC CODESIZE SUB DUP1 PUSH3 0x13BC DUP4 CODECOPY DUP2 DUP2 ADD PUSH1 0x40 MSTORE DUP2 ADD SWAP1 PUSH3 0x37 SWAP2 SWAP1 PUSH3 0x1F6 JUMP JUMPDEST CALLER PUSH1 0x0 DUP1 PUSH2 0x100 EXP DUP2 SLOAD DUP2 PUSH20 0xFFFFFFFFFFFFFFFFFFFFFFFFFFFFFFFFFFFFFFFF MUL NOT AND SWAP1 DUP4 PUSH20 0xFFFFFFFFFFFFFFFFFFFFFFFFFFFFFFFFFFFFFFFF AND MUL OR SWAP1 SSTORE POP PUSH1 0x0 PUSH1 0x5 PUSH1 0x0 PUSH2 0x100 EXP DUP2 SLOAD DUP2 PUSH1 0xFF MUL NOT AND SWAP1 DUP4 PUSH1 0x3 DUP2 GT ISZERO PUSH3 0xA0 JUMPI PUSH3 0x9F PUSH3 0x31E JUMP JUMPDEST JUMPDEST MUL OR SWAP1 SSTORE POP NUMBER PUSH1 0x1 DUP2 SWAP1 SSTORE POP DUP3 PUSH1 0x1 SLOAD PUSH3 0xBC SWAP2 SWAP1 PUSH3 0x252 JUMP JUMPDEST PUSH1 0x2 DUP2 SWAP1 SSTORE POP PUSH1 0x1 PUSH1 0x5 PUSH1 0x0 PUSH2 0x100 EXP DUP2 SLOAD DUP2 PUSH1 0xFF MUL NOT AND SWAP1 DUP4 PUSH1 0x3 DUP2 GT ISZERO PUSH3 0xEB JUMPI PUSH3 0xEA PUSH3 0x31E JUMP JUMPDEST JUMPDEST MUL OR SWAP1 SSTORE POP PUSH1 0x40 MLOAD DUP1 PUSH1 0x20 ADD PUSH1 0x40 MSTORE DUP1 PUSH1 0x0 DUP2 MSTORE POP PUSH1 0x4 SWAP1 DUP1 MLOAD SWAP1 PUSH1 0x20 ADD SWAP1 PUSH3 0x117 SWAP3 SWAP2 SWAP1 PUSH3 0x12F JUMP JUMPDEST POP DUP2 PUSH1 0x9 DUP2 SWAP1 SSTORE POP DUP1 PUSH1 0x3 DUP2 SWAP1 SSTORE POP POP POP POP PUSH3 0x39B JUMP JUMPDEST DUP3 DUP1 SLOAD PUSH3 0x13D SWAP1 PUSH3 0x2B9 JUMP JUMPDEST SWAP1 PUSH1 0x0 MSTORE PUSH1 0x20 PUSH1 0x0 KECCAK256 SWAP1 PUSH1 0x1F ADD PUSH1 0x20 SWAP1 DIV DUP2 ADD SWAP3 DUP3 PUSH3 0x161 JUMPI PUSH1 0x0 DUP6 SSTORE PUSH3 0x1AD JUMP JUMPDEST DUP3 PUSH1 0x1F LT PUSH3 0x17C JUMPI DUP1 MLOAD PUSH1 0xFF NOT AND DUP4 DUP1 ADD OR DUP6 SSTORE PUSH3 0x1AD JUMP JUMPDEST DUP3 DUP1 ADD PUSH1 0x1 ADD DUP6 SSTORE DUP3 ISZERO PUSH3 0x1AD JUMPI SWAP2 DUP3 ADD JUMPDEST DUP3 DUP2 GT ISZERO PUSH3 0x1AC JUMPI DUP3 MLOAD DUP3 SSTORE SWAP2 PUSH1 0x20 ADD SWAP2 SWAP1 PUSH1 0x1 ADD SWAP1 PUSH3 0x18F JUMP JUMPDEST JUMPDEST POP SWAP1 POP PUSH3 0x1BC SWAP2 SWAP1 PUSH3 0x1C0 JUMP JUMPDEST POP SWAP1 JUMP JUMPDEST JUMPDEST DUP1 DUP3 GT ISZERO PUSH3 0x1DB JUMPI PUSH1 0x0 DUP2 PUSH1 0x0 SWAP1 SSTORE POP PUSH1 0x1 ADD PUSH3 0x1C1 JUMP JUMPDEST POP SWAP1 JUMP JUMPDEST PUSH1 0x0 DUP2 MLOAD SWAP1 POP PUSH3 0x1F0 DUP2 PUSH3 0x381 JUMP JUMPDEST SWAP3 SWAP2 POP POP JUMP JUMPDEST PUSH1 0x0 DUP1 PUSH1 0x0 PUSH1 0x60 DUP5 DUP7 SUB SLT ISZERO PUSH3 0x212 JUMPI PUSH3 0x211 PUSH3 0x37C JUMP JUMPDEST JUMPDEST PUSH1 0x0 PUSH3 0x222 DUP7 DUP3 DUP8 ADD PUSH3 0x1DF JUMP JUMPDEST SWAP4 POP POP PUSH1 0x20 PUSH3 0x235 DUP7 DUP3 DUP8 ADD PUSH3 0x1DF JUMP JUMPDEST SWAP3 POP POP PUSH1 0x40 PUSH3 0x248 DUP7 DUP3 DUP8 ADD PUSH3 0x1DF JUMP JUMPDEST SWAP2 POP POP SWAP3 POP SWAP3 POP SWAP3 JUMP JUMPDEST PUSH1 0x0 PUSH3 0x25F DUP3 PUSH3 0x2AF JUMP JUMPDEST SWAP2 POP PUSH3 0x26C DUP4 PUSH3 0x2AF JUMP JUMPDEST SWAP3 POP DUP3 PUSH32 0xFFFFFFFFFFFFFFFFFFFFFFFFFFFFFFFFFFFFFFFFFFFFFFFFFFFFFFFFFFFFFFFF SUB DUP3 GT ISZERO PUSH3 0x2A4 JUMPI PUSH3 0x2A3 PUSH3 0x2EF JUMP JUMPDEST JUMPDEST DUP3 DUP3 ADD SWAP1 POP SWAP3 SWAP2 POP POP JUMP JUMPDEST PUSH1 0x0 DUP2 SWAP1 POP SWAP2 SWAP1 POP JUMP JUMPDEST PUSH1 0x0 PUSH1 0x2 DUP3 DIV SWAP1 POP PUSH1 0x1 DUP3 AND DUP1 PUSH3 0x2D2 JUMPI PUSH1 0x7F DUP3 AND SWAP2 POP JUMPDEST PUSH1 0x20 DUP3 LT DUP2 EQ ISZERO PUSH3 0x2E9 JUMPI PUSH3 0x2E8 PUSH3 0x34D JUMP JUMPDEST JUMPDEST POP SWAP2 SWAP1 POP JUMP JUMPDEST PUSH32 0x4E487B7100000000000000000000000000000000000000000000000000000000 PUSH1 0x0 MSTORE PUSH1 0x11 PUSH1 0x4 MSTORE PUSH1 0x24 PUSH1 0x0 REVERT JUMPDEST PUSH32 0x4E487B7100000000000000000000000000000000000000000000000000000000 PUSH1 0x0 MSTORE PUSH1 0x21 PUSH1 0x4 MSTORE PUSH1 0x24 PUSH1 0x0 REVERT JUMPDEST PUSH32 0x4E487B7100000000000000000000000000000000000000000000000000000000 PUSH1 0x0 MSTORE PUSH1 0x22 PUSH1 0x4 MSTORE PUSH1 0x24 PUSH1 0x0 REVERT JUMPDEST PUSH1 0x0 DUP1 REVERT JUMPDEST PUSH3 0x38C DUP2 PUSH3 0x2AF JUMP JUMPDEST DUP2 EQ PUSH3 0x398 JUMPI PUSH1 0x0 DUP1 REVERT JUMPDEST POP JUMP JUMPDEST PUSH2 0x1011 DUP1 PUSH3 0x3AB PUSH1 0x0 CODECOPY PUSH1 0x0 RETURN INVALID PUSH1 0x80 PUSH1 0x40 MSTORE PUSH1 0x4 CALLDATASIZE LT PUSH2 0xC2 JUMPI PUSH1 0x0 CALLDATALOAD PUSH1 0xE0 SHR DUP1 PUSH4 0x91F90157 GT PUSH2 0x7F JUMPI DUP1 PUSH4 0xECFC7ECC GT PUSH2 0x59 JUMPI DUP1 PUSH4 0xECFC7ECC EQ PUSH2 0x248 JUMPI DUP1 PUSH4 0xF5B56C56 EQ PUSH2 0x252 JUMPI DUP1 PUSH4 0xF77282AB EQ PUSH2 0x27D JUMPI DUP1 PUSH4 0xFC8C3114 EQ PUSH2 0x294 JUMPI PUSH2 0xC2 JUMP JUMPDEST DUP1 PUSH4 0x91F90157 EQ PUSH2 0x1C7 JUMPI DUP1 PUSH4 0xC623674F EQ PUSH2 0x1F2 JUMPI DUP1 PUSH4 0xD5F84189 EQ PUSH2 0x21D JUMPI PUSH2 0xC2 JUMP JUMPDEST DUP1 PUSH4 0x83C6323 EQ PUSH2 0xC7 JUMPI DUP1 PUSH4 0x48CD4CB1 EQ PUSH2 0xF2 JUMPI DUP1 PUSH4 0x62EA82DB EQ PUSH2 0x11D JUMPI DUP1 PUSH4 0x7FB45099 EQ PUSH2 0x15A JUMPI DUP1 PUSH4 0x8DA5CB5B EQ PUSH2 0x185 JUMPI DUP1 PUSH4 0x8FA8B790 EQ PUSH2 0x1B0 JUMPI JUMPDEST PUSH1 0x0 DUP1 REVERT JUMPDEST CALLVALUE DUP1 ISZERO PUSH2 0xD3 JUMPI PUSH1 0x0 DUP1 REVERT JUMPDEST POP PUSH2 0xDC PUSH2 0x2AB JUMP JUMPDEST PUSH1 0x40 MLOAD PUSH2 0xE9 SWAP2 SWAP1 PUSH2 0xD25 JUMP JUMPDEST PUSH1 0x40 MLOAD DUP1 SWAP2 SUB SWAP1 RETURN JUMPDEST CALLVALUE DUP1 ISZERO PUSH2 0xFE JUMPI PUSH1 0x0 DUP1 REVERT JUMPDEST POP PUSH2 0x107 PUSH2 0x2B1 JUMP JUMPDEST PUSH1 0x40 MLOAD PUSH2 0x114 SWAP2 SWAP1 PUSH2 0xD25 JUMP JUMPDEST PUSH1 0x40 MLOAD DUP1 SWAP2 SUB SWAP1 RETURN JUMPDEST CALLVALUE DUP1 ISZERO PUSH2 0x129 JUMPI PUSH1 0x0 DUP1 REVERT JUMPDEST POP PUSH2 0x144 PUSH1 0x4 DUP1 CALLDATASIZE SUB DUP2 ADD SWAP1 PUSH2 0x13F SWAP2 SWAP1 PUSH2 0xBCD JUMP JUMPDEST PUSH2 0x2B7 JUMP JUMPDEST PUSH1 0x40 MLOAD PUSH2 0x151 SWAP2 SWAP1 PUSH2 0xD25 JUMP JUMPDEST PUSH1 0x40 MLOAD DUP1 SWAP2 SUB SWAP1 RETURN JUMPDEST CALLVALUE DUP1 ISZERO PUSH2 0x166 JUMPI PUSH1 0x0 DUP1 REVERT JUMPDEST POP PUSH2 0x16F PUSH2 0x2CF JUMP JUMPDEST PUSH1 0x40 MLOAD PUSH2 0x17C SWAP2 SWAP1 PUSH2 0xCC8 JUMP JUMPDEST PUSH1 0x40 MLOAD DUP1 SWAP2 SUB SWAP1 RETURN JUMPDEST CALLVALUE DUP1 ISZERO PUSH2 0x191 JUMPI PUSH1 0x0 DUP1 REVERT JUMPDEST POP PUSH2 0x19A PUSH2 0x2E2 JUMP JUMPDEST PUSH1 0x40 MLOAD PUSH2 0x1A7 SWAP2 SWAP1 PUSH2 0xC92 JUMP JUMPDEST PUSH1 0x40 MLOAD DUP1 SWAP2 SUB SWAP1 RETURN JUMPDEST CALLVALUE DUP1 ISZERO PUSH2 0x1BC JUMPI PUSH1 0x0 DUP1 REVERT JUMPDEST POP PUSH2 0x1C5 PUSH2 0x306 JUMP JUMPDEST STOP JUMPDEST CALLVALUE DUP1 ISZERO PUSH2 0x1D3 JUMPI PUSH1 0x0 DUP1 REVERT JUMPDEST POP PUSH2 0x1DC PUSH2 0x38B JUMP JUMPDEST PUSH1 0x40 MLOAD PUSH2 0x1E9 SWAP2 SWAP1 PUSH2 0xCAD JUMP JUMPDEST PUSH1 0x40 MLOAD DUP1 SWAP2 SUB SWAP1 RETURN JUMPDEST CALLVALUE DUP1 ISZERO PUSH2 0x1FE JUMPI PUSH1 0x0 DUP1 REVERT JUMPDEST POP PUSH2 0x207 PUSH2 0x3B1 JUMP JUMPDEST PUSH1 0x40 MLOAD PUSH2 0x214 SWAP2 SWAP1 PUSH2 0xCE3 JUMP JUMPDEST PUSH1 0x40 MLOAD DUP1 SWAP2 SUB SWAP1 RETURN JUMPDEST CALLVALUE DUP1 ISZERO PUSH2 0x229 JUMPI PUSH1 0x0 DUP1 REVERT JUMPDEST POP PUSH2 0x232 PUSH2 0x43F JUMP JUMPDEST PUSH1 0x40 MLOAD PUSH2 0x23F SWAP2 SWAP1 PUSH2 0xD25 JUMP JUMPDEST PUSH1 0x40 MLOAD DUP1 SWAP2 SUB SWAP1 RETURN JUMPDEST PUSH2 0x250 PUSH2 0x445 JUMP JUMPDEST STOP JUMPDEST CALLVALUE DUP1 ISZERO PUSH2 0x25E JUMPI PUSH1 0x0 DUP1 REVERT JUMPDEST POP PUSH2 0x267 PUSH2 0x791 JUMP JUMPDEST PUSH1 0x40 MLOAD PUSH2 0x274 SWAP2 SWAP1 PUSH2 0xD25 JUMP JUMPDEST PUSH1 0x40 MLOAD DUP1 SWAP2 SUB SWAP1 RETURN JUMPDEST CALLVALUE DUP1 ISZERO PUSH2 0x289 JUMPI PUSH1 0x0 DUP1 REVERT JUMPDEST POP PUSH2 0x292 PUSH2 0x797 JUMP JUMPDEST STOP JUMPDEST CALLVALUE DUP1 ISZERO PUSH2 0x2A0 JUMPI PUSH1 0x0 DUP1 REVERT JUMPDEST POP PUSH2 0x2A9 PUSH2 0xAA9 JUMP JUMPDEST STOP JUMPDEST PUSH1 0x2 SLOAD DUP2 JUMP JUMPDEST PUSH1 0x1 SLOAD DUP2 JUMP JUMPDEST PUSH1 0x8 PUSH1 0x20 MSTORE DUP1 PUSH1 0x0 MSTORE PUSH1 0x40 PUSH1 0x0 KECCAK256 PUSH1 0x0 SWAP2 POP SWAP1 POP SLOAD DUP2 JUMP JUMPDEST PUSH1 0x5 PUSH1 0x0 SWAP1 SLOAD SWAP1 PUSH2 0x100 EXP SWAP1 DIV PUSH1 0xFF AND DUP2 JUMP JUMPDEST PUSH1 0x0 DUP1 SLOAD SWAP1 PUSH2 0x100 EXP SWAP1 DIV PUSH20 0xFFFFFFFFFFFFFFFFFFFFFFFFFFFFFFFFFFFFFFFF AND DUP2 JUMP JUMPDEST PUSH1 0x0 DUP1 SLOAD SWAP1 PUSH2 0x100 EXP SWAP1 DIV PUSH20 0xFFFFFFFFFFFFFFFFFFFFFFFFFFFFFFFFFFFFFFFF AND PUSH20 0xFFFFFFFFFFFFFFFFFFFFFFFFFFFFFFFFFFFFFFFF AND CALLER PUSH20 0xFFFFFFFFFFFFFFFFFFFFFFFFFFFFFFFFFFFFFFFF AND EQ PUSH2 0x35E JUMPI PUSH1 0x0 DUP1 REVERT JUMPDEST PUSH1 0x3 PUSH1 0x5 PUSH1 0x0 PUSH2 0x100 EXP DUP2 SLOAD DUP2 PUSH1 0xFF MUL NOT AND SWAP1 DUP4 PUSH1 0x3 DUP2 GT ISZERO PUSH2 0x384 JUMPI PUSH2 0x383 PUSH2 0xEED JUMP JUMPDEST JUMPDEST MUL OR SWAP1 SSTORE POP JUMP JUMPDEST PUSH1 0x7 PUSH1 0x0 SWAP1 SLOAD SWAP1 PUSH2 0x100 EXP SWAP1 DIV PUSH20 0xFFFFFFFFFFFFFFFFFFFFFFFFFFFFFFFFFFFFFFFF AND DUP2 JUMP JUMPDEST PUSH1 0x4 DUP1 SLOAD PUSH2 0x3BE SWAP1 PUSH2 0xE8C JUMP JUMPDEST DUP1 PUSH1 0x1F ADD PUSH1 0x20 DUP1 SWAP2 DIV MUL PUSH1 0x20 ADD PUSH1 0x40 MLOAD SWAP1 DUP2 ADD PUSH1 0x40 MSTORE DUP1 SWAP3 SWAP2 SWAP1 DUP2 DUP2 MSTORE PUSH1 0x20 ADD DUP3 DUP1 SLOAD PUSH2 0x3EA SWAP1 PUSH2 0xE8C JUMP JUMPDEST DUP1 ISZERO PUSH2 0x437 JUMPI DUP1 PUSH1 0x1F LT PUSH2 0x40C JUMPI PUSH2 0x100 DUP1 DUP4 SLOAD DIV MUL DUP4 MSTORE SWAP2 PUSH1 0x20 ADD SWAP2 PUSH2 0x437 JUMP JUMPDEST DUP3 ADD SWAP2 SWAP1 PUSH1 0x0 MSTORE PUSH1 0x20 PUSH1 0x0 KECCAK256 SWAP1 JUMPDEST DUP2 SLOAD DUP2 MSTORE SWAP1 PUSH1 0x1 ADD SWAP1 PUSH1 0x20 ADD DUP1 DUP4 GT PUSH2 0x41A JUMPI DUP3 SWAP1 SUB PUSH1 0x1F AND DUP3 ADD SWAP2 JUMPDEST POP POP POP POP POP DUP2 JUMP JUMPDEST PUSH1 0x3 SLOAD DUP2 JUMP JUMPDEST PUSH1 0x0 DUP1 SLOAD SWAP1 PUSH2 0x100 EXP SWAP1 DIV PUSH20 0xFFFFFFFFFFFFFFFFFFFFFFFFFFFFFFFFFFFFFFFF AND PUSH20 0xFFFFFFFFFFFFFFFFFFFFFFFFFFFFFFFFFFFFFFFF AND CALLER PUSH20 0xFFFFFFFFFFFFFFFFFFFFFFFFFFFFFFFFFFFFFFFF AND EQ ISZERO PUSH2 0x49E JUMPI PUSH1 0x0 DUP1 REVERT JUMPDEST PUSH1 0x1 SLOAD NUMBER LT ISZERO PUSH2 0x4AD JUMPI PUSH1 0x0 DUP1 REVERT JUMPDEST PUSH1 0x2 SLOAD NUMBER GT ISZERO PUSH2 0x4BC JUMPI PUSH1 0x0 DUP1 REVERT JUMPDEST PUSH1 0x1 PUSH1 0x3 DUP2 GT ISZERO PUSH2 0x4D0 JUMPI PUSH2 0x4CF PUSH2 0xEED JUMP JUMPDEST JUMPDEST PUSH1 0x5 PUSH1 0x0 SWAP1 SLOAD SWAP1 PUSH2 0x100 EXP SWAP1 DIV PUSH1 0xFF AND PUSH1 0x3 DUP2 GT ISZERO PUSH2 0x4F2 JUMPI PUSH2 0x4F1 PUSH2 0xEED JUMP JUMPDEST JUMPDEST EQ PUSH2 0x532 JUMPI PUSH1 0x40 MLOAD PUSH32 0x8C379A000000000000000000000000000000000000000000000000000000000 DUP2 MSTORE PUSH1 0x4 ADD PUSH2 0x529 SWAP1 PUSH2 0xD05 JUMP JUMPDEST PUSH1 0x40 MLOAD DUP1 SWAP2 SUB SWAP1 REVERT JUMPDEST PUSH1 0x3 SLOAD CALLVALUE LT ISZERO PUSH2 0x541 JUMPI PUSH1 0x0 DUP1 REVERT JUMPDEST PUSH1 0x0 CALLVALUE PUSH1 0x8 PUSH1 0x0 CALLER PUSH20 0xFFFFFFFFFFFFFFFFFFFFFFFFFFFFFFFFFFFFFFFF AND PUSH20 0xFFFFFFFFFFFFFFFFFFFFFFFFFFFFFFFFFFFFFFFF AND DUP2 MSTORE PUSH1 0x20 ADD SWAP1 DUP2 MSTORE PUSH1 0x20 ADD PUSH1 0x0 KECCAK256 SLOAD PUSH2 0x58E SWAP2 SWAP1 PUSH2 0xD5C JUMP JUMPDEST SWAP1 POP PUSH1 0x6 SLOAD DUP2 LT ISZERO PUSH2 0x59F JUMPI PUSH1 0x0 DUP1 REVERT JUMPDEST DUP1 PUSH1 0x8 PUSH1 0x0 CALLER PUSH20 0xFFFFFFFFFFFFFFFFFFFFFFFFFFFFFFFFFFFFFFFF AND PUSH20 0xFFFFFFFFFFFFFFFFFFFFFFFFFFFFFFFFFFFFFFFF AND DUP2 MSTORE PUSH1 0x20 ADD SWAP1 DUP2 MSTORE PUSH1 0x20 ADD PUSH1 0x0 KECCAK256 DUP2 SWAP1 SSTORE POP PUSH1 0x8 PUSH1 0x0 PUSH1 0x7 PUSH1 0x0 SWAP1 SLOAD SWAP1 PUSH2 0x100 EXP SWAP1 DIV PUSH20 0xFFFFFFFFFFFFFFFFFFFFFFFFFFFFFFFFFFFFFFFF AND PUSH20 0xFFFFFFFFFFFFFFFFFFFFFFFFFFFFFFFFFFFFFFFF AND PUSH20 0xFFFFFFFFFFFFFFFFFFFFFFFFFFFFFFFFFFFFFFFF AND DUP2 MSTORE PUSH1 0x20 ADD SWAP1 DUP2 MSTORE PUSH1 0x20 ADD PUSH1 0x0 KECCAK256 SLOAD DUP2 GT PUSH2 0x6CE JUMPI PUSH2 0x6C3 PUSH1 0x9 SLOAD DUP3 PUSH2 0x65C SWAP2 SWAP1 PUSH2 0xD5C JUMP JUMPDEST PUSH1 0x8 PUSH1 0x0 PUSH1 0x7 PUSH1 0x0 SWAP1 SLOAD SWAP1 PUSH2 0x100 EXP SWAP1 DIV PUSH20 0xFFFFFFFFFFFFFFFFFFFFFFFFFFFFFFFFFFFFFFFF AND PUSH20 0xFFFFFFFFFFFFFFFFFFFFFFFFFFFFFFFFFFFFFFFF AND PUSH20 0xFFFFFFFFFFFFFFFFFFFFFFFFFFFFFFFFFFFFFFFF AND DUP2 MSTORE PUSH1 0x20 ADD SWAP1 DUP2 MSTORE PUSH1 0x20 ADD PUSH1 0x0 KECCAK256 SLOAD PUSH2 0xB44 JUMP JUMPDEST PUSH1 0x6 DUP2 SWAP1 SSTORE POP PUSH2 0x78E JUMP JUMPDEST PUSH2 0x746 DUP2 PUSH1 0x9 SLOAD PUSH1 0x8 PUSH1 0x0 PUSH1 0x7 PUSH1 0x0 SWAP1 SLOAD SWAP1 PUSH2 0x100 EXP SWAP1 DIV PUSH20 0xFFFFFFFFFFFFFFFFFFFFFFFFFFFFFFFFFFFFFFFF AND PUSH20 0xFFFFFFFFFFFFFFFFFFFFFFFFFFFFFFFFFFFFFFFF AND PUSH20 0xFFFFFFFFFFFFFFFFFFFFFFFFFFFFFFFFFFFFFFFF AND DUP2 MSTORE PUSH1 0x20 ADD SWAP1 DUP2 MSTORE PUSH1 0x20 ADD PUSH1 0x0 KECCAK256 SLOAD PUSH2 0x741 SWAP2 SWAP1 PUSH2 0xD5C JUMP JUMPDEST PUSH2 0xB44 JUMP JUMPDEST PUSH1 0x6 DUP2 SWAP1 SSTORE POP CALLER PUSH1 0x7 PUSH1 0x0 PUSH2 0x100 EXP DUP2 SLOAD DUP2 PUSH20 0xFFFFFFFFFFFFFFFFFFFFFFFFFFFFFFFFFFFFFFFF MUL NOT AND SWAP1 DUP4 PUSH20 0xFFFFFFFFFFFFFFFFFFFFFFFFFFFFFFFFFFFFFFFF AND MUL OR SWAP1 SSTORE POP JUMPDEST POP JUMP JUMPDEST PUSH1 0x6 SLOAD DUP2 JUMP JUMPDEST PUSH1 0x3 DUP1 DUP2 GT ISZERO PUSH2 0x7AA JUMPI PUSH2 0x7A9 PUSH2 0xEED JUMP JUMPDEST JUMPDEST PUSH1 0x5 PUSH1 0x0 SWAP1 SLOAD SWAP1 PUSH2 0x100 EXP SWAP1 DIV PUSH1 0xFF AND PUSH1 0x3 DUP2 GT ISZERO PUSH2 0x7CC JUMPI PUSH2 0x7CB PUSH2 0xEED JUMP JUMPDEST JUMPDEST EQ DUP1 PUSH2 0x7DA JUMPI POP PUSH1 0x2 SLOAD NUMBER LT ISZERO JUMPDEST PUSH2 0x7E3 JUMPI PUSH1 0x0 DUP1 REVERT JUMPDEST PUSH2 0x7EC CALLER PUSH2 0xB5F JUMP JUMPDEST DUP1 PUSH2 0x836 JUMPI POP PUSH1 0x0 PUSH1 0x8 PUSH1 0x0 CALLER PUSH20 0xFFFFFFFFFFFFFFFFFFFFFFFFFFFFFFFFFFFFFFFF AND PUSH20 0xFFFFFFFFFFFFFFFFFFFFFFFFFFFFFFFFFFFFFFFF AND DUP2 MSTORE PUSH1 0x20 ADD SWAP1 DUP2 MSTORE PUSH1 0x20 ADD PUSH1 0x0 KECCAK256 SLOAD GT JUMPDEST PUSH2 0x83F JUMPI PUSH1 0x0 DUP1 REVERT JUMPDEST PUSH1 0x0 DUP1 PUSH1 0x3 DUP1 DUP2 GT ISZERO PUSH2 0x855 JUMPI PUSH2 0x854 PUSH2 0xEED JUMP JUMPDEST JUMPDEST PUSH1 0x5 PUSH1 0x0 SWAP1 SLOAD SWAP1 PUSH2 0x100 EXP SWAP1 DIV PUSH1 0xFF AND PUSH1 0x3 DUP2 GT ISZERO PUSH2 0x877 JUMPI PUSH2 0x876 PUSH2 0xEED JUMP JUMPDEST JUMPDEST EQ ISZERO PUSH2 0x8C7 JUMPI CALLER SWAP2 POP PUSH1 0x8 PUSH1 0x0 CALLER PUSH20 0xFFFFFFFFFFFFFFFFFFFFFFFFFFFFFFFFFFFFFFFF AND PUSH20 0xFFFFFFFFFFFFFFFFFFFFFFFFFFFFFFFFFFFFFFFF AND DUP2 MSTORE PUSH1 0x20 ADD SWAP1 DUP2 MSTORE PUSH1 0x20 ADD PUSH1 0x0 KECCAK256 SLOAD SWAP1 POP PUSH2 0xA19 JUMP JUMPDEST PUSH2 0x8D0 CALLER PUSH2 0xB5F JUMP JUMPDEST ISZERO PUSH2 0x902 JUMPI PUSH1 0x0 DUP1 SLOAD SWAP1 PUSH2 0x100 EXP SWAP1 DIV PUSH20 0xFFFFFFFFFFFFFFFFFFFFFFFFFFFFFFFFFFFFFFFF AND SWAP2 POP PUSH1 0x6 SLOAD SWAP1 POP PUSH2 0xA18 JUMP JUMPDEST PUSH1 0x7 PUSH1 0x0 SWAP1 SLOAD SWAP1 PUSH2 0x100 EXP SWAP1 DIV PUSH20 0xFFFFFFFFFFFFFFFFFFFFFFFFFFFFFFFFFFFFFFFF AND PUSH20 0xFFFFFFFFFFFFFFFFFFFFFFFFFFFFFFFFFFFFFFFF AND CALLER PUSH20 0xFFFFFFFFFFFFFFFFFFFFFFFFFFFFFFFFFFFFFFFF AND EQ ISZERO PUSH2 0x9D1 JUMPI PUSH1 0x7 PUSH1 0x0 SWAP1 SLOAD SWAP1 PUSH2 0x100 EXP SWAP1 DIV PUSH20 0xFFFFFFFFFFFFFFFFFFFFFFFFFFFFFFFFFFFFFFFF AND SWAP2 POP PUSH1 0x6 SLOAD PUSH1 0x8 PUSH1 0x0 CALLER PUSH20 0xFFFFFFFFFFFFFFFFFFFFFFFFFFFFFFFFFFFFFFFF AND PUSH20 0xFFFFFFFFFFFFFFFFFFFFFFFFFFFFFFFFFFFFFFFF AND DUP2 MSTORE PUSH1 0x20 ADD SWAP1 DUP2 MSTORE PUSH1 0x20 ADD PUSH1 0x0 KECCAK256 SLOAD PUSH2 0x9CA SWAP2 SWAP1 PUSH2 0xDB2 JUMP JUMPDEST SWAP1 POP PUSH2 0xA17 JUMP JUMPDEST CALLER SWAP2 POP PUSH1 0x8 PUSH1 0x0 CALLER PUSH20 0xFFFFFFFFFFFFFFFFFFFFFFFFFFFFFFFFFFFFFFFF AND PUSH20 0xFFFFFFFFFFFFFFFFFFFFFFFFFFFFFFFFFFFFFFFF AND DUP2 MSTORE PUSH1 0x20 ADD SWAP1 DUP2 MSTORE PUSH1 0x20 ADD PUSH1 0x0 KECCAK256 SLOAD SWAP1 POP JUMPDEST JUMPDEST JUMPDEST PUSH1 0x0 PUSH1 0x8 PUSH1 0x0 DUP5 PUSH20 0xFFFFFFFFFFFFFFFFFFFFFFFFFFFFFFFFFFFFFFFF AND PUSH20 0xFFFFFFFFFFFFFFFFFFFFFFFFFFFFFFFFFFFFFFFF AND DUP2 MSTORE PUSH1 0x20 ADD SWAP1 DUP2 MSTORE PUSH1 0x20 ADD PUSH1 0x0 KECCAK256 DUP2 SWAP1 SSTORE POP DUP2 PUSH20 0xFFFFFFFFFFFFFFFFFFFFFFFFFFFFFFFFFFFFFFFF AND PUSH2 0x8FC DUP3 SWAP1 DUP2 ISZERO MUL SWAP1 PUSH1 0x40 MLOAD PUSH1 0x0 PUSH1 0x40 MLOAD DUP1 DUP4 SUB DUP2 DUP6 DUP9 DUP9 CALL SWAP4 POP POP POP POP ISZERO DUP1 ISZERO PUSH2 0xAA4 JUMPI RETURNDATASIZE PUSH1 0x0 DUP1 RETURNDATACOPY RETURNDATASIZE PUSH1 0x0 REVERT JUMPDEST POP POP POP JUMP JUMPDEST PUSH1 0x0 DUP1 SLOAD SWAP1 PUSH2 0x100 EXP SWAP1 DIV PUSH20 0xFFFFFFFFFFFFFFFFFFFFFFFFFFFFFFFFFFFFFFFF AND PUSH20 0xFFFFFFFFFFFFFFFFFFFFFFFFFFFFFFFFFFFFFFFF AND CALLER PUSH20 0xFFFFFFFFFFFFFFFFFFFFFFFFFFFFFFFFFFFFFFFF AND EQ PUSH2 0xB01 JUMPI PUSH1 0x0 DUP1 REVERT JUMPDEST PUSH1 0x1 PUSH1 0x3 DUP2 GT ISZERO PUSH2 0xB15 JUMPI PUSH2 0xB14 PUSH2 0xEED JUMP JUMPDEST JUMPDEST PUSH1 0x5 PUSH1 0x0 SWAP1 SLOAD SWAP1 PUSH2 0x100 EXP SWAP1 DIV PUSH1 0xFF AND PUSH1 0x3 DUP2 GT ISZERO PUSH2 0xB37 JUMPI PUSH2 0xB36 PUSH2 0xEED JUMP JUMPDEST JUMPDEST EQ ISZERO PUSH2 0xB42 JUMPI PUSH1 0x0 DUP1 REVERT JUMPDEST JUMP JUMPDEST PUSH1 0x0 DUP2 DUP4 GT PUSH2 0xB55 JUMPI DUP3 SWAP1 POP PUSH2 0xB59 JUMP JUMPDEST DUP2 SWAP1 POP JUMPDEST SWAP3 SWAP2 POP POP JUMP JUMPDEST PUSH1 0x0 DUP1 PUSH1 0x0 SWAP1 SLOAD SWAP1 PUSH2 0x100 EXP SWAP1 DIV PUSH20 0xFFFFFFFFFFFFFFFFFFFFFFFFFFFFFFFFFFFFFFFF AND PUSH20 0xFFFFFFFFFFFFFFFFFFFFFFFFFFFFFFFFFFFFFFFF AND DUP3 PUSH20 0xFFFFFFFFFFFFFFFFFFFFFFFFFFFFFFFFFFFFFFFF AND EQ SWAP1 POP SWAP2 SWAP1 POP JUMP JUMPDEST PUSH1 0x0 DUP2 CALLDATALOAD SWAP1 POP PUSH2 0xBC7 DUP2 PUSH2 0xFC4 JUMP JUMPDEST SWAP3 SWAP2 POP POP JUMP JUMPDEST PUSH1 0x0 PUSH1 0x20 DUP3 DUP5 SUB SLT ISZERO PUSH2 0xBE3 JUMPI PUSH2 0xBE2 PUSH2 0xF4B JUMP JUMPDEST JUMPDEST PUSH1 0x0 PUSH2 0xBF1 DUP5 DUP3 DUP6 ADD PUSH2 0xBB8 JUMP JUMPDEST SWAP2 POP POP SWAP3 SWAP2 POP POP JUMP JUMPDEST PUSH2 0xC03 DUP2 PUSH2 0xDF8 JUMP JUMPDEST DUP3 MSTORE POP POP JUMP JUMPDEST PUSH2 0xC12 DUP2 PUSH2 0xDE6 JUMP JUMPDEST DUP3 MSTORE POP POP JUMP JUMPDEST PUSH2 0xC21 DUP2 PUSH2 0xE47 JUMP JUMPDEST DUP3 MSTORE POP POP JUMP JUMPDEST PUSH1 0x0 PUSH2 0xC32 DUP3 PUSH2 0xD40 JUMP JUMPDEST PUSH2 0xC3C DUP2 DUP6 PUSH2 0xD4B JUMP JUMPDEST SWAP4 POP PUSH2 0xC4C DUP2 DUP6 PUSH1 0x20 DUP7 ADD PUSH2 0xE59 JUMP JUMPDEST PUSH2 0xC55 DUP2 PUSH2 0xF50 JUMP JUMPDEST DUP5 ADD SWAP2 POP POP SWAP3 SWAP2 POP POP JUMP JUMPDEST PUSH1 0x0 PUSH2 0xC6D PUSH1 0x23 DUP4 PUSH2 0xD4B JUMP JUMPDEST SWAP2 POP PUSH2 0xC78 DUP3 PUSH2 0xF61 JUMP JUMPDEST PUSH1 0x40 DUP3 ADD SWAP1 POP SWAP2 SWAP1 POP JUMP JUMPDEST PUSH2 0xC8C DUP2 PUSH2 0xE3D JUMP JUMPDEST DUP3 MSTORE POP POP JUMP JUMPDEST PUSH1 0x0 PUSH1 0x20 DUP3 ADD SWAP1 POP PUSH2 0xCA7 PUSH1 0x0 DUP4 ADD DUP5 PUSH2 0xC09 JUMP JUMPDEST SWAP3 SWAP2 POP POP JUMP JUMPDEST PUSH1 0x0 PUSH1 0x20 DUP3 ADD SWAP1 POP PUSH2 0xCC2 PUSH1 0x0 DUP4 ADD DUP5 PUSH2 0xBFA JUMP JUMPDEST SWAP3 SWAP2 POP POP JUMP JUMPDEST PUSH1 0x0 PUSH1 0x20 DUP3 ADD SWAP1 POP PUSH2 0xCDD PUSH1 0x0 DUP4 ADD DUP5 PUSH2 0xC18 JUMP JUMPDEST SWAP3 SWAP2 POP POP JUMP JUMPDEST PUSH1 0x0 PUSH1 0x20 DUP3 ADD SWAP1 POP DUP2 DUP2 SUB PUSH1 0x0 DUP4 ADD MSTORE PUSH2 0xCFD DUP2 DUP5 PUSH2 0xC27 JUMP JUMPDEST SWAP1 POP SWAP3 SWAP2 POP POP JUMP JUMPDEST PUSH1 0x0 PUSH1 0x20 DUP3 ADD SWAP1 POP DUP2 DUP2 SUB PUSH1 0x0 DUP4 ADD MSTORE PUSH2 0xD1E DUP2 PUSH2 0xC60 JUMP JUMPDEST SWAP1 POP SWAP2 SWAP1 POP JUMP JUMPDEST PUSH1 0x0 PUSH1 0x20 DUP3 ADD SWAP1 POP PUSH2 0xD3A PUSH1 0x0 DUP4 ADD DUP5 PUSH2 0xC83 JUMP JUMPDEST SWAP3 SWAP2 POP POP JUMP JUMPDEST PUSH1 0x0 DUP2 MLOAD SWAP1 POP SWAP2 SWAP1 POP JUMP JUMPDEST PUSH1 0x0 DUP3 DUP3 MSTORE PUSH1 0x20 DUP3 ADD SWAP1 POP SWAP3 SWAP2 POP POP JUMP JUMPDEST PUSH1 0x0 PUSH2 0xD67 DUP3 PUSH2 0xE3D JUMP JUMPDEST SWAP2 POP PUSH2 0xD72 DUP4 PUSH2 0xE3D JUMP JUMPDEST SWAP3 POP DUP3 PUSH32 0xFFFFFFFFFFFFFFFFFFFFFFFFFFFFFFFFFFFFFFFFFFFFFFFFFFFFFFFFFFFFFFFF SUB DUP3 GT ISZERO PUSH2 0xDA7 JUMPI PUSH2 0xDA6 PUSH2 0xEBE JUMP JUMPDEST JUMPDEST DUP3 DUP3 ADD SWAP1 POP SWAP3 SWAP2 POP POP JUMP JUMPDEST PUSH1 0x0 PUSH2 0xDBD DUP3 PUSH2 0xE3D JUMP JUMPDEST SWAP2 POP PUSH2 0xDC8 DUP4 PUSH2 0xE3D JUMP JUMPDEST SWAP3 POP DUP3 DUP3 LT ISZERO PUSH2 0xDDB JUMPI PUSH2 0xDDA PUSH2 0xEBE JUMP JUMPDEST JUMPDEST DUP3 DUP3 SUB SWAP1 POP SWAP3 SWAP2 POP POP JUMP JUMPDEST PUSH1 0x0 PUSH2 0xDF1 DUP3 PUSH2 0xE1D JUMP JUMPDEST SWAP1 POP SWAP2 SWAP1 POP JUMP JUMPDEST PUSH1 0x0 PUSH2 0xE03 DUP3 PUSH2 0xE1D JUMP JUMPDEST SWAP1 POP SWAP2 SWAP1 POP JUMP JUMPDEST PUSH1 0x0 DUP2 SWAP1 POP PUSH2 0xE18 DUP3 PUSH2 0xFB0 JUMP JUMPDEST SWAP2 SWAP1 POP JUMP JUMPDEST PUSH1 0x0 PUSH20 0xFFFFFFFFFFFFFFFFFFFFFFFFFFFFFFFFFFFFFFFF DUP3 AND SWAP1 POP SWAP2 SWAP1 POP JUMP JUMPDEST PUSH1 0x0 DUP2 SWAP1 POP SWAP2 SWAP1 POP JUMP JUMPDEST PUSH1 0x0 PUSH2 0xE52 DUP3 PUSH2 0xE0A JUMP JUMPDEST SWAP1 POP SWAP2 SWAP1 POP JUMP JUMPDEST PUSH1 0x0 JUMPDEST DUP4 DUP2 LT ISZERO PUSH2 0xE77 JUMPI DUP1 DUP3 ADD MLOAD DUP2 DUP5 ADD MSTORE PUSH1 0x20 DUP2 ADD SWAP1 POP PUSH2 0xE5C JUMP JUMPDEST DUP4 DUP2 GT ISZERO PUSH2 0xE86 JUMPI PUSH1 0x0 DUP5 DUP5 ADD MSTORE JUMPDEST POP POP POP POP JUMP JUMPDEST PUSH1 0x0 PUSH1 0x2 DUP3 DIV SWAP1 POP PUSH1 0x1 DUP3 AND DUP1 PUSH2 0xEA4 JUMPI PUSH1 0x7F DUP3 AND SWAP2 POP JUMPDEST PUSH1 0x20 DUP3 LT DUP2 EQ ISZERO PUSH2 0xEB8 JUMPI PUSH2 0xEB7 PUSH2 0xF1C JUMP JUMPDEST JUMPDEST POP SWAP2 SWAP1 POP JUMP JUMPDEST PUSH32 0x4E487B7100000000000000000000000000000000000000000000000000000000 PUSH1 0x0 MSTORE PUSH1 0x11 PUSH1 0x4 MSTORE PUSH1 0x24 PUSH1 0x0 REVERT JUMPDEST PUSH32 0x4E487B7100000000000000000000000000000000000000000000000000000000 PUSH1 0x0 MSTORE PUSH1 0x21 PUSH1 0x4 MSTORE PUSH1 0x24 PUSH1 0x0 REVERT JUMPDEST PUSH32 0x4E487B7100000000000000000000000000000000000000000000000000000000 PUSH1 0x0 MSTORE PUSH1 0x22 PUSH1 0x4 MSTORE PUSH1 0x24 PUSH1 0x0 REVERT JUMPDEST PUSH1 0x0 DUP1 REVERT JUMPDEST PUSH1 0x0 PUSH1 0x1F NOT PUSH1 0x1F DUP4 ADD AND SWAP1 POP SWAP2 SWAP1 POP JUMP JUMPDEST PUSH32 0x506C65617365207761697420756E74696C207468652061756374696F6E207374 PUSH1 0x0 DUP3 ADD MSTORE PUSH32 0x6172740000000000000000000000000000000000000000000000000000000000 PUSH1 0x20 DUP3 ADD MSTORE POP JUMP JUMPDEST PUSH1 0x4 DUP2 LT PUSH2 0xFC1 JUMPI PUSH2 0xFC0 PUSH2 0xEED JUMP JUMPDEST JUMPDEST POP JUMP JUMPDEST PUSH2 0xFCD DUP2 PUSH2 0xDE6 JUMP JUMPDEST DUP2 EQ PUSH2 0xFD8 JUMPI PUSH1 0x0 DUP1 REVERT JUMPDEST POP JUMP INVALID LOG2 PUSH5 0x6970667358 0x22 SLT KECCAK256 0xC4 SWAP15 0xD0 EXP 0xB1 SDIV DUP4 0xB3 0xED 0x21 KECCAK256 0x4B PUSH8 0x75FEA21AB40226CD 0x4C PUSH5 0x6DCB2172D9 ADDRESS 0xDB 0xE8 PUSH1 0x64 PUSH20 0x6F6C634300080700330000000000000000000000 "
				},
				"gasEstimates": {
					"creation": {
						"codeDepositCost": "822600",
						"executionCost": "infinite",
						"totalCost": "infinite"
					},
					"external": {
						"MinimumBidValue()": "2496",
						"auctionState()": "2627",
						"bids(address)": "2859",
						"cancelAuction()": "26709",
						"endBlock()": "2430",
						"finalizeAuction()": "infinite",
						"highestBidder()": "2537",
						"highestBindingBid()": "2473",
						"ipfsHash()": "infinite",
						"owner()": "2600",
						"placeBid()": "infinite",
						"startBlock()": "2452",
						"startNewBid()": "4622"
					},
					"internal": {
						"isOwner(address)": "2182",
						"min(uint256,uint256)": "64"
					}
				},
				"methodIdentifiers": {
					"MinimumBidValue()": "d5f84189",
					"auctionState()": "7fb45099",
					"bids(address)": "62ea82db",
					"cancelAuction()": "8fa8b790",
					"endBlock()": "083c6323",
					"finalizeAuction()": "f77282ab",
					"highestBidder()": "91f90157",
					"highestBindingBid()": "f5b56c56",
					"ipfsHash()": "c623674f",
					"owner()": "8da5cb5b",
					"placeBid()": "ecfc7ecc",
					"startBlock()": "48cd4cb1",
					"startNewBid()": "fc8c3114"
				}
			},
			"storageLayout": {
				"storage": [
					{
						"astId": 3,
						"contract": "SmartContract-Auction/Auction.sol:Auction",
						"label": "owner",
						"offset": 0,
						"slot": "0",
						"type": "t_address"
					},
					{
						"astId": 5,
						"contract": "SmartContract-Auction/Auction.sol:Auction",
						"label": "startBlock",
						"offset": 0,
						"slot": "1",
						"type": "t_uint256"
					},
					{
						"astId": 7,
						"contract": "SmartContract-Auction/Auction.sol:Auction",
						"label": "endBlock",
						"offset": 0,
						"slot": "2",
						"type": "t_uint256"
					},
					{
						"astId": 9,
						"contract": "SmartContract-Auction/Auction.sol:Auction",
						"label": "MinimumBidValue",
						"offset": 0,
						"slot": "3",
						"type": "t_uint256"
					},
					{
						"astId": 11,
						"contract": "SmartContract-Auction/Auction.sol:Auction",
						"label": "ipfsHash",
						"offset": 0,
						"slot": "4",
						"type": "t_string_storage"
					},
					{
						"astId": 19,
						"contract": "SmartContract-Auction/Auction.sol:Auction",
						"label": "auctionState",
						"offset": 0,
						"slot": "5",
						"type": "t_enum(State)16"
					},
					{
						"astId": 21,
						"contract": "SmartContract-Auction/Auction.sol:Auction",
						"label": "highestBindingBid",
						"offset": 0,
						"slot": "6",
						"type": "t_uint256"
					},
					{
						"astId": 23,
						"contract": "SmartContract-Auction/Auction.sol:Auction",
						"label": "highestBidder",
						"offset": 0,
						"slot": "7",
						"type": "t_address_payable"
					},
					{
						"astId": 27,
						"contract": "SmartContract-Auction/Auction.sol:Auction",
						"label": "bids",
						"offset": 0,
						"slot": "8",
						"type": "t_mapping(t_address,t_uint256)"
					},
					{
						"astId": 29,
						"contract": "SmartContract-Auction/Auction.sol:Auction",
						"label": "bidIncrement",
						"offset": 0,
						"slot": "9",
						"type": "t_uint256"
					}
				],
				"types": {
					"t_address": {
						"encoding": "inplace",
						"label": "address",
						"numberOfBytes": "20"
					},
					"t_address_payable": {
						"encoding": "inplace",
						"label": "address payable",
						"numberOfBytes": "20"
					},
					"t_enum(State)16": {
						"encoding": "inplace",
						"label": "enum Auction.State",
						"numberOfBytes": "1"
					},
					"t_mapping(t_address,t_uint256)": {
						"encoding": "mapping",
						"key": "t_address",
						"label": "mapping(address => uint256)",
						"numberOfBytes": "32",
						"value": "t_uint256"
					},
					"t_string_storage": {
						"encoding": "bytes",
						"label": "string",
						"numberOfBytes": "32"
					},
					"t_uint256": {
						"encoding": "inplace",
						"label": "uint256",
						"numberOfBytes": "32"
					}
				}
			},
			"userdoc": {
				"kind": "user",
				"methods": {},
				"version": 1
			}
		}
	}
}